{
  "contractName": "IpfsDeresyRequests",
  "abi": [
    {
      "inputs": [
        {
          "internalType": "string",
          "name": "_name",
          "type": "string"
        },
        {
          "internalType": "address[]",
          "name": "reviewers",
          "type": "address[]"
        },
        {
          "internalType": "string[]",
          "name": "targets",
          "type": "string[]"
        },
        {
          "internalType": "string",
          "name": "formIpfsHash",
          "type": "string"
        },
        {
          "internalType": "uint256",
          "name": "rewardPerReview",
          "type": "uint256"
        }
      ],
      "name": "createRequest",
      "outputs": [],
      "stateMutability": "payable",
      "type": "function"
    },
    {
      "inputs": [
        {
          "internalType": "string",
          "name": "_name",
          "type": "string"
        },
        {
          "internalType": "uint8",
          "name": "targetIndex",
          "type": "uint8"
        },
        {
          "internalType": "string",
          "name": "reviewIpfsHash",
          "type": "string"
        }
      ],
      "name": "submitReview",
      "outputs": [],
      "stateMutability": "nonpayable",
      "type": "function"
    },
    {
      "inputs": [
        {
          "internalType": "string",
          "name": "_name",
          "type": "string"
        }
      ],
      "name": "closeReviewRequest",
      "outputs": [],
      "stateMutability": "nonpayable",
      "type": "function"
    },
    {
      "inputs": [
        {
          "internalType": "string",
          "name": "_name",
          "type": "string"
        }
      ],
      "name": "getRequest",
      "outputs": [
        {
          "internalType": "address[]",
          "name": "reviewers",
          "type": "address[]"
        },
        {
          "internalType": "string[]",
          "name": "targets",
          "type": "string[]"
        },
        {
          "internalType": "string",
          "name": "formIpfsHash",
          "type": "string"
        },
        {
          "internalType": "uint256",
          "name": "rewardPerReview",
          "type": "uint256"
        },
        {
          "components": [
            {
              "internalType": "string",
              "name": "reviewIpfsHash",
              "type": "string"
            },
            {
              "internalType": "address",
              "name": "reviewer",
              "type": "address"
            },
            {
              "internalType": "uint8",
              "name": "targetIndex",
              "type": "uint8"
            }
          ],
          "internalType": "struct IpfsDeresyRequests.Review[]",
          "name": "reviews",
          "type": "tuple[]"
        }
      ],
      "stateMutability": "view",
      "type": "function"
    }
  ],
  "bytecode": "0x608060405234801561001057600080fd5b50611d77806100206000396000f3fe60806040526004361061003f5760003560e01c80634d0e503c1461004457806385b9241314610060578063be2761d0146100a1578063f1ba7072146100ca575b600080fd5b61005e600480360381019061005991906112a7565b6100f3565b005b34801561006c57600080fd5b5061008760048036038101906100829190611392565b6103a7565b60405161009895949392919061176a565b60405180910390f35b3480156100ad57600080fd5b506100c860048036038101906100c39190611392565b6107ae565b005b3480156100d657600080fd5b506100f160048036038101906100ec9190611805565b610a90565b005b6000845111610137576040517f08c379a000000000000000000000000000000000000000000000000000000000815260040161012e90611902565b60405180910390fd5b600083511161017b576040517f08c379a00000000000000000000000000000000000000000000000000000000081526004016101729061196e565b60405180910390fd5b600081116101be576040517f08c379a00000000000000000000000000000000000000000000000000000000081526004016101b590611a00565b60405180910390fd5b80835185516101cd9190611a4f565b6101d79190611a4f565b341015610219576040517f08c379a000000000000000000000000000000000000000000000000000000000815260040161021090611af5565b60405180910390fd5b3360008660405161022a9190611b51565b908152602001604051809103902060000160006101000a81548173ffffffffffffffffffffffffffffffffffffffff021916908373ffffffffffffffffffffffffffffffffffffffff1602179055508360008660405161028a9190611b51565b908152602001604051809103902060010190805190602001906102ae929190610d1f565b50826000866040516102c09190611b51565b908152602001604051809103902060020190805190602001906102e4929190610da9565b50816000866040516102f69190611b51565b9081526020016040518091039020600301908051906020019061031a929190610e09565b508060008660405161032c9190611b51565b908152602001604051809103902060040181905550600080866040516103529190611b51565b908152602001604051809103902060060160006101000a81548160ff0219169083151502179055503460008660405161038b9190611b51565b9081526020016040518091039020600701819055505050505050565b6060806060600060606000866040516103c09190611b51565b90815260200160405180910390206001016000876040516103e19190611b51565b90815260200160405180910390206002016000886040516104029190611b51565b90815260200160405180910390206003016000896040516104239190611b51565b90815260200160405180910390206004015460008a6040516104459190611b51565b9081526020016040518091039020600501848054806020026020016040519081016040528092919081815260200182805480156104d757602002820191906000526020600020905b8160009054906101000a900473ffffffffffffffffffffffffffffffffffffffff1673ffffffffffffffffffffffffffffffffffffffff168152602001906001019080831161048d575b5050505050945083805480602002602001604051908101604052809291908181526020016000905b828210156105ab57838290600052602060002001805461051e90611b97565b80601f016020809104026020016040519081016040528092919081815260200182805461054a90611b97565b80156105975780601f1061056c57610100808354040283529160200191610597565b820191906000526020600020905b81548152906001019060200180831161057a57829003601f168201915b5050505050815260200190600101906104ff565b5050505093508280546105bd90611b97565b80601f01602080910402602001604051908101604052809291908181526020018280546105e990611b97565b80156106365780601f1061060b57610100808354040283529160200191610636565b820191906000526020600020905b81548152906001019060200180831161061957829003601f168201915b5050505050925080805480602002602001604051908101604052809291908181526020016000905b82821015610795578382906000526020600020906002020160405180606001604052908160008201805461069190611b97565b80601f01602080910402602001604051908101604052809291908181526020018280546106bd90611b97565b801561070a5780601f106106df5761010080835404028352916020019161070a565b820191906000526020600020905b8154815290600101906020018083116106ed57829003601f168201915b505050505081526020016001820160009054906101000a900473ffffffffffffffffffffffffffffffffffffffff1673ffffffffffffffffffffffffffffffffffffffff1673ffffffffffffffffffffffffffffffffffffffff1681526020016001820160149054906101000a900460ff1660ff1660ff16815250508152602001906001019061065e565b5050505090509450945094509450945091939590929450565b6000816040516107be9190611b51565b908152602001604051809103902060000160009054906101000a900473ffffffffffffffffffffffffffffffffffffffff1673ffffffffffffffffffffffffffffffffffffffff163373ffffffffffffffffffffffffffffffffffffffff161461085d576040517f08c379a000000000000000000000000000000000000000000000000000000000815260040161085490611c15565b60405180910390fd5b600015156000826040516108719190611b51565b908152602001604051809103902060060160009054906101000a900460ff161515146108d2576040517f08c379a00000000000000000000000000000000000000000000000000000000081526004016108c990611c81565b60405180910390fd5b600115156000826040516108e69190611b51565b908152602001604051809103902060060160009054906101000a900460ff16151514806109455750600015156000826040516109229190611b51565b908152602001604051809103902060060160009054906101000a900460ff161515145b610984576040517f08c379a000000000000000000000000000000000000000000000000000000000815260040161097b90611ced565b60405180910390fd5b6000816040516109949190611b51565b908152602001604051809103902060000160009054906101000a900473ffffffffffffffffffffffffffffffffffffffff1673ffffffffffffffffffffffffffffffffffffffff166108fc6000836040516109ef9190611b51565b9081526020016040518091039020600701549081150290604051600060405180830381858888f19350505050158015610a2c573d6000803e3d6000fd5b506001600082604051610a3f9190611b51565b908152602001604051809103902060060160006101000a81548160ff02191690831515021790555060008082604051610a789190611b51565b90815260200160405180910390206007018190555050565b60001515600084604051610aa49190611b51565b908152602001604051809103902060060160009054906101000a900460ff16151514610b05576040517f08c379a0000000000000000000000000000000000000000000000000000000008152600401610afc90611c81565b60405180910390fd5b600083604051610b159190611b51565b908152602001604051809103902060040154600084604051610b379190611b51565b9081526020016040518091039020600701541015610b5457600080fd5b600083604051610b649190611b51565b908152602001604051809103902060050160405180606001604052808381526020013373ffffffffffffffffffffffffffffffffffffffff1681526020018460ff1681525090806001815401808255809150506001900390600052602060002090600202016000909190919091506000820151816000019080519060200190610bee929190610e09565b5060208201518160010160006101000a81548173ffffffffffffffffffffffffffffffffffffffff021916908373ffffffffffffffffffffffffffffffffffffffff16021790555060408201518160010160146101000a81548160ff021916908360ff1602179055505050600083604051610c699190611b51565b908152602001604051809103902060040154600084604051610c8b9190611b51565b90815260200160405180910390206007016000828254610cab9190611d0d565b925050819055503373ffffffffffffffffffffffffffffffffffffffff166108fc600085604051610cdc9190611b51565b9081526020016040518091039020600401549081150290604051600060405180830381858888f19350505050158015610d19573d6000803e3d6000fd5b50505050565b828054828255906000526020600020908101928215610d98579160200282015b82811115610d975782518260006101000a81548173ffffffffffffffffffffffffffffffffffffffff021916908373ffffffffffffffffffffffffffffffffffffffff16021790555091602001919060010190610d3f565b5b509050610da59190610e8f565b5090565b828054828255906000526020600020908101928215610df8579160200282015b82811115610df7578251829080519060200190610de7929190610e09565b5091602001919060010190610dc9565b5b509050610e059190610eac565b5090565b828054610e1590611b97565b90600052602060002090601f016020900481019282610e375760008555610e7e565b82601f10610e5057805160ff1916838001178555610e7e565b82800160010185558215610e7e579182015b82811115610e7d578251825591602001919060010190610e62565b5b509050610e8b9190610e8f565b5090565b5b80821115610ea8576000816000905550600101610e90565b5090565b5b80821115610ecc5760008181610ec39190610ed0565b50600101610ead565b5090565b508054610edc90611b97565b6000825580601f10610eee5750610f0d565b601f016020900490600052602060002090810190610f0c9190610e8f565b5b50565b6000604051905090565b600080fd5b600080fd5b600080fd5b600080fd5b6000601f19601f8301169050919050565b7f4e487b7100000000000000000000000000000000000000000000000000000000600052604160045260246000fd5b610f7782610f2e565b810181811067ffffffffffffffff82111715610f9657610f95610f3f565b5b80604052505050565b6000610fa9610f10565b9050610fb58282610f6e565b919050565b600067ffffffffffffffff821115610fd557610fd4610f3f565b5b610fde82610f2e565b9050602081019050919050565b82818337600083830152505050565b600061100d61100884610fba565b610f9f565b90508281526020810184848401111561102957611028610f29565b5b611034848285610feb565b509392505050565b600082601f83011261105157611050610f24565b5b8135611061848260208601610ffa565b91505092915050565b600067ffffffffffffffff82111561108557611084610f3f565b5b602082029050602081019050919050565b600080fd5b600073ffffffffffffffffffffffffffffffffffffffff82169050919050565b60006110c68261109b565b9050919050565b6110d6816110bb565b81146110e157600080fd5b50565b6000813590506110f3816110cd565b92915050565b600061110c6111078461106a565b610f9f565b9050808382526020820190506020840283018581111561112f5761112e611096565b5b835b81811015611158578061114488826110e4565b845260208401935050602081019050611131565b5050509392505050565b600082601f83011261117757611176610f24565b5b81356111878482602086016110f9565b91505092915050565b600067ffffffffffffffff8211156111ab576111aa610f3f565b5b602082029050602081019050919050565b60006111cf6111ca84611190565b610f9f565b905080838252602082019050602084028301858111156111f2576111f1611096565b5b835b8181101561123957803567ffffffffffffffff81111561121757611216610f24565b5b808601611224898261103c565b855260208501945050506020810190506111f4565b5050509392505050565b600082601f83011261125857611257610f24565b5b81356112688482602086016111bc565b91505092915050565b6000819050919050565b61128481611271565b811461128f57600080fd5b50565b6000813590506112a18161127b565b92915050565b600080600080600060a086880312156112c3576112c2610f1a565b5b600086013567ffffffffffffffff8111156112e1576112e0610f1f565b5b6112ed8882890161103c565b955050602086013567ffffffffffffffff81111561130e5761130d610f1f565b5b61131a88828901611162565b945050604086013567ffffffffffffffff81111561133b5761133a610f1f565b5b61134788828901611243565b935050606086013567ffffffffffffffff81111561136857611367610f1f565b5b6113748882890161103c565b925050608061138588828901611292565b9150509295509295909350565b6000602082840312156113a8576113a7610f1a565b5b600082013567ffffffffffffffff8111156113c6576113c5610f1f565b5b6113d28482850161103c565b91505092915050565b600081519050919050565b600082825260208201905092915050565b6000819050602082019050919050565b611410816110bb565b82525050565b60006114228383611407565b60208301905092915050565b6000602082019050919050565b6000611446826113db565b61145081856113e6565b935061145b836113f7565b8060005b8381101561148c5781516114738882611416565b975061147e8361142e565b92505060018101905061145f565b5085935050505092915050565b600081519050919050565b600082825260208201905092915050565b6000819050602082019050919050565b600081519050919050565b600082825260208201905092915050565b60005b838110156114ff5780820151818401526020810190506114e4565b8381111561150e576000848401525b50505050565b600061151f826114c5565b61152981856114d0565b93506115398185602086016114e1565b61154281610f2e565b840191505092915050565b60006115598383611514565b905092915050565b6000602082019050919050565b600061157982611499565b61158381856114a4565b935083602082028501611595856114b5565b8060005b858110156115d157848403895281516115b2858261154d565b94506115bd83611561565b925060208a01995050600181019050611599565b50829750879550505050505092915050565b600082825260208201905092915050565b60006115ff826114c5565b61160981856115e3565b93506116198185602086016114e1565b61162281610f2e565b840191505092915050565b61163681611271565b82525050565b600081519050919050565b600082825260208201905092915050565b6000819050602082019050919050565b600060ff82169050919050565b61167e81611668565b82525050565b600060608301600083015184820360008601526116a18282611514565b91505060208301516116b66020860182611407565b5060408301516116c96040860182611675565b508091505092915050565b60006116e08383611684565b905092915050565b6000602082019050919050565b60006117008261163c565b61170a8185611647565b93508360208202850161171c85611658565b8060005b85811015611758578484038952815161173985826116d4565b9450611744836116e8565b925060208a01995050600181019050611720565b50829750879550505050505092915050565b600060a0820190508181036000830152611784818861143b565b90508181036020830152611798818761156e565b905081810360408301526117ac81866115f4565b90506117bb606083018561162d565b81810360808301526117cd81846116f5565b90509695505050505050565b6117e281611668565b81146117ed57600080fd5b50565b6000813590506117ff816117d9565b92915050565b60008060006060848603121561181e5761181d610f1a565b5b600084013567ffffffffffffffff81111561183c5761183b610f1f565b5b6118488682870161103c565b9350506020611859868287016117f0565b925050604084013567ffffffffffffffff81111561187a57611879610f1f565b5b6118868682870161103c565b9150509250925092565b7f4465726573793a205265766965776572732063616e6e6f7420626520656d707460008201527f7900000000000000000000000000000000000000000000000000000000000000602082015250565b60006118ec6021836115e3565b91506118f782611890565b604082019050919050565b6000602082019050818103600083015261191b816118df565b9050919050565b7f4465726573793a20546172676574732063616e6e6f7420626520656d70747900600082015250565b6000611958601f836115e3565b915061196382611922565b602082019050919050565b600060208201905081810360008301526119878161194b565b9050919050565b7f4465726573793a20726577617264506572526576696577206d7573742062652060008201527f67726561746572207468616e2030000000000000000000000000000000000000602082015250565b60006119ea602e836115e3565b91506119f58261198e565b604082019050919050565b60006020820190508181036000830152611a19816119dd565b9050919050565b7f4e487b7100000000000000000000000000000000000000000000000000000000600052601160045260246000fd5b6000611a5a82611271565b9150611a6583611271565b9250817fffffffffffffffffffffffffffffffffffffffffffffffffffffffffffffffff0483118215151615611a9e57611a9d611a20565b5b828202905092915050565b7f4465726573793a206d73672e76616c756520696e76616c696400000000000000600082015250565b6000611adf6019836115e3565b9150611aea82611aa9565b602082019050919050565b60006020820190508181036000830152611b0e81611ad2565b9050919050565b600081905092915050565b6000611b2b826114c5565b611b358185611b15565b9350611b458185602086016114e1565b80840191505092915050565b6000611b5d8284611b20565b915081905092915050565b7f4e487b7100000000000000000000000000000000000000000000000000000000600052602260045260246000fd5b60006002820490506001821680611baf57607f821691505b60208210811415611bc357611bc2611b68565b5b50919050565b7f4465726573793a20497473206973206e6f74207468652073706f6e736f720000600082015250565b6000611bff601e836115e3565b9150611c0a82611bc9565b602082019050919050565b60006020820190508181036000830152611c2e81611bf2565b9050919050565b7f4465726573793a207265717565737420636c6f73656400000000000000000000600082015250565b6000611c6b6016836115e3565b9150611c7682611c35565b602082019050919050565b60006020820190508181036000830152611c9a81611c5e565b9050919050565b7f4465726573793a204e616d6520646f6573206e6f742065786973740000000000600082015250565b6000611cd7601b836115e3565b9150611ce282611ca1565b602082019050919050565b60006020820190508181036000830152611d0681611cca565b9050919050565b6000611d1882611271565b9150611d2383611271565b925082821015611d3657611d35611a20565b5b82820390509291505056fea264697066735822122087d7db4f43176553d3f7596629b9d86343574543bcabe629f7d47a6c2682748d64736f6c634300080a0033",
  "immutableReferences": {},
  "source": "pragma solidity 0.8.10;\n\ncontract IpfsDeresyRequests {\n    \n    struct Review {\n      string reviewIpfsHash;\n      address reviewer;\n      uint8 targetIndex;\n    }\n    \n    struct ReviewRequest {\n      address sponsor;\n      address[] reviewers;\n      string[] targets;\n      string formIpfsHash;\n      uint256 rewardPerReview;\n      Review[] reviews;\n      bool isClosed;\n      uint256 fundsLeft;\n    }\n   \n    mapping(string => ReviewRequest) private reviewRequests;\n    \n    // Creating a request\n    function createRequest(string memory _name, address[] memory reviewers, string[] memory targets, string memory formIpfsHash, uint256 rewardPerReview) external payable{\n        require(reviewers.length > 0,\"Deresy: Reviewers cannot be empty\");\n        require(targets.length > 0,\"Deresy: Targets cannot be empty\");\n        require(rewardPerReview > 0,\"Deresy: rewardPerReview must be greater than 0\");\n        require(msg.value >= (reviewers.length * targets.length * rewardPerReview),\"Deresy: msg.value invalid\");\n        \n        reviewRequests[_name].sponsor = msg.sender;\n        reviewRequests[_name].reviewers = reviewers;\n        reviewRequests[_name].targets = targets;\n        reviewRequests[_name].formIpfsHash = formIpfsHash;\n        reviewRequests[_name].rewardPerReview = rewardPerReview;\n        reviewRequests[_name].isClosed = false;\n        reviewRequests[_name].fundsLeft = msg.value;\n  }\n\n  function submitReview(string memory _name, uint8 targetIndex, string memory reviewIpfsHash) external {\n      require(reviewRequests[_name].isClosed == false,\"Deresy: request closed\");\n      \n      if(reviewRequests[_name].fundsLeft < reviewRequests[_name].rewardPerReview){\n        revert();\n      }\n      \n      reviewRequests[_name].reviews.push(Review(reviewIpfsHash,msg.sender,targetIndex));\n      reviewRequests[_name].fundsLeft -= reviewRequests[_name].rewardPerReview;\n      \n      payable(msg.sender).transfer(reviewRequests[_name].rewardPerReview);\n  }\n\n  function closeReviewRequest(string memory _name) external{\n      \n      require(msg.sender == reviewRequests[_name].sponsor, \"Deresy: Its is not the sponsor\");\n      require(reviewRequests[_name].isClosed == false,\"Deresy: request closed\");\n      require(reviewRequests[_name].isClosed == true || reviewRequests[_name].isClosed == false, \"Deresy: Name does not exist\");\n      \n      payable(reviewRequests[_name].sponsor).transfer(reviewRequests[_name].fundsLeft);\n      \n      reviewRequests[_name].isClosed = true;\n      reviewRequests[_name].fundsLeft = 0;\n  }\n\n  function getRequest(string memory _name) public view returns (address[] memory reviewers,string[] memory targets,string memory formIpfsHash,uint256 rewardPerReview,Review[] memory reviews ){\n    return (reviewRequests[_name].reviewers,reviewRequests[_name].targets,reviewRequests[_name].formIpfsHash,reviewRequests[_name].rewardPerReview, reviewRequests[_name].reviews);\n  }\n\n}",
  "sourcePath": "/Users/ozz/Documents/deresy/ipfs-smart-contracts/contracts/IpfsDeresyRequests.sol",
  "compiler": {
    "name": "solc",
    "version": "0.8.10+commit.fc410830.Emscripten.clang"
  },
  "schemaVersion": "3.4.5",
  "updatedAt": "2022-03-22T17:57:18.191Z",
  "devdoc": {
    "kind": "dev",
    "methods": {},
    "version": 1
  },
  "userdoc": {
    "kind": "user",
    "methods": {},
    "version": 1
  }
}