{
  "contractName": "IpfsDeresyRequests",
  "abi": [
    {
      "inputs": [
        {
          "internalType": "string",
          "name": "_name",
          "type": "string"
        },
        {
          "internalType": "address[]",
          "name": "reviewers",
          "type": "address[]"
        },
        {
          "internalType": "string[]",
          "name": "targets",
          "type": "string[]"
        },
        {
          "internalType": "string",
          "name": "formIpfsHash",
          "type": "string"
        },
        {
          "internalType": "uint256",
          "name": "rewardPerReview",
          "type": "uint256"
        }
      ],
      "name": "createRequest",
      "outputs": [],
      "stateMutability": "payable",
      "type": "function",
      "payable": true
    },
    {
      "inputs": [
        {
          "internalType": "string",
          "name": "_name",
          "type": "string"
        },
        {
          "internalType": "uint8",
          "name": "targetIndex",
          "type": "uint8"
        },
        {
          "internalType": "string",
          "name": "reviewIpfsHash",
          "type": "string"
        }
      ],
      "name": "submitReview",
      "outputs": [],
      "stateMutability": "nonpayable",
      "type": "function"
    },
    {
      "inputs": [
        {
          "internalType": "string",
          "name": "_name",
          "type": "string"
        }
      ],
      "name": "closeReviewRequest",
      "outputs": [],
      "stateMutability": "nonpayable",
      "type": "function"
    },
    {
      "inputs": [
        {
          "internalType": "string",
          "name": "_name",
          "type": "string"
        }
      ],
      "name": "getRequest",
      "outputs": [
        {
          "internalType": "address[]",
          "name": "reviewers",
          "type": "address[]"
        },
        {
          "internalType": "string[]",
          "name": "targets",
          "type": "string[]"
        },
        {
          "internalType": "string",
          "name": "formIpfsHash",
          "type": "string"
        },
        {
          "internalType": "uint256",
          "name": "rewardPerReview",
          "type": "uint256"
        },
        {
          "components": [
            {
              "internalType": "string",
              "name": "reviewIpfsHash",
              "type": "string"
            },
            {
              "internalType": "address",
              "name": "reviewer",
              "type": "address"
            },
            {
              "internalType": "uint8",
              "name": "targetIndex",
              "type": "uint8"
            }
          ],
          "internalType": "struct IpfsDeresyRequests.Review[]",
          "name": "reviews",
          "type": "tuple[]"
        },
        {
          "internalType": "bool",
          "name": "isClosed",
          "type": "bool"
        }
      ],
      "stateMutability": "view",
      "type": "function",
      "constant": true
    }
  ],
  "bytecode": "0x608060405234801561001057600080fd5b50611dd2806100206000396000f3fe60806040526004361061003f5760003560e01c80634d0e503c1461004457806385b9241314610060578063be2761d0146100a2578063f1ba7072146100cb575b600080fd5b61005e600480360381019061005991906112da565b6100f4565b005b34801561006c57600080fd5b50610087600480360381019061008291906113c5565b6103a8565b604051610099969594939291906117b8565b60405180910390f35b3480156100ae57600080fd5b506100c960048036038101906100c491906113c5565b6107e1565b005b3480156100d757600080fd5b506100f260048036038101906100ed9190611861565b610ac3565b005b6000845111610138576040517f08c379a000000000000000000000000000000000000000000000000000000000815260040161012f9061195e565b60405180910390fd5b600083511161017c576040517f08c379a0000000000000000000000000000000000000000000000000000000008152600401610173906119ca565b60405180910390fd5b600081116101bf576040517f08c379a00000000000000000000000000000000000000000000000000000000081526004016101b690611a5c565b60405180910390fd5b80835185516101ce9190611aab565b6101d89190611aab565b34101561021a576040517f08c379a000000000000000000000000000000000000000000000000000000000815260040161021190611b51565b60405180910390fd5b3360008660405161022b9190611bad565b908152602001604051809103902060000160006101000a81548173ffffffffffffffffffffffffffffffffffffffff021916908373ffffffffffffffffffffffffffffffffffffffff1602179055508360008660405161028b9190611bad565b908152602001604051809103902060010190805190602001906102af929190610d52565b50826000866040516102c19190611bad565b908152602001604051809103902060020190805190602001906102e5929190610ddc565b50816000866040516102f79190611bad565b9081526020016040518091039020600301908051906020019061031b929190610e3c565b508060008660405161032d9190611bad565b908152602001604051809103902060040181905550600080866040516103539190611bad565b908152602001604051809103902060060160006101000a81548160ff0219169083151502179055503460008660405161038c9190611bad565b9081526020016040518091039020600701819055505050505050565b606080606060006060600080876040516103c29190611bad565b90815260200160405180910390206001016000886040516103e39190611bad565b90815260200160405180910390206002016000896040516104049190611bad565b908152602001604051809103902060030160008a6040516104259190611bad565b90815260200160405180910390206004015460008b6040516104479190611bad565b908152602001604051809103902060050160008c6040516104689190611bad565b908152602001604051809103902060060160009054906101000a900460ff168580548060200260200160405190810160405280929190818152602001828054801561050857602002820191906000526020600020905b8160009054906101000a900473ffffffffffffffffffffffffffffffffffffffff1673ffffffffffffffffffffffffffffffffffffffff16815260200190600101908083116104be575b5050505050955084805480602002602001604051908101604052809291908181526020016000905b828210156105dc57838290600052602060002001805461054f90611bf3565b80601f016020809104026020016040519081016040528092919081815260200182805461057b90611bf3565b80156105c85780601f1061059d576101008083540402835291602001916105c8565b820191906000526020600020905b8154815290600101906020018083116105ab57829003601f168201915b505050505081526020019060010190610530565b5050505094508380546105ee90611bf3565b80601f016020809104026020016040519081016040528092919081815260200182805461061a90611bf3565b80156106675780601f1061063c57610100808354040283529160200191610667565b820191906000526020600020905b81548152906001019060200180831161064a57829003601f168201915b5050505050935081805480602002602001604051908101604052809291908181526020016000905b828210156107c657838290600052602060002090600202016040518060600160405290816000820180546106c290611bf3565b80601f01602080910402602001604051908101604052809291908181526020018280546106ee90611bf3565b801561073b5780601f106107105761010080835404028352916020019161073b565b820191906000526020600020905b81548152906001019060200180831161071e57829003601f168201915b505050505081526020016001820160009054906101000a900473ffffffffffffffffffffffffffffffffffffffff1673ffffffffffffffffffffffffffffffffffffffff1673ffffffffffffffffffffffffffffffffffffffff1681526020016001820160149054906101000a900460ff1660ff1660ff16815250508152602001906001019061068f565b50505050915095509550955095509550955091939550919395565b6000816040516107f19190611bad565b908152602001604051809103902060000160009054906101000a900473ffffffffffffffffffffffffffffffffffffffff1673ffffffffffffffffffffffffffffffffffffffff163373ffffffffffffffffffffffffffffffffffffffff1614610890576040517f08c379a000000000000000000000000000000000000000000000000000000000815260040161088790611c70565b60405180910390fd5b600015156000826040516108a49190611bad565b908152602001604051809103902060060160009054906101000a900460ff16151514610905576040517f08c379a00000000000000000000000000000000000000000000000000000000081526004016108fc90611cdc565b60405180910390fd5b600115156000826040516109199190611bad565b908152602001604051809103902060060160009054906101000a900460ff16151514806109785750600015156000826040516109559190611bad565b908152602001604051809103902060060160009054906101000a900460ff161515145b6109b7576040517f08c379a00000000000000000000000000000000000000000000000000000000081526004016109ae90611d48565b60405180910390fd5b6000816040516109c79190611bad565b908152602001604051809103902060000160009054906101000a900473ffffffffffffffffffffffffffffffffffffffff1673ffffffffffffffffffffffffffffffffffffffff166108fc600083604051610a229190611bad565b9081526020016040518091039020600701549081150290604051600060405180830381858888f19350505050158015610a5f573d6000803e3d6000fd5b506001600082604051610a729190611bad565b908152602001604051809103902060060160006101000a81548160ff02191690831515021790555060008082604051610aab9190611bad565b90815260200160405180910390206007018190555050565b60001515600084604051610ad79190611bad565b908152602001604051809103902060060160009054906101000a900460ff16151514610b38576040517f08c379a0000000000000000000000000000000000000000000000000000000008152600401610b2f90611cdc565b60405180910390fd5b600083604051610b489190611bad565b908152602001604051809103902060040154600084604051610b6a9190611bad565b9081526020016040518091039020600701541015610b8757600080fd5b600083604051610b979190611bad565b908152602001604051809103902060050160405180606001604052808381526020013373ffffffffffffffffffffffffffffffffffffffff1681526020018460ff1681525090806001815401808255809150506001900390600052602060002090600202016000909190919091506000820151816000019080519060200190610c21929190610e3c565b5060208201518160010160006101000a81548173ffffffffffffffffffffffffffffffffffffffff021916908373ffffffffffffffffffffffffffffffffffffffff16021790555060408201518160010160146101000a81548160ff021916908360ff1602179055505050600083604051610c9c9190611bad565b908152602001604051809103902060040154600084604051610cbe9190611bad565b90815260200160405180910390206007016000828254610cde9190611d68565b925050819055503373ffffffffffffffffffffffffffffffffffffffff166108fc600085604051610d0f9190611bad565b9081526020016040518091039020600401549081150290604051600060405180830381858888f19350505050158015610d4c573d6000803e3d6000fd5b50505050565b828054828255906000526020600020908101928215610dcb579160200282015b82811115610dca5782518260006101000a81548173ffffffffffffffffffffffffffffffffffffffff021916908373ffffffffffffffffffffffffffffffffffffffff16021790555091602001919060010190610d72565b5b509050610dd89190610ec2565b5090565b828054828255906000526020600020908101928215610e2b579160200282015b82811115610e2a578251829080519060200190610e1a929190610e3c565b5091602001919060010190610dfc565b5b509050610e389190610edf565b5090565b828054610e4890611bf3565b90600052602060002090601f016020900481019282610e6a5760008555610eb1565b82601f10610e8357805160ff1916838001178555610eb1565b82800160010185558215610eb1579182015b82811115610eb0578251825591602001919060010190610e95565b5b509050610ebe9190610ec2565b5090565b5b80821115610edb576000816000905550600101610ec3565b5090565b5b80821115610eff5760008181610ef69190610f03565b50600101610ee0565b5090565b508054610f0f90611bf3565b6000825580601f10610f215750610f40565b601f016020900490600052602060002090810190610f3f9190610ec2565b5b50565b6000604051905090565b600080fd5b600080fd5b600080fd5b600080fd5b6000601f19601f8301169050919050565b7f4e487b7100000000000000000000000000000000000000000000000000000000600052604160045260246000fd5b610faa82610f61565b810181811067ffffffffffffffff82111715610fc957610fc8610f72565b5b80604052505050565b6000610fdc610f43565b9050610fe88282610fa1565b919050565b600067ffffffffffffffff82111561100857611007610f72565b5b61101182610f61565b9050602081019050919050565b82818337600083830152505050565b600061104061103b84610fed565b610fd2565b90508281526020810184848401111561105c5761105b610f5c565b5b61106784828561101e565b509392505050565b600082601f83011261108457611083610f57565b5b813561109484826020860161102d565b91505092915050565b600067ffffffffffffffff8211156110b8576110b7610f72565b5b602082029050602081019050919050565b600080fd5b600073ffffffffffffffffffffffffffffffffffffffff82169050919050565b60006110f9826110ce565b9050919050565b611109816110ee565b811461111457600080fd5b50565b60008135905061112681611100565b92915050565b600061113f61113a8461109d565b610fd2565b90508083825260208201905060208402830185811115611162576111616110c9565b5b835b8181101561118b57806111778882611117565b845260208401935050602081019050611164565b5050509392505050565b600082601f8301126111aa576111a9610f57565b5b81356111ba84826020860161112c565b91505092915050565b600067ffffffffffffffff8211156111de576111dd610f72565b5b602082029050602081019050919050565b60006112026111fd846111c3565b610fd2565b90508083825260208201905060208402830185811115611225576112246110c9565b5b835b8181101561126c57803567ffffffffffffffff81111561124a57611249610f57565b5b808601611257898261106f565b85526020850194505050602081019050611227565b5050509392505050565b600082601f83011261128b5761128a610f57565b5b813561129b8482602086016111ef565b91505092915050565b6000819050919050565b6112b7816112a4565b81146112c257600080fd5b50565b6000813590506112d4816112ae565b92915050565b600080600080600060a086880312156112f6576112f5610f4d565b5b600086013567ffffffffffffffff81111561131457611313610f52565b5b6113208882890161106f565b955050602086013567ffffffffffffffff81111561134157611340610f52565b5b61134d88828901611195565b945050604086013567ffffffffffffffff81111561136e5761136d610f52565b5b61137a88828901611276565b935050606086013567ffffffffffffffff81111561139b5761139a610f52565b5b6113a78882890161106f565b92505060806113b8888289016112c5565b9150509295509295909350565b6000602082840312156113db576113da610f4d565b5b600082013567ffffffffffffffff8111156113f9576113f8610f52565b5b6114058482850161106f565b91505092915050565b600081519050919050565b600082825260208201905092915050565b6000819050602082019050919050565b611443816110ee565b82525050565b6000611455838361143a565b60208301905092915050565b6000602082019050919050565b60006114798261140e565b6114838185611419565b935061148e8361142a565b8060005b838110156114bf5781516114a68882611449565b97506114b183611461565b925050600181019050611492565b5085935050505092915050565b600081519050919050565b600082825260208201905092915050565b6000819050602082019050919050565b600081519050919050565b600082825260208201905092915050565b60005b83811015611532578082015181840152602081019050611517565b83811115611541576000848401525b50505050565b6000611552826114f8565b61155c8185611503565b935061156c818560208601611514565b61157581610f61565b840191505092915050565b600061158c8383611547565b905092915050565b6000602082019050919050565b60006115ac826114cc565b6115b681856114d7565b9350836020820285016115c8856114e8565b8060005b8581101561160457848403895281516115e58582611580565b94506115f083611594565b925060208a019950506001810190506115cc565b50829750879550505050505092915050565b600082825260208201905092915050565b6000611632826114f8565b61163c8185611616565b935061164c818560208601611514565b61165581610f61565b840191505092915050565b611669816112a4565b82525050565b600081519050919050565b600082825260208201905092915050565b6000819050602082019050919050565b600060ff82169050919050565b6116b18161169b565b82525050565b600060608301600083015184820360008601526116d48282611547565b91505060208301516116e9602086018261143a565b5060408301516116fc60408601826116a8565b508091505092915050565b600061171383836116b7565b905092915050565b6000602082019050919050565b60006117338261166f565b61173d818561167a565b93508360208202850161174f8561168b565b8060005b8581101561178b578484038952815161176c8582611707565b94506117778361171b565b925060208a01995050600181019050611753565b50829750879550505050505092915050565b60008115159050919050565b6117b28161179d565b82525050565b600060c08201905081810360008301526117d2818961146e565b905081810360208301526117e681886115a1565b905081810360408301526117fa8187611627565b90506118096060830186611660565b818103608083015261181b8185611728565b905061182a60a08301846117a9565b979650505050505050565b61183e8161169b565b811461184957600080fd5b50565b60008135905061185b81611835565b92915050565b60008060006060848603121561187a57611879610f4d565b5b600084013567ffffffffffffffff81111561189857611897610f52565b5b6118a48682870161106f565b93505060206118b58682870161184c565b925050604084013567ffffffffffffffff8111156118d6576118d5610f52565b5b6118e28682870161106f565b9150509250925092565b7f4465726573793a205265766965776572732063616e6e6f7420626520656d707460008201527f7900000000000000000000000000000000000000000000000000000000000000602082015250565b6000611948602183611616565b9150611953826118ec565b604082019050919050565b600060208201905081810360008301526119778161193b565b9050919050565b7f4465726573793a20546172676574732063616e6e6f7420626520656d70747900600082015250565b60006119b4601f83611616565b91506119bf8261197e565b602082019050919050565b600060208201905081810360008301526119e3816119a7565b9050919050565b7f4465726573793a20726577617264506572526576696577206d7573742062652060008201527f67726561746572207468616e2030000000000000000000000000000000000000602082015250565b6000611a46602e83611616565b9150611a51826119ea565b604082019050919050565b60006020820190508181036000830152611a7581611a39565b9050919050565b7f4e487b7100000000000000000000000000000000000000000000000000000000600052601160045260246000fd5b6000611ab6826112a4565b9150611ac1836112a4565b9250817fffffffffffffffffffffffffffffffffffffffffffffffffffffffffffffffff0483118215151615611afa57611af9611a7c565b5b828202905092915050565b7f4465726573793a206d73672e76616c756520696e76616c696400000000000000600082015250565b6000611b3b601983611616565b9150611b4682611b05565b602082019050919050565b60006020820190508181036000830152611b6a81611b2e565b9050919050565b600081905092915050565b6000611b87826114f8565b611b918185611b71565b9350611ba1818560208601611514565b80840191505092915050565b6000611bb98284611b7c565b915081905092915050565b7f4e487b7100000000000000000000000000000000000000000000000000000000600052602260045260246000fd5b60006002820490506001821680611c0b57607f821691505b602082108103611c1e57611c1d611bc4565b5b50919050565b7f4465726573793a20497473206973206e6f74207468652073706f6e736f720000600082015250565b6000611c5a601e83611616565b9150611c6582611c24565b602082019050919050565b60006020820190508181036000830152611c8981611c4d565b9050919050565b7f4465726573793a207265717565737420636c6f73656400000000000000000000600082015250565b6000611cc6601683611616565b9150611cd182611c90565b602082019050919050565b60006020820190508181036000830152611cf581611cb9565b9050919050565b7f4465726573793a204e616d6520646f6573206e6f742065786973740000000000600082015250565b6000611d32601b83611616565b9150611d3d82611cfc565b602082019050919050565b60006020820190508181036000830152611d6181611d25565b9050919050565b6000611d73826112a4565b9150611d7e836112a4565b925082821015611d9157611d90611a7c565b5b82820390509291505056fea2646970667358221220eea7d37a67136419414abd6a78175f6441d9431587fe958f4284662542905e0064736f6c634300080d0033",
  "immutableReferences": {},
  "source": "// SPDX-License-Identifier: MIT\npragma solidity 0.8.13;\n\ncontract IpfsDeresyRequests {\n    \n    struct Review {\n      string reviewIpfsHash;\n      address reviewer;\n      uint8 targetIndex;\n    }\n    \n    struct ReviewRequest {\n      address sponsor;\n      address[] reviewers;\n      string[] targets;\n      string formIpfsHash;\n      uint256 rewardPerReview;\n      Review[] reviews;\n      bool isClosed;\n      uint256 fundsLeft;\n    }\n   \n    mapping(string => ReviewRequest) private reviewRequests;\n    \n    // Creating a request\n    function createRequest(string memory _name, address[] memory reviewers, string[] memory targets, string memory formIpfsHash, uint256 rewardPerReview) external payable{\n        require(reviewers.length > 0,\"Deresy: Reviewers cannot be empty\");\n        require(targets.length > 0,\"Deresy: Targets cannot be empty\");\n        require(rewardPerReview > 0,\"Deresy: rewardPerReview must be greater than 0\");\n        require(msg.value >= (reviewers.length * targets.length * rewardPerReview),\"Deresy: msg.value invalid\");\n        \n        reviewRequests[_name].sponsor = msg.sender;\n        reviewRequests[_name].reviewers = reviewers;\n        reviewRequests[_name].targets = targets;\n        reviewRequests[_name].formIpfsHash = formIpfsHash;\n        reviewRequests[_name].rewardPerReview = rewardPerReview;\n        reviewRequests[_name].isClosed = false;\n        reviewRequests[_name].fundsLeft = msg.value;\n  }\n\n  function submitReview(string memory _name, uint8 targetIndex, string memory reviewIpfsHash) external {\n      require(reviewRequests[_name].isClosed == false,\"Deresy: request closed\");\n      \n      if(reviewRequests[_name].fundsLeft < reviewRequests[_name].rewardPerReview){\n        revert();\n      }\n      \n      reviewRequests[_name].reviews.push(Review(reviewIpfsHash,msg.sender,targetIndex));\n      reviewRequests[_name].fundsLeft -= reviewRequests[_name].rewardPerReview;\n      \n      payable(msg.sender).transfer(reviewRequests[_name].rewardPerReview);\n  }\n\n  function closeReviewRequest(string memory _name) external{\n      \n      require(msg.sender == reviewRequests[_name].sponsor, \"Deresy: Its is not the sponsor\");\n      require(reviewRequests[_name].isClosed == false,\"Deresy: request closed\");\n      require(reviewRequests[_name].isClosed == true || reviewRequests[_name].isClosed == false, \"Deresy: Name does not exist\");\n      \n      payable(reviewRequests[_name].sponsor).transfer(reviewRequests[_name].fundsLeft);\n      \n      reviewRequests[_name].isClosed = true;\n      reviewRequests[_name].fundsLeft = 0;\n  }\n\n  function getRequest(string memory _name) public view returns (address[] memory reviewers,string[] memory targets,string memory formIpfsHash,uint256 rewardPerReview,Review[] memory reviews, bool isClosed){\n    return (reviewRequests[_name].reviewers,reviewRequests[_name].targets,reviewRequests[_name].formIpfsHash,reviewRequests[_name].rewardPerReview, reviewRequests[_name].reviews, reviewRequests[_name].isClosed);\n  }\n\n}",
  "sourcePath": "/Users/ozz/Documents/deresy/ipfs-smart-contracts/contracts/IpfsDeresyRequests.sol",
  "compiler": {
    "name": "solc",
    "version": "0.8.13+commit.abaa5c0e.Emscripten.clang"
  },
  "schemaVersion": "3.4.5",
  "updatedAt": "2022-03-30T14:47:56.805Z",
  "networkType": "ethereum",
  "devdoc": {
    "kind": "dev",
    "methods": {},
    "version": 1
  },
  "userdoc": {
    "kind": "user",
    "methods": {},
    "version": 1
  }
}