{
  "contractName": "DeresyRequests",
  "abi": [
    {
      "inputs": [],
      "name": "reviewFormsTotal",
      "outputs": [
        {
          "internalType": "uint256",
          "name": "",
          "type": "uint256"
        }
      ],
      "stateMutability": "view",
      "type": "function",
      "constant": true
    },
    {
      "inputs": [
        {
          "internalType": "string[]",
          "name": "questions",
          "type": "string[]"
        },
        {
          "internalType": "enum DeresyRequests.QuestionType[]",
          "name": "questionTypes",
          "type": "uint8[]"
        }
      ],
      "name": "createReviewForm",
      "outputs": [
        {
          "internalType": "uint256",
          "name": "",
          "type": "uint256"
        }
      ],
      "stateMutability": "nonpayable",
      "type": "function"
    },
    {
      "inputs": [
        {
          "internalType": "string",
          "name": "_name",
          "type": "string"
        },
        {
          "internalType": "address[]",
          "name": "reviewers",
          "type": "address[]"
        },
        {
          "internalType": "string[]",
          "name": "targets",
          "type": "string[]"
        },
        {
          "internalType": "string[]",
          "name": "targetsIPFSHashes",
          "type": "string[]"
        },
        {
          "internalType": "string",
          "name": "formIpfsHash",
          "type": "string"
        },
        {
          "internalType": "uint256",
          "name": "rewardPerReview",
          "type": "uint256"
        },
        {
          "internalType": "uint256",
          "name": "reviewFormIndex",
          "type": "uint256"
        }
      ],
      "name": "createRequest",
      "outputs": [],
      "stateMutability": "payable",
      "type": "function",
      "payable": true
    },
    {
      "inputs": [
        {
          "internalType": "string",
          "name": "_name",
          "type": "string"
        },
        {
          "internalType": "uint8",
          "name": "targetIndex",
          "type": "uint8"
        },
        {
          "internalType": "string[]",
          "name": "answers",
          "type": "string[]"
        }
      ],
      "name": "submitReview",
      "outputs": [],
      "stateMutability": "nonpayable",
      "type": "function"
    },
    {
      "inputs": [
        {
          "internalType": "string",
          "name": "_name",
          "type": "string"
        }
      ],
      "name": "closeReviewRequest",
      "outputs": [],
      "stateMutability": "nonpayable",
      "type": "function"
    },
    {
      "inputs": [
        {
          "internalType": "string",
          "name": "_name",
          "type": "string"
        }
      ],
      "name": "getRequest",
      "outputs": [
        {
          "internalType": "address[]",
          "name": "reviewers",
          "type": "address[]"
        },
        {
          "internalType": "string[]",
          "name": "targets",
          "type": "string[]"
        },
        {
          "internalType": "string[]",
          "name": "targetsIPFSHashes",
          "type": "string[]"
        },
        {
          "internalType": "string",
          "name": "formIpfsHash",
          "type": "string"
        },
        {
          "internalType": "uint256",
          "name": "rewardPerReview",
          "type": "uint256"
        },
        {
          "components": [
            {
              "internalType": "address",
              "name": "reviewer",
              "type": "address"
            },
            {
              "internalType": "uint8",
              "name": "targetIndex",
              "type": "uint8"
            },
            {
              "internalType": "string[]",
              "name": "answers",
              "type": "string[]"
            }
          ],
          "internalType": "struct DeresyRequests.Review[]",
          "name": "reviews",
          "type": "tuple[]"
        },
        {
          "internalType": "uint256",
          "name": "reviewFormIndex",
          "type": "uint256"
        },
        {
          "internalType": "bool",
          "name": "isClosed",
          "type": "bool"
        }
      ],
      "stateMutability": "view",
      "type": "function",
      "constant": true
    },
    {
      "inputs": [
        {
          "internalType": "uint256",
          "name": "_reviewFormIndex",
          "type": "uint256"
        }
      ],
      "name": "getReviewForm",
      "outputs": [
        {
          "internalType": "string[]",
          "name": "",
          "type": "string[]"
        },
        {
          "internalType": "enum DeresyRequests.QuestionType[]",
          "name": "",
          "type": "uint8[]"
        }
      ],
      "stateMutability": "view",
      "type": "function",
      "constant": true
    },
    {
      "inputs": [],
      "name": "getReviewRequestsNames",
      "outputs": [
        {
          "internalType": "string[]",
          "name": "",
          "type": "string[]"
        }
      ],
      "stateMutability": "view",
      "type": "function",
      "constant": true
    }
  ],
  "bytecode": "0x608060405234801561001057600080fd5b50613455806100206000396000f3fe60806040526004361061007b5760003560e01c8063b6fc76af1161004e578063b6fc76af14610155578063be2761d014610193578063d9370019146101bc578063dd526054146101d85761007b565b80635db117d814610080578063629147e8146100bd57806385b92413146100e657806386be6d511461012a575b600080fd5b34801561008c57600080fd5b506100a760048036038101906100a29190611e7f565b610203565b6040516100b49190611f10565b60405180910390f35b3480156100c957600080fd5b506100e460048036038101906100df9190611f64565b610380565b005b3480156100f257600080fd5b5061010d60048036038101906101089190611fef565b61074f565b60405161012198979695949392919061247e565b60405180910390f35b34801561013657600080fd5b5061013f610cda565b60405161014c9190611f10565b60405180910390f35b34801561016157600080fd5b5061017c6004803603810190610177919061254b565b610ce0565b60405161018a92919061269e565b60405180910390f35b34801561019f57600080fd5b506101ba60048036038101906101b59190611fef565b610e90565b005b6101d660048036038101906101d191906127c4565b6110c0565b005b3480156101e457600080fd5b506101ed61159a565b6040516101fa91906128f2565b60405180910390f35b600080835111610248576040517f08c379a000000000000000000000000000000000000000000000000000000000815260040161023f90612960565b60405180910390fd5b600082511161028c576040517f08c379a0000000000000000000000000000000000000000000000000000000008152600401610283906129f2565b60405180910390fd5b82518251146102d0576040517f08c379a00000000000000000000000000000000000000000000000000000000081526004016102c790612a84565b60405180910390fd5b60036040518060400160405280858152602001848152509080600181540180825580915050600190039060005260206000209060020201600090919091909150600082015181600001908051906020019061032c9291906118b0565b506020820151816001019080519060200190610349929190611910565b50505060016002600082825461035f9190612ad3565b9250508190555060016003805490506103789190612b29565b905092915050565b600015156000846040516103949190612b99565b908152602001604051809103902060070160009054906101000a900460ff161515146103f5576040517f08c379a00000000000000000000000000000000000000000000000000000000081526004016103ec90612bfc565b60405180910390fd5b6000836040516104059190612b99565b9081526020016040518091039020600201805490508260ff161061045e576040517f08c379a000000000000000000000000000000000000000000000000000000000815260040161045590612c68565b60405180910390fd5b805160036000856040516104729190612b99565b9081526020016040518091039020600901548154811061049557610494612c88565b5b906000526020600020906002020160000180549050146104ea576040517f08c379a00000000000000000000000000000000000000000000000000000000081526004016104e190612d29565b60405180910390fd5b600115156104f83385611673565b15151461053a576040517f08c379a000000000000000000000000000000000000000000000000000000000815260040161053190612de1565b60405180910390fd5b61054533848461175c565b610584576040517f08c379a000000000000000000000000000000000000000000000000000000000815260040161057b90612e99565b60405180910390fd5b6000836040516105949190612b99565b908152602001604051809103902060060160405180606001604052803373ffffffffffffffffffffffffffffffffffffffff1681526020018460ff16815260200183815250908060018154018082558091505060019003906000526020600020906002020160009091909190915060008201518160000160006101000a81548173ffffffffffffffffffffffffffffffffffffffff021916908373ffffffffffffffffffffffffffffffffffffffff16021790555060208201518160000160146101000a81548160ff021916908360ff16021790555060408201518160010190805190602001906106869291906118b0565b5050506000836040516106999190612b99565b9081526020016040518091039020600501546000846040516106bb9190612b99565b908152602001604051809103902060080160008282546106db9190612b29565b925050819055503373ffffffffffffffffffffffffffffffffffffffff166108fc60008560405161070c9190612b99565b9081526020016040518091039020600501549081150290604051600060405180830381858888f19350505050158015610749573d6000803e3d6000fd5b50505050565b606080606080600060606000806000808a60405161076d9190612b99565b9081526020016040518091039020604051806101400160405290816000820160009054906101000a900473ffffffffffffffffffffffffffffffffffffffff1673ffffffffffffffffffffffffffffffffffffffff1673ffffffffffffffffffffffffffffffffffffffff1681526020016001820180548060200260200160405190810160405280929190818152602001828054801561086257602002820191906000526020600020905b8160009054906101000a900473ffffffffffffffffffffffffffffffffffffffff1673ffffffffffffffffffffffffffffffffffffffff1681526020019060010190808311610818575b5050505050815260200160028201805480602002602001604051908101604052809291908181526020016000905b8282101561093c5783829060005260206000200180546108af90612ee8565b80601f01602080910402602001604051908101604052809291908181526020018280546108db90612ee8565b80156109285780601f106108fd57610100808354040283529160200191610928565b820191906000526020600020905b81548152906001019060200180831161090b57829003601f168201915b505050505081526020019060010190610890565b50505050815260200160038201805480602002602001604051908101604052809291908181526020016000905b82821015610a1557838290600052602060002001805461098890612ee8565b80601f01602080910402602001604051908101604052809291908181526020018280546109b490612ee8565b8015610a015780601f106109d657610100808354040283529160200191610a01565b820191906000526020600020905b8154815290600101906020018083116109e457829003601f168201915b505050505081526020019060010190610969565b505050508152602001600482018054610a2d90612ee8565b80601f0160208091040260200160405190810160405280929190818152602001828054610a5990612ee8565b8015610aa65780601f10610a7b57610100808354040283529160200191610aa6565b820191906000526020600020905b815481529060010190602001808311610a8957829003601f168201915b505050505081526020016005820154815260200160068201805480602002602001604051908101604052809291908181526020016000905b82821015610c5c57838290600052602060002090600202016040518060600160405290816000820160009054906101000a900473ffffffffffffffffffffffffffffffffffffffff1673ffffffffffffffffffffffffffffffffffffffff1673ffffffffffffffffffffffffffffffffffffffff1681526020016000820160149054906101000a900460ff1660ff1660ff16815260200160018201805480602002602001604051908101604052809291908181526020016000905b82821015610c45578382906000526020600020018054610bb890612ee8565b80601f0160208091040260200160405190810160405280929190818152602001828054610be490612ee8565b8015610c315780601f10610c0657610100808354040283529160200191610c31565b820191906000526020600020905b815481529060010190602001808311610c1457829003601f168201915b505050505081526020019060010190610b99565b505050508152505081526020019060010190610ade565b5050505081526020016007820160009054906101000a900460ff1615151515815260200160088201548152602001600982015481525050905080602001518160400151826060015183608001518460a001518560c001518661012001518760e001519850985098509850985098509850985050919395975091939597565b60025481565b60608060038381548110610cf757610cf6612c88565b5b906000526020600020906002020160000160038481548110610d1c57610d1b612c88565b5b906000526020600020906002020160010181805480602002602001604051908101604052809291908181526020016000905b82821015610dfa578382906000526020600020018054610d6d90612ee8565b80601f0160208091040260200160405190810160405280929190818152602001828054610d9990612ee8565b8015610de65780601f10610dbb57610100808354040283529160200191610de6565b820191906000526020600020905b815481529060010190602001808311610dc957829003601f168201915b505050505081526020019060010190610d4e565b50505050915080805480602002602001604051908101604052809291908181526020018280548015610e8057602002820191906000526020600020906000905b82829054906101000a900460ff166001811115610e5a57610e596125a4565b5b81526020019060010190602082600001049283019260010382029150808411610e3a5790505b5050505050905091509150915091565b600081604051610ea09190612b99565b908152602001604051809103902060000160009054906101000a900473ffffffffffffffffffffffffffffffffffffffff1673ffffffffffffffffffffffffffffffffffffffff163373ffffffffffffffffffffffffffffffffffffffff1614610f3f576040517f08c379a0000000000000000000000000000000000000000000000000000000008152600401610f3690612f65565b60405180910390fd5b60001515600082604051610f539190612b99565b908152602001604051809103902060070160009054906101000a900460ff16151514610fb4576040517f08c379a0000000000000000000000000000000000000000000000000000000008152600401610fab90612bfc565b60405180910390fd5b600081604051610fc49190612b99565b908152602001604051809103902060000160009054906101000a900473ffffffffffffffffffffffffffffffffffffffff1673ffffffffffffffffffffffffffffffffffffffff166108fc60008360405161101f9190612b99565b9081526020016040518091039020600801549081150290604051600060405180830381858888f1935050505015801561105c573d6000803e3d6000fd5b50600160008260405161106f9190612b99565b908152602001604051809103902060070160006101000a81548160ff021916908315150217905550600080826040516110a89190612b99565b90815260200160405180910390206008018190555050565b6000865111611104576040517f08c379a00000000000000000000000000000000000000000000000000000000081526004016110fb90612fd1565b60405180910390fd5b6000855111611148576040517f08c379a000000000000000000000000000000000000000000000000000000000815260040161113f9061303d565b60405180910390fd5b600084511161118c576040517f08c379a0000000000000000000000000000000000000000000000000000000008152600401611183906130cf565b60405180910390fd5b83518551146111d0576040517f08c379a00000000000000000000000000000000000000000000000000000000081526004016111c790613187565b60405180910390fd5b60016003805490506111e29190612b29565b811115611224576040517f08c379a000000000000000000000000000000000000000000000000000000000815260040161121b906131f3565b60405180910390fd5b60008211611267576040517f08c379a000000000000000000000000000000000000000000000000000000000815260040161125e90613285565b60405180910390fd5b600073ffffffffffffffffffffffffffffffffffffffff1660008860405161128f9190612b99565b908152602001604051809103902060000160009054906101000a900473ffffffffffffffffffffffffffffffffffffffff1673ffffffffffffffffffffffffffffffffffffffff1614611317576040517f08c379a000000000000000000000000000000000000000000000000000000000815260040161130e906132f1565b60405180910390fd5b81855187516113269190613311565b6113309190613311565b341015611372576040517f08c379a0000000000000000000000000000000000000000000000000000000008152600401611369906133b7565b60405180910390fd5b336000886040516113839190612b99565b908152602001604051809103902060000160006101000a81548173ffffffffffffffffffffffffffffffffffffffff021916908373ffffffffffffffffffffffffffffffffffffffff160217905550856000886040516113e39190612b99565b908152602001604051809103902060010190805190602001906114079291906119c6565b50846000886040516114199190612b99565b9081526020016040518091039020600201908051906020019061143d9291906118b0565b508360008860405161144f9190612b99565b908152602001604051809103902060030190805190602001906114739291906118b0565b50826000886040516114859190612b99565b908152602001604051809103902060040190805190602001906114a9929190611a50565b50816000886040516114bb9190612b99565b908152602001604051809103902060050181905550600080886040516114e19190612b99565b908152602001604051809103902060070160006101000a81548160ff0219169083151502179055503460008860405161151a9190612b99565b908152602001604051809103902060080181905550806000886040516115409190612b99565b908152602001604051809103902060090181905550600187908060018154018082558091505060019003906000526020600020016000909190919091509080519060200190611590929190611a50565b5050505050505050565b60606001805480602002602001604051908101604052809291908181526020016000905b8282101561166a5783829060005260206000200180546115dd90612ee8565b80601f016020809104026020016040519081016040528092919081815260200182805461160990612ee8565b80156116565780601f1061162b57610100808354040283529160200191611656565b820191906000526020600020905b81548152906001019060200180831161163957829003601f168201915b5050505050815260200190600101906115be565b50505050905090565b6000806000905060005b60008460405161168d9190612b99565b908152602001604051809103902060010180549050811015611751578473ffffffffffffffffffffffffffffffffffffffff166000856040516116d09190612b99565b908152602001604051809103902060010182815481106116f3576116f2612c88565b5b9060005260206000200160009054906101000a900473ffffffffffffffffffffffffffffffffffffffff1673ffffffffffffffffffffffffffffffffffffffff160361173e57600191505b8080611749906133d7565b91505061167d565b508091505092915050565b6000806001905060005b6000856040516117769190612b99565b9081526020016040518091039020600601805490508110156118a4578360ff166000866040516117a69190612b99565b908152602001604051809103902060060182815481106117c9576117c8612c88565b5b906000526020600020906002020160000160149054906101000a900460ff1660ff1614801561188757508573ffffffffffffffffffffffffffffffffffffffff1660008660405161181a9190612b99565b9081526020016040518091039020600601828154811061183d5761183c612c88565b5b906000526020600020906002020160000160009054906101000a900473ffffffffffffffffffffffffffffffffffffffff1673ffffffffffffffffffffffffffffffffffffffff16145b1561189157600091505b808061189c906133d7565b915050611766565b50809150509392505050565b8280548282559060005260206000209081019282156118ff579160200282015b828111156118fe5782518290805190602001906118ee929190611a50565b50916020019190600101906118d0565b5b50905061190c9190611ad6565b5090565b82805482825590600052602060002090601f016020900481019282156119b55791602002820160005b8382111561198657835183826101000a81548160ff02191690836001811115611965576119646125a4565b5b02179055509260200192600101602081600001049283019260010302611939565b80156119b35782816101000a81549060ff0219169055600101602081600001049283019260010302611986565b505b5090506119c29190611afa565b5090565b828054828255906000526020600020908101928215611a3f579160200282015b82811115611a3e5782518260006101000a81548173ffffffffffffffffffffffffffffffffffffffff021916908373ffffffffffffffffffffffffffffffffffffffff160217905550916020019190600101906119e6565b5b509050611a4c9190611afa565b5090565b828054611a5c90612ee8565b90600052602060002090601f016020900481019282611a7e5760008555611ac5565b82601f10611a9757805160ff1916838001178555611ac5565b82800160010185558215611ac5579182015b82811115611ac4578251825591602001919060010190611aa9565b5b509050611ad29190611afa565b5090565b5b80821115611af65760008181611aed9190611b17565b50600101611ad7565b5090565b5b80821115611b13576000816000905550600101611afb565b5090565b508054611b2390612ee8565b6000825580601f10611b355750611b54565b601f016020900490600052602060002090810190611b539190611afa565b5b50565b6000604051905090565b600080fd5b600080fd5b600080fd5b6000601f19601f8301169050919050565b7f4e487b7100000000000000000000000000000000000000000000000000000000600052604160045260246000fd5b611bb982611b70565b810181811067ffffffffffffffff82111715611bd857611bd7611b81565b5b80604052505050565b6000611beb611b57565b9050611bf78282611bb0565b919050565b600067ffffffffffffffff821115611c1757611c16611b81565b5b602082029050602081019050919050565b600080fd5b600080fd5b600067ffffffffffffffff821115611c4d57611c4c611b81565b5b611c5682611b70565b9050602081019050919050565b82818337600083830152505050565b6000611c85611c8084611c32565b611be1565b905082815260208101848484011115611ca157611ca0611c2d565b5b611cac848285611c63565b509392505050565b600082601f830112611cc957611cc8611b6b565b5b8135611cd9848260208601611c72565b91505092915050565b6000611cf5611cf084611bfc565b611be1565b90508083825260208201905060208402830185811115611d1857611d17611c28565b5b835b81811015611d5f57803567ffffffffffffffff811115611d3d57611d3c611b6b565b5b808601611d4a8982611cb4565b85526020850194505050602081019050611d1a565b5050509392505050565b600082601f830112611d7e57611d7d611b6b565b5b8135611d8e848260208601611ce2565b91505092915050565b600067ffffffffffffffff821115611db257611db1611b81565b5b602082029050602081019050919050565b60028110611dd057600080fd5b50565b600081359050611de281611dc3565b92915050565b6000611dfb611df684611d97565b611be1565b90508083825260208201905060208402830185811115611e1e57611e1d611c28565b5b835b81811015611e475780611e338882611dd3565b845260208401935050602081019050611e20565b5050509392505050565b600082601f830112611e6657611e65611b6b565b5b8135611e76848260208601611de8565b91505092915050565b60008060408385031215611e9657611e95611b61565b5b600083013567ffffffffffffffff811115611eb457611eb3611b66565b5b611ec085828601611d69565b925050602083013567ffffffffffffffff811115611ee157611ee0611b66565b5b611eed85828601611e51565b9150509250929050565b6000819050919050565b611f0a81611ef7565b82525050565b6000602082019050611f256000830184611f01565b92915050565b600060ff82169050919050565b611f4181611f2b565b8114611f4c57600080fd5b50565b600081359050611f5e81611f38565b92915050565b600080600060608486031215611f7d57611f7c611b61565b5b600084013567ffffffffffffffff811115611f9b57611f9a611b66565b5b611fa786828701611cb4565b9350506020611fb886828701611f4f565b925050604084013567ffffffffffffffff811115611fd957611fd8611b66565b5b611fe586828701611d69565b9150509250925092565b60006020828403121561200557612004611b61565b5b600082013567ffffffffffffffff81111561202357612022611b66565b5b61202f84828501611cb4565b91505092915050565b600081519050919050565b600082825260208201905092915050565b6000819050602082019050919050565b600073ffffffffffffffffffffffffffffffffffffffff82169050919050565b600061208f82612064565b9050919050565b61209f81612084565b82525050565b60006120b18383612096565b60208301905092915050565b6000602082019050919050565b60006120d582612038565b6120df8185612043565b93506120ea83612054565b8060005b8381101561211b57815161210288826120a5565b975061210d836120bd565b9250506001810190506120ee565b5085935050505092915050565b600081519050919050565b600082825260208201905092915050565b6000819050602082019050919050565b600081519050919050565b600082825260208201905092915050565b60005b8381101561218e578082015181840152602081019050612173565b8381111561219d576000848401525b50505050565b60006121ae82612154565b6121b8818561215f565b93506121c8818560208601612170565b6121d181611b70565b840191505092915050565b60006121e883836121a3565b905092915050565b6000602082019050919050565b600061220882612128565b6122128185612133565b93508360208202850161222485612144565b8060005b85811015612260578484038952815161224185826121dc565b945061224c836121f0565b925060208a01995050600181019050612228565b50829750879550505050505092915050565b600082825260208201905092915050565b600061228e82612154565b6122988185612272565b93506122a8818560208601612170565b6122b181611b70565b840191505092915050565b600081519050919050565b600082825260208201905092915050565b6000819050602082019050919050565b6122f181611f2b565b82525050565b600082825260208201905092915050565b600061231382612128565b61231d81856122f7565b93508360208202850161232f85612144565b8060005b8581101561236b578484038952815161234c85826121dc565b9450612357836121f0565b925060208a01995050600181019050612333565b50829750879550505050505092915050565b60006060830160008301516123956000860182612096565b5060208301516123a860208601826122e8565b50604083015184820360408601526123c08282612308565b9150508091505092915050565b60006123d9838361237d565b905092915050565b6000602082019050919050565b60006123f9826122bc565b61240381856122c7565b935083602082028501612415856122d8565b8060005b85811015612451578484038952815161243285826123cd565b945061243d836123e1565b925060208a01995050600181019050612419565b50829750879550505050505092915050565b60008115159050919050565b61247881612463565b82525050565b6000610100820190508181036000830152612499818b6120ca565b905081810360208301526124ad818a6121fd565b905081810360408301526124c181896121fd565b905081810360608301526124d58188612283565b90506124e46080830187611f01565b81810360a08301526124f681866123ee565b905061250560c0830185611f01565b61251260e083018461246f565b9998505050505050505050565b61252881611ef7565b811461253357600080fd5b50565b6000813590506125458161251f565b92915050565b60006020828403121561256157612560611b61565b5b600061256f84828501612536565b91505092915050565b600081519050919050565b600082825260208201905092915050565b6000819050602082019050919050565b7f4e487b7100000000000000000000000000000000000000000000000000000000600052602160045260246000fd5b600281106125e4576125e36125a4565b5b50565b60008190506125f5826125d3565b919050565b6000612605826125e7565b9050919050565b612615816125fa565b82525050565b6000612627838361260c565b60208301905092915050565b6000602082019050919050565b600061264b82612578565b6126558185612583565b935061266083612594565b8060005b83811015612691578151612678888261261b565b975061268383612633565b925050600181019050612664565b5085935050505092915050565b600060408201905081810360008301526126b881856121fd565b905081810360208301526126cc8184612640565b90509392505050565b600067ffffffffffffffff8211156126f0576126ef611b81565b5b602082029050602081019050919050565b61270a81612084565b811461271557600080fd5b50565b60008135905061272781612701565b92915050565b600061274061273b846126d5565b611be1565b9050808382526020820190506020840283018581111561276357612762611c28565b5b835b8181101561278c57806127788882612718565b845260208401935050602081019050612765565b5050509392505050565b600082601f8301126127ab576127aa611b6b565b5b81356127bb84826020860161272d565b91505092915050565b600080600080600080600060e0888a0312156127e3576127e2611b61565b5b600088013567ffffffffffffffff81111561280157612800611b66565b5b61280d8a828b01611cb4565b975050602088013567ffffffffffffffff81111561282e5761282d611b66565b5b61283a8a828b01612796565b965050604088013567ffffffffffffffff81111561285b5761285a611b66565b5b6128678a828b01611d69565b955050606088013567ffffffffffffffff81111561288857612887611b66565b5b6128948a828b01611d69565b945050608088013567ffffffffffffffff8111156128b5576128b4611b66565b5b6128c18a828b01611cb4565b93505060a06128d28a828b01612536565b92505060c06128e38a828b01612536565b91505092959891949750929550565b6000602082019050818103600083015261290c81846121fd565b905092915050565b7f4465726573793a205175657374696f6e732063616e2774206265206e756c6c00600082015250565b600061294a601f83612272565b915061295582612914565b602082019050919050565b600060208201905081810360008301526129798161293d565b9050919050565b7f4465726573793a205175657374696f6e2054797065732063616e27742062652060008201527f6e756c6c00000000000000000000000000000000000000000000000000000000602082015250565b60006129dc602483612272565b91506129e782612980565b604082019050919050565b60006020820190508181036000830152612a0b816129cf565b9050919050565b7f4465726573793a204e6565647320746f206265207468652073616d652071756160008201527f6e74697479206f6620706172616d657465727300000000000000000000000000602082015250565b6000612a6e603383612272565b9150612a7982612a12565b604082019050919050565b60006020820190508181036000830152612a9d81612a61565b9050919050565b7f4e487b7100000000000000000000000000000000000000000000000000000000600052601160045260246000fd5b6000612ade82611ef7565b9150612ae983611ef7565b9250827fffffffffffffffffffffffffffffffffffffffffffffffffffffffffffffffff03821115612b1e57612b1d612aa4565b5b828201905092915050565b6000612b3482611ef7565b9150612b3f83611ef7565b925082821015612b5257612b51612aa4565b5b828203905092915050565b600081905092915050565b6000612b7382612154565b612b7d8185612b5d565b9350612b8d818560208601612170565b80840191505092915050565b6000612ba58284612b68565b915081905092915050565b7f4465726573793a207265717565737420636c6f73656400000000000000000000600082015250565b6000612be6601683612272565b9150612bf182612bb0565b602082019050919050565b60006020820190508181036000830152612c1581612bd9565b9050919050565b7f4465726573793a20746172676574496e64657820696e76616c69640000000000600082015250565b6000612c52601b83612272565b9150612c5d82612c1c565b602082019050919050565b60006020820190508181036000830152612c8181612c45565b9050919050565b7f4e487b7100000000000000000000000000000000000000000000000000000000600052603260045260246000fd5b7f4465726573793a204e6f74207468652073616d65206e756d626572206f66207160008201527f75657374696f6e7320616e6420616e7377657273000000000000000000000000602082015250565b6000612d13603483612272565b9150612d1e82612cb7565b604082019050919050565b60006020820190508181036000830152612d4281612d06565b9050919050565b7f546869732061646472657373206973206e6f7420696e2074686520726576696560008201527f77657273206c69737420666f722074686520737065636966696564207265717560208201527f6573742e00000000000000000000000000000000000000000000000000000000604082015250565b6000612dcb604483612272565b9150612dd682612d49565b606082019050919050565b60006020820190508181036000830152612dfa81612dbe565b9050919050565b7f5468697320616464726573732068617320616c7265616479207375626d69747460008201527f656420612072657669657720666f72207468652074617267746520696e64657860208201527f20696e2074686520737065636966696564207265717565737400000000000000604082015250565b6000612e83605983612272565b9150612e8e82612e01565b606082019050919050565b60006020820190508181036000830152612eb281612e76565b9050919050565b7f4e487b7100000000000000000000000000000000000000000000000000000000600052602260045260246000fd5b60006002820490506001821680612f0057607f821691505b602082108103612f1357612f12612eb9565b5b50919050565b7f4465726573793a204974206973206e6f74207468652073706f6e736f72000000600082015250565b6000612f4f601d83612272565b9150612f5a82612f19565b602082019050919050565b60006020820190508181036000830152612f7e81612f42565b9050919050565b7f4465726573793a205265766965776572732063616e6e6f74206265206e756c6c600082015250565b6000612fbb602083612272565b9150612fc682612f85565b602082019050919050565b60006020820190508181036000830152612fea81612fae565b9050919050565b7f4465726573793a20546172676574732063616e6e6f74206265206e756c6c0000600082015250565b6000613027601e83612272565b915061303282612ff1565b602082019050919050565b600060208201905081810360008301526130568161301a565b9050919050565b7f4465726573793a20546172676574732049504653206861736865732063616e6e60008201527f6f74206265206e756c6c00000000000000000000000000000000000000000000602082015250565b60006130b9602a83612272565b91506130c48261305d565b604082019050919050565b600060208201905081810360008301526130e8816130ac565b9050919050565b7f4465726573793a205461726765747320616e642074617267657473495046534860008201527f6173686573206172726179206d7573742068617665207468652073616d65206c60208201527f656e677468000000000000000000000000000000000000000000000000000000604082015250565b6000613171604583612272565b915061317c826130ef565b606082019050919050565b600060208201905081810360008301526131a081613164565b9050919050565b7f4465726573793a20526576696577466f726d496e64657820696e76616c696400600082015250565b60006131dd601f83612272565b91506131e8826131a7565b602082019050919050565b6000602082019050818103600083015261320c816131d0565b9050919050565b7f4465726573793a207265776172645065725265766965772063616e6e6f74206260008201527f6520656d70747900000000000000000000000000000000000000000000000000602082015250565b600061326f602783612272565b915061327a82613213565b604082019050919050565b6000602082019050818103600083015261329e81613262565b9050919050565b7f4465726573793a204e616d65206475706c696361746564000000000000000000600082015250565b60006132db601783612272565b91506132e6826132a5565b602082019050919050565b6000602082019050818103600083015261330a816132ce565b9050919050565b600061331c82611ef7565b915061332783611ef7565b9250817fffffffffffffffffffffffffffffffffffffffffffffffffffffffffffffffff04831182151516156133605761335f612aa4565b5b828202905092915050565b7f4465726573793a206d73672e76616c756520696e76616c696400000000000000600082015250565b60006133a1601983612272565b91506133ac8261336b565b602082019050919050565b600060208201905081810360008301526133d081613394565b9050919050565b60006133e282611ef7565b91507fffffffffffffffffffffffffffffffffffffffffffffffffffffffffffffffff820361341457613413612aa4565b5b60018201905091905056fea2646970667358221220b50427cd4df93259c1ef34b8792d3d5126f36971c534c76845140dcb7ae50fa864736f6c634300080d0033",
  "immutableReferences": {},
  "source": "// SPDX-License-Identifier: MIT\npragma solidity 0.8.13;\ncontract DeresyRequests {\n    \n  enum QuestionType {Text, Checkbox}\n    \n  struct reviewForm {\n    string[] questions;\n    QuestionType[] questionTypes;\n  }\n\n  struct Review {\n    address reviewer;\n    uint8 targetIndex;\n    string[] answers;\n  }\n    \n  struct ReviewRequest {\n    address sponsor;\n    address[] reviewers;\n    string[] targets;\n    string[] targetsIPFSHashes;\n    string formIpfsHash;\n    uint256 rewardPerReview;\n    Review[] reviews;\n    bool isClosed;\n    uint256 fundsLeft;\n    uint256 reviewFormIndex;\n  }\n\n  mapping(string => ReviewRequest) private reviewRequests;\n\n  string[] reviewRequestNames;\n  uint256 public reviewFormsTotal;\n\n  reviewForm[] reviewForms;\n\n  //creating ReviewForm\n  function createReviewForm(string[] memory questions, QuestionType[] memory questionTypes) external  returns (uint256){\n    require(questions.length > 0, \"Deresy: Questions can't be null\");\n    require(questionTypes.length > 0, \"Deresy: Question Types can't be null\");\n    require(questionTypes.length == questions.length, \"Deresy: Needs to be the same quantity of parameters\");\n    reviewForms.push(reviewForm(questions,questionTypes));\n    reviewFormsTotal += 1;\n    return reviewForms.length - 1;\n  }\n\n  // Creating a request \n  function createRequest(string memory _name, address[] memory reviewers, string[] memory targets, string[] memory targetsIPFSHashes, string memory formIpfsHash, uint256 rewardPerReview, uint256 reviewFormIndex) external payable{\n    require(reviewers.length > 0,\"Deresy: Reviewers cannot be null\");\n    require(targets.length > 0,\"Deresy: Targets cannot be null\");\n    require(targetsIPFSHashes.length > 0, \"Deresy: Targets IPFS hashes cannot be null\");\n    require(targets.length == targetsIPFSHashes.length, \"Deresy: Targets and targetsIPFSHashes array must have the same length\");\n    require(reviewFormIndex <= reviewForms.length - 1,\"Deresy: ReviewFormIndex invalid\");\n    require(rewardPerReview > 0,\"Deresy: rewardPerReview cannot be empty\");\n    require(reviewRequests[_name].sponsor == address(0),\"Deresy: Name duplicated\");\n    require(msg.value >= ((reviewers.length * targets.length) * rewardPerReview),\"Deresy: msg.value invalid\");\n    reviewRequests[_name].sponsor = msg.sender;\n    reviewRequests[_name].reviewers = reviewers;\n    reviewRequests[_name].targets = targets;\n    reviewRequests[_name].targetsIPFSHashes = targetsIPFSHashes;\n    reviewRequests[_name].formIpfsHash = formIpfsHash;\n    reviewRequests[_name].rewardPerReview = rewardPerReview;\n    reviewRequests[_name].isClosed = false;\n    reviewRequests[_name].fundsLeft = msg.value;\n    reviewRequests[_name].reviewFormIndex = reviewFormIndex;\n    reviewRequestNames.push(_name);\n  }\n\n  function submitReview(string memory _name, uint8 targetIndex, string[] memory answers) external {\n    require(reviewRequests[_name].isClosed == false,\"Deresy: request closed\");\n    require(targetIndex < reviewRequests[_name].targets.length,\"Deresy: targetIndex invalid\");\n    require(reviewForms[reviewRequests[_name].reviewFormIndex].questions.length == answers.length,\"Deresy: Not the same number of questions and answers\");\n    require(isReviewer(msg.sender, _name) == true, \"This address is not in the reviewers list for the specified request.\");\n    require(hasSubmittedReview(msg.sender, _name, targetIndex), \"This address has already submitted a review for the targte index in the specified request\");      \n    reviewRequests[_name].reviews.push(Review(msg.sender,targetIndex, answers));\n    reviewRequests[_name].fundsLeft -= reviewRequests[_name].rewardPerReview;\n    payable(msg.sender).transfer(reviewRequests[_name].rewardPerReview);\n  }\n\n  function closeReviewRequest(string memory _name) external{\n    require(msg.sender == reviewRequests[_name].sponsor, \"Deresy: It is not the sponsor\");\n    require(reviewRequests[_name].isClosed == false,\"Deresy: request closed\");\n    payable(reviewRequests[_name].sponsor).transfer(reviewRequests[_name].fundsLeft);\n    reviewRequests[_name].isClosed = true;\n    reviewRequests[_name].fundsLeft = 0;\n  }\n\n  function getRequest(string memory _name) public view returns (address[] memory reviewers, string[] memory targets, string[] memory targetsIPFSHashes, string memory formIpfsHash, uint256 rewardPerReview,Review[] memory reviews, uint256 reviewFormIndex,bool isClosed){\n    ReviewRequest memory request = reviewRequests[_name];\n    return (request.reviewers, request.targets, request.targetsIPFSHashes, request.formIpfsHash, request.rewardPerReview, request.reviews, request.reviewFormIndex, request.isClosed);\n  }\n\n  function getReviewForm(uint256 _reviewFormIndex) public view returns(string[] memory, QuestionType[] memory){\n    return (reviewForms[_reviewFormIndex].questions,reviewForms[_reviewFormIndex].questionTypes);\n  }\n\n  function getReviewRequestsNames() public view returns(string[] memory){\n    return reviewRequestNames;\n  }\n\n  function isReviewer(address reviewerAddress, string memory _name) internal view returns (bool) {\n    bool reviewerFound = false;\n    for (uint i = 0; i < reviewRequests[_name].reviewers.length; i++){\n      if(reviewRequests[_name].reviewers[i] == reviewerAddress){\n        reviewerFound = true;\n      }\n    }\n    return reviewerFound;\n  }\n\n  function hasSubmittedReview(address reviewerAddress, string memory _name, uint8 targetIndex) internal view returns (bool) {\n    bool notReviewed = true;\n    for(uint i = 0; i < reviewRequests[_name].reviews.length; i++) {\n      if(reviewRequests[_name].reviews[i].targetIndex == targetIndex && reviewRequests[_name].reviews[i].reviewer == reviewerAddress) {\n        notReviewed = false;\n      }\n    }\n    return notReviewed;\n  }\n}",
  "sourcePath": "/Users/ozz/Documents/deresy/onc-smart-contracts/contracts/DeresyRequests.sol",
  "compiler": {
    "name": "solc",
    "version": "0.8.13+commit.abaa5c0e.Emscripten.clang"
  },
  "schemaVersion": "3.4.5",
  "updatedAt": "2022-05-18T01:17:47.296Z",
  "networkType": "ethereum",
  "devdoc": {
    "kind": "dev",
    "methods": {},
    "version": 1
  },
  "userdoc": {
    "kind": "user",
    "methods": {},
    "version": 1
  }
}