{
  "contractName": "DeresyRequests",
  "abi": [
    {
      "inputs": [],
      "name": "reviewFormsTotal",
      "outputs": [
        {
          "internalType": "uint256",
          "name": "",
          "type": "uint256"
        }
      ],
      "stateMutability": "view",
      "type": "function",
      "constant": true
    },
    {
      "inputs": [
        {
          "internalType": "string[]",
          "name": "questions",
          "type": "string[]"
        },
        {
          "internalType": "enum DeresyRequests.QuestionType[]",
          "name": "questionTypes",
          "type": "uint8[]"
        }
      ],
      "name": "createReviewForm",
      "outputs": [
        {
          "internalType": "uint256",
          "name": "",
          "type": "uint256"
        }
      ],
      "stateMutability": "nonpayable",
      "type": "function"
    },
    {
      "inputs": [
        {
          "internalType": "string",
          "name": "_name",
          "type": "string"
        },
        {
          "internalType": "address[]",
          "name": "reviewers",
          "type": "address[]"
        },
        {
          "internalType": "string[]",
          "name": "targets",
          "type": "string[]"
        },
        {
          "internalType": "string",
          "name": "formIpfsHash",
          "type": "string"
        },
        {
          "internalType": "uint256",
          "name": "rewardPerReview",
          "type": "uint256"
        },
        {
          "internalType": "uint256",
          "name": "reviewFormIndex",
          "type": "uint256"
        }
      ],
      "name": "createRequest",
      "outputs": [],
      "stateMutability": "payable",
      "type": "function",
      "payable": true
    },
    {
      "inputs": [
        {
          "internalType": "string",
          "name": "_name",
          "type": "string"
        },
        {
          "internalType": "uint8",
          "name": "targetIndex",
          "type": "uint8"
        },
        {
          "internalType": "string[]",
          "name": "answers",
          "type": "string[]"
        }
      ],
      "name": "submitReview",
      "outputs": [],
      "stateMutability": "nonpayable",
      "type": "function"
    },
    {
      "inputs": [
        {
          "internalType": "string",
          "name": "_name",
          "type": "string"
        }
      ],
      "name": "closeReviewRequest",
      "outputs": [],
      "stateMutability": "nonpayable",
      "type": "function"
    },
    {
      "inputs": [
        {
          "internalType": "string",
          "name": "_name",
          "type": "string"
        }
      ],
      "name": "getRequest",
      "outputs": [
        {
          "internalType": "address[]",
          "name": "reviewers",
          "type": "address[]"
        },
        {
          "internalType": "string[]",
          "name": "targets",
          "type": "string[]"
        },
        {
          "internalType": "string",
          "name": "formIpfsHash",
          "type": "string"
        },
        {
          "internalType": "uint256",
          "name": "rewardPerReview",
          "type": "uint256"
        },
        {
          "components": [
            {
              "internalType": "address",
              "name": "reviewer",
              "type": "address"
            },
            {
              "internalType": "uint8",
              "name": "targetIndex",
              "type": "uint8"
            },
            {
              "internalType": "string[]",
              "name": "answers",
              "type": "string[]"
            }
          ],
          "internalType": "struct DeresyRequests.Review[]",
          "name": "review",
          "type": "tuple[]"
        },
        {
          "internalType": "uint256",
          "name": "reviewFormIndex",
          "type": "uint256"
        },
        {
          "internalType": "bool",
          "name": "isClosed",
          "type": "bool"
        }
      ],
      "stateMutability": "view",
      "type": "function",
      "constant": true
    },
    {
      "inputs": [
        {
          "internalType": "uint256",
          "name": "_reviewFormIndex",
          "type": "uint256"
        }
      ],
      "name": "getReviewForm",
      "outputs": [
        {
          "internalType": "string[]",
          "name": "",
          "type": "string[]"
        },
        {
          "internalType": "enum DeresyRequests.QuestionType[]",
          "name": "",
          "type": "uint8[]"
        }
      ],
      "stateMutability": "view",
      "type": "function",
      "constant": true
    },
    {
      "inputs": [],
      "name": "getReviewRequestsNames",
      "outputs": [
        {
          "internalType": "string[]",
          "name": "",
          "type": "string[]"
        }
      ],
      "stateMutability": "view",
      "type": "function",
      "constant": true
    }
  ],
  "bytecode": "0x608060405234801561001057600080fd5b50612f18806100206000396000f3fe60806040526004361061007b5760003560e01c806386be6d511161004e57806386be6d5114610145578063b6fc76af14610170578063be2761d0146101ae578063dd526054146101d75761007b565b80633af8d19a146100805780635db117d81461009c578063629147e8146100d957806385b9241314610102575b600080fd5b61009a60048036038101906100959190611bfa565b610202565b005b3480156100a857600080fd5b506100c360048036038101906100be9190611ddf565b61061d565b6040516100d09190611e66565b60405180910390f35b3480156100e557600080fd5b5061010060048036038101906100fb9190611eba565b61079a565b005b34801561010e57600080fd5b5061012960048036038101906101249190611f45565b610ba3565b60405161013c97969594939291906123a2565b60405180910390f35b34801561015157600080fd5b5061015a61104b565b6040516101679190611e66565b60405180910390f35b34801561017c57600080fd5b506101976004803603810190610192919061242d565b611051565b6040516101a5929190612580565b60405180910390f35b3480156101ba57600080fd5b506101d560048036038101906101d09190611f45565b611201565b005b3480156101e357600080fd5b506101ec6114e3565b6040516101f991906125b7565b60405180910390f35b6000855111610246576040517f08c379a000000000000000000000000000000000000000000000000000000000815260040161023d90612625565b60405180910390fd5b60016003805490506102589190612674565b81111561029a576040517f08c379a0000000000000000000000000000000000000000000000000000000008152600401610291906126f4565b60405180910390fd5b84518451146102de576040517f08c379a00000000000000000000000000000000000000000000000000000000081526004016102d5906127ac565b60405180910390fd5b60008211610321576040517f08c379a00000000000000000000000000000000000000000000000000000000081526004016103189061283e565b60405180910390fd5b600073ffffffffffffffffffffffffffffffffffffffff16600087604051610349919061289a565b908152602001604051809103902060000160009054906101000a900473ffffffffffffffffffffffffffffffffffffffff1673ffffffffffffffffffffffffffffffffffffffff16146103d1576040517f08c379a00000000000000000000000000000000000000000000000000000000081526004016103c8906128fd565b60405180910390fd5b81845186516103e0919061291d565b6103ea919061291d565b34101561042c576040517f08c379a0000000000000000000000000000000000000000000000000000000008152600401610423906129c3565b60405180910390fd5b3360008760405161043d919061289a565b908152602001604051809103902060000160006101000a81548173ffffffffffffffffffffffffffffffffffffffff021916908373ffffffffffffffffffffffffffffffffffffffff1602179055508460008760405161049d919061289a565b908152602001604051809103902060010190805190602001906104c19291906115bc565b50836000876040516104d3919061289a565b908152602001604051809103902060020190805190602001906104f7929190611646565b5082600087604051610509919061289a565b9081526020016040518091039020600301908051906020019061052d9291906116a6565b508160008760405161053f919061289a565b90815260200160405180910390206004018190555060008087604051610565919061289a565b908152602001604051809103902060060160006101000a81548160ff0219169083151502179055503460008760405161059e919061289a565b908152602001604051809103902060070181905550806000876040516105c4919061289a565b9081526020016040518091039020600801819055506001869080600181540180825580915050600190039060005260206000200160009091909190915090805190602001906106149291906116a6565b50505050505050565b600080835111610662576040517f08c379a000000000000000000000000000000000000000000000000000000000815260040161065990612a2f565b60405180910390fd5b60008251116106a6576040517f08c379a000000000000000000000000000000000000000000000000000000000815260040161069d90612ac1565b60405180910390fd5b82518251146106ea576040517f08c379a00000000000000000000000000000000000000000000000000000000081526004016106e190612b53565b60405180910390fd5b600360405180604001604052808581526020018481525090806001815401808255809150506001900390600052602060002090600202016000909190919091506000820151816000019080519060200190610746929190611646565b50602082015181600101908051906020019061076392919061172c565b5050506001600260008282546107799190612b73565b9250508190555060016003805490506107929190612674565b905092915050565b600015156000846040516107ae919061289a565b908152602001604051809103902060060160009054906101000a900460ff1615151461080f576040517f08c379a000000000000000000000000000000000000000000000000000000000815260040161080690612c15565b60405180910390fd5b60008360405161081f919061289a565b9081526020016040518091039020600201805490508260ff1610610878576040517f08c379a000000000000000000000000000000000000000000000000000000000815260040161086f90612c81565b60405180910390fd5b8051600360008560405161088c919061289a565b908152602001604051809103902060080154815481106108af576108ae612ca1565b5b90600052602060002090600202016000018054905014610904576040517f08c379a00000000000000000000000000000000000000000000000000000000081526004016108fb90612d42565b60405180910390fd5b60005b600084604051610917919061289a565b908152602001604051809103902060010180549050811015610b9d573373ffffffffffffffffffffffffffffffffffffffff1660008560405161095a919061289a565b9081526020016040518091039020600101828154811061097d5761097c612ca1565b5b9060005260206000200160009054906101000a900473ffffffffffffffffffffffffffffffffffffffff1673ffffffffffffffffffffffffffffffffffffffff1603610b8a576000846040516109d3919061289a565b908152602001604051809103902060050160405180606001604052803373ffffffffffffffffffffffffffffffffffffffff1681526020018560ff16815260200184815250908060018154018082558091505060019003906000526020600020906002020160009091909190915060008201518160000160006101000a81548173ffffffffffffffffffffffffffffffffffffffff021916908373ffffffffffffffffffffffffffffffffffffffff16021790555060208201518160000160146101000a81548160ff021916908360ff1602179055506040820151816001019080519060200190610ac5929190611646565b505050600084604051610ad8919061289a565b908152602001604051809103902060040154600085604051610afa919061289a565b90815260200160405180910390206007016000828254610b1a9190612674565b925050819055503373ffffffffffffffffffffffffffffffffffffffff166108fc600086604051610b4b919061289a565b9081526020016040518091039020600401549081150290604051600060405180830381858888f19350505050158015610b88573d6000803e3d6000fd5b505b8080610b9590612d62565b915050610907565b50505050565b606080606060006060600080600088604051610bbf919061289a565b9081526020016040518091039020600101600089604051610be0919061289a565b908152602001604051809103902060020160008a604051610c01919061289a565b908152602001604051809103902060030160008b604051610c22919061289a565b90815260200160405180910390206004015460008c604051610c44919061289a565b908152602001604051809103902060050160008d604051610c65919061289a565b90815260200160405180910390206008015460008e604051610c87919061289a565b908152602001604051809103902060060160009054906101000a900460ff1686805480602002602001604051908101604052809291908181526020018280548015610d2757602002820191906000526020600020905b8160009054906101000a900473ffffffffffffffffffffffffffffffffffffffff1673ffffffffffffffffffffffffffffffffffffffff1681526020019060010190808311610cdd575b5050505050965085805480602002602001604051908101604052809291908181526020016000905b82821015610dfb578382906000526020600020018054610d6e90612dd9565b80601f0160208091040260200160405190810160405280929190818152602001828054610d9a90612dd9565b8015610de75780601f10610dbc57610100808354040283529160200191610de7565b820191906000526020600020905b815481529060010190602001808311610dca57829003601f168201915b505050505081526020019060010190610d4f565b505050509550848054610e0d90612dd9565b80601f0160208091040260200160405190810160405280929190818152602001828054610e3990612dd9565b8015610e865780601f10610e5b57610100808354040283529160200191610e86565b820191906000526020600020905b815481529060010190602001808311610e6957829003601f168201915b5050505050945082805480602002602001604051908101604052809291908181526020016000905b8282101561102c57838290600052602060002090600202016040518060600160405290816000820160009054906101000a900473ffffffffffffffffffffffffffffffffffffffff1673ffffffffffffffffffffffffffffffffffffffff1673ffffffffffffffffffffffffffffffffffffffff1681526020016000820160149054906101000a900460ff1660ff1660ff16815260200160018201805480602002602001604051908101604052809291908181526020016000905b82821015611015578382906000526020600020018054610f8890612dd9565b80601f0160208091040260200160405190810160405280929190818152602001828054610fb490612dd9565b80156110015780601f10610fd657610100808354040283529160200191611001565b820191906000526020600020905b815481529060010190602001808311610fe457829003601f168201915b505050505081526020019060010190610f69565b505050508152505081526020019060010190610eae565b5050505092509650965096509650965096509650919395979092949650565b60025481565b6060806003838154811061106857611067612ca1565b5b90600052602060002090600202016000016003848154811061108d5761108c612ca1565b5b906000526020600020906002020160010181805480602002602001604051908101604052809291908181526020016000905b8282101561116b5783829060005260206000200180546110de90612dd9565b80601f016020809104026020016040519081016040528092919081815260200182805461110a90612dd9565b80156111575780601f1061112c57610100808354040283529160200191611157565b820191906000526020600020905b81548152906001019060200180831161113a57829003601f168201915b5050505050815260200190600101906110bf565b505050509150808054806020026020016040519081016040528092919081815260200182805480156111f157602002820191906000526020600020906000905b82829054906101000a900460ff1660018111156111cb576111ca612486565b5b815260200190600101906020826000010492830192600103820291508084116111ab5790505b5050505050905091509150915091565b600081604051611211919061289a565b908152602001604051809103902060000160009054906101000a900473ffffffffffffffffffffffffffffffffffffffff1673ffffffffffffffffffffffffffffffffffffffff163373ffffffffffffffffffffffffffffffffffffffff16146112b0576040517f08c379a00000000000000000000000000000000000000000000000000000000081526004016112a790612e56565b60405180910390fd5b600015156000826040516112c4919061289a565b908152602001604051809103902060060160009054906101000a900460ff16151514611325576040517f08c379a000000000000000000000000000000000000000000000000000000000815260040161131c90612c15565b60405180910390fd5b60011515600082604051611339919061289a565b908152602001604051809103902060060160009054906101000a900460ff1615151480611398575060001515600082604051611375919061289a565b908152602001604051809103902060060160009054906101000a900460ff161515145b6113d7576040517f08c379a00000000000000000000000000000000000000000000000000000000081526004016113ce90612ec2565b60405180910390fd5b6000816040516113e7919061289a565b908152602001604051809103902060000160009054906101000a900473ffffffffffffffffffffffffffffffffffffffff1673ffffffffffffffffffffffffffffffffffffffff166108fc600083604051611442919061289a565b9081526020016040518091039020600701549081150290604051600060405180830381858888f1935050505015801561147f573d6000803e3d6000fd5b506001600082604051611492919061289a565b908152602001604051809103902060060160006101000a81548160ff021916908315150217905550600080826040516114cb919061289a565b90815260200160405180910390206007018190555050565b60606001805480602002602001604051908101604052809291908181526020016000905b828210156115b357838290600052602060002001805461152690612dd9565b80601f016020809104026020016040519081016040528092919081815260200182805461155290612dd9565b801561159f5780601f106115745761010080835404028352916020019161159f565b820191906000526020600020905b81548152906001019060200180831161158257829003601f168201915b505050505081526020019060010190611507565b50505050905090565b828054828255906000526020600020908101928215611635579160200282015b828111156116345782518260006101000a81548173ffffffffffffffffffffffffffffffffffffffff021916908373ffffffffffffffffffffffffffffffffffffffff160217905550916020019190600101906115dc565b5b50905061164291906117e2565b5090565b828054828255906000526020600020908101928215611695579160200282015b828111156116945782518290805190602001906116849291906116a6565b5091602001919060010190611666565b5b5090506116a291906117ff565b5090565b8280546116b290612dd9565b90600052602060002090601f0160209004810192826116d4576000855561171b565b82601f106116ed57805160ff191683800117855561171b565b8280016001018555821561171b579182015b8281111561171a5782518255916020019190600101906116ff565b5b50905061172891906117e2565b5090565b82805482825590600052602060002090601f016020900481019282156117d15791602002820160005b838211156117a257835183826101000a81548160ff0219169083600181111561178157611780612486565b5b02179055509260200192600101602081600001049283019260010302611755565b80156117cf5782816101000a81549060ff02191690556001016020816000010492830192600103026117a2565b505b5090506117de91906117e2565b5090565b5b808211156117fb5760008160009055506001016117e3565b5090565b5b8082111561181f57600081816118169190611823565b50600101611800565b5090565b50805461182f90612dd9565b6000825580601f106118415750611860565b601f01602090049060005260206000209081019061185f91906117e2565b5b50565b6000604051905090565b600080fd5b600080fd5b600080fd5b600080fd5b6000601f19601f8301169050919050565b7f4e487b7100000000000000000000000000000000000000000000000000000000600052604160045260246000fd5b6118ca82611881565b810181811067ffffffffffffffff821117156118e9576118e8611892565b5b80604052505050565b60006118fc611863565b905061190882826118c1565b919050565b600067ffffffffffffffff82111561192857611927611892565b5b61193182611881565b9050602081019050919050565b82818337600083830152505050565b600061196061195b8461190d565b6118f2565b90508281526020810184848401111561197c5761197b61187c565b5b61198784828561193e565b509392505050565b600082601f8301126119a4576119a3611877565b5b81356119b484826020860161194d565b91505092915050565b600067ffffffffffffffff8211156119d8576119d7611892565b5b602082029050602081019050919050565b600080fd5b600073ffffffffffffffffffffffffffffffffffffffff82169050919050565b6000611a19826119ee565b9050919050565b611a2981611a0e565b8114611a3457600080fd5b50565b600081359050611a4681611a20565b92915050565b6000611a5f611a5a846119bd565b6118f2565b90508083825260208201905060208402830185811115611a8257611a816119e9565b5b835b81811015611aab5780611a978882611a37565b845260208401935050602081019050611a84565b5050509392505050565b600082601f830112611aca57611ac9611877565b5b8135611ada848260208601611a4c565b91505092915050565b600067ffffffffffffffff821115611afe57611afd611892565b5b602082029050602081019050919050565b6000611b22611b1d84611ae3565b6118f2565b90508083825260208201905060208402830185811115611b4557611b446119e9565b5b835b81811015611b8c57803567ffffffffffffffff811115611b6a57611b69611877565b5b808601611b77898261198f565b85526020850194505050602081019050611b47565b5050509392505050565b600082601f830112611bab57611baa611877565b5b8135611bbb848260208601611b0f565b91505092915050565b6000819050919050565b611bd781611bc4565b8114611be257600080fd5b50565b600081359050611bf481611bce565b92915050565b60008060008060008060c08789031215611c1757611c1661186d565b5b600087013567ffffffffffffffff811115611c3557611c34611872565b5b611c4189828a0161198f565b965050602087013567ffffffffffffffff811115611c6257611c61611872565b5b611c6e89828a01611ab5565b955050604087013567ffffffffffffffff811115611c8f57611c8e611872565b5b611c9b89828a01611b96565b945050606087013567ffffffffffffffff811115611cbc57611cbb611872565b5b611cc889828a0161198f565b9350506080611cd989828a01611be5565b92505060a0611cea89828a01611be5565b9150509295509295509295565b600067ffffffffffffffff821115611d1257611d11611892565b5b602082029050602081019050919050565b60028110611d3057600080fd5b50565b600081359050611d4281611d23565b92915050565b6000611d5b611d5684611cf7565b6118f2565b90508083825260208201905060208402830185811115611d7e57611d7d6119e9565b5b835b81811015611da75780611d938882611d33565b845260208401935050602081019050611d80565b5050509392505050565b600082601f830112611dc657611dc5611877565b5b8135611dd6848260208601611d48565b91505092915050565b60008060408385031215611df657611df561186d565b5b600083013567ffffffffffffffff811115611e1457611e13611872565b5b611e2085828601611b96565b925050602083013567ffffffffffffffff811115611e4157611e40611872565b5b611e4d85828601611db1565b9150509250929050565b611e6081611bc4565b82525050565b6000602082019050611e7b6000830184611e57565b92915050565b600060ff82169050919050565b611e9781611e81565b8114611ea257600080fd5b50565b600081359050611eb481611e8e565b92915050565b600080600060608486031215611ed357611ed261186d565b5b600084013567ffffffffffffffff811115611ef157611ef0611872565b5b611efd8682870161198f565b9350506020611f0e86828701611ea5565b925050604084013567ffffffffffffffff811115611f2f57611f2e611872565b5b611f3b86828701611b96565b9150509250925092565b600060208284031215611f5b57611f5a61186d565b5b600082013567ffffffffffffffff811115611f7957611f78611872565b5b611f858482850161198f565b91505092915050565b600081519050919050565b600082825260208201905092915050565b6000819050602082019050919050565b611fc381611a0e565b82525050565b6000611fd58383611fba565b60208301905092915050565b6000602082019050919050565b6000611ff982611f8e565b6120038185611f99565b935061200e83611faa565b8060005b8381101561203f5781516120268882611fc9565b975061203183611fe1565b925050600181019050612012565b5085935050505092915050565b600081519050919050565b600082825260208201905092915050565b6000819050602082019050919050565b600081519050919050565b600082825260208201905092915050565b60005b838110156120b2578082015181840152602081019050612097565b838111156120c1576000848401525b50505050565b60006120d282612078565b6120dc8185612083565b93506120ec818560208601612094565b6120f581611881565b840191505092915050565b600061210c83836120c7565b905092915050565b6000602082019050919050565b600061212c8261204c565b6121368185612057565b93508360208202850161214885612068565b8060005b8581101561218457848403895281516121658582612100565b945061217083612114565b925060208a0199505060018101905061214c565b50829750879550505050505092915050565b600082825260208201905092915050565b60006121b282612078565b6121bc8185612196565b93506121cc818560208601612094565b6121d581611881565b840191505092915050565b600081519050919050565b600082825260208201905092915050565b6000819050602082019050919050565b61221581611e81565b82525050565b600082825260208201905092915050565b60006122378261204c565b612241818561221b565b93508360208202850161225385612068565b8060005b8581101561228f57848403895281516122708582612100565b945061227b83612114565b925060208a01995050600181019050612257565b50829750879550505050505092915050565b60006060830160008301516122b96000860182611fba565b5060208301516122cc602086018261220c565b50604083015184820360408601526122e4828261222c565b9150508091505092915050565b60006122fd83836122a1565b905092915050565b6000602082019050919050565b600061231d826121e0565b61232781856121eb565b935083602082028501612339856121fc565b8060005b85811015612375578484038952815161235685826122f1565b945061236183612305565b925060208a0199505060018101905061233d565b50829750879550505050505092915050565b60008115159050919050565b61239c81612387565b82525050565b600060e08201905081810360008301526123bc818a611fee565b905081810360208301526123d08189612121565b905081810360408301526123e481886121a7565b90506123f36060830187611e57565b81810360808301526124058186612312565b905061241460a0830185611e57565b61242160c0830184612393565b98975050505050505050565b6000602082840312156124435761244261186d565b5b600061245184828501611be5565b91505092915050565b600081519050919050565b600082825260208201905092915050565b6000819050602082019050919050565b7f4e487b7100000000000000000000000000000000000000000000000000000000600052602160045260246000fd5b600281106124c6576124c5612486565b5b50565b60008190506124d7826124b5565b919050565b60006124e7826124c9565b9050919050565b6124f7816124dc565b82525050565b600061250983836124ee565b60208301905092915050565b6000602082019050919050565b600061252d8261245a565b6125378185612465565b935061254283612476565b8060005b8381101561257357815161255a88826124fd565b975061256583612515565b925050600181019050612546565b5085935050505092915050565b6000604082019050818103600083015261259a8185612121565b905081810360208301526125ae8184612522565b90509392505050565b600060208201905081810360008301526125d18184612121565b905092915050565b7f4465726573793a205265766965776572732063616e6e6f74206265206e756c6c600082015250565b600061260f602083612196565b915061261a826125d9565b602082019050919050565b6000602082019050818103600083015261263e81612602565b9050919050565b7f4e487b7100000000000000000000000000000000000000000000000000000000600052601160045260246000fd5b600061267f82611bc4565b915061268a83611bc4565b92508282101561269d5761269c612645565b5b828203905092915050565b7f4465726573793a20526576696577466f726d496e64657820696e76616c696400600082015250565b60006126de601f83612196565b91506126e9826126a8565b602082019050919050565b6000602082019050818103600083015261270d816126d1565b9050919050565b7f4465726573793a204e6565647320746f2062652073616d65206e756d6265722060008201527f6f6620617267756d656e747320666f7220746172676574732061732077656c6c60208201527f20666f7220726576696577657273000000000000000000000000000000000000604082015250565b6000612796604e83612196565b91506127a182612714565b606082019050919050565b600060208201905081810360008301526127c581612789565b9050919050565b7f4465726573793a207265776172645065725265766965772063616e6e6f74206260008201527f6520656d70747900000000000000000000000000000000000000000000000000602082015250565b6000612828602783612196565b9150612833826127cc565b604082019050919050565b600060208201905081810360008301526128578161281b565b9050919050565b600081905092915050565b600061287482612078565b61287e818561285e565b935061288e818560208601612094565b80840191505092915050565b60006128a68284612869565b915081905092915050565b7f4465726573793a204e616d65206475706c696361746564000000000000000000600082015250565b60006128e7601783612196565b91506128f2826128b1565b602082019050919050565b60006020820190508181036000830152612916816128da565b9050919050565b600061292882611bc4565b915061293383611bc4565b9250817fffffffffffffffffffffffffffffffffffffffffffffffffffffffffffffffff048311821515161561296c5761296b612645565b5b828202905092915050565b7f4465726573793a206d73672e76616c756520696e76616c696400000000000000600082015250565b60006129ad601983612196565b91506129b882612977565b602082019050919050565b600060208201905081810360008301526129dc816129a0565b9050919050565b7f4465726573793a205175657374696f6e732063616e2774206265206e756c6c00600082015250565b6000612a19601f83612196565b9150612a24826129e3565b602082019050919050565b60006020820190508181036000830152612a4881612a0c565b9050919050565b7f4465726573793a205175657374696f6e2054797065732063616e27742062652060008201527f6e756c6c00000000000000000000000000000000000000000000000000000000602082015250565b6000612aab602483612196565b9150612ab682612a4f565b604082019050919050565b60006020820190508181036000830152612ada81612a9e565b9050919050565b7f4465726573793a204e6565647320746f206265207468652073616d652071756160008201527f6e74697479206f6620706172616d657465727300000000000000000000000000602082015250565b6000612b3d603383612196565b9150612b4882612ae1565b604082019050919050565b60006020820190508181036000830152612b6c81612b30565b9050919050565b6000612b7e82611bc4565b9150612b8983611bc4565b9250827fffffffffffffffffffffffffffffffffffffffffffffffffffffffffffffffff03821115612bbe57612bbd612645565b5b828201905092915050565b7f4465726573793a207265717565737420636c6f73656400000000000000000000600082015250565b6000612bff601683612196565b9150612c0a82612bc9565b602082019050919050565b60006020820190508181036000830152612c2e81612bf2565b9050919050565b7f4465726573793a20746172676574496e64657820696e76616c69640000000000600082015250565b6000612c6b601b83612196565b9150612c7682612c35565b602082019050919050565b60006020820190508181036000830152612c9a81612c5e565b9050919050565b7f4e487b7100000000000000000000000000000000000000000000000000000000600052603260045260246000fd5b7f4465726573793a204e6f74207468652073616d65206e756d626572206f66207160008201527f75657374696f6e7320616e6420616e7377657273000000000000000000000000602082015250565b6000612d2c603483612196565b9150612d3782612cd0565b604082019050919050565b60006020820190508181036000830152612d5b81612d1f565b9050919050565b6000612d6d82611bc4565b91507fffffffffffffffffffffffffffffffffffffffffffffffffffffffffffffffff8203612d9f57612d9e612645565b5b600182019050919050565b7f4e487b7100000000000000000000000000000000000000000000000000000000600052602260045260246000fd5b60006002820490506001821680612df157607f821691505b602082108103612e0457612e03612daa565b5b50919050565b7f4465726573793a20497473206973206e6f74207468652073706f6e736f720000600082015250565b6000612e40601e83612196565b9150612e4b82612e0a565b602082019050919050565b60006020820190508181036000830152612e6f81612e33565b9050919050565b7f4465726573793a204e616d6520646f6573206e6f742065786973740000000000600082015250565b6000612eac601b83612196565b9150612eb782612e76565b602082019050919050565b60006020820190508181036000830152612edb81612e9f565b905091905056fea2646970667358221220f837dfffbee42924743c38350d48717d80361b0f7e529ce09c597ba85aa300f564736f6c634300080d0033",
  "immutableReferences": {},
  "source": "// SPDX-License-Identifier: MIT\npragma solidity 0.8.13;\ncontract DeresyRequests {\n    \n    enum QuestionType {Text, Checkbox}\n    \n    struct reviewForm {\n        string[] questions;\n        QuestionType[] questionTypes;\n    }\n\n    struct Review {\n      address reviewer;\n      uint8 targetIndex;\n      string[] answers;\n    }\n    \n    struct ReviewRequest {\n      address sponsor;\n      address[] reviewers;\n      string[] targets;\n      string formIpfsHash;\n      uint256 rewardPerReview;\n      Review[] reviews;\n      bool isClosed;\n      uint256 fundsLeft;\n      uint256 reviewFormIndex;\n    }\n\n    mapping(string => ReviewRequest) private reviewRequests;\n\n    string[] reviewRequestNames;\n    uint256 public reviewFormsTotal;\n\n    // mapping(string => Review[]) private reviews;\n\n    reviewForm[] reviewForms;\n\n    //creating ReviewForm\n    function createReviewForm(string[] memory questions, QuestionType[] memory questionTypes) external  returns (uint256){\n        require(questions.length > 0, \"Deresy: Questions can't be null\");\n        require(questionTypes.length > 0, \"Deresy: Question Types can't be null\");\n        require(questionTypes.length == questions.length, \"Deresy: Needs to be the same quantity of parameters\");\n        reviewForms.push(reviewForm(questions,questionTypes));\n        reviewFormsTotal += 1;\n        return reviewForms.length - 1;\n    }\n\n    // Creating a request \n    function createRequest(string memory _name, address[] memory reviewers, string[] memory targets, string memory formIpfsHash, uint256 rewardPerReview, uint256 reviewFormIndex) external payable{\n        require(reviewers.length > 0,\"Deresy: Reviewers cannot be null\");\n        require(reviewFormIndex <= reviewForms.length - 1,\"Deresy: ReviewFormIndex invalid\");\n        require(targets.length == reviewers.length,\"Deresy: Needs to be same number of arguments for targets as well for reviewers\");\n        require(rewardPerReview > 0,\"Deresy: rewardPerReview cannot be empty\");\n        require(reviewRequests[_name].sponsor == address(0),\"Deresy: Name duplicated\");\n        require(msg.value >= ((reviewers.length * targets.length) * rewardPerReview),\"Deresy: msg.value invalid\");\n        reviewRequests[_name].sponsor = msg.sender;\n        reviewRequests[_name].reviewers = reviewers;\n        reviewRequests[_name].targets = targets;\n        reviewRequests[_name].formIpfsHash = formIpfsHash;\n        reviewRequests[_name].rewardPerReview = rewardPerReview;\n        reviewRequests[_name].isClosed = false;\n        reviewRequests[_name].fundsLeft = msg.value;\n        reviewRequests[_name].reviewFormIndex = reviewFormIndex;\n        reviewRequestNames.push(_name);\n    }\n\n    function submitReview(string memory _name, uint8 targetIndex, string[] memory answers) external {\n      require(reviewRequests[_name].isClosed == false,\"Deresy: request closed\");\n      require(targetIndex < reviewRequests[_name].targets.length,\"Deresy: targetIndex invalid\");\n      require(reviewForms[reviewRequests[_name].reviewFormIndex].questions.length == answers.length,\"Deresy: Not the same number of questions and answers\");\n      // require(reviewRequests[_name].fundsLeft < reviewRequests[_name].rewardPerReview, \"Deresy: Funds are less than reward\");\n      // bool flag = false;\n      for (uint i = 0; i < reviewRequests[_name].reviewers.length; i++){\n        if(reviewRequests[_name].reviewers[i] == msg.sender){\n          reviewRequests[_name].reviews.push(Review(msg.sender,targetIndex, answers));\n          reviewRequests[_name].fundsLeft -= reviewRequests[_name].rewardPerReview;\n          payable(msg.sender).transfer(reviewRequests[_name].rewardPerReview);\n        }\n      }\n    }\n\n    function closeReviewRequest(string memory _name) external{\n        // require(reviewRequests[_name].name, \"Deresy: name does not exist\");\n        require(msg.sender == reviewRequests[_name].sponsor, \"Deresy: Its is not the sponsor\");\n        require(reviewRequests[_name].isClosed == false,\"Deresy: request closed\");\n        require(reviewRequests[_name].isClosed == true || reviewRequests[_name].isClosed == false, \"Deresy: Name does not exist\");\n        payable(reviewRequests[_name].sponsor).transfer(reviewRequests[_name].fundsLeft);\n        reviewRequests[_name].isClosed = true;\n        reviewRequests[_name].fundsLeft = 0;\n    }\n\n    function getRequest(string memory _name) public view returns (address[] memory reviewers,string[] memory targets,string memory formIpfsHash,uint256 rewardPerReview,Review[] memory review,uint256 reviewFormIndex, bool isClosed){\n        return (reviewRequests[_name].reviewers,reviewRequests[_name].targets,reviewRequests[_name].formIpfsHash,reviewRequests[_name].rewardPerReview, reviewRequests[_name].reviews, reviewRequests[_name].reviewFormIndex, reviewRequests[_name].isClosed);\n    }\n\n    function getReviewForm(uint256 _reviewFormIndex) public view returns(string[] memory, QuestionType[] memory){\n        return (reviewForms[_reviewFormIndex].questions,reviewForms[_reviewFormIndex].questionTypes);\n    }\n\n    function getReviewRequestsNames() public view returns(string[] memory){\n        return reviewRequestNames;\n    }\n\n    // function check2(string memory _name) public view returns(address){\n    //     for (uint i = 0; i < reviewRequests[_name].reviews.length; i++){\n            \n    //         return reviewRequests[_name].reviews[i].reviewer;\n    //     }\n    // }\n\n}",
  "sourcePath": "/Users/ozz/Documents/deresy/onc-smart-contracts/contracts/DeresyRequests.sol",
  "compiler": {
    "name": "solc",
    "version": "0.8.13+commit.abaa5c0e.Emscripten.clang"
  },
  "schemaVersion": "3.4.5",
  "updatedAt": "2022-04-26T16:16:49.735Z",
  "networkType": "ethereum",
  "devdoc": {
    "kind": "dev",
    "methods": {},
    "version": 1
  },
  "userdoc": {
    "kind": "user",
    "methods": {},
    "version": 1
  }
}