{
  "contractName": "DeresyRequests",
  "abi": [
    {
      "inputs": [],
      "name": "reviewFormsTotal",
      "outputs": [
        {
          "internalType": "uint256",
          "name": "",
          "type": "uint256"
        }
      ],
      "stateMutability": "view",
      "type": "function",
      "constant": true
    },
    {
      "inputs": [
        {
          "internalType": "uint256",
          "name": "",
          "type": "uint256"
        }
      ],
      "name": "reviewRequestNames",
      "outputs": [
        {
          "internalType": "string",
          "name": "",
          "type": "string"
        }
      ],
      "stateMutability": "view",
      "type": "function",
      "constant": true
    },
    {
      "inputs": [
        {
          "internalType": "string[]",
          "name": "questions",
          "type": "string[]"
        },
        {
          "internalType": "enum DeresyRequests.QuestionType[]",
          "name": "questionTypes",
          "type": "uint8[]"
        }
      ],
      "name": "createReviewForm",
      "outputs": [
        {
          "internalType": "uint256",
          "name": "",
          "type": "uint256"
        }
      ],
      "stateMutability": "nonpayable",
      "type": "function"
    },
    {
      "inputs": [
        {
          "internalType": "string",
          "name": "_name",
          "type": "string"
        },
        {
          "internalType": "address[]",
          "name": "reviewers",
          "type": "address[]"
        },
        {
          "internalType": "string[]",
          "name": "targets",
          "type": "string[]"
        },
        {
          "internalType": "string",
          "name": "formIpfsHash",
          "type": "string"
        },
        {
          "internalType": "uint256",
          "name": "rewardPerReview",
          "type": "uint256"
        },
        {
          "internalType": "uint256",
          "name": "reviewFormIndex",
          "type": "uint256"
        }
      ],
      "name": "createRequest",
      "outputs": [],
      "stateMutability": "payable",
      "type": "function",
      "payable": true
    },
    {
      "inputs": [
        {
          "internalType": "string",
          "name": "_name",
          "type": "string"
        },
        {
          "internalType": "uint8",
          "name": "targetIndex",
          "type": "uint8"
        },
        {
          "internalType": "string[]",
          "name": "answers",
          "type": "string[]"
        }
      ],
      "name": "submitReview",
      "outputs": [],
      "stateMutability": "nonpayable",
      "type": "function"
    },
    {
      "inputs": [
        {
          "internalType": "string",
          "name": "_name",
          "type": "string"
        }
      ],
      "name": "closeReviewRequest",
      "outputs": [],
      "stateMutability": "nonpayable",
      "type": "function"
    },
    {
      "inputs": [
        {
          "internalType": "string",
          "name": "_name",
          "type": "string"
        }
      ],
      "name": "getRequest",
      "outputs": [
        {
          "internalType": "address[]",
          "name": "reviewers",
          "type": "address[]"
        },
        {
          "internalType": "string[]",
          "name": "targets",
          "type": "string[]"
        },
        {
          "internalType": "string",
          "name": "formIpfsHash",
          "type": "string"
        },
        {
          "internalType": "uint256",
          "name": "rewardPerReview",
          "type": "uint256"
        },
        {
          "components": [
            {
              "internalType": "address",
              "name": "reviewer",
              "type": "address"
            },
            {
              "internalType": "uint8",
              "name": "targetIndex",
              "type": "uint8"
            },
            {
              "internalType": "string[]",
              "name": "answers",
              "type": "string[]"
            }
          ],
          "internalType": "struct DeresyRequests.Review[]",
          "name": "review",
          "type": "tuple[]"
        },
        {
          "internalType": "uint256",
          "name": "reviewFormIndex",
          "type": "uint256"
        },
        {
          "internalType": "bool",
          "name": "isClosed",
          "type": "bool"
        }
      ],
      "stateMutability": "view",
      "type": "function",
      "constant": true
    },
    {
      "inputs": [
        {
          "internalType": "uint256",
          "name": "_reviewFormIndex",
          "type": "uint256"
        }
      ],
      "name": "getReviewForm",
      "outputs": [
        {
          "internalType": "string[]",
          "name": "",
          "type": "string[]"
        },
        {
          "internalType": "enum DeresyRequests.QuestionType[]",
          "name": "",
          "type": "uint8[]"
        }
      ],
      "stateMutability": "view",
      "type": "function",
      "constant": true
    }
  ],
  "bytecode": "0x608060405234801561001057600080fd5b50612efd806100206000396000f3fe60806040526004361061007b5760003560e01c806386be6d511161004e57806386be6d5114610145578063ad48f85514610170578063b6fc76af146101ad578063be2761d0146101eb5761007b565b80633af8d19a146100805780635db117d81461009c578063629147e8146100d957806385b9241314610102575b600080fd5b61009a60048036038101906100959190611bdf565b610214565b005b3480156100a857600080fd5b506100c360048036038101906100be9190611dc4565b61062f565b6040516100d09190611e4b565b60405180910390f35b3480156100e557600080fd5b5061010060048036038101906100fb9190611e9f565b6107ac565b005b34801561010e57600080fd5b5061012960048036038101906101249190611f2a565b610bb5565b60405161013c9796959493929190612387565b60405180910390f35b34801561015157600080fd5b5061015a61105d565b6040516101679190611e4b565b60405180910390f35b34801561017c57600080fd5b5061019760048036038101906101929190612412565b611063565b6040516101a4919061243f565b60405180910390f35b3480156101b957600080fd5b506101d460048036038101906101cf9190612412565b61110f565b6040516101e2929190612587565b60405180910390f35b3480156101f757600080fd5b50610212600480360381019061020d9190611f2a565b6112bf565b005b6000855111610258576040517f08c379a000000000000000000000000000000000000000000000000000000000815260040161024f9061260a565b60405180910390fd5b600160038054905061026a9190612659565b8111156102ac576040517f08c379a00000000000000000000000000000000000000000000000000000000081526004016102a3906126d9565b60405180910390fd5b84518451146102f0576040517f08c379a00000000000000000000000000000000000000000000000000000000081526004016102e790612791565b60405180910390fd5b60008211610333576040517f08c379a000000000000000000000000000000000000000000000000000000000815260040161032a90612823565b60405180910390fd5b600073ffffffffffffffffffffffffffffffffffffffff1660008760405161035b919061287f565b908152602001604051809103902060000160009054906101000a900473ffffffffffffffffffffffffffffffffffffffff1673ffffffffffffffffffffffffffffffffffffffff16146103e3576040517f08c379a00000000000000000000000000000000000000000000000000000000081526004016103da906128e2565b60405180910390fd5b81845186516103f29190612902565b6103fc9190612902565b34101561043e576040517f08c379a0000000000000000000000000000000000000000000000000000000008152600401610435906129a8565b60405180910390fd5b3360008760405161044f919061287f565b908152602001604051809103902060000160006101000a81548173ffffffffffffffffffffffffffffffffffffffff021916908373ffffffffffffffffffffffffffffffffffffffff160217905550846000876040516104af919061287f565b908152602001604051809103902060010190805190602001906104d39291906115a1565b50836000876040516104e5919061287f565b9081526020016040518091039020600201908051906020019061050992919061162b565b508260008760405161051b919061287f565b9081526020016040518091039020600301908051906020019061053f92919061168b565b5081600087604051610551919061287f565b90815260200160405180910390206004018190555060008087604051610577919061287f565b908152602001604051809103902060060160006101000a81548160ff021916908315150217905550346000876040516105b0919061287f565b908152602001604051809103902060070181905550806000876040516105d6919061287f565b90815260200160405180910390206008018190555060018690806001815401808255809150506001900390600052602060002001600090919091909150908051906020019061062692919061168b565b50505050505050565b600080835111610674576040517f08c379a000000000000000000000000000000000000000000000000000000000815260040161066b90612a14565b60405180910390fd5b60008251116106b8576040517f08c379a00000000000000000000000000000000000000000000000000000000081526004016106af90612aa6565b60405180910390fd5b82518251146106fc576040517f08c379a00000000000000000000000000000000000000000000000000000000081526004016106f390612b38565b60405180910390fd5b60036040518060400160405280858152602001848152509080600181540180825580915050600190039060005260206000209060020201600090919091909150600082015181600001908051906020019061075892919061162b565b506020820151816001019080519060200190610775929190611711565b50505060016002600082825461078b9190612b58565b9250508190555060016003805490506107a49190612659565b905092915050565b600015156000846040516107c0919061287f565b908152602001604051809103902060060160009054906101000a900460ff16151514610821576040517f08c379a000000000000000000000000000000000000000000000000000000000815260040161081890612bfa565b60405180910390fd5b600083604051610831919061287f565b9081526020016040518091039020600201805490508260ff161061088a576040517f08c379a000000000000000000000000000000000000000000000000000000000815260040161088190612c66565b60405180910390fd5b8051600360008560405161089e919061287f565b908152602001604051809103902060080154815481106108c1576108c0612c86565b5b90600052602060002090600202016000018054905014610916576040517f08c379a000000000000000000000000000000000000000000000000000000000815260040161090d90612d27565b60405180910390fd5b60005b600084604051610929919061287f565b908152602001604051809103902060010180549050811015610baf573373ffffffffffffffffffffffffffffffffffffffff1660008560405161096c919061287f565b9081526020016040518091039020600101828154811061098f5761098e612c86565b5b9060005260206000200160009054906101000a900473ffffffffffffffffffffffffffffffffffffffff1673ffffffffffffffffffffffffffffffffffffffff1603610b9c576000846040516109e5919061287f565b908152602001604051809103902060050160405180606001604052803373ffffffffffffffffffffffffffffffffffffffff1681526020018560ff16815260200184815250908060018154018082558091505060019003906000526020600020906002020160009091909190915060008201518160000160006101000a81548173ffffffffffffffffffffffffffffffffffffffff021916908373ffffffffffffffffffffffffffffffffffffffff16021790555060208201518160000160146101000a81548160ff021916908360ff1602179055506040820151816001019080519060200190610ad792919061162b565b505050600084604051610aea919061287f565b908152602001604051809103902060040154600085604051610b0c919061287f565b90815260200160405180910390206007016000828254610b2c9190612659565b925050819055503373ffffffffffffffffffffffffffffffffffffffff166108fc600086604051610b5d919061287f565b9081526020016040518091039020600401549081150290604051600060405180830381858888f19350505050158015610b9a573d6000803e3d6000fd5b505b8080610ba790612d47565b915050610919565b50505050565b606080606060006060600080600088604051610bd1919061287f565b9081526020016040518091039020600101600089604051610bf2919061287f565b908152602001604051809103902060020160008a604051610c13919061287f565b908152602001604051809103902060030160008b604051610c34919061287f565b90815260200160405180910390206004015460008c604051610c56919061287f565b908152602001604051809103902060050160008d604051610c77919061287f565b90815260200160405180910390206008015460008e604051610c99919061287f565b908152602001604051809103902060060160009054906101000a900460ff1686805480602002602001604051908101604052809291908181526020018280548015610d3957602002820191906000526020600020905b8160009054906101000a900473ffffffffffffffffffffffffffffffffffffffff1673ffffffffffffffffffffffffffffffffffffffff1681526020019060010190808311610cef575b5050505050965085805480602002602001604051908101604052809291908181526020016000905b82821015610e0d578382906000526020600020018054610d8090612dbe565b80601f0160208091040260200160405190810160405280929190818152602001828054610dac90612dbe565b8015610df95780601f10610dce57610100808354040283529160200191610df9565b820191906000526020600020905b815481529060010190602001808311610ddc57829003601f168201915b505050505081526020019060010190610d61565b505050509550848054610e1f90612dbe565b80601f0160208091040260200160405190810160405280929190818152602001828054610e4b90612dbe565b8015610e985780601f10610e6d57610100808354040283529160200191610e98565b820191906000526020600020905b815481529060010190602001808311610e7b57829003601f168201915b5050505050945082805480602002602001604051908101604052809291908181526020016000905b8282101561103e57838290600052602060002090600202016040518060600160405290816000820160009054906101000a900473ffffffffffffffffffffffffffffffffffffffff1673ffffffffffffffffffffffffffffffffffffffff1673ffffffffffffffffffffffffffffffffffffffff1681526020016000820160149054906101000a900460ff1660ff1660ff16815260200160018201805480602002602001604051908101604052809291908181526020016000905b82821015611027578382906000526020600020018054610f9a90612dbe565b80601f0160208091040260200160405190810160405280929190818152602001828054610fc690612dbe565b80156110135780601f10610fe857610100808354040283529160200191611013565b820191906000526020600020905b815481529060010190602001808311610ff657829003601f168201915b505050505081526020019060010190610f7b565b505050508152505081526020019060010190610ec0565b5050505092509650965096509650965096509650919395979092949650565b60025481565b6001818154811061107357600080fd5b90600052602060002001600091509050805461108e90612dbe565b80601f01602080910402602001604051908101604052809291908181526020018280546110ba90612dbe565b80156111075780601f106110dc57610100808354040283529160200191611107565b820191906000526020600020905b8154815290600101906020018083116110ea57829003601f168201915b505050505081565b6060806003838154811061112657611125612c86565b5b90600052602060002090600202016000016003848154811061114b5761114a612c86565b5b906000526020600020906002020160010181805480602002602001604051908101604052809291908181526020016000905b8282101561122957838290600052602060002001805461119c90612dbe565b80601f01602080910402602001604051908101604052809291908181526020018280546111c890612dbe565b80156112155780601f106111ea57610100808354040283529160200191611215565b820191906000526020600020905b8154815290600101906020018083116111f857829003601f168201915b50505050508152602001906001019061117d565b505050509150808054806020026020016040519081016040528092919081815260200182805480156112af57602002820191906000526020600020906000905b82829054906101000a900460ff1660018111156112895761128861248d565b5b815260200190600101906020826000010492830192600103820291508084116112695790505b5050505050905091509150915091565b6000816040516112cf919061287f565b908152602001604051809103902060000160009054906101000a900473ffffffffffffffffffffffffffffffffffffffff1673ffffffffffffffffffffffffffffffffffffffff163373ffffffffffffffffffffffffffffffffffffffff161461136e576040517f08c379a000000000000000000000000000000000000000000000000000000000815260040161136590612e3b565b60405180910390fd5b60001515600082604051611382919061287f565b908152602001604051809103902060060160009054906101000a900460ff161515146113e3576040517f08c379a00000000000000000000000000000000000000000000000000000000081526004016113da90612bfa565b60405180910390fd5b600115156000826040516113f7919061287f565b908152602001604051809103902060060160009054906101000a900460ff1615151480611456575060001515600082604051611433919061287f565b908152602001604051809103902060060160009054906101000a900460ff161515145b611495576040517f08c379a000000000000000000000000000000000000000000000000000000000815260040161148c90612ea7565b60405180910390fd5b6000816040516114a5919061287f565b908152602001604051809103902060000160009054906101000a900473ffffffffffffffffffffffffffffffffffffffff1673ffffffffffffffffffffffffffffffffffffffff166108fc600083604051611500919061287f565b9081526020016040518091039020600701549081150290604051600060405180830381858888f1935050505015801561153d573d6000803e3d6000fd5b506001600082604051611550919061287f565b908152602001604051809103902060060160006101000a81548160ff02191690831515021790555060008082604051611589919061287f565b90815260200160405180910390206007018190555050565b82805482825590600052602060002090810192821561161a579160200282015b828111156116195782518260006101000a81548173ffffffffffffffffffffffffffffffffffffffff021916908373ffffffffffffffffffffffffffffffffffffffff160217905550916020019190600101906115c1565b5b50905061162791906117c7565b5090565b82805482825590600052602060002090810192821561167a579160200282015b8281111561167957825182908051906020019061166992919061168b565b509160200191906001019061164b565b5b50905061168791906117e4565b5090565b82805461169790612dbe565b90600052602060002090601f0160209004810192826116b95760008555611700565b82601f106116d257805160ff1916838001178555611700565b82800160010185558215611700579182015b828111156116ff5782518255916020019190600101906116e4565b5b50905061170d91906117c7565b5090565b82805482825590600052602060002090601f016020900481019282156117b65791602002820160005b8382111561178757835183826101000a81548160ff021916908360018111156117665761176561248d565b5b0217905550926020019260010160208160000104928301926001030261173a565b80156117b45782816101000a81549060ff0219169055600101602081600001049283019260010302611787565b505b5090506117c391906117c7565b5090565b5b808211156117e05760008160009055506001016117c8565b5090565b5b8082111561180457600081816117fb9190611808565b506001016117e5565b5090565b50805461181490612dbe565b6000825580601f106118265750611845565b601f01602090049060005260206000209081019061184491906117c7565b5b50565b6000604051905090565b600080fd5b600080fd5b600080fd5b600080fd5b6000601f19601f8301169050919050565b7f4e487b7100000000000000000000000000000000000000000000000000000000600052604160045260246000fd5b6118af82611866565b810181811067ffffffffffffffff821117156118ce576118cd611877565b5b80604052505050565b60006118e1611848565b90506118ed82826118a6565b919050565b600067ffffffffffffffff82111561190d5761190c611877565b5b61191682611866565b9050602081019050919050565b82818337600083830152505050565b6000611945611940846118f2565b6118d7565b90508281526020810184848401111561196157611960611861565b5b61196c848285611923565b509392505050565b600082601f8301126119895761198861185c565b5b8135611999848260208601611932565b91505092915050565b600067ffffffffffffffff8211156119bd576119bc611877565b5b602082029050602081019050919050565b600080fd5b600073ffffffffffffffffffffffffffffffffffffffff82169050919050565b60006119fe826119d3565b9050919050565b611a0e816119f3565b8114611a1957600080fd5b50565b600081359050611a2b81611a05565b92915050565b6000611a44611a3f846119a2565b6118d7565b90508083825260208201905060208402830185811115611a6757611a666119ce565b5b835b81811015611a905780611a7c8882611a1c565b845260208401935050602081019050611a69565b5050509392505050565b600082601f830112611aaf57611aae61185c565b5b8135611abf848260208601611a31565b91505092915050565b600067ffffffffffffffff821115611ae357611ae2611877565b5b602082029050602081019050919050565b6000611b07611b0284611ac8565b6118d7565b90508083825260208201905060208402830185811115611b2a57611b296119ce565b5b835b81811015611b7157803567ffffffffffffffff811115611b4f57611b4e61185c565b5b808601611b5c8982611974565b85526020850194505050602081019050611b2c565b5050509392505050565b600082601f830112611b9057611b8f61185c565b5b8135611ba0848260208601611af4565b91505092915050565b6000819050919050565b611bbc81611ba9565b8114611bc757600080fd5b50565b600081359050611bd981611bb3565b92915050565b60008060008060008060c08789031215611bfc57611bfb611852565b5b600087013567ffffffffffffffff811115611c1a57611c19611857565b5b611c2689828a01611974565b965050602087013567ffffffffffffffff811115611c4757611c46611857565b5b611c5389828a01611a9a565b955050604087013567ffffffffffffffff811115611c7457611c73611857565b5b611c8089828a01611b7b565b945050606087013567ffffffffffffffff811115611ca157611ca0611857565b5b611cad89828a01611974565b9350506080611cbe89828a01611bca565b92505060a0611ccf89828a01611bca565b9150509295509295509295565b600067ffffffffffffffff821115611cf757611cf6611877565b5b602082029050602081019050919050565b60028110611d1557600080fd5b50565b600081359050611d2781611d08565b92915050565b6000611d40611d3b84611cdc565b6118d7565b90508083825260208201905060208402830185811115611d6357611d626119ce565b5b835b81811015611d8c5780611d788882611d18565b845260208401935050602081019050611d65565b5050509392505050565b600082601f830112611dab57611daa61185c565b5b8135611dbb848260208601611d2d565b91505092915050565b60008060408385031215611ddb57611dda611852565b5b600083013567ffffffffffffffff811115611df957611df8611857565b5b611e0585828601611b7b565b925050602083013567ffffffffffffffff811115611e2657611e25611857565b5b611e3285828601611d96565b9150509250929050565b611e4581611ba9565b82525050565b6000602082019050611e606000830184611e3c565b92915050565b600060ff82169050919050565b611e7c81611e66565b8114611e8757600080fd5b50565b600081359050611e9981611e73565b92915050565b600080600060608486031215611eb857611eb7611852565b5b600084013567ffffffffffffffff811115611ed657611ed5611857565b5b611ee286828701611974565b9350506020611ef386828701611e8a565b925050604084013567ffffffffffffffff811115611f1457611f13611857565b5b611f2086828701611b7b565b9150509250925092565b600060208284031215611f4057611f3f611852565b5b600082013567ffffffffffffffff811115611f5e57611f5d611857565b5b611f6a84828501611974565b91505092915050565b600081519050919050565b600082825260208201905092915050565b6000819050602082019050919050565b611fa8816119f3565b82525050565b6000611fba8383611f9f565b60208301905092915050565b6000602082019050919050565b6000611fde82611f73565b611fe88185611f7e565b9350611ff383611f8f565b8060005b8381101561202457815161200b8882611fae565b975061201683611fc6565b925050600181019050611ff7565b5085935050505092915050565b600081519050919050565b600082825260208201905092915050565b6000819050602082019050919050565b600081519050919050565b600082825260208201905092915050565b60005b8381101561209757808201518184015260208101905061207c565b838111156120a6576000848401525b50505050565b60006120b78261205d565b6120c18185612068565b93506120d1818560208601612079565b6120da81611866565b840191505092915050565b60006120f183836120ac565b905092915050565b6000602082019050919050565b600061211182612031565b61211b818561203c565b93508360208202850161212d8561204d565b8060005b85811015612169578484038952815161214a85826120e5565b9450612155836120f9565b925060208a01995050600181019050612131565b50829750879550505050505092915050565b600082825260208201905092915050565b60006121978261205d565b6121a1818561217b565b93506121b1818560208601612079565b6121ba81611866565b840191505092915050565b600081519050919050565b600082825260208201905092915050565b6000819050602082019050919050565b6121fa81611e66565b82525050565b600082825260208201905092915050565b600061221c82612031565b6122268185612200565b9350836020820285016122388561204d565b8060005b85811015612274578484038952815161225585826120e5565b9450612260836120f9565b925060208a0199505060018101905061223c565b50829750879550505050505092915050565b600060608301600083015161229e6000860182611f9f565b5060208301516122b160208601826121f1565b50604083015184820360408601526122c98282612211565b9150508091505092915050565b60006122e28383612286565b905092915050565b6000602082019050919050565b6000612302826121c5565b61230c81856121d0565b93508360208202850161231e856121e1565b8060005b8581101561235a578484038952815161233b85826122d6565b9450612346836122ea565b925060208a01995050600181019050612322565b50829750879550505050505092915050565b60008115159050919050565b6123818161236c565b82525050565b600060e08201905081810360008301526123a1818a611fd3565b905081810360208301526123b58189612106565b905081810360408301526123c9818861218c565b90506123d86060830187611e3c565b81810360808301526123ea81866122f7565b90506123f960a0830185611e3c565b61240660c0830184612378565b98975050505050505050565b60006020828403121561242857612427611852565b5b600061243684828501611bca565b91505092915050565b60006020820190508181036000830152612459818461218c565b905092915050565b600081519050919050565b600082825260208201905092915050565b6000819050602082019050919050565b7f4e487b7100000000000000000000000000000000000000000000000000000000600052602160045260246000fd5b600281106124cd576124cc61248d565b5b50565b60008190506124de826124bc565b919050565b60006124ee826124d0565b9050919050565b6124fe816124e3565b82525050565b600061251083836124f5565b60208301905092915050565b6000602082019050919050565b600061253482612461565b61253e818561246c565b93506125498361247d565b8060005b8381101561257a5781516125618882612504565b975061256c8361251c565b92505060018101905061254d565b5085935050505092915050565b600060408201905081810360008301526125a18185612106565b905081810360208301526125b58184612529565b90509392505050565b7f4465726573793a205265766965776572732063616e6e6f74206265206e756c6c600082015250565b60006125f460208361217b565b91506125ff826125be565b602082019050919050565b60006020820190508181036000830152612623816125e7565b9050919050565b7f4e487b7100000000000000000000000000000000000000000000000000000000600052601160045260246000fd5b600061266482611ba9565b915061266f83611ba9565b9250828210156126825761268161262a565b5b828203905092915050565b7f4465726573793a20526576696577466f726d496e64657820696e76616c696400600082015250565b60006126c3601f8361217b565b91506126ce8261268d565b602082019050919050565b600060208201905081810360008301526126f2816126b6565b9050919050565b7f4465726573793a204e6565647320746f2062652073616d65206e756d6265722060008201527f6f6620617267756d656e747320666f7220746172676574732061732077656c6c60208201527f20666f7220726576696577657273000000000000000000000000000000000000604082015250565b600061277b604e8361217b565b9150612786826126f9565b606082019050919050565b600060208201905081810360008301526127aa8161276e565b9050919050565b7f4465726573793a207265776172645065725265766965772063616e6e6f74206260008201527f6520656d70747900000000000000000000000000000000000000000000000000602082015250565b600061280d60278361217b565b9150612818826127b1565b604082019050919050565b6000602082019050818103600083015261283c81612800565b9050919050565b600081905092915050565b60006128598261205d565b6128638185612843565b9350612873818560208601612079565b80840191505092915050565b600061288b828461284e565b915081905092915050565b7f4465726573793a204e616d65206475706c696361746564000000000000000000600082015250565b60006128cc60178361217b565b91506128d782612896565b602082019050919050565b600060208201905081810360008301526128fb816128bf565b9050919050565b600061290d82611ba9565b915061291883611ba9565b9250817fffffffffffffffffffffffffffffffffffffffffffffffffffffffffffffffff04831182151516156129515761295061262a565b5b828202905092915050565b7f4465726573793a206d73672e76616c756520696e76616c696400000000000000600082015250565b600061299260198361217b565b915061299d8261295c565b602082019050919050565b600060208201905081810360008301526129c181612985565b9050919050565b7f4465726573793a205175657374696f6e732063616e2774206265206e756c6c00600082015250565b60006129fe601f8361217b565b9150612a09826129c8565b602082019050919050565b60006020820190508181036000830152612a2d816129f1565b9050919050565b7f4465726573793a205175657374696f6e2054797065732063616e27742062652060008201527f6e756c6c00000000000000000000000000000000000000000000000000000000602082015250565b6000612a9060248361217b565b9150612a9b82612a34565b604082019050919050565b60006020820190508181036000830152612abf81612a83565b9050919050565b7f4465726573793a204e6565647320746f206265207468652073616d652071756160008201527f6e74697479206f6620706172616d657465727300000000000000000000000000602082015250565b6000612b2260338361217b565b9150612b2d82612ac6565b604082019050919050565b60006020820190508181036000830152612b5181612b15565b9050919050565b6000612b6382611ba9565b9150612b6e83611ba9565b9250827fffffffffffffffffffffffffffffffffffffffffffffffffffffffffffffffff03821115612ba357612ba261262a565b5b828201905092915050565b7f4465726573793a207265717565737420636c6f73656400000000000000000000600082015250565b6000612be460168361217b565b9150612bef82612bae565b602082019050919050565b60006020820190508181036000830152612c1381612bd7565b9050919050565b7f4465726573793a20746172676574496e64657820696e76616c69640000000000600082015250565b6000612c50601b8361217b565b9150612c5b82612c1a565b602082019050919050565b60006020820190508181036000830152612c7f81612c43565b9050919050565b7f4e487b7100000000000000000000000000000000000000000000000000000000600052603260045260246000fd5b7f4465726573793a204e6f74207468652073616d65206e756d626572206f66207160008201527f75657374696f6e7320616e6420616e7377657273000000000000000000000000602082015250565b6000612d1160348361217b565b9150612d1c82612cb5565b604082019050919050565b60006020820190508181036000830152612d4081612d04565b9050919050565b6000612d5282611ba9565b91507fffffffffffffffffffffffffffffffffffffffffffffffffffffffffffffffff8203612d8457612d8361262a565b5b600182019050919050565b7f4e487b7100000000000000000000000000000000000000000000000000000000600052602260045260246000fd5b60006002820490506001821680612dd657607f821691505b602082108103612de957612de8612d8f565b5b50919050565b7f4465726573793a20497473206973206e6f74207468652073706f6e736f720000600082015250565b6000612e25601e8361217b565b9150612e3082612def565b602082019050919050565b60006020820190508181036000830152612e5481612e18565b9050919050565b7f4465726573793a204e616d6520646f6573206e6f742065786973740000000000600082015250565b6000612e91601b8361217b565b9150612e9c82612e5b565b602082019050919050565b60006020820190508181036000830152612ec081612e84565b905091905056fea2646970667358221220940031dd4edce46aa7253e36ca71f3623b6841d6b45a326dba8bc376bc451a0664736f6c634300080d0033",
  "immutableReferences": {},
  "source": "// SPDX-License-Identifier: MIT\npragma solidity 0.8.13;\ncontract DeresyRequests {\n    \n    enum QuestionType {Text, Checkbox}\n    \n    struct reviewForm {\n        string[] questions;\n        QuestionType[] questionTypes;\n    }\n\n    struct Review {\n      address reviewer;\n      uint8 targetIndex;\n      string[] answers;\n    }\n    \n    struct ReviewRequest {\n      address sponsor;\n      address[] reviewers;\n      string[] targets;\n      string formIpfsHash;\n      uint256 rewardPerReview;\n      Review[] reviews;\n      bool isClosed;\n      uint256 fundsLeft;\n      uint256 reviewFormIndex;\n    }\n\n    mapping(string => ReviewRequest) private reviewRequests;\n\n    string[] public reviewRequestNames;\n    uint256 public reviewFormsTotal;\n\n    // mapping(string => Review[]) private reviews;\n\n    reviewForm[] reviewForms;\n\n    //creating ReviewForm\n    function createReviewForm(string[] memory questions, QuestionType[] memory questionTypes) external  returns (uint256){\n        require(questions.length > 0, \"Deresy: Questions can't be null\");\n        require(questionTypes.length > 0, \"Deresy: Question Types can't be null\");\n        require(questionTypes.length == questions.length, \"Deresy: Needs to be the same quantity of parameters\");\n        reviewForms.push(reviewForm(questions,questionTypes));\n        reviewFormsTotal += 1;\n        return reviewForms.length - 1;\n    }\n\n    // Creating a request \n    function createRequest(string memory _name, address[] memory reviewers, string[] memory targets, string memory formIpfsHash, uint256 rewardPerReview, uint256 reviewFormIndex) external payable{\n        require(reviewers.length > 0,\"Deresy: Reviewers cannot be null\");\n        require(reviewFormIndex <= reviewForms.length - 1,\"Deresy: ReviewFormIndex invalid\");\n        require(targets.length == reviewers.length,\"Deresy: Needs to be same number of arguments for targets as well for reviewers\");\n        require(rewardPerReview > 0,\"Deresy: rewardPerReview cannot be empty\");\n        require(reviewRequests[_name].sponsor == address(0),\"Deresy: Name duplicated\");\n        require(msg.value >= ((reviewers.length * targets.length) * rewardPerReview),\"Deresy: msg.value invalid\");\n        reviewRequests[_name].sponsor = msg.sender;\n        reviewRequests[_name].reviewers = reviewers;\n        reviewRequests[_name].targets = targets;\n        reviewRequests[_name].formIpfsHash = formIpfsHash;\n        reviewRequests[_name].rewardPerReview = rewardPerReview;\n        reviewRequests[_name].isClosed = false;\n        reviewRequests[_name].fundsLeft = msg.value;\n        reviewRequests[_name].reviewFormIndex = reviewFormIndex;\n        reviewRequestNames.push(_name);\n    }\n\n    function submitReview(string memory _name, uint8 targetIndex, string[] memory answers) external {\n      require(reviewRequests[_name].isClosed == false,\"Deresy: request closed\");\n      require(targetIndex < reviewRequests[_name].targets.length,\"Deresy: targetIndex invalid\");\n      require(reviewForms[reviewRequests[_name].reviewFormIndex].questions.length == answers.length,\"Deresy: Not the same number of questions and answers\");\n      // require(reviewRequests[_name].fundsLeft < reviewRequests[_name].rewardPerReview, \"Deresy: Funds are less than reward\");\n      // bool flag = false;\n      for (uint i = 0; i < reviewRequests[_name].reviewers.length; i++){\n        if(reviewRequests[_name].reviewers[i] == msg.sender){\n          reviewRequests[_name].reviews.push(Review(msg.sender,targetIndex, answers));\n          reviewRequests[_name].fundsLeft -= reviewRequests[_name].rewardPerReview;\n          payable(msg.sender).transfer(reviewRequests[_name].rewardPerReview);\n        }\n      }\n    }\n\n    function closeReviewRequest(string memory _name) external{\n        // require(reviewRequests[_name].name, \"Deresy: name does not exist\");\n        require(msg.sender == reviewRequests[_name].sponsor, \"Deresy: Its is not the sponsor\");\n        require(reviewRequests[_name].isClosed == false,\"Deresy: request closed\");\n        require(reviewRequests[_name].isClosed == true || reviewRequests[_name].isClosed == false, \"Deresy: Name does not exist\");\n        payable(reviewRequests[_name].sponsor).transfer(reviewRequests[_name].fundsLeft);\n        reviewRequests[_name].isClosed = true;\n        reviewRequests[_name].fundsLeft = 0;\n    }\n\n    function getRequest(string memory _name) public view returns (address[] memory reviewers,string[] memory targets,string memory formIpfsHash,uint256 rewardPerReview,Review[] memory review,uint256 reviewFormIndex, bool isClosed){\n        return (reviewRequests[_name].reviewers,reviewRequests[_name].targets,reviewRequests[_name].formIpfsHash,reviewRequests[_name].rewardPerReview, reviewRequests[_name].reviews, reviewRequests[_name].reviewFormIndex, reviewRequests[_name].isClosed);\n    }\n\n    function getReviewForm(uint256 _reviewFormIndex) public view returns(string[] memory, QuestionType[] memory){\n        return (reviewForms[_reviewFormIndex].questions,reviewForms[_reviewFormIndex].questionTypes);\n    }\n\n    // function check2(string memory _name) public view returns(address){\n    //     for (uint i = 0; i < reviewRequests[_name].reviews.length; i++){\n            \n    //         return reviewRequests[_name].reviews[i].reviewer;\n    //     }\n    // }\n\n}",
  "sourcePath": "/Users/ozz/Documents/deresy/onc-smart-contracts/contracts/DeresyRequests.sol",
  "compiler": {
    "name": "solc",
    "version": "0.8.13+commit.abaa5c0e.Emscripten.clang"
  },
  "schemaVersion": "3.4.5",
  "updatedAt": "2022-04-20T18:23:27.791Z",
  "networkType": "ethereum",
  "devdoc": {
    "kind": "dev",
    "methods": {},
    "version": 1
  },
  "userdoc": {
    "kind": "user",
    "methods": {},
    "version": 1
  }
}