{
  "contractName": "DeresyRequestsV2",
  "abi": [
    {
      "inputs": [
        {
          "internalType": "string[]",
          "name": "questions",
          "type": "string[]"
        },
        {
          "internalType": "enum DeresyRequestsV2.QuestionType[]",
          "name": "questionTypes",
          "type": "uint8[]"
        }
      ],
      "name": "createReviewForm",
      "outputs": [
        {
          "internalType": "uint256",
          "name": "",
          "type": "uint256"
        }
      ],
      "stateMutability": "nonpayable",
      "type": "function"
    },
    {
      "inputs": [
        {
          "internalType": "string",
          "name": "_name",
          "type": "string"
        },
        {
          "internalType": "address[]",
          "name": "reviewers",
          "type": "address[]"
        },
        {
          "internalType": "string[]",
          "name": "targets",
          "type": "string[]"
        },
        {
          "internalType": "string",
          "name": "formIpfsHash",
          "type": "string"
        },
        {
          "internalType": "uint256",
          "name": "rewardPerReview",
          "type": "uint256"
        },
        {
          "internalType": "uint256",
          "name": "reviewFormIndex",
          "type": "uint256"
        }
      ],
      "name": "createRequest",
      "outputs": [],
      "stateMutability": "payable",
      "type": "function"
    },
    {
      "inputs": [
        {
          "internalType": "string",
          "name": "_name",
          "type": "string"
        },
        {
          "internalType": "uint8",
          "name": "targetIndex",
          "type": "uint8"
        },
        {
          "internalType": "string",
          "name": "reviewIpfsHash",
          "type": "string"
        },
        {
          "internalType": "string[]",
          "name": "answers",
          "type": "string[]"
        }
      ],
      "name": "submitReview",
      "outputs": [],
      "stateMutability": "nonpayable",
      "type": "function"
    },
    {
      "inputs": [
        {
          "internalType": "string",
          "name": "_name",
          "type": "string"
        }
      ],
      "name": "closeReviewRequest",
      "outputs": [],
      "stateMutability": "nonpayable",
      "type": "function"
    },
    {
      "inputs": [
        {
          "internalType": "string",
          "name": "_name",
          "type": "string"
        }
      ],
      "name": "getRequest",
      "outputs": [
        {
          "internalType": "address[]",
          "name": "reviewers",
          "type": "address[]"
        },
        {
          "internalType": "string[]",
          "name": "targets",
          "type": "string[]"
        },
        {
          "internalType": "string",
          "name": "formIpfsHash",
          "type": "string"
        },
        {
          "internalType": "uint256",
          "name": "rewardPerReview",
          "type": "uint256"
        },
        {
          "components": [
            {
              "internalType": "string",
              "name": "reviewIpfsHash",
              "type": "string"
            },
            {
              "internalType": "address",
              "name": "reviewer",
              "type": "address"
            },
            {
              "internalType": "uint8",
              "name": "targetIndex",
              "type": "uint8"
            },
            {
              "internalType": "string[]",
              "name": "answers",
              "type": "string[]"
            }
          ],
          "internalType": "struct DeresyRequestsV2.Review[]",
          "name": "review",
          "type": "tuple[]"
        },
        {
          "internalType": "uint256",
          "name": "reviewFormIndex",
          "type": "uint256"
        }
      ],
      "stateMutability": "view",
      "type": "function"
    },
    {
      "inputs": [
        {
          "internalType": "uint256",
          "name": "_reviewFormIndex",
          "type": "uint256"
        }
      ],
      "name": "getReviewForm",
      "outputs": [
        {
          "internalType": "string[]",
          "name": "",
          "type": "string[]"
        },
        {
          "internalType": "enum DeresyRequestsV2.QuestionType[]",
          "name": "",
          "type": "uint8[]"
        }
      ],
      "stateMutability": "view",
      "type": "function"
    }
  ],
  "bytecode": "0x608060405234801561001057600080fd5b506129b5806100206000396000f3fe6080604052600436106100555760003560e01c80631cc37e0d1461005a5780633af8d19a146100835780635db117d81461009f57806385b92413146100dc578063b6fc76af1461011e578063be2761d01461015c575b600080fd5b34801561006657600080fd5b50610081600480360381019061007c9190611781565b610185565b005b61009d60048036038101906100989190611993565b610438565b005b3480156100ab57600080fd5b506100c660048036038101906100c19190611b78565b610767565b6040516100d39190611bff565b60405180910390f35b3480156100e857600080fd5b5061010360048036038101906100fe9190611c1a565b6108ca565b60405161011596959493929190612076565b60405180910390f35b34801561012a57600080fd5b50610145600480360381019061014091906120f3565b610dcf565b604051610153929190612246565b60405180910390f35b34801561016857600080fd5b50610183600480360381019061017e9190611c1a565b610f7f565b005b6000151560008560405161019991906122b9565b908152602001604051809103902060060160009054906101000a900460ff161515146101fa576040517f08c379a00000000000000000000000000000000000000000000000000000000081526004016101f19061231c565b60405180910390fd5b60008460405161020a91906122b9565b90815260200160405180910390206004015460008560405161022c91906122b9565b908152602001604051809103902060070154101561024957600080fd5b60008460405161025991906122b9565b908152602001604051809103902060050160405180608001604052808481526020013373ffffffffffffffffffffffffffffffffffffffff1681526020018560ff16815260200183815250908060018154018082558091505060019003906000526020600020906003020160009091909190915060008201518160000190805190602001906102e9929190611261565b5060208201518160010160006101000a81548173ffffffffffffffffffffffffffffffffffffffff021916908373ffffffffffffffffffffffffffffffffffffffff16021790555060408201518160010160146101000a81548160ff021916908360ff160217905550606082015181600201908051906020019061036e9291906112e7565b50505060008460405161038191906122b9565b9081526020016040518091039020600401546000856040516103a391906122b9565b908152602001604051809103902060070160008282546103c3919061236b565b925050819055503373ffffffffffffffffffffffffffffffffffffffff166108fc6000866040516103f491906122b9565b9081526020016040518091039020600401549081150290604051600060405180830381858888f19350505050158015610431573d6000803e3d6000fd5b5050505050565b600085511161047c576040517f08c379a0000000000000000000000000000000000000000000000000000000008152600401610473906123eb565b60405180910390fd5b600160028054905061048e919061236b565b8111156104d0576040517f08c379a00000000000000000000000000000000000000000000000000000000081526004016104c790612457565b60405180910390fd5b8451845114610514576040517f08c379a000000000000000000000000000000000000000000000000000000000815260040161050b9061250f565b60405180910390fd5b60008211610557576040517f08c379a000000000000000000000000000000000000000000000000000000000815260040161054e906125a1565b60405180910390fd5b818451865161056691906125c1565b61057091906125c1565b3410156105b2576040517f08c379a00000000000000000000000000000000000000000000000000000000081526004016105a990612667565b60405180910390fd5b336000876040516105c391906122b9565b908152602001604051809103902060000160006101000a81548173ffffffffffffffffffffffffffffffffffffffff021916908373ffffffffffffffffffffffffffffffffffffffff1602179055508460008760405161062391906122b9565b90815260200160405180910390206001019080519060200190610647929190611347565b508360008760405161065991906122b9565b9081526020016040518091039020600201908051906020019061067d9291906112e7565b508260008760405161068f91906122b9565b908152602001604051809103902060030190805190602001906106b3929190611261565b50816000876040516106c591906122b9565b908152602001604051809103902060040181905550600080876040516106eb91906122b9565b908152602001604051809103902060060160006101000a81548160ff0219169083151502179055503460008760405161072491906122b9565b9081526020016040518091039020600701819055508060008760405161074a91906122b9565b908152602001604051809103902060080181905550505050505050565b6000808351116107ac576040517f08c379a00000000000000000000000000000000000000000000000000000000081526004016107a3906126d3565b60405180910390fd5b60008251116107f0576040517f08c379a00000000000000000000000000000000000000000000000000000000081526004016107e790612765565b60405180910390fd5b8251825114610834576040517f08c379a000000000000000000000000000000000000000000000000000000000815260040161082b906127f7565b60405180910390fd5b6002604051806040016040528085815260200184815250908060018154018082558091505060019003906000526020600020906002020160009091909190915060008201518160000190805190602001906108909291906112e7565b5060208201518160010190805190602001906108ad9291906113d1565b50505060016002805490506108c2919061236b565b905092915050565b606080606060006060600080876040516108e491906122b9565b908152602001604051809103902060010160008860405161090591906122b9565b908152602001604051809103902060020160008960405161092691906122b9565b908152602001604051809103902060030160008a60405161094791906122b9565b90815260200160405180910390206004015460008b60405161096991906122b9565b908152602001604051809103902060050160008c60405161098a91906122b9565b90815260200160405180910390206008015485805480602002602001604051908101604052809291908181526020018280548015610a1d57602002820191906000526020600020905b8160009054906101000a900473ffffffffffffffffffffffffffffffffffffffff1673ffffffffffffffffffffffffffffffffffffffff16815260200190600101908083116109d3575b5050505050955084805480602002602001604051908101604052809291908181526020016000905b82821015610af1578382906000526020600020018054610a6490612846565b80601f0160208091040260200160405190810160405280929190818152602001828054610a9090612846565b8015610add5780601f10610ab257610100808354040283529160200191610add565b820191906000526020600020905b815481529060010190602001808311610ac057829003601f168201915b505050505081526020019060010190610a45565b505050509450838054610b0390612846565b80601f0160208091040260200160405190810160405280929190818152602001828054610b2f90612846565b8015610b7c5780601f10610b5157610100808354040283529160200191610b7c565b820191906000526020600020905b815481529060010190602001808311610b5f57829003601f168201915b5050505050935081805480602002602001604051908101604052809291908181526020016000905b82821015610db45783829060005260206000209060030201604051806080016040529081600082018054610bd790612846565b80601f0160208091040260200160405190810160405280929190818152602001828054610c0390612846565b8015610c505780601f10610c2557610100808354040283529160200191610c50565b820191906000526020600020905b815481529060010190602001808311610c3357829003601f168201915b505050505081526020016001820160009054906101000a900473ffffffffffffffffffffffffffffffffffffffff1673ffffffffffffffffffffffffffffffffffffffff1673ffffffffffffffffffffffffffffffffffffffff1681526020016001820160149054906101000a900460ff1660ff1660ff16815260200160028201805480602002602001604051908101604052809291908181526020016000905b82821015610d9d578382906000526020600020018054610d1090612846565b80601f0160208091040260200160405190810160405280929190818152602001828054610d3c90612846565b8015610d895780601f10610d5e57610100808354040283529160200191610d89565b820191906000526020600020905b815481529060010190602001808311610d6c57829003601f168201915b505050505081526020019060010190610cf1565b505050508152505081526020019060010190610ba4565b50505050915095509550955095509550955091939550919395565b60608060028381548110610de657610de5612878565b5b906000526020600020906002020160000160028481548110610e0b57610e0a612878565b5b906000526020600020906002020160010181805480602002602001604051908101604052809291908181526020016000905b82821015610ee9578382906000526020600020018054610e5c90612846565b80601f0160208091040260200160405190810160405280929190818152602001828054610e8890612846565b8015610ed55780601f10610eaa57610100808354040283529160200191610ed5565b820191906000526020600020905b815481529060010190602001808311610eb857829003601f168201915b505050505081526020019060010190610e3d565b50505050915080805480602002602001604051908101604052809291908181526020018280548015610f6f57602002820191906000526020600020906000905b82829054906101000a900460ff166001811115610f4957610f4861214c565b5b81526020019060010190602082600001049283019260010382029150808411610f295790505b5050505050905091509150915091565b600081604051610f8f91906122b9565b908152602001604051809103902060000160009054906101000a900473ffffffffffffffffffffffffffffffffffffffff1673ffffffffffffffffffffffffffffffffffffffff163373ffffffffffffffffffffffffffffffffffffffff161461102e576040517f08c379a0000000000000000000000000000000000000000000000000000000008152600401611025906128f3565b60405180910390fd5b6000151560008260405161104291906122b9565b908152602001604051809103902060060160009054906101000a900460ff161515146110a3576040517f08c379a000000000000000000000000000000000000000000000000000000000815260040161109a9061231c565b60405180910390fd5b600115156000826040516110b791906122b9565b908152602001604051809103902060060160009054906101000a900460ff16151514806111165750600015156000826040516110f391906122b9565b908152602001604051809103902060060160009054906101000a900460ff161515145b611155576040517f08c379a000000000000000000000000000000000000000000000000000000000815260040161114c9061295f565b60405180910390fd5b60008160405161116591906122b9565b908152602001604051809103902060000160009054906101000a900473ffffffffffffffffffffffffffffffffffffffff1673ffffffffffffffffffffffffffffffffffffffff166108fc6000836040516111c091906122b9565b9081526020016040518091039020600701549081150290604051600060405180830381858888f193505050501580156111fd573d6000803e3d6000fd5b50600160008260405161121091906122b9565b908152602001604051809103902060060160006101000a81548160ff0219169083151502179055506000808260405161124991906122b9565b90815260200160405180910390206007018190555050565b82805461126d90612846565b90600052602060002090601f01602090048101928261128f57600085556112d6565b82601f106112a857805160ff19168380011785556112d6565b828001600101855582156112d6579182015b828111156112d55782518255916020019190600101906112ba565b5b5090506112e39190611487565b5090565b828054828255906000526020600020908101928215611336579160200282015b82811115611335578251829080519060200190611325929190611261565b5091602001919060010190611307565b5b50905061134391906114a4565b5090565b8280548282559060005260206000209081019282156113c0579160200282015b828111156113bf5782518260006101000a81548173ffffffffffffffffffffffffffffffffffffffff021916908373ffffffffffffffffffffffffffffffffffffffff16021790555091602001919060010190611367565b5b5090506113cd9190611487565b5090565b82805482825590600052602060002090601f016020900481019282156114765791602002820160005b8382111561144757835183826101000a81548160ff021916908360018111156114265761142561214c565b5b021790555092602001926001016020816000010492830192600103026113fa565b80156114745782816101000a81549060ff0219169055600101602081600001049283019260010302611447565b505b5090506114839190611487565b5090565b5b808211156114a0576000816000905550600101611488565b5090565b5b808211156114c457600081816114bb91906114c8565b506001016114a5565b5090565b5080546114d490612846565b6000825580601f106114e65750611505565b601f0160209004906000526020600020908101906115049190611487565b5b50565b6000604051905090565b600080fd5b600080fd5b600080fd5b600080fd5b6000601f19601f8301169050919050565b7f4e487b7100000000000000000000000000000000000000000000000000000000600052604160045260246000fd5b61156f82611526565b810181811067ffffffffffffffff8211171561158e5761158d611537565b5b80604052505050565b60006115a1611508565b90506115ad8282611566565b919050565b600067ffffffffffffffff8211156115cd576115cc611537565b5b6115d682611526565b9050602081019050919050565b82818337600083830152505050565b6000611605611600846115b2565b611597565b90508281526020810184848401111561162157611620611521565b5b61162c8482856115e3565b509392505050565b600082601f8301126116495761164861151c565b5b81356116598482602086016115f2565b91505092915050565b600060ff82169050919050565b61167881611662565b811461168357600080fd5b50565b6000813590506116958161166f565b92915050565b600067ffffffffffffffff8211156116b6576116b5611537565b5b602082029050602081019050919050565b600080fd5b60006116df6116da8461169b565b611597565b90508083825260208201905060208402830185811115611702576117016116c7565b5b835b8181101561174957803567ffffffffffffffff8111156117275761172661151c565b5b8086016117348982611634565b85526020850194505050602081019050611704565b5050509392505050565b600082601f8301126117685761176761151c565b5b81356117788482602086016116cc565b91505092915050565b6000806000806080858703121561179b5761179a611512565b5b600085013567ffffffffffffffff8111156117b9576117b8611517565b5b6117c587828801611634565b94505060206117d687828801611686565b935050604085013567ffffffffffffffff8111156117f7576117f6611517565b5b61180387828801611634565b925050606085013567ffffffffffffffff81111561182457611823611517565b5b61183087828801611753565b91505092959194509250565b600067ffffffffffffffff82111561185757611856611537565b5b602082029050602081019050919050565b600073ffffffffffffffffffffffffffffffffffffffff82169050919050565b600061189382611868565b9050919050565b6118a381611888565b81146118ae57600080fd5b50565b6000813590506118c08161189a565b92915050565b60006118d96118d48461183c565b611597565b905080838252602082019050602084028301858111156118fc576118fb6116c7565b5b835b81811015611925578061191188826118b1565b8452602084019350506020810190506118fe565b5050509392505050565b600082601f8301126119445761194361151c565b5b81356119548482602086016118c6565b91505092915050565b6000819050919050565b6119708161195d565b811461197b57600080fd5b50565b60008135905061198d81611967565b92915050565b60008060008060008060c087890312156119b0576119af611512565b5b600087013567ffffffffffffffff8111156119ce576119cd611517565b5b6119da89828a01611634565b965050602087013567ffffffffffffffff8111156119fb576119fa611517565b5b611a0789828a0161192f565b955050604087013567ffffffffffffffff811115611a2857611a27611517565b5b611a3489828a01611753565b945050606087013567ffffffffffffffff811115611a5557611a54611517565b5b611a6189828a01611634565b9350506080611a7289828a0161197e565b92505060a0611a8389828a0161197e565b9150509295509295509295565b600067ffffffffffffffff821115611aab57611aaa611537565b5b602082029050602081019050919050565b60028110611ac957600080fd5b50565b600081359050611adb81611abc565b92915050565b6000611af4611aef84611a90565b611597565b90508083825260208201905060208402830185811115611b1757611b166116c7565b5b835b81811015611b405780611b2c8882611acc565b845260208401935050602081019050611b19565b5050509392505050565b600082601f830112611b5f57611b5e61151c565b5b8135611b6f848260208601611ae1565b91505092915050565b60008060408385031215611b8f57611b8e611512565b5b600083013567ffffffffffffffff811115611bad57611bac611517565b5b611bb985828601611753565b925050602083013567ffffffffffffffff811115611bda57611bd9611517565b5b611be685828601611b4a565b9150509250929050565b611bf98161195d565b82525050565b6000602082019050611c146000830184611bf0565b92915050565b600060208284031215611c3057611c2f611512565b5b600082013567ffffffffffffffff811115611c4e57611c4d611517565b5b611c5a84828501611634565b91505092915050565b600081519050919050565b600082825260208201905092915050565b6000819050602082019050919050565b611c9881611888565b82525050565b6000611caa8383611c8f565b60208301905092915050565b6000602082019050919050565b6000611cce82611c63565b611cd88185611c6e565b9350611ce383611c7f565b8060005b83811015611d14578151611cfb8882611c9e565b9750611d0683611cb6565b925050600181019050611ce7565b5085935050505092915050565b600081519050919050565b600082825260208201905092915050565b6000819050602082019050919050565b600081519050919050565b600082825260208201905092915050565b60005b83811015611d87578082015181840152602081019050611d6c565b83811115611d96576000848401525b50505050565b6000611da782611d4d565b611db18185611d58565b9350611dc1818560208601611d69565b611dca81611526565b840191505092915050565b6000611de18383611d9c565b905092915050565b6000602082019050919050565b6000611e0182611d21565b611e0b8185611d2c565b935083602082028501611e1d85611d3d565b8060005b85811015611e595784840389528151611e3a8582611dd5565b9450611e4583611de9565b925060208a01995050600181019050611e21565b50829750879550505050505092915050565b600082825260208201905092915050565b6000611e8782611d4d565b611e918185611e6b565b9350611ea1818560208601611d69565b611eaa81611526565b840191505092915050565b600081519050919050565b600082825260208201905092915050565b6000819050602082019050919050565b611eea81611662565b82525050565b600082825260208201905092915050565b6000611f0c82611d21565b611f168185611ef0565b935083602082028501611f2885611d3d565b8060005b85811015611f645784840389528151611f458582611dd5565b9450611f5083611de9565b925060208a01995050600181019050611f2c565b50829750879550505050505092915050565b60006080830160008301518482036000860152611f938282611d9c565b9150506020830151611fa86020860182611c8f565b506040830151611fbb6040860182611ee1565b5060608301518482036060860152611fd38282611f01565b9150508091505092915050565b6000611fec8383611f76565b905092915050565b6000602082019050919050565b600061200c82611eb5565b6120168185611ec0565b93508360208202850161202885611ed1565b8060005b8581101561206457848403895281516120458582611fe0565b945061205083611ff4565b925060208a0199505060018101905061202c565b50829750879550505050505092915050565b600060c08201905081810360008301526120908189611cc3565b905081810360208301526120a48188611df6565b905081810360408301526120b88187611e7c565b90506120c76060830186611bf0565b81810360808301526120d98185612001565b90506120e860a0830184611bf0565b979650505050505050565b60006020828403121561210957612108611512565b5b60006121178482850161197e565b91505092915050565b600081519050919050565b600082825260208201905092915050565b6000819050602082019050919050565b7f4e487b7100000000000000000000000000000000000000000000000000000000600052602160045260246000fd5b6002811061218c5761218b61214c565b5b50565b600081905061219d8261217b565b919050565b60006121ad8261218f565b9050919050565b6121bd816121a2565b82525050565b60006121cf83836121b4565b60208301905092915050565b6000602082019050919050565b60006121f382612120565b6121fd818561212b565b93506122088361213c565b8060005b8381101561223957815161222088826121c3565b975061222b836121db565b92505060018101905061220c565b5085935050505092915050565b600060408201905081810360008301526122608185611df6565b9050818103602083015261227481846121e8565b90509392505050565b600081905092915050565b600061229382611d4d565b61229d818561227d565b93506122ad818560208601611d69565b80840191505092915050565b60006122c58284612288565b915081905092915050565b7f4465726573793a207265717565737420636c6f73656400000000000000000000600082015250565b6000612306601683611e6b565b9150612311826122d0565b602082019050919050565b60006020820190508181036000830152612335816122f9565b9050919050565b7f4e487b7100000000000000000000000000000000000000000000000000000000600052601160045260246000fd5b60006123768261195d565b91506123818361195d565b9250828210156123945761239361233c565b5b828203905092915050565b7f4465726573793a205265766965776572732063616e6e6f74206265206e756c6c600082015250565b60006123d5602083611e6b565b91506123e08261239f565b602082019050919050565b60006020820190508181036000830152612404816123c8565b9050919050565b7f4465726573793a20526576696577466f726d496e64657820696e76616c696400600082015250565b6000612441601f83611e6b565b915061244c8261240b565b602082019050919050565b6000602082019050818103600083015261247081612434565b9050919050565b7f4465726573793a204e6565647320746f2062652073616d65206e756d6265722060008201527f6f6620617267756d656e747320666f7220746172676574732061732077656c6c60208201527f20666f7220726576696577657273000000000000000000000000000000000000604082015250565b60006124f9604e83611e6b565b915061250482612477565b606082019050919050565b60006020820190508181036000830152612528816124ec565b9050919050565b7f4465726573793a207265776172645065725265766965772063616e6e6f74206260008201527f6520656d70747900000000000000000000000000000000000000000000000000602082015250565b600061258b602783611e6b565b91506125968261252f565b604082019050919050565b600060208201905081810360008301526125ba8161257e565b9050919050565b60006125cc8261195d565b91506125d78361195d565b9250817fffffffffffffffffffffffffffffffffffffffffffffffffffffffffffffffff04831182151516156126105761260f61233c565b5b828202905092915050565b7f4465726573793a206d73672e76616c756520696e76616c696400000000000000600082015250565b6000612651601983611e6b565b915061265c8261261b565b602082019050919050565b6000602082019050818103600083015261268081612644565b9050919050565b7f4465726573793a205175657374696f6e732063616e2774206265206e756c6c00600082015250565b60006126bd601f83611e6b565b91506126c882612687565b602082019050919050565b600060208201905081810360008301526126ec816126b0565b9050919050565b7f4465726573793a205175657374696f6e2054797065732063616e27742062652060008201527f6e756c6c00000000000000000000000000000000000000000000000000000000602082015250565b600061274f602483611e6b565b915061275a826126f3565b604082019050919050565b6000602082019050818103600083015261277e81612742565b9050919050565b7f4465726573793a204e6565647320746f206265207468652073616d652071756160008201527f6e74697479206f6620706172616d657465727300000000000000000000000000602082015250565b60006127e1603383611e6b565b91506127ec82612785565b604082019050919050565b60006020820190508181036000830152612810816127d4565b9050919050565b7f4e487b7100000000000000000000000000000000000000000000000000000000600052602260045260246000fd5b6000600282049050600182168061285e57607f821691505b6020821081141561287257612871612817565b5b50919050565b7f4e487b7100000000000000000000000000000000000000000000000000000000600052603260045260246000fd5b7f4465726573793a20497473206973206e6f74207468652073706f6e736f720000600082015250565b60006128dd601e83611e6b565b91506128e8826128a7565b602082019050919050565b6000602082019050818103600083015261290c816128d0565b9050919050565b7f4465726573793a204e616d6520646f6573206e6f742065786973740000000000600082015250565b6000612949601b83611e6b565b915061295482612913565b602082019050919050565b600060208201905081810360008301526129788161293c565b905091905056fea264697066735822122067d76ffb1ea8a0a76ebb1b83fbaf4f8ed67342fdac42102aa29286dbf3634e1164736f6c634300080a0033",
  "immutableReferences": {},
  "source": "pragma solidity 0.8.10;\n\ncontract DeresyRequestsV2 {\n\n    enum QuestionType {Text, Checkbox}\n\n    struct reviewForm {\n        string[] questions;\n        QuestionType[] questionTypes;\n    }\n\n    struct Review {\n      string reviewIpfsHash;\n      address reviewer;\n      uint8 targetIndex;\n      string[] answers;\n    }\n\n    struct ReviewRequest {\n      address sponsor;\n      address[] reviewers;\n      string[] targets;\n      string formIpfsHash;\n      uint256 rewardPerReview;\n      Review[] reviews;\n      bool isClosed;\n      uint256 fundsLeft;\n      uint256 reviewFormIndex;\n    }\n\n    mapping(string => ReviewRequest) private reviewRequests;\n    mapping(string => Review[]) private reviews;\n    reviewForm[] reviewForms;\n\n    //creating ReviewForm\n    function createReviewForm(string[] memory questions, QuestionType[] memory questionTypes) external  returns (uint256){\n        require(questions.length > 0, \"Deresy: Questions can't be null\");\n        require(questionTypes.length > 0, \"Deresy: Question Types can't be null\");\n        require(questionTypes.length == questions.length, \"Deresy: Needs to be the same quantity of parameters\");\n        reviewForms.push(reviewForm(questions,questionTypes));\n        return reviewForms.length - 1;\n    }\n\n    // Creating a request\n    function createRequest(string memory _name, address[] memory reviewers, string[] memory targets, string memory formIpfsHash, uint256 rewardPerReview, uint256 reviewFormIndex) external payable{\n        require(reviewers.length > 0,\"Deresy: Reviewers cannot be null\");\n        require(reviewFormIndex <= reviewForms.length - 1,\"Deresy: ReviewFormIndex invalid\");\n        require(targets.length == reviewers.length,\"Deresy: Needs to be same number of arguments for targets as well for reviewers\");\n        require(rewardPerReview > 0,\"Deresy: rewardPerReview cannot be empty\");\n        require(msg.value >= (reviewers.length * targets.length * rewardPerReview),\"Deresy: msg.value invalid\");\n\n        reviewRequests[_name].sponsor = msg.sender;\n        reviewRequests[_name].reviewers = reviewers;\n        reviewRequests[_name].targets = targets;\n        reviewRequests[_name].formIpfsHash = formIpfsHash;\n        reviewRequests[_name].rewardPerReview = rewardPerReview;\n        reviewRequests[_name].isClosed = false;\n        reviewRequests[_name].fundsLeft = msg.value;\n        reviewRequests[_name].reviewFormIndex = reviewFormIndex;\n    }\n\n    function submitReview(string memory _name, uint8 targetIndex, string memory reviewIpfsHash, string[] memory answers) external {\n        require(reviewRequests[_name].isClosed == false,\"Deresy: request closed\");\n\n        if(reviewRequests[_name].fundsLeft < reviewRequests[_name].rewardPerReview){\n            revert();\n        }\n\n        reviewRequests[_name].reviews.push(Review(reviewIpfsHash,msg.sender,targetIndex, answers));\n        reviewRequests[_name].fundsLeft -= reviewRequests[_name].rewardPerReview;\n        payable(msg.sender).transfer(reviewRequests[_name].rewardPerReview);\n    }\n\n    function closeReviewRequest(string memory _name) external{\n        require(msg.sender == reviewRequests[_name].sponsor, \"Deresy: Its is not the sponsor\");\n        require(reviewRequests[_name].isClosed == false,\"Deresy: request closed\");\n        require(reviewRequests[_name].isClosed == true || reviewRequests[_name].isClosed == false, \"Deresy: Name does not exist\");\n    \n        payable(reviewRequests[_name].sponsor).transfer(reviewRequests[_name].fundsLeft);\n    \n        reviewRequests[_name].isClosed = true;\n        reviewRequests[_name].fundsLeft = 0;\n    }\n    \n    function getRequest(string memory _name) public view returns (address[] memory reviewers,string[] memory targets,string memory formIpfsHash,uint256 rewardPerReview,Review[] memory review,uint256 reviewFormIndex ){\n        return (reviewRequests[_name].reviewers,reviewRequests[_name].targets,reviewRequests[_name].formIpfsHash,reviewRequests[_name].rewardPerReview, reviewRequests[_name].reviews, reviewRequests[_name].reviewFormIndex);\n    }\n    \n    function getReviewForm(uint256 _reviewFormIndex) public view returns(string[] memory, QuestionType[] memory){\n        return (reviewForms[_reviewFormIndex].questions,reviewForms[_reviewFormIndex].questionTypes);\n    }\n\n}",
  "sourcePath": "/Users/nlowery/Desktop/Projects/deresy/deresy/onc-smart-contracts/contracts/DeresyRequests.sol",
  "compiler": {
    "name": "solc",
    "version": "0.8.10+commit.fc410830.Emscripten.clang"
  },
  "schemaVersion": "3.4.3",
  "updatedAt": "2022-03-11T14:40:57.732Z",
  "devdoc": {
    "kind": "dev",
    "methods": {},
    "version": 1
  },
  "userdoc": {
    "kind": "user",
    "methods": {},
    "version": 1
  }
}