{
  "contractName": "DeresyRequests",
  "abi": [
    {
      "inputs": [],
      "name": "contractVersion",
      "outputs": [
        {
          "internalType": "string",
          "name": "",
          "type": "string"
        }
      ],
      "stateMutability": "view",
      "type": "function",
      "constant": true
    },
    {
      "inputs": [],
      "name": "reviewFormsTotal",
      "outputs": [
        {
          "internalType": "uint256",
          "name": "",
          "type": "uint256"
        }
      ],
      "stateMutability": "view",
      "type": "function",
      "constant": true
    },
    {
      "inputs": [
        {
          "internalType": "string[]",
          "name": "questions",
          "type": "string[]"
        },
        {
          "internalType": "string[][]",
          "name": "choices",
          "type": "string[][]"
        },
        {
          "internalType": "enum DeresyRequests.QuestionType[]",
          "name": "questionTypes",
          "type": "uint8[]"
        }
      ],
      "name": "createReviewForm",
      "outputs": [
        {
          "internalType": "uint256",
          "name": "",
          "type": "uint256"
        }
      ],
      "stateMutability": "nonpayable",
      "type": "function"
    },
    {
      "inputs": [
        {
          "internalType": "string",
          "name": "_name",
          "type": "string"
        },
        {
          "internalType": "address[]",
          "name": "reviewers",
          "type": "address[]"
        },
        {
          "internalType": "string[]",
          "name": "targets",
          "type": "string[]"
        },
        {
          "internalType": "string[]",
          "name": "targetsIPFSHashes",
          "type": "string[]"
        },
        {
          "internalType": "string",
          "name": "formIpfsHash",
          "type": "string"
        },
        {
          "internalType": "uint256",
          "name": "rewardPerReview",
          "type": "uint256"
        },
        {
          "internalType": "uint256",
          "name": "reviewFormIndex",
          "type": "uint256"
        }
      ],
      "name": "createRequest",
      "outputs": [],
      "stateMutability": "payable",
      "type": "function",
      "payable": true
    },
    {
      "inputs": [
        {
          "internalType": "string",
          "name": "_name",
          "type": "string"
        },
        {
          "internalType": "uint8",
          "name": "targetIndex",
          "type": "uint8"
        },
        {
          "internalType": "string[]",
          "name": "answers",
          "type": "string[]"
        }
      ],
      "name": "submitReview",
      "outputs": [],
      "stateMutability": "nonpayable",
      "type": "function"
    },
    {
      "inputs": [
        {
          "internalType": "string",
          "name": "_name",
          "type": "string"
        }
      ],
      "name": "closeReviewRequest",
      "outputs": [],
      "stateMutability": "nonpayable",
      "type": "function"
    },
    {
      "inputs": [
        {
          "internalType": "string",
          "name": "_name",
          "type": "string"
        }
      ],
      "name": "getRequest",
      "outputs": [
        {
          "internalType": "address[]",
          "name": "reviewers",
          "type": "address[]"
        },
        {
          "internalType": "string[]",
          "name": "targets",
          "type": "string[]"
        },
        {
          "internalType": "string[]",
          "name": "targetsIPFSHashes",
          "type": "string[]"
        },
        {
          "internalType": "string",
          "name": "formIpfsHash",
          "type": "string"
        },
        {
          "internalType": "uint256",
          "name": "rewardPerReview",
          "type": "uint256"
        },
        {
          "components": [
            {
              "internalType": "address",
              "name": "reviewer",
              "type": "address"
            },
            {
              "internalType": "uint8",
              "name": "targetIndex",
              "type": "uint8"
            },
            {
              "internalType": "string[]",
              "name": "answers",
              "type": "string[]"
            }
          ],
          "internalType": "struct DeresyRequests.Review[]",
          "name": "reviews",
          "type": "tuple[]"
        },
        {
          "internalType": "uint256",
          "name": "reviewFormIndex",
          "type": "uint256"
        },
        {
          "internalType": "bool",
          "name": "isClosed",
          "type": "bool"
        }
      ],
      "stateMutability": "view",
      "type": "function",
      "constant": true
    },
    {
      "inputs": [
        {
          "internalType": "uint256",
          "name": "_reviewFormIndex",
          "type": "uint256"
        }
      ],
      "name": "getReviewForm",
      "outputs": [
        {
          "internalType": "string[]",
          "name": "",
          "type": "string[]"
        },
        {
          "internalType": "enum DeresyRequests.QuestionType[]",
          "name": "",
          "type": "uint8[]"
        },
        {
          "internalType": "string[][]",
          "name": "choices",
          "type": "string[][]"
        }
      ],
      "stateMutability": "view",
      "type": "function",
      "constant": true
    },
    {
      "inputs": [],
      "name": "getReviewRequestsNames",
      "outputs": [
        {
          "internalType": "string[]",
          "name": "",
          "type": "string[]"
        }
      ],
      "stateMutability": "view",
      "type": "function",
      "constant": true
    }
  ],
  "bytecode": "0x60806040526040518060400160405280600381526020017f302e310000000000000000000000000000000000000000000000000000000000815250600390805190602001906200005192919062000066565b503480156200005f57600080fd5b506200017a565b828054620000749062000145565b90600052602060002090601f016020900481019282620000985760008555620000e4565b82601f10620000b357805160ff1916838001178555620000e4565b82800160010185558215620000e4579182015b82811115620000e3578251825591602001919060010190620000c6565b5b509050620000f39190620000f7565b5090565b5b8082111562000112576000816000905550600101620000f8565b5090565b7f4e487b7100000000000000000000000000000000000000000000000000000000600052602260045260246000fd5b600060028204905060018216806200015e57607f821691505b60208210810362000174576200017362000116565b5b50919050565b613a07806200018a6000396000f3fe6080604052600436106100865760003560e01c8063a0a8e46011610059578063a0a8e46014610160578063b6fc76af1461018b578063be2761d0146101ca578063d9370019146101f3578063dd5260541461020f57610086565b80630677b5351461008b578063629147e8146100c857806385b92413146100f157806386be6d5114610135575b600080fd5b34801561009757600080fd5b506100b260048036038101906100ad9190612277565b61023a565b6040516100bf9190612337565b60405180910390f35b3480156100d457600080fd5b506100ef60048036038101906100ea919061238b565b61041f565b005b3480156100fd57600080fd5b5061011860048036038101906101139190612416565b6107ee565b60405161012c9897969594939291906128a5565b60405180910390f35b34801561014157600080fd5b5061014a610d79565b6040516101579190612337565b60405180910390f35b34801561016c57600080fd5b50610175610d7f565b6040516101829190612946565b60405180910390f35b34801561019757600080fd5b506101b260048036038101906101ad9190612994565b610e0d565b6040516101c193929190612ba9565b60405180910390f35b3480156101d657600080fd5b506101f160048036038101906101ec9190612416565b611102565b005b61020d60048036038101906102089190612ce4565b611332565b005b34801561021b57600080fd5b5061022461180c565b6040516102319190612e12565b60405180910390f35b60008084511161027f576040517f08c379a000000000000000000000000000000000000000000000000000000000815260040161027690612e80565b60405180910390fd5b60008251116102c3576040517f08c379a00000000000000000000000000000000000000000000000000000000081526004016102ba90612f12565b60405180910390fd5b8351825114610307576040517f08c379a00000000000000000000000000000000000000000000000000000000081526004016102fe90612fa4565b60405180910390fd5b825184511461034b576040517f08c379a000000000000000000000000000000000000000000000000000000000815260040161034290613036565b60405180910390fd5b6004604051806060016040528086815260200184815260200185815250908060018154018082558091505060019003906000526020600020906003020160009091909190915060008201518160000190805190602001906103ad929190611b22565b5060208201518160010190805190602001906103ca929190611b82565b5060408201518160020190805190602001906103e7929190611c38565b5050506001600260008282546103fd9190613085565b92505081905550600160048054905061041691906130db565b90509392505050565b60001515600084604051610433919061314b565b908152602001604051809103902060070160009054906101000a900460ff16151514610494576040517f08c379a000000000000000000000000000000000000000000000000000000000815260040161048b906131ae565b60405180910390fd5b6000836040516104a4919061314b565b9081526020016040518091039020600201805490508260ff16106104fd576040517f08c379a00000000000000000000000000000000000000000000000000000000081526004016104f49061321a565b60405180910390fd5b80516004600085604051610511919061314b565b908152602001604051809103902060090154815481106105345761053361323a565b5b90600052602060002090600302016000018054905014610589576040517f08c379a0000000000000000000000000000000000000000000000000000000008152600401610580906132db565b60405180910390fd5b6001151561059733856118e5565b1515146105d9576040517f08c379a00000000000000000000000000000000000000000000000000000000081526004016105d090613393565b60405180910390fd5b6105e43384846119ce565b610623576040517f08c379a000000000000000000000000000000000000000000000000000000000815260040161061a9061344b565b60405180910390fd5b600083604051610633919061314b565b908152602001604051809103902060060160405180606001604052803373ffffffffffffffffffffffffffffffffffffffff1681526020018460ff16815260200183815250908060018154018082558091505060019003906000526020600020906002020160009091909190915060008201518160000160006101000a81548173ffffffffffffffffffffffffffffffffffffffff021916908373ffffffffffffffffffffffffffffffffffffffff16021790555060208201518160000160146101000a81548160ff021916908360ff1602179055506040820151816001019080519060200190610725929190611b22565b505050600083604051610738919061314b565b90815260200160405180910390206005015460008460405161075a919061314b565b9081526020016040518091039020600801600082825461077a91906130db565b925050819055503373ffffffffffffffffffffffffffffffffffffffff166108fc6000856040516107ab919061314b565b9081526020016040518091039020600501549081150290604051600060405180830381858888f193505050501580156107e8573d6000803e3d6000fd5b50505050565b606080606080600060606000806000808a60405161080c919061314b565b9081526020016040518091039020604051806101400160405290816000820160009054906101000a900473ffffffffffffffffffffffffffffffffffffffff1673ffffffffffffffffffffffffffffffffffffffff1673ffffffffffffffffffffffffffffffffffffffff1681526020016001820180548060200260200160405190810160405280929190818152602001828054801561090157602002820191906000526020600020905b8160009054906101000a900473ffffffffffffffffffffffffffffffffffffffff1673ffffffffffffffffffffffffffffffffffffffff16815260200190600101908083116108b7575b5050505050815260200160028201805480602002602001604051908101604052809291908181526020016000905b828210156109db57838290600052602060002001805461094e9061349a565b80601f016020809104026020016040519081016040528092919081815260200182805461097a9061349a565b80156109c75780601f1061099c576101008083540402835291602001916109c7565b820191906000526020600020905b8154815290600101906020018083116109aa57829003601f168201915b50505050508152602001906001019061092f565b50505050815260200160038201805480602002602001604051908101604052809291908181526020016000905b82821015610ab4578382906000526020600020018054610a279061349a565b80601f0160208091040260200160405190810160405280929190818152602001828054610a539061349a565b8015610aa05780601f10610a7557610100808354040283529160200191610aa0565b820191906000526020600020905b815481529060010190602001808311610a8357829003601f168201915b505050505081526020019060010190610a08565b505050508152602001600482018054610acc9061349a565b80601f0160208091040260200160405190810160405280929190818152602001828054610af89061349a565b8015610b455780601f10610b1a57610100808354040283529160200191610b45565b820191906000526020600020905b815481529060010190602001808311610b2857829003601f168201915b505050505081526020016005820154815260200160068201805480602002602001604051908101604052809291908181526020016000905b82821015610cfb57838290600052602060002090600202016040518060600160405290816000820160009054906101000a900473ffffffffffffffffffffffffffffffffffffffff1673ffffffffffffffffffffffffffffffffffffffff1673ffffffffffffffffffffffffffffffffffffffff1681526020016000820160149054906101000a900460ff1660ff1660ff16815260200160018201805480602002602001604051908101604052809291908181526020016000905b82821015610ce4578382906000526020600020018054610c579061349a565b80601f0160208091040260200160405190810160405280929190818152602001828054610c839061349a565b8015610cd05780601f10610ca557610100808354040283529160200191610cd0565b820191906000526020600020905b815481529060010190602001808311610cb357829003601f168201915b505050505081526020019060010190610c38565b505050508152505081526020019060010190610b7d565b5050505081526020016007820160009054906101000a900460ff1615151515815260200160088201548152602001600982015481525050905080602001518160400151826060015183608001518460a001518560c001518661012001518760e001519850985098509850985098509850985050919395975091939597565b60025481565b60038054610d8c9061349a565b80601f0160208091040260200160405190810160405280929190818152602001828054610db89061349a565b8015610e055780601f10610dda57610100808354040283529160200191610e05565b820191906000526020600020905b815481529060010190602001808311610de857829003601f168201915b505050505081565b606080606060048481548110610e2657610e2561323a565b5b906000526020600020906003020160000160048581548110610e4b57610e4a61323a565b5b906000526020600020906003020160010160048681548110610e7057610e6f61323a565b5b906000526020600020906003020160020182805480602002602001604051908101604052809291908181526020016000905b82821015610f4e578382906000526020600020018054610ec19061349a565b80601f0160208091040260200160405190810160405280929190818152602001828054610eed9061349a565b8015610f3a5780601f10610f0f57610100808354040283529160200191610f3a565b820191906000526020600020905b815481529060010190602001808311610f1d57829003601f168201915b505050505081526020019060010190610ea2565b50505050925081805480602002602001604051908101604052809291908181526020018280548015610fd457602002820191906000526020600020906000905b82829054906101000a900460ff166002811115610fae57610fad6129ed565b5b81526020019060010190602082600001049283019260010382029150808411610f8e5790505b5050505050915080805480602002602001604051908101604052809291908181526020016000905b828210156110ef57838290600052602060002001805480602002602001604051908101604052809291908181526020016000905b828210156110dc57838290600052602060002001805461104f9061349a565b80601f016020809104026020016040519081016040528092919081815260200182805461107b9061349a565b80156110c85780601f1061109d576101008083540402835291602001916110c8565b820191906000526020600020905b8154815290600101906020018083116110ab57829003601f168201915b505050505081526020019060010190611030565b5050505081526020019060010190610ffc565b5050505090509250925092509193909250565b600081604051611112919061314b565b908152602001604051809103902060000160009054906101000a900473ffffffffffffffffffffffffffffffffffffffff1673ffffffffffffffffffffffffffffffffffffffff163373ffffffffffffffffffffffffffffffffffffffff16146111b1576040517f08c379a00000000000000000000000000000000000000000000000000000000081526004016111a890613517565b60405180910390fd5b600015156000826040516111c5919061314b565b908152602001604051809103902060070160009054906101000a900460ff16151514611226576040517f08c379a000000000000000000000000000000000000000000000000000000000815260040161121d906131ae565b60405180910390fd5b600081604051611236919061314b565b908152602001604051809103902060000160009054906101000a900473ffffffffffffffffffffffffffffffffffffffff1673ffffffffffffffffffffffffffffffffffffffff166108fc600083604051611291919061314b565b9081526020016040518091039020600801549081150290604051600060405180830381858888f193505050501580156112ce573d6000803e3d6000fd5b5060016000826040516112e1919061314b565b908152602001604051809103902060070160006101000a81548160ff0219169083151502179055506000808260405161131a919061314b565b90815260200160405180910390206008018190555050565b6000865111611376576040517f08c379a000000000000000000000000000000000000000000000000000000000815260040161136d90613583565b60405180910390fd5b60008551116113ba576040517f08c379a00000000000000000000000000000000000000000000000000000000081526004016113b1906135ef565b60405180910390fd5b60008451116113fe576040517f08c379a00000000000000000000000000000000000000000000000000000000081526004016113f590613681565b60405180910390fd5b8351855114611442576040517f08c379a000000000000000000000000000000000000000000000000000000000815260040161143990613739565b60405180910390fd5b600160048054905061145491906130db565b811115611496576040517f08c379a000000000000000000000000000000000000000000000000000000000815260040161148d906137a5565b60405180910390fd5b600082116114d9576040517f08c379a00000000000000000000000000000000000000000000000000000000081526004016114d090613837565b60405180910390fd5b600073ffffffffffffffffffffffffffffffffffffffff16600088604051611501919061314b565b908152602001604051809103902060000160009054906101000a900473ffffffffffffffffffffffffffffffffffffffff1673ffffffffffffffffffffffffffffffffffffffff1614611589576040517f08c379a0000000000000000000000000000000000000000000000000000000008152600401611580906138a3565b60405180910390fd5b818551875161159891906138c3565b6115a291906138c3565b3410156115e4576040517f08c379a00000000000000000000000000000000000000000000000000000000081526004016115db90613969565b60405180910390fd5b336000886040516115f5919061314b565b908152602001604051809103902060000160006101000a81548173ffffffffffffffffffffffffffffffffffffffff021916908373ffffffffffffffffffffffffffffffffffffffff16021790555085600088604051611655919061314b565b90815260200160405180910390206001019080519060200190611679929190611c98565b508460008860405161168b919061314b565b908152602001604051809103902060020190805190602001906116af929190611b22565b50836000886040516116c1919061314b565b908152602001604051809103902060030190805190602001906116e5929190611b22565b50826000886040516116f7919061314b565b9081526020016040518091039020600401908051906020019061171b929190611d22565b508160008860405161172d919061314b565b90815260200160405180910390206005018190555060008088604051611753919061314b565b908152602001604051809103902060070160006101000a81548160ff0219169083151502179055503460008860405161178c919061314b565b908152602001604051809103902060080181905550806000886040516117b2919061314b565b908152602001604051809103902060090181905550600187908060018154018082558091505060019003906000526020600020016000909190919091509080519060200190611802929190611d22565b5050505050505050565b60606001805480602002602001604051908101604052809291908181526020016000905b828210156118dc57838290600052602060002001805461184f9061349a565b80601f016020809104026020016040519081016040528092919081815260200182805461187b9061349a565b80156118c85780601f1061189d576101008083540402835291602001916118c8565b820191906000526020600020905b8154815290600101906020018083116118ab57829003601f168201915b505050505081526020019060010190611830565b50505050905090565b6000806000905060005b6000846040516118ff919061314b565b9081526020016040518091039020600101805490508110156119c3578473ffffffffffffffffffffffffffffffffffffffff16600085604051611942919061314b565b908152602001604051809103902060010182815481106119655761196461323a565b5b9060005260206000200160009054906101000a900473ffffffffffffffffffffffffffffffffffffffff1673ffffffffffffffffffffffffffffffffffffffff16036119b057600191505b80806119bb90613989565b9150506118ef565b508091505092915050565b6000806001905060005b6000856040516119e8919061314b565b908152602001604051809103902060060180549050811015611b16578360ff16600086604051611a18919061314b565b90815260200160405180910390206006018281548110611a3b57611a3a61323a565b5b906000526020600020906002020160000160149054906101000a900460ff1660ff16148015611af957508573ffffffffffffffffffffffffffffffffffffffff16600086604051611a8c919061314b565b90815260200160405180910390206006018281548110611aaf57611aae61323a565b5b906000526020600020906002020160000160009054906101000a900473ffffffffffffffffffffffffffffffffffffffff1673ffffffffffffffffffffffffffffffffffffffff16145b15611b0357600091505b8080611b0e90613989565b9150506119d8565b50809150509392505050565b828054828255906000526020600020908101928215611b71579160200282015b82811115611b70578251829080519060200190611b60929190611d22565b5091602001919060010190611b42565b5b509050611b7e9190611da8565b5090565b82805482825590600052602060002090601f01602090048101928215611c275791602002820160005b83821115611bf857835183826101000a81548160ff02191690836002811115611bd757611bd66129ed565b5b02179055509260200192600101602081600001049283019260010302611bab565b8015611c255782816101000a81549060ff0219169055600101602081600001049283019260010302611bf8565b505b509050611c349190611dcc565b5090565b828054828255906000526020600020908101928215611c87579160200282015b82811115611c86578251829080519060200190611c76929190611b22565b5091602001919060010190611c58565b5b509050611c949190611de9565b5090565b828054828255906000526020600020908101928215611d11579160200282015b82811115611d105782518260006101000a81548173ffffffffffffffffffffffffffffffffffffffff021916908373ffffffffffffffffffffffffffffffffffffffff16021790555091602001919060010190611cb8565b5b509050611d1e9190611dcc565b5090565b828054611d2e9061349a565b90600052602060002090601f016020900481019282611d505760008555611d97565b82601f10611d6957805160ff1916838001178555611d97565b82800160010185558215611d97579182015b82811115611d96578251825591602001919060010190611d7b565b5b509050611da49190611dcc565b5090565b5b80821115611dc85760008181611dbf9190611e0d565b50600101611da9565b5090565b5b80821115611de5576000816000905550600101611dcd565b5090565b5b80821115611e095760008181611e009190611e4d565b50600101611dea565b5090565b508054611e199061349a565b6000825580601f10611e2b5750611e4a565b601f016020900490600052602060002090810190611e499190611dcc565b5b50565b5080546000825590600052602060002090810190611e6b9190611da8565b50565b6000604051905090565b600080fd5b600080fd5b600080fd5b6000601f19601f8301169050919050565b7f4e487b7100000000000000000000000000000000000000000000000000000000600052604160045260246000fd5b611ed082611e87565b810181811067ffffffffffffffff82111715611eef57611eee611e98565b5b80604052505050565b6000611f02611e6e565b9050611f0e8282611ec7565b919050565b600067ffffffffffffffff821115611f2e57611f2d611e98565b5b602082029050602081019050919050565b600080fd5b600080fd5b600067ffffffffffffffff821115611f6457611f63611e98565b5b611f6d82611e87565b9050602081019050919050565b82818337600083830152505050565b6000611f9c611f9784611f49565b611ef8565b905082815260208101848484011115611fb857611fb7611f44565b5b611fc3848285611f7a565b509392505050565b600082601f830112611fe057611fdf611e82565b5b8135611ff0848260208601611f89565b91505092915050565b600061200c61200784611f13565b611ef8565b9050808382526020820190506020840283018581111561202f5761202e611f3f565b5b835b8181101561207657803567ffffffffffffffff81111561205457612053611e82565b5b8086016120618982611fcb565b85526020850194505050602081019050612031565b5050509392505050565b600082601f83011261209557612094611e82565b5b81356120a5848260208601611ff9565b91505092915050565b600067ffffffffffffffff8211156120c9576120c8611e98565b5b602082029050602081019050919050565b60006120ed6120e8846120ae565b611ef8565b905080838252602082019050602084028301858111156121105761210f611f3f565b5b835b8181101561215757803567ffffffffffffffff81111561213557612134611e82565b5b8086016121428982612080565b85526020850194505050602081019050612112565b5050509392505050565b600082601f83011261217657612175611e82565b5b81356121868482602086016120da565b91505092915050565b600067ffffffffffffffff8211156121aa576121a9611e98565b5b602082029050602081019050919050565b600381106121c857600080fd5b50565b6000813590506121da816121bb565b92915050565b60006121f36121ee8461218f565b611ef8565b9050808382526020820190506020840283018581111561221657612215611f3f565b5b835b8181101561223f578061222b88826121cb565b845260208401935050602081019050612218565b5050509392505050565b600082601f83011261225e5761225d611e82565b5b813561226e8482602086016121e0565b91505092915050565b6000806000606084860312156122905761228f611e78565b5b600084013567ffffffffffffffff8111156122ae576122ad611e7d565b5b6122ba86828701612080565b935050602084013567ffffffffffffffff8111156122db576122da611e7d565b5b6122e786828701612161565b925050604084013567ffffffffffffffff81111561230857612307611e7d565b5b61231486828701612249565b9150509250925092565b6000819050919050565b6123318161231e565b82525050565b600060208201905061234c6000830184612328565b92915050565b600060ff82169050919050565b61236881612352565b811461237357600080fd5b50565b6000813590506123858161235f565b92915050565b6000806000606084860312156123a4576123a3611e78565b5b600084013567ffffffffffffffff8111156123c2576123c1611e7d565b5b6123ce86828701611fcb565b93505060206123df86828701612376565b925050604084013567ffffffffffffffff811115612400576123ff611e7d565b5b61240c86828701612080565b9150509250925092565b60006020828403121561242c5761242b611e78565b5b600082013567ffffffffffffffff81111561244a57612449611e7d565b5b61245684828501611fcb565b91505092915050565b600081519050919050565b600082825260208201905092915050565b6000819050602082019050919050565b600073ffffffffffffffffffffffffffffffffffffffff82169050919050565b60006124b68261248b565b9050919050565b6124c6816124ab565b82525050565b60006124d883836124bd565b60208301905092915050565b6000602082019050919050565b60006124fc8261245f565b612506818561246a565b93506125118361247b565b8060005b8381101561254257815161252988826124cc565b9750612534836124e4565b925050600181019050612515565b5085935050505092915050565b600081519050919050565b600082825260208201905092915050565b6000819050602082019050919050565b600081519050919050565b600082825260208201905092915050565b60005b838110156125b557808201518184015260208101905061259a565b838111156125c4576000848401525b50505050565b60006125d58261257b565b6125df8185612586565b93506125ef818560208601612597565b6125f881611e87565b840191505092915050565b600061260f83836125ca565b905092915050565b6000602082019050919050565b600061262f8261254f565b612639818561255a565b93508360208202850161264b8561256b565b8060005b8581101561268757848403895281516126688582612603565b945061267383612617565b925060208a0199505060018101905061264f565b50829750879550505050505092915050565b600082825260208201905092915050565b60006126b58261257b565b6126bf8185612699565b93506126cf818560208601612597565b6126d881611e87565b840191505092915050565b600081519050919050565b600082825260208201905092915050565b6000819050602082019050919050565b61271881612352565b82525050565b600082825260208201905092915050565b600061273a8261254f565b612744818561271e565b9350836020820285016127568561256b565b8060005b8581101561279257848403895281516127738582612603565b945061277e83612617565b925060208a0199505060018101905061275a565b50829750879550505050505092915050565b60006060830160008301516127bc60008601826124bd565b5060208301516127cf602086018261270f565b50604083015184820360408601526127e7828261272f565b9150508091505092915050565b600061280083836127a4565b905092915050565b6000602082019050919050565b6000612820826126e3565b61282a81856126ee565b93508360208202850161283c856126ff565b8060005b85811015612878578484038952815161285985826127f4565b945061286483612808565b925060208a01995050600181019050612840565b50829750879550505050505092915050565b60008115159050919050565b61289f8161288a565b82525050565b60006101008201905081810360008301526128c0818b6124f1565b905081810360208301526128d4818a612624565b905081810360408301526128e88189612624565b905081810360608301526128fc81886126aa565b905061290b6080830187612328565b81810360a083015261291d8186612815565b905061292c60c0830185612328565b61293960e0830184612896565b9998505050505050505050565b6000602082019050818103600083015261296081846126aa565b905092915050565b6129718161231e565b811461297c57600080fd5b50565b60008135905061298e81612968565b92915050565b6000602082840312156129aa576129a9611e78565b5b60006129b88482850161297f565b91505092915050565b600081519050919050565b600082825260208201905092915050565b6000819050602082019050919050565b7f4e487b7100000000000000000000000000000000000000000000000000000000600052602160045260246000fd5b60038110612a2d57612a2c6129ed565b5b50565b6000819050612a3e82612a1c565b919050565b6000612a4e82612a30565b9050919050565b612a5e81612a43565b82525050565b6000612a708383612a55565b60208301905092915050565b6000602082019050919050565b6000612a94826129c1565b612a9e81856129cc565b9350612aa9836129dd565b8060005b83811015612ada578151612ac18882612a64565b9750612acc83612a7c565b925050600181019050612aad565b5085935050505092915050565b600081519050919050565b600082825260208201905092915050565b6000819050602082019050919050565b6000612b1f838361272f565b905092915050565b6000602082019050919050565b6000612b3f82612ae7565b612b498185612af2565b935083602082028501612b5b85612b03565b8060005b85811015612b975784840389528151612b788582612b13565b9450612b8383612b27565b925060208a01995050600181019050612b5f565b50829750879550505050505092915050565b60006060820190508181036000830152612bc38186612624565b90508181036020830152612bd78185612a89565b90508181036040830152612beb8184612b34565b9050949350505050565b600067ffffffffffffffff821115612c1057612c0f611e98565b5b602082029050602081019050919050565b612c2a816124ab565b8114612c3557600080fd5b50565b600081359050612c4781612c21565b92915050565b6000612c60612c5b84612bf5565b611ef8565b90508083825260208201905060208402830185811115612c8357612c82611f3f565b5b835b81811015612cac5780612c988882612c38565b845260208401935050602081019050612c85565b5050509392505050565b600082601f830112612ccb57612cca611e82565b5b8135612cdb848260208601612c4d565b91505092915050565b600080600080600080600060e0888a031215612d0357612d02611e78565b5b600088013567ffffffffffffffff811115612d2157612d20611e7d565b5b612d2d8a828b01611fcb565b975050602088013567ffffffffffffffff811115612d4e57612d4d611e7d565b5b612d5a8a828b01612cb6565b965050604088013567ffffffffffffffff811115612d7b57612d7a611e7d565b5b612d878a828b01612080565b955050606088013567ffffffffffffffff811115612da857612da7611e7d565b5b612db48a828b01612080565b945050608088013567ffffffffffffffff811115612dd557612dd4611e7d565b5b612de18a828b01611fcb565b93505060a0612df28a828b0161297f565b92505060c0612e038a828b0161297f565b91505092959891949750929550565b60006020820190508181036000830152612e2c8184612624565b905092915050565b7f4465726573793a205175657374696f6e732063616e2774206265206e756c6c00600082015250565b6000612e6a601f83612699565b9150612e7582612e34565b602082019050919050565b60006020820190508181036000830152612e9981612e5d565b9050919050565b7f4465726573793a205175657374696f6e2054797065732063616e27742062652060008201527f6e756c6c00000000000000000000000000000000000000000000000000000000602082015250565b6000612efc602483612699565b9150612f0782612ea0565b604082019050919050565b60006020820190508181036000830152612f2b81612eef565b9050919050565b7f4465726573793a205175657374696f6e7320616e64207479706573206d75737460008201527f2068617665207468652073616d65206c656e6774680000000000000000000000602082015250565b6000612f8e603583612699565b9150612f9982612f32565b604082019050919050565b60006020820190508181036000830152612fbd81612f81565b9050919050565b7f4465726573793a205175657374696f6e7320616e642063686f69636573206d7560008201527f73742068617665207468652073616d65206c656e677468000000000000000000602082015250565b6000613020603783612699565b915061302b82612fc4565b604082019050919050565b6000602082019050818103600083015261304f81613013565b9050919050565b7f4e487b7100000000000000000000000000000000000000000000000000000000600052601160045260246000fd5b60006130908261231e565b915061309b8361231e565b9250827fffffffffffffffffffffffffffffffffffffffffffffffffffffffffffffffff038211156130d0576130cf613056565b5b828201905092915050565b60006130e68261231e565b91506130f18361231e565b92508282101561310457613103613056565b5b828203905092915050565b600081905092915050565b60006131258261257b565b61312f818561310f565b935061313f818560208601612597565b80840191505092915050565b6000613157828461311a565b915081905092915050565b7f4465726573793a207265717565737420636c6f73656400000000000000000000600082015250565b6000613198601683612699565b91506131a382613162565b602082019050919050565b600060208201905081810360008301526131c78161318b565b9050919050565b7f4465726573793a20746172676574496e64657820696e76616c69640000000000600082015250565b6000613204601b83612699565b915061320f826131ce565b602082019050919050565b60006020820190508181036000830152613233816131f7565b9050919050565b7f4e487b7100000000000000000000000000000000000000000000000000000000600052603260045260246000fd5b7f4465726573793a204e6f74207468652073616d65206e756d626572206f66207160008201527f75657374696f6e7320616e6420616e7377657273000000000000000000000000602082015250565b60006132c5603483612699565b91506132d082613269565b604082019050919050565b600060208201905081810360008301526132f4816132b8565b9050919050565b7f546869732061646472657373206973206e6f7420696e2074686520726576696560008201527f77657273206c69737420666f722074686520737065636966696564207265717560208201527f6573742e00000000000000000000000000000000000000000000000000000000604082015250565b600061337d604483612699565b9150613388826132fb565b606082019050919050565b600060208201905081810360008301526133ac81613370565b9050919050565b7f5468697320616464726573732068617320616c7265616479207375626d69747460008201527f656420612072657669657720666f72207468652074617267746520696e64657860208201527f20696e2074686520737065636966696564207265717565737400000000000000604082015250565b6000613435605983612699565b9150613440826133b3565b606082019050919050565b6000602082019050818103600083015261346481613428565b9050919050565b7f4e487b7100000000000000000000000000000000000000000000000000000000600052602260045260246000fd5b600060028204905060018216806134b257607f821691505b6020821081036134c5576134c461346b565b5b50919050565b7f4465726573793a204974206973206e6f74207468652073706f6e736f72000000600082015250565b6000613501601d83612699565b915061350c826134cb565b602082019050919050565b60006020820190508181036000830152613530816134f4565b9050919050565b7f4465726573793a205265766965776572732063616e6e6f74206265206e756c6c600082015250565b600061356d602083612699565b915061357882613537565b602082019050919050565b6000602082019050818103600083015261359c81613560565b9050919050565b7f4465726573793a20546172676574732063616e6e6f74206265206e756c6c0000600082015250565b60006135d9601e83612699565b91506135e4826135a3565b602082019050919050565b60006020820190508181036000830152613608816135cc565b9050919050565b7f4465726573793a20546172676574732049504653206861736865732063616e6e60008201527f6f74206265206e756c6c00000000000000000000000000000000000000000000602082015250565b600061366b602a83612699565b91506136768261360f565b604082019050919050565b6000602082019050818103600083015261369a8161365e565b9050919050565b7f4465726573793a205461726765747320616e642074617267657473495046534860008201527f6173686573206172726179206d7573742068617665207468652073616d65206c60208201527f656e677468000000000000000000000000000000000000000000000000000000604082015250565b6000613723604583612699565b915061372e826136a1565b606082019050919050565b6000602082019050818103600083015261375281613716565b9050919050565b7f4465726573793a20526576696577466f726d496e64657820696e76616c696400600082015250565b600061378f601f83612699565b915061379a82613759565b602082019050919050565b600060208201905081810360008301526137be81613782565b9050919050565b7f4465726573793a207265776172645065725265766965772063616e6e6f74206260008201527f6520656d70747900000000000000000000000000000000000000000000000000602082015250565b6000613821602783612699565b915061382c826137c5565b604082019050919050565b6000602082019050818103600083015261385081613814565b9050919050565b7f4465726573793a204e616d65206475706c696361746564000000000000000000600082015250565b600061388d601783612699565b915061389882613857565b602082019050919050565b600060208201905081810360008301526138bc81613880565b9050919050565b60006138ce8261231e565b91506138d98361231e565b9250817fffffffffffffffffffffffffffffffffffffffffffffffffffffffffffffffff048311821515161561391257613911613056565b5b828202905092915050565b7f4465726573793a206d73672e76616c756520696e76616c696400000000000000600082015250565b6000613953601983612699565b915061395e8261391d565b602082019050919050565b6000602082019050818103600083015261398281613946565b9050919050565b60006139948261231e565b91507fffffffffffffffffffffffffffffffffffffffffffffffffffffffffffffffff82036139c6576139c5613056565b5b60018201905091905056fea264697066735822122026b1d15da044f54d175c5b6304ba3e9907a7b819830bd394ebccae64e57796b464736f6c634300080e0033",
  "immutableReferences": {},
  "source": "// SPDX-License-Identifier: MIT\npragma solidity 0.8.14;\ncontract DeresyRequests {\n    \n  enum QuestionType {Text, Checkbox, SingleChoice}\n    \n  struct reviewForm {\n    string[] questions;\n    QuestionType[] questionTypes;\n    string[][] choices;\n  }\n\n  struct Review {\n    address reviewer;\n    uint8 targetIndex;\n    string[] answers;\n  }\n    \n  struct ReviewRequest {\n    address sponsor;\n    address[] reviewers;\n    string[] targets;\n    string[] targetsIPFSHashes;\n    string formIpfsHash;\n    uint256 rewardPerReview;\n    Review[] reviews;\n    bool isClosed;\n    uint256 fundsLeft;\n    uint256 reviewFormIndex;\n  }\n\n  mapping(string => ReviewRequest) private reviewRequests;\n\n  string[] reviewRequestNames;\n  uint256 public reviewFormsTotal;\n  \n  string public contractVersion = \"0.1\";\n\n  reviewForm[] reviewForms;\n\n  //creating ReviewForm\n  function createReviewForm(string[] memory questions, string[][] memory choices, QuestionType[] memory questionTypes) external  returns (uint256){\n    require(questions.length > 0, \"Deresy: Questions can't be null\");\n    require(questionTypes.length > 0, \"Deresy: Question Types can't be null\");\n    require(questionTypes.length == questions.length, \"Deresy: Questions and types must have the same length\");\n    require(questions.length == choices.length, \"Deresy: Questions and choices must have the same length\");\n    reviewForms.push(reviewForm(questions,questionTypes, choices));\n    reviewFormsTotal += 1;\n    return reviewForms.length - 1;\n  }\n\n  // Creating a request \n  function createRequest(string memory _name, address[] memory reviewers, string[] memory targets, string[] memory targetsIPFSHashes, string memory formIpfsHash, uint256 rewardPerReview, uint256 reviewFormIndex) external payable{\n    require(reviewers.length > 0,\"Deresy: Reviewers cannot be null\");\n    require(targets.length > 0,\"Deresy: Targets cannot be null\");\n    require(targetsIPFSHashes.length > 0, \"Deresy: Targets IPFS hashes cannot be null\");\n    require(targets.length == targetsIPFSHashes.length, \"Deresy: Targets and targetsIPFSHashes array must have the same length\");\n    require(reviewFormIndex <= reviewForms.length - 1,\"Deresy: ReviewFormIndex invalid\");\n    require(rewardPerReview > 0,\"Deresy: rewardPerReview cannot be empty\");\n    require(reviewRequests[_name].sponsor == address(0),\"Deresy: Name duplicated\");\n    require(msg.value >= ((reviewers.length * targets.length) * rewardPerReview),\"Deresy: msg.value invalid\");\n    reviewRequests[_name].sponsor = msg.sender;\n    reviewRequests[_name].reviewers = reviewers;\n    reviewRequests[_name].targets = targets;\n    reviewRequests[_name].targetsIPFSHashes = targetsIPFSHashes;\n    reviewRequests[_name].formIpfsHash = formIpfsHash;\n    reviewRequests[_name].rewardPerReview = rewardPerReview;\n    reviewRequests[_name].isClosed = false;\n    reviewRequests[_name].fundsLeft = msg.value;\n    reviewRequests[_name].reviewFormIndex = reviewFormIndex;\n    reviewRequestNames.push(_name);\n  }\n\n  function submitReview(string memory _name, uint8 targetIndex, string[] memory answers) external {\n    require(reviewRequests[_name].isClosed == false,\"Deresy: request closed\");\n    require(targetIndex < reviewRequests[_name].targets.length,\"Deresy: targetIndex invalid\");\n    require(reviewForms[reviewRequests[_name].reviewFormIndex].questions.length == answers.length,\"Deresy: Not the same number of questions and answers\");\n    require(isReviewer(msg.sender, _name) == true, \"This address is not in the reviewers list for the specified request.\");\n    require(hasSubmittedReview(msg.sender, _name, targetIndex), \"This address has already submitted a review for the targte index in the specified request\");      \n    // validate answer is <= choices.length\n    reviewRequests[_name].reviews.push(Review(msg.sender,targetIndex, answers));\n    reviewRequests[_name].fundsLeft -= reviewRequests[_name].rewardPerReview;\n    payable(msg.sender).transfer(reviewRequests[_name].rewardPerReview);\n  }\n\n  function closeReviewRequest(string memory _name) external{\n    require(msg.sender == reviewRequests[_name].sponsor, \"Deresy: It is not the sponsor\");\n    require(reviewRequests[_name].isClosed == false,\"Deresy: request closed\");\n    payable(reviewRequests[_name].sponsor).transfer(reviewRequests[_name].fundsLeft);\n    reviewRequests[_name].isClosed = true;\n    reviewRequests[_name].fundsLeft = 0;\n  }\n\n  function getRequest(string memory _name) public view returns (address[] memory reviewers, string[] memory targets, string[] memory targetsIPFSHashes, string memory formIpfsHash, uint256 rewardPerReview,Review[] memory reviews, uint256 reviewFormIndex,bool isClosed){\n    ReviewRequest memory request = reviewRequests[_name];\n    return (request.reviewers, request.targets, request.targetsIPFSHashes, request.formIpfsHash, request.rewardPerReview, request.reviews, request.reviewFormIndex, request.isClosed);\n  }\n\n  function getReviewForm(uint256 _reviewFormIndex) public view returns(string[] memory, QuestionType[] memory, string[][] memory choices){\n    return (reviewForms[_reviewFormIndex].questions,reviewForms[_reviewFormIndex].questionTypes, reviewForms[_reviewFormIndex].choices);\n  }\n\n  function getReviewRequestsNames() public view returns(string[] memory){\n    return reviewRequestNames;\n  }\n\n  function isReviewer(address reviewerAddress, string memory _name) internal view returns (bool) {\n    bool reviewerFound = false;\n    for (uint i = 0; i < reviewRequests[_name].reviewers.length; i++){\n      if(reviewRequests[_name].reviewers[i] == reviewerAddress){\n        reviewerFound = true;\n      }\n    }\n    return reviewerFound;\n  }\n\n  function hasSubmittedReview(address reviewerAddress, string memory _name, uint8 targetIndex) internal view returns (bool) {\n    bool notReviewed = true;\n    for(uint i = 0; i < reviewRequests[_name].reviews.length; i++) {\n      if(reviewRequests[_name].reviews[i].targetIndex == targetIndex && reviewRequests[_name].reviews[i].reviewer == reviewerAddress) {\n        notReviewed = false;\n      }\n    }\n    return notReviewed;\n  }\n}",
  "sourcePath": "/Users/ozz/Documents/deresy/onc-smart-contracts/contracts/DeresyRequests.sol",
  "compiler": {
    "name": "solc",
    "version": "0.8.14+commit.80d49f37.Emscripten.clang"
  },
  "schemaVersion": "3.4.5",
  "updatedAt": "2022-05-27T03:53:10.396Z",
  "networkType": "ethereum",
  "devdoc": {
    "kind": "dev",
    "methods": {},
    "version": 1
  },
  "userdoc": {
    "kind": "user",
    "methods": {},
    "version": 1
  }
}