{
  "contractName": "DeresyRequests",
  "abi": [
    {
      "inputs": [],
      "name": "reviewFormsTotal",
      "outputs": [
        {
          "internalType": "uint256",
          "name": "",
          "type": "uint256"
        }
      ],
      "stateMutability": "view",
      "type": "function",
      "constant": true
    },
    {
      "inputs": [
        {
          "internalType": "string[]",
          "name": "questions",
          "type": "string[]"
        },
        {
          "internalType": "enum DeresyRequests.QuestionType[]",
          "name": "questionTypes",
          "type": "uint8[]"
        }
      ],
      "name": "createReviewForm",
      "outputs": [
        {
          "internalType": "uint256",
          "name": "",
          "type": "uint256"
        }
      ],
      "stateMutability": "nonpayable",
      "type": "function"
    },
    {
      "inputs": [
        {
          "internalType": "string",
          "name": "_name",
          "type": "string"
        },
        {
          "internalType": "address[]",
          "name": "reviewers",
          "type": "address[]"
        },
        {
          "internalType": "string[]",
          "name": "targets",
          "type": "string[]"
        },
        {
          "internalType": "string",
          "name": "formIpfsHash",
          "type": "string"
        },
        {
          "internalType": "uint256",
          "name": "rewardPerReview",
          "type": "uint256"
        },
        {
          "internalType": "uint256",
          "name": "reviewFormIndex",
          "type": "uint256"
        }
      ],
      "name": "createRequest",
      "outputs": [],
      "stateMutability": "payable",
      "type": "function",
      "payable": true
    },
    {
      "inputs": [
        {
          "internalType": "string",
          "name": "_name",
          "type": "string"
        },
        {
          "internalType": "uint8",
          "name": "targetIndex",
          "type": "uint8"
        },
        {
          "internalType": "string[]",
          "name": "answers",
          "type": "string[]"
        }
      ],
      "name": "submitReview",
      "outputs": [],
      "stateMutability": "nonpayable",
      "type": "function"
    },
    {
      "inputs": [
        {
          "internalType": "string",
          "name": "_name",
          "type": "string"
        }
      ],
      "name": "closeReviewRequest",
      "outputs": [],
      "stateMutability": "nonpayable",
      "type": "function"
    },
    {
      "inputs": [
        {
          "internalType": "string",
          "name": "_name",
          "type": "string"
        }
      ],
      "name": "getRequest",
      "outputs": [
        {
          "internalType": "address[]",
          "name": "reviewers",
          "type": "address[]"
        },
        {
          "internalType": "string[]",
          "name": "targets",
          "type": "string[]"
        },
        {
          "internalType": "string",
          "name": "formIpfsHash",
          "type": "string"
        },
        {
          "internalType": "uint256",
          "name": "rewardPerReview",
          "type": "uint256"
        },
        {
          "components": [
            {
              "internalType": "address",
              "name": "reviewer",
              "type": "address"
            },
            {
              "internalType": "uint8",
              "name": "targetIndex",
              "type": "uint8"
            },
            {
              "internalType": "string[]",
              "name": "answers",
              "type": "string[]"
            }
          ],
          "internalType": "struct DeresyRequests.Review[]",
          "name": "reviews",
          "type": "tuple[]"
        },
        {
          "internalType": "uint256",
          "name": "reviewFormIndex",
          "type": "uint256"
        },
        {
          "internalType": "bool",
          "name": "isClosed",
          "type": "bool"
        }
      ],
      "stateMutability": "view",
      "type": "function",
      "constant": true
    },
    {
      "inputs": [
        {
          "internalType": "uint256",
          "name": "_reviewFormIndex",
          "type": "uint256"
        }
      ],
      "name": "getReviewForm",
      "outputs": [
        {
          "internalType": "string[]",
          "name": "",
          "type": "string[]"
        },
        {
          "internalType": "enum DeresyRequests.QuestionType[]",
          "name": "",
          "type": "uint8[]"
        }
      ],
      "stateMutability": "view",
      "type": "function",
      "constant": true
    },
    {
      "inputs": [],
      "name": "getReviewRequestsNames",
      "outputs": [
        {
          "internalType": "string[]",
          "name": "",
          "type": "string[]"
        }
      ],
      "stateMutability": "view",
      "type": "function",
      "constant": true
    }
  ],
  "bytecode": "0x608060405234801561001057600080fd5b50613121806100206000396000f3fe60806040526004361061007b5760003560e01c806386be6d511161004e57806386be6d5114610145578063b6fc76af14610170578063be2761d0146101ae578063dd526054146101d75761007b565b80633af8d19a146100805780635db117d81461009c578063629147e8146100d957806385b9241314610102575b600080fd5b61009a60048036038101906100959190611d4b565b610202565b005b3480156100a857600080fd5b506100c360048036038101906100be9190611f30565b61061d565b6040516100d09190611fb7565b60405180910390f35b3480156100e557600080fd5b5061010060048036038101906100fb919061200b565b61079a565b005b34801561010e57600080fd5b5061012960048036038101906101249190612096565b610b69565b60405161013c97969594939291906124f3565b60405180910390f35b34801561015157600080fd5b5061015a611011565b6040516101679190611fb7565b60405180910390f35b34801561017c57600080fd5b506101976004803603810190610192919061257e565b611017565b6040516101a59291906126d1565b60405180910390f35b3480156101ba57600080fd5b506101d560048036038101906101d09190612096565b6111c7565b005b3480156101e357600080fd5b506101ec6113f7565b6040516101f99190612708565b60405180910390f35b6000855111610246576040517f08c379a000000000000000000000000000000000000000000000000000000000815260040161023d90612776565b60405180910390fd5b600084511161028a576040517f08c379a0000000000000000000000000000000000000000000000000000000008152600401610281906127e2565b60405180910390fd5b600160038054905061029c9190612831565b8111156102de576040517f08c379a00000000000000000000000000000000000000000000000000000000081526004016102d5906128b1565b60405180910390fd5b60008211610321576040517f08c379a000000000000000000000000000000000000000000000000000000000815260040161031890612943565b60405180910390fd5b600073ffffffffffffffffffffffffffffffffffffffff16600087604051610349919061299f565b908152602001604051809103902060000160009054906101000a900473ffffffffffffffffffffffffffffffffffffffff1673ffffffffffffffffffffffffffffffffffffffff16146103d1576040517f08c379a00000000000000000000000000000000000000000000000000000000081526004016103c890612a02565b60405180910390fd5b81845186516103e09190612a22565b6103ea9190612a22565b34101561042c576040517f08c379a000000000000000000000000000000000000000000000000000000000815260040161042390612ac8565b60405180910390fd5b3360008760405161043d919061299f565b908152602001604051809103902060000160006101000a81548173ffffffffffffffffffffffffffffffffffffffff021916908373ffffffffffffffffffffffffffffffffffffffff1602179055508460008760405161049d919061299f565b908152602001604051809103902060010190805190602001906104c192919061170d565b50836000876040516104d3919061299f565b908152602001604051809103902060020190805190602001906104f7929190611797565b5082600087604051610509919061299f565b9081526020016040518091039020600301908051906020019061052d9291906117f7565b508160008760405161053f919061299f565b90815260200160405180910390206004018190555060008087604051610565919061299f565b908152602001604051809103902060060160006101000a81548160ff0219169083151502179055503460008760405161059e919061299f565b908152602001604051809103902060070181905550806000876040516105c4919061299f565b9081526020016040518091039020600801819055506001869080600181540180825580915050600190039060005260206000200160009091909190915090805190602001906106149291906117f7565b50505050505050565b600080835111610662576040517f08c379a000000000000000000000000000000000000000000000000000000000815260040161065990612b34565b60405180910390fd5b60008251116106a6576040517f08c379a000000000000000000000000000000000000000000000000000000000815260040161069d90612bc6565b60405180910390fd5b82518251146106ea576040517f08c379a00000000000000000000000000000000000000000000000000000000081526004016106e190612c58565b60405180910390fd5b600360405180604001604052808581526020018481525090806001815401808255809150506001900390600052602060002090600202016000909190919091506000820151816000019080519060200190610746929190611797565b50602082015181600101908051906020019061076392919061187d565b5050506001600260008282546107799190612c78565b9250508190555060016003805490506107929190612831565b905092915050565b600015156000846040516107ae919061299f565b908152602001604051809103902060060160009054906101000a900460ff1615151461080f576040517f08c379a000000000000000000000000000000000000000000000000000000000815260040161080690612d1a565b60405180910390fd5b60008360405161081f919061299f565b9081526020016040518091039020600201805490508260ff1610610878576040517f08c379a000000000000000000000000000000000000000000000000000000000815260040161086f90612d86565b60405180910390fd5b8051600360008560405161088c919061299f565b908152602001604051809103902060080154815481106108af576108ae612da6565b5b90600052602060002090600202016000018054905014610904576040517f08c379a00000000000000000000000000000000000000000000000000000000081526004016108fb90612e47565b60405180910390fd5b6001151561091233856114d0565b151514610954576040517f08c379a000000000000000000000000000000000000000000000000000000000815260040161094b90612eff565b60405180910390fd5b61095f3384846115b9565b61099e576040517f08c379a000000000000000000000000000000000000000000000000000000000815260040161099590612fb7565b60405180910390fd5b6000836040516109ae919061299f565b908152602001604051809103902060050160405180606001604052803373ffffffffffffffffffffffffffffffffffffffff1681526020018460ff16815260200183815250908060018154018082558091505060019003906000526020600020906002020160009091909190915060008201518160000160006101000a81548173ffffffffffffffffffffffffffffffffffffffff021916908373ffffffffffffffffffffffffffffffffffffffff16021790555060208201518160000160146101000a81548160ff021916908360ff1602179055506040820151816001019080519060200190610aa0929190611797565b505050600083604051610ab3919061299f565b908152602001604051809103902060040154600084604051610ad5919061299f565b90815260200160405180910390206007016000828254610af59190612831565b925050819055503373ffffffffffffffffffffffffffffffffffffffff166108fc600085604051610b26919061299f565b9081526020016040518091039020600401549081150290604051600060405180830381858888f19350505050158015610b63573d6000803e3d6000fd5b50505050565b606080606060006060600080600088604051610b85919061299f565b9081526020016040518091039020600101600089604051610ba6919061299f565b908152602001604051809103902060020160008a604051610bc7919061299f565b908152602001604051809103902060030160008b604051610be8919061299f565b90815260200160405180910390206004015460008c604051610c0a919061299f565b908152602001604051809103902060050160008d604051610c2b919061299f565b90815260200160405180910390206008015460008e604051610c4d919061299f565b908152602001604051809103902060060160009054906101000a900460ff1686805480602002602001604051908101604052809291908181526020018280548015610ced57602002820191906000526020600020905b8160009054906101000a900473ffffffffffffffffffffffffffffffffffffffff1673ffffffffffffffffffffffffffffffffffffffff1681526020019060010190808311610ca3575b5050505050965085805480602002602001604051908101604052809291908181526020016000905b82821015610dc1578382906000526020600020018054610d3490613006565b80601f0160208091040260200160405190810160405280929190818152602001828054610d6090613006565b8015610dad5780601f10610d8257610100808354040283529160200191610dad565b820191906000526020600020905b815481529060010190602001808311610d9057829003601f168201915b505050505081526020019060010190610d15565b505050509550848054610dd390613006565b80601f0160208091040260200160405190810160405280929190818152602001828054610dff90613006565b8015610e4c5780601f10610e2157610100808354040283529160200191610e4c565b820191906000526020600020905b815481529060010190602001808311610e2f57829003601f168201915b5050505050945082805480602002602001604051908101604052809291908181526020016000905b82821015610ff257838290600052602060002090600202016040518060600160405290816000820160009054906101000a900473ffffffffffffffffffffffffffffffffffffffff1673ffffffffffffffffffffffffffffffffffffffff1673ffffffffffffffffffffffffffffffffffffffff1681526020016000820160149054906101000a900460ff1660ff1660ff16815260200160018201805480602002602001604051908101604052809291908181526020016000905b82821015610fdb578382906000526020600020018054610f4e90613006565b80601f0160208091040260200160405190810160405280929190818152602001828054610f7a90613006565b8015610fc75780601f10610f9c57610100808354040283529160200191610fc7565b820191906000526020600020905b815481529060010190602001808311610faa57829003601f168201915b505050505081526020019060010190610f2f565b505050508152505081526020019060010190610e74565b5050505092509650965096509650965096509650919395979092949650565b60025481565b6060806003838154811061102e5761102d612da6565b5b90600052602060002090600202016000016003848154811061105357611052612da6565b5b906000526020600020906002020160010181805480602002602001604051908101604052809291908181526020016000905b828210156111315783829060005260206000200180546110a490613006565b80601f01602080910402602001604051908101604052809291908181526020018280546110d090613006565b801561111d5780601f106110f25761010080835404028352916020019161111d565b820191906000526020600020905b81548152906001019060200180831161110057829003601f168201915b505050505081526020019060010190611085565b505050509150808054806020026020016040519081016040528092919081815260200182805480156111b757602002820191906000526020600020906000905b82829054906101000a900460ff166001811115611191576111906125d7565b5b815260200190600101906020826000010492830192600103820291508084116111715790505b5050505050905091509150915091565b6000816040516111d7919061299f565b908152602001604051809103902060000160009054906101000a900473ffffffffffffffffffffffffffffffffffffffff1673ffffffffffffffffffffffffffffffffffffffff163373ffffffffffffffffffffffffffffffffffffffff1614611276576040517f08c379a000000000000000000000000000000000000000000000000000000000815260040161126d90613083565b60405180910390fd5b6000151560008260405161128a919061299f565b908152602001604051809103902060060160009054906101000a900460ff161515146112eb576040517f08c379a00000000000000000000000000000000000000000000000000000000081526004016112e290612d1a565b60405180910390fd5b6000816040516112fb919061299f565b908152602001604051809103902060000160009054906101000a900473ffffffffffffffffffffffffffffffffffffffff1673ffffffffffffffffffffffffffffffffffffffff166108fc600083604051611356919061299f565b9081526020016040518091039020600701549081150290604051600060405180830381858888f19350505050158015611393573d6000803e3d6000fd5b5060016000826040516113a6919061299f565b908152602001604051809103902060060160006101000a81548160ff021916908315150217905550600080826040516113df919061299f565b90815260200160405180910390206007018190555050565b60606001805480602002602001604051908101604052809291908181526020016000905b828210156114c757838290600052602060002001805461143a90613006565b80601f016020809104026020016040519081016040528092919081815260200182805461146690613006565b80156114b35780601f10611488576101008083540402835291602001916114b3565b820191906000526020600020905b81548152906001019060200180831161149657829003601f168201915b50505050508152602001906001019061141b565b50505050905090565b6000806000905060005b6000846040516114ea919061299f565b9081526020016040518091039020600101805490508110156115ae578473ffffffffffffffffffffffffffffffffffffffff1660008560405161152d919061299f565b908152602001604051809103902060010182815481106115505761154f612da6565b5b9060005260206000200160009054906101000a900473ffffffffffffffffffffffffffffffffffffffff1673ffffffffffffffffffffffffffffffffffffffff160361159b57600191505b80806115a6906130a3565b9150506114da565b508091505092915050565b6000806001905060005b6000856040516115d3919061299f565b908152602001604051809103902060050180549050811015611701578360ff16600086604051611603919061299f565b9081526020016040518091039020600501828154811061162657611625612da6565b5b906000526020600020906002020160000160149054906101000a900460ff1660ff161480156116e457508573ffffffffffffffffffffffffffffffffffffffff16600086604051611677919061299f565b9081526020016040518091039020600501828154811061169a57611699612da6565b5b906000526020600020906002020160000160009054906101000a900473ffffffffffffffffffffffffffffffffffffffff1673ffffffffffffffffffffffffffffffffffffffff16145b156116ee57600091505b80806116f9906130a3565b9150506115c3565b50809150509392505050565b828054828255906000526020600020908101928215611786579160200282015b828111156117855782518260006101000a81548173ffffffffffffffffffffffffffffffffffffffff021916908373ffffffffffffffffffffffffffffffffffffffff1602179055509160200191906001019061172d565b5b5090506117939190611933565b5090565b8280548282559060005260206000209081019282156117e6579160200282015b828111156117e55782518290805190602001906117d59291906117f7565b50916020019190600101906117b7565b5b5090506117f39190611950565b5090565b82805461180390613006565b90600052602060002090601f016020900481019282611825576000855561186c565b82601f1061183e57805160ff191683800117855561186c565b8280016001018555821561186c579182015b8281111561186b578251825591602001919060010190611850565b5b5090506118799190611933565b5090565b82805482825590600052602060002090601f016020900481019282156119225791602002820160005b838211156118f357835183826101000a81548160ff021916908360018111156118d2576118d16125d7565b5b021790555092602001926001016020816000010492830192600103026118a6565b80156119205782816101000a81549060ff02191690556001016020816000010492830192600103026118f3565b505b50905061192f9190611933565b5090565b5b8082111561194c576000816000905550600101611934565b5090565b5b8082111561197057600081816119679190611974565b50600101611951565b5090565b50805461198090613006565b6000825580601f1061199257506119b1565b601f0160209004906000526020600020908101906119b09190611933565b5b50565b6000604051905090565b600080fd5b600080fd5b600080fd5b600080fd5b6000601f19601f8301169050919050565b7f4e487b7100000000000000000000000000000000000000000000000000000000600052604160045260246000fd5b611a1b826119d2565b810181811067ffffffffffffffff82111715611a3a57611a396119e3565b5b80604052505050565b6000611a4d6119b4565b9050611a598282611a12565b919050565b600067ffffffffffffffff821115611a7957611a786119e3565b5b611a82826119d2565b9050602081019050919050565b82818337600083830152505050565b6000611ab1611aac84611a5e565b611a43565b905082815260208101848484011115611acd57611acc6119cd565b5b611ad8848285611a8f565b509392505050565b600082601f830112611af557611af46119c8565b5b8135611b05848260208601611a9e565b91505092915050565b600067ffffffffffffffff821115611b2957611b286119e3565b5b602082029050602081019050919050565b600080fd5b600073ffffffffffffffffffffffffffffffffffffffff82169050919050565b6000611b6a82611b3f565b9050919050565b611b7a81611b5f565b8114611b8557600080fd5b50565b600081359050611b9781611b71565b92915050565b6000611bb0611bab84611b0e565b611a43565b90508083825260208201905060208402830185811115611bd357611bd2611b3a565b5b835b81811015611bfc5780611be88882611b88565b845260208401935050602081019050611bd5565b5050509392505050565b600082601f830112611c1b57611c1a6119c8565b5b8135611c2b848260208601611b9d565b91505092915050565b600067ffffffffffffffff821115611c4f57611c4e6119e3565b5b602082029050602081019050919050565b6000611c73611c6e84611c34565b611a43565b90508083825260208201905060208402830185811115611c9657611c95611b3a565b5b835b81811015611cdd57803567ffffffffffffffff811115611cbb57611cba6119c8565b5b808601611cc88982611ae0565b85526020850194505050602081019050611c98565b5050509392505050565b600082601f830112611cfc57611cfb6119c8565b5b8135611d0c848260208601611c60565b91505092915050565b6000819050919050565b611d2881611d15565b8114611d3357600080fd5b50565b600081359050611d4581611d1f565b92915050565b60008060008060008060c08789031215611d6857611d676119be565b5b600087013567ffffffffffffffff811115611d8657611d856119c3565b5b611d9289828a01611ae0565b965050602087013567ffffffffffffffff811115611db357611db26119c3565b5b611dbf89828a01611c06565b955050604087013567ffffffffffffffff811115611de057611ddf6119c3565b5b611dec89828a01611ce7565b945050606087013567ffffffffffffffff811115611e0d57611e0c6119c3565b5b611e1989828a01611ae0565b9350506080611e2a89828a01611d36565b92505060a0611e3b89828a01611d36565b9150509295509295509295565b600067ffffffffffffffff821115611e6357611e626119e3565b5b602082029050602081019050919050565b60028110611e8157600080fd5b50565b600081359050611e9381611e74565b92915050565b6000611eac611ea784611e48565b611a43565b90508083825260208201905060208402830185811115611ecf57611ece611b3a565b5b835b81811015611ef85780611ee48882611e84565b845260208401935050602081019050611ed1565b5050509392505050565b600082601f830112611f1757611f166119c8565b5b8135611f27848260208601611e99565b91505092915050565b60008060408385031215611f4757611f466119be565b5b600083013567ffffffffffffffff811115611f6557611f646119c3565b5b611f7185828601611ce7565b925050602083013567ffffffffffffffff811115611f9257611f916119c3565b5b611f9e85828601611f02565b9150509250929050565b611fb181611d15565b82525050565b6000602082019050611fcc6000830184611fa8565b92915050565b600060ff82169050919050565b611fe881611fd2565b8114611ff357600080fd5b50565b60008135905061200581611fdf565b92915050565b600080600060608486031215612024576120236119be565b5b600084013567ffffffffffffffff811115612042576120416119c3565b5b61204e86828701611ae0565b935050602061205f86828701611ff6565b925050604084013567ffffffffffffffff8111156120805761207f6119c3565b5b61208c86828701611ce7565b9150509250925092565b6000602082840312156120ac576120ab6119be565b5b600082013567ffffffffffffffff8111156120ca576120c96119c3565b5b6120d684828501611ae0565b91505092915050565b600081519050919050565b600082825260208201905092915050565b6000819050602082019050919050565b61211481611b5f565b82525050565b6000612126838361210b565b60208301905092915050565b6000602082019050919050565b600061214a826120df565b61215481856120ea565b935061215f836120fb565b8060005b83811015612190578151612177888261211a565b975061218283612132565b925050600181019050612163565b5085935050505092915050565b600081519050919050565b600082825260208201905092915050565b6000819050602082019050919050565b600081519050919050565b600082825260208201905092915050565b60005b838110156122035780820151818401526020810190506121e8565b83811115612212576000848401525b50505050565b6000612223826121c9565b61222d81856121d4565b935061223d8185602086016121e5565b612246816119d2565b840191505092915050565b600061225d8383612218565b905092915050565b6000602082019050919050565b600061227d8261219d565b61228781856121a8565b935083602082028501612299856121b9565b8060005b858110156122d557848403895281516122b68582612251565b94506122c183612265565b925060208a0199505060018101905061229d565b50829750879550505050505092915050565b600082825260208201905092915050565b6000612303826121c9565b61230d81856122e7565b935061231d8185602086016121e5565b612326816119d2565b840191505092915050565b600081519050919050565b600082825260208201905092915050565b6000819050602082019050919050565b61236681611fd2565b82525050565b600082825260208201905092915050565b60006123888261219d565b612392818561236c565b9350836020820285016123a4856121b9565b8060005b858110156123e057848403895281516123c18582612251565b94506123cc83612265565b925060208a019950506001810190506123a8565b50829750879550505050505092915050565b600060608301600083015161240a600086018261210b565b50602083015161241d602086018261235d565b5060408301518482036040860152612435828261237d565b9150508091505092915050565b600061244e83836123f2565b905092915050565b6000602082019050919050565b600061246e82612331565b612478818561233c565b93508360208202850161248a8561234d565b8060005b858110156124c657848403895281516124a78582612442565b94506124b283612456565b925060208a0199505060018101905061248e565b50829750879550505050505092915050565b60008115159050919050565b6124ed816124d8565b82525050565b600060e082019050818103600083015261250d818a61213f565b905081810360208301526125218189612272565b9050818103604083015261253581886122f8565b90506125446060830187611fa8565b81810360808301526125568186612463565b905061256560a0830185611fa8565b61257260c08301846124e4565b98975050505050505050565b600060208284031215612594576125936119be565b5b60006125a284828501611d36565b91505092915050565b600081519050919050565b600082825260208201905092915050565b6000819050602082019050919050565b7f4e487b7100000000000000000000000000000000000000000000000000000000600052602160045260246000fd5b60028110612617576126166125d7565b5b50565b600081905061262882612606565b919050565b60006126388261261a565b9050919050565b6126488161262d565b82525050565b600061265a838361263f565b60208301905092915050565b6000602082019050919050565b600061267e826125ab565b61268881856125b6565b9350612693836125c7565b8060005b838110156126c45781516126ab888261264e565b97506126b683612666565b925050600181019050612697565b5085935050505092915050565b600060408201905081810360008301526126eb8185612272565b905081810360208301526126ff8184612673565b90509392505050565b600060208201905081810360008301526127228184612272565b905092915050565b7f4465726573793a205265766965776572732063616e6e6f74206265206e756c6c600082015250565b60006127606020836122e7565b915061276b8261272a565b602082019050919050565b6000602082019050818103600083015261278f81612753565b9050919050565b7f4465726573793a20546172676574732063616e6e6f74206265206e756c6c0000600082015250565b60006127cc601e836122e7565b91506127d782612796565b602082019050919050565b600060208201905081810360008301526127fb816127bf565b9050919050565b7f4e487b7100000000000000000000000000000000000000000000000000000000600052601160045260246000fd5b600061283c82611d15565b915061284783611d15565b92508282101561285a57612859612802565b5b828203905092915050565b7f4465726573793a20526576696577466f726d496e64657820696e76616c696400600082015250565b600061289b601f836122e7565b91506128a682612865565b602082019050919050565b600060208201905081810360008301526128ca8161288e565b9050919050565b7f4465726573793a207265776172645065725265766965772063616e6e6f74206260008201527f6520656d70747900000000000000000000000000000000000000000000000000602082015250565b600061292d6027836122e7565b9150612938826128d1565b604082019050919050565b6000602082019050818103600083015261295c81612920565b9050919050565b600081905092915050565b6000612979826121c9565b6129838185612963565b93506129938185602086016121e5565b80840191505092915050565b60006129ab828461296e565b915081905092915050565b7f4465726573793a204e616d65206475706c696361746564000000000000000000600082015250565b60006129ec6017836122e7565b91506129f7826129b6565b602082019050919050565b60006020820190508181036000830152612a1b816129df565b9050919050565b6000612a2d82611d15565b9150612a3883611d15565b9250817fffffffffffffffffffffffffffffffffffffffffffffffffffffffffffffffff0483118215151615612a7157612a70612802565b5b828202905092915050565b7f4465726573793a206d73672e76616c756520696e76616c696400000000000000600082015250565b6000612ab26019836122e7565b9150612abd82612a7c565b602082019050919050565b60006020820190508181036000830152612ae181612aa5565b9050919050565b7f4465726573793a205175657374696f6e732063616e2774206265206e756c6c00600082015250565b6000612b1e601f836122e7565b9150612b2982612ae8565b602082019050919050565b60006020820190508181036000830152612b4d81612b11565b9050919050565b7f4465726573793a205175657374696f6e2054797065732063616e27742062652060008201527f6e756c6c00000000000000000000000000000000000000000000000000000000602082015250565b6000612bb06024836122e7565b9150612bbb82612b54565b604082019050919050565b60006020820190508181036000830152612bdf81612ba3565b9050919050565b7f4465726573793a204e6565647320746f206265207468652073616d652071756160008201527f6e74697479206f6620706172616d657465727300000000000000000000000000602082015250565b6000612c426033836122e7565b9150612c4d82612be6565b604082019050919050565b60006020820190508181036000830152612c7181612c35565b9050919050565b6000612c8382611d15565b9150612c8e83611d15565b9250827fffffffffffffffffffffffffffffffffffffffffffffffffffffffffffffffff03821115612cc357612cc2612802565b5b828201905092915050565b7f4465726573793a207265717565737420636c6f73656400000000000000000000600082015250565b6000612d046016836122e7565b9150612d0f82612cce565b602082019050919050565b60006020820190508181036000830152612d3381612cf7565b9050919050565b7f4465726573793a20746172676574496e64657820696e76616c69640000000000600082015250565b6000612d70601b836122e7565b9150612d7b82612d3a565b602082019050919050565b60006020820190508181036000830152612d9f81612d63565b9050919050565b7f4e487b7100000000000000000000000000000000000000000000000000000000600052603260045260246000fd5b7f4465726573793a204e6f74207468652073616d65206e756d626572206f66207160008201527f75657374696f6e7320616e6420616e7377657273000000000000000000000000602082015250565b6000612e316034836122e7565b9150612e3c82612dd5565b604082019050919050565b60006020820190508181036000830152612e6081612e24565b9050919050565b7f546869732061646472657373206973206e6f7420696e2074686520726576696560008201527f77657273206c69737420666f722074686520737065636966696564207265717560208201527f6573742e00000000000000000000000000000000000000000000000000000000604082015250565b6000612ee96044836122e7565b9150612ef482612e67565b606082019050919050565b60006020820190508181036000830152612f1881612edc565b9050919050565b7f5468697320616464726573732068617320616c7265616479207375626d69747460008201527f656420612072657669657720666f72207468652074617267746520696e64657860208201527f20696e2074686520737065636966696564207265717565737400000000000000604082015250565b6000612fa16059836122e7565b9150612fac82612f1f565b606082019050919050565b60006020820190508181036000830152612fd081612f94565b9050919050565b7f4e487b7100000000000000000000000000000000000000000000000000000000600052602260045260246000fd5b6000600282049050600182168061301e57607f821691505b60208210810361303157613030612fd7565b5b50919050565b7f4465726573793a204974206973206e6f74207468652073706f6e736f72000000600082015250565b600061306d601d836122e7565b915061307882613037565b602082019050919050565b6000602082019050818103600083015261309c81613060565b9050919050565b60006130ae82611d15565b91507fffffffffffffffffffffffffffffffffffffffffffffffffffffffffffffffff82036130e0576130df612802565b5b60018201905091905056fea2646970667358221220380bbe1d9dca3a3244745cef6c172d61da39ebc2d716e6d8d24b356f8ded0bbd64736f6c634300080d0033",
  "immutableReferences": {},
  "source": "// SPDX-License-Identifier: MIT\npragma solidity 0.8.13;\ncontract DeresyRequests {\n    \n  enum QuestionType {Text, Checkbox}\n    \n  struct reviewForm {\n    string[] questions;\n    QuestionType[] questionTypes;\n  }\n\n  struct Review {\n    address reviewer;\n    uint8 targetIndex;\n    string[] answers;\n  }\n    \n  struct ReviewRequest {\n    address sponsor;\n    address[] reviewers;\n    string[] targets;\n    string formIpfsHash;\n    uint256 rewardPerReview;\n    Review[] reviews;\n    bool isClosed;\n    uint256 fundsLeft;\n    uint256 reviewFormIndex;\n  }\n\n  mapping(string => ReviewRequest) private reviewRequests;\n\n  string[] reviewRequestNames;\n  uint256 public reviewFormsTotal;\n\n  reviewForm[] reviewForms;\n\n  //creating ReviewForm\n  function createReviewForm(string[] memory questions, QuestionType[] memory questionTypes) external  returns (uint256){\n    require(questions.length > 0, \"Deresy: Questions can't be null\");\n    require(questionTypes.length > 0, \"Deresy: Question Types can't be null\");\n    require(questionTypes.length == questions.length, \"Deresy: Needs to be the same quantity of parameters\");\n    reviewForms.push(reviewForm(questions,questionTypes));\n    reviewFormsTotal += 1;\n    return reviewForms.length - 1;\n  }\n\n  // Creating a request \n  function createRequest(string memory _name, address[] memory reviewers, string[] memory targets, string memory formIpfsHash, uint256 rewardPerReview, uint256 reviewFormIndex) external payable{\n    require(reviewers.length > 0,\"Deresy: Reviewers cannot be null\");\n    require(targets.length > 0,\"Deresy: Targets cannot be null\");\n    require(reviewFormIndex <= reviewForms.length - 1,\"Deresy: ReviewFormIndex invalid\");\n    require(rewardPerReview > 0,\"Deresy: rewardPerReview cannot be empty\");\n    require(reviewRequests[_name].sponsor == address(0),\"Deresy: Name duplicated\");\n    require(msg.value >= ((reviewers.length * targets.length) * rewardPerReview),\"Deresy: msg.value invalid\");\n    reviewRequests[_name].sponsor = msg.sender;\n    reviewRequests[_name].reviewers = reviewers;\n    reviewRequests[_name].targets = targets;\n    reviewRequests[_name].formIpfsHash = formIpfsHash;\n    reviewRequests[_name].rewardPerReview = rewardPerReview;\n    reviewRequests[_name].isClosed = false;\n    reviewRequests[_name].fundsLeft = msg.value;\n    reviewRequests[_name].reviewFormIndex = reviewFormIndex;\n    reviewRequestNames.push(_name);\n  }\n\n  function submitReview(string memory _name, uint8 targetIndex, string[] memory answers) external {\n    require(reviewRequests[_name].isClosed == false,\"Deresy: request closed\");\n    require(targetIndex < reviewRequests[_name].targets.length,\"Deresy: targetIndex invalid\");\n    require(reviewForms[reviewRequests[_name].reviewFormIndex].questions.length == answers.length,\"Deresy: Not the same number of questions and answers\");\n    require(isReviewer(msg.sender, _name) == true, \"This address is not in the reviewers list for the specified request.\");\n    require(hasSubmittedReview(msg.sender, _name, targetIndex), \"This address has already submitted a review for the targte index in the specified request\");      \n    reviewRequests[_name].reviews.push(Review(msg.sender,targetIndex, answers));\n    reviewRequests[_name].fundsLeft -= reviewRequests[_name].rewardPerReview;\n    payable(msg.sender).transfer(reviewRequests[_name].rewardPerReview);\n  }\n\n  function closeReviewRequest(string memory _name) external{\n    require(msg.sender == reviewRequests[_name].sponsor, \"Deresy: It is not the sponsor\");\n    require(reviewRequests[_name].isClosed == false,\"Deresy: request closed\");\n    payable(reviewRequests[_name].sponsor).transfer(reviewRequests[_name].fundsLeft);\n    reviewRequests[_name].isClosed = true;\n    reviewRequests[_name].fundsLeft = 0;\n  }\n\n  function getRequest(string memory _name) public view returns (address[] memory reviewers,string[] memory targets,string memory formIpfsHash,uint256 rewardPerReview,Review[] memory reviews,uint256 reviewFormIndex, bool isClosed){\n    return (reviewRequests[_name].reviewers,reviewRequests[_name].targets,reviewRequests[_name].formIpfsHash,reviewRequests[_name].rewardPerReview, reviewRequests[_name].reviews, reviewRequests[_name].reviewFormIndex, reviewRequests[_name].isClosed);\n  }\n\n  function getReviewForm(uint256 _reviewFormIndex) public view returns(string[] memory, QuestionType[] memory){\n    return (reviewForms[_reviewFormIndex].questions,reviewForms[_reviewFormIndex].questionTypes);\n  }\n\n  function getReviewRequestsNames() public view returns(string[] memory){\n    return reviewRequestNames;\n  }\n\n  function isReviewer(address reviewerAddress, string memory _name) internal view returns (bool) {\n    bool reviewerFound = false;\n    for (uint i = 0; i < reviewRequests[_name].reviewers.length; i++){\n      if(reviewRequests[_name].reviewers[i] == reviewerAddress){\n        reviewerFound = true;\n      }\n    }\n    return reviewerFound;\n  }\n\n  function hasSubmittedReview(address reviewerAddress, string memory _name, uint8 targetIndex) internal view returns (bool) {\n    bool notReviewed = true;\n    for(uint i = 0; i < reviewRequests[_name].reviews.length; i++) {\n      if(reviewRequests[_name].reviews[i].targetIndex == targetIndex && reviewRequests[_name].reviews[i].reviewer == reviewerAddress) {\n        notReviewed = false;\n      }\n    }\n    return notReviewed;\n  }\n}",
  "sourcePath": "/Users/ozz/Documents/deresy/onc-smart-contracts/contracts/DeresyRequests.sol",
  "compiler": {
    "name": "solc",
    "version": "0.8.13+commit.abaa5c0e.Emscripten.clang"
  },
  "schemaVersion": "3.4.5",
  "updatedAt": "2022-05-04T05:03:24.410Z",
  "networkType": "ethereum",
  "devdoc": {
    "kind": "dev",
    "methods": {},
    "version": 1
  },
  "userdoc": {
    "kind": "user",
    "methods": {},
    "version": 1
  }
}