{
	"contracts/DeresyRequests.sol": {
		"DeresyRequests": {
			"abi": [
				{
					"anonymous": false,
					"inputs": [
						{
							"indexed": false,
							"internalType": "string",
							"name": "_requestName",
							"type": "string"
						}
					],
					"name": "ClosedReviewRequest",
					"type": "event"
				},
				{
					"anonymous": false,
					"inputs": [
						{
							"indexed": false,
							"internalType": "uint256",
							"name": "_formId",
							"type": "uint256"
						}
					],
					"name": "CreatedReviewForm",
					"type": "event"
				},
				{
					"anonymous": false,
					"inputs": [
						{
							"indexed": false,
							"internalType": "string",
							"name": "_requestName",
							"type": "string"
						}
					],
					"name": "CreatedReviewRequest",
					"type": "event"
				},
				{
					"anonymous": false,
					"inputs": [
						{
							"indexed": false,
							"internalType": "string",
							"name": "_requestName",
							"type": "string"
						}
					],
					"name": "SubmittedReview",
					"type": "event"
				},
				{
					"inputs": [
						{
							"internalType": "string",
							"name": "_name",
							"type": "string"
						}
					],
					"name": "closeReviewRequest",
					"outputs": [],
					"stateMutability": "nonpayable",
					"type": "function"
				},
				{
					"inputs": [],
					"name": "contractVersion",
					"outputs": [
						{
							"internalType": "string",
							"name": "",
							"type": "string"
						}
					],
					"stateMutability": "view",
					"type": "function"
				},
				{
					"inputs": [
						{
							"internalType": "string",
							"name": "_name",
							"type": "string"
						},
						{
							"internalType": "address[]",
							"name": "reviewers",
							"type": "address[]"
						},
						{
							"internalType": "string[]",
							"name": "targets",
							"type": "string[]"
						},
						{
							"internalType": "string[]",
							"name": "targetsIPFSHashes",
							"type": "string[]"
						},
						{
							"internalType": "string",
							"name": "formIpfsHash",
							"type": "string"
						},
						{
							"internalType": "uint256",
							"name": "rewardPerReview",
							"type": "uint256"
						},
						{
							"internalType": "uint256",
							"name": "reviewFormIndex",
							"type": "uint256"
						}
					],
					"name": "createRequest",
					"outputs": [],
					"stateMutability": "payable",
					"type": "function"
				},
				{
					"inputs": [
						{
							"internalType": "string[]",
							"name": "questions",
							"type": "string[]"
						},
						{
							"internalType": "string[][]",
							"name": "choices",
							"type": "string[][]"
						},
						{
							"internalType": "enum DeresyRequests.QuestionType[]",
							"name": "questionTypes",
							"type": "uint8[]"
						}
					],
					"name": "createReviewForm",
					"outputs": [
						{
							"internalType": "uint256",
							"name": "",
							"type": "uint256"
						}
					],
					"stateMutability": "nonpayable",
					"type": "function"
				},
				{
					"inputs": [
						{
							"internalType": "string",
							"name": "_name",
							"type": "string"
						}
					],
					"name": "getRequest",
					"outputs": [
						{
							"internalType": "address[]",
							"name": "reviewers",
							"type": "address[]"
						},
						{
							"internalType": "string[]",
							"name": "targets",
							"type": "string[]"
						},
						{
							"internalType": "string[]",
							"name": "targetsIPFSHashes",
							"type": "string[]"
						},
						{
							"internalType": "string",
							"name": "formIpfsHash",
							"type": "string"
						},
						{
							"internalType": "uint256",
							"name": "rewardPerReview",
							"type": "uint256"
						},
						{
							"components": [
								{
									"internalType": "address",
									"name": "reviewer",
									"type": "address"
								},
								{
									"internalType": "uint8",
									"name": "targetIndex",
									"type": "uint8"
								},
								{
									"internalType": "string[]",
									"name": "answers",
									"type": "string[]"
								}
							],
							"internalType": "struct DeresyRequests.Review[]",
							"name": "reviews",
							"type": "tuple[]"
						},
						{
							"internalType": "uint256",
							"name": "reviewFormIndex",
							"type": "uint256"
						},
						{
							"internalType": "bool",
							"name": "isClosed",
							"type": "bool"
						}
					],
					"stateMutability": "view",
					"type": "function"
				},
				{
					"inputs": [
						{
							"internalType": "uint256",
							"name": "_reviewFormIndex",
							"type": "uint256"
						}
					],
					"name": "getReviewForm",
					"outputs": [
						{
							"internalType": "string[]",
							"name": "",
							"type": "string[]"
						},
						{
							"internalType": "enum DeresyRequests.QuestionType[]",
							"name": "",
							"type": "uint8[]"
						},
						{
							"internalType": "string[][]",
							"name": "choices",
							"type": "string[][]"
						}
					],
					"stateMutability": "view",
					"type": "function"
				},
				{
					"inputs": [],
					"name": "getReviewRequestsNames",
					"outputs": [
						{
							"internalType": "string[]",
							"name": "",
							"type": "string[]"
						}
					],
					"stateMutability": "view",
					"type": "function"
				},
				{
					"inputs": [],
					"name": "reviewFormsTotal",
					"outputs": [
						{
							"internalType": "uint256",
							"name": "",
							"type": "uint256"
						}
					],
					"stateMutability": "view",
					"type": "function"
				},
				{
					"inputs": [
						{
							"internalType": "string",
							"name": "_name",
							"type": "string"
						},
						{
							"internalType": "uint8",
							"name": "targetIndex",
							"type": "uint8"
						},
						{
							"internalType": "string[]",
							"name": "answers",
							"type": "string[]"
						}
					],
					"name": "submitReview",
					"outputs": [],
					"stateMutability": "nonpayable",
					"type": "function"
				}
			],
			"devdoc": {
				"kind": "dev",
				"methods": {},
				"version": 1
			},
			"evm": {
				"assembly": "    /* \"contracts/DeresyRequests.sol\":56:6389  contract DeresyRequests {... */\n  mstore(0x40, 0x80)\n    /* \"contracts/DeresyRequests.sol\":754:791  string public contractVersion = \"0.1\" */\n  mload(0x40)\n  dup1\n  0x40\n  add\n  0x40\n  mstore\n  dup1\n  0x03\n  dup2\n  mstore\n  0x20\n  add\n  0x302e310000000000000000000000000000000000000000000000000000000000\n  dup2\n  mstore\n  pop\n  0x03\n  swap1\n  dup1\n  mload\n  swap1\n  0x20\n  add\n  swap1\n  tag_1\n  swap3\n  swap2\n  swap1\n  tag_2\n  jump\t// in\ntag_1:\n  pop\n    /* \"contracts/DeresyRequests.sol\":56:6389  contract DeresyRequests {... */\n  callvalue\n  dup1\n  iszero\n  tag_3\n  jumpi\n  0x00\n  dup1\n  revert\ntag_3:\n  pop\n  jump(tag_4)\ntag_2:\n  dup3\n  dup1\n  sload\n  tag_5\n  swap1\n  tag_6\n  jump\t// in\ntag_5:\n  swap1\n  0x00\n  mstore\n  keccak256(0x00, 0x20)\n  swap1\n  0x1f\n  add\n  0x20\n  swap1\n  div\n  dup2\n  add\n  swap3\n  dup3\n  tag_8\n  jumpi\n  0x00\n  dup6\n  sstore\n  jump(tag_7)\ntag_8:\n  dup3\n  0x1f\n  lt\n  tag_9\n  jumpi\n  dup1\n  mload\n  not(0xff)\n  and\n  dup4\n  dup1\n  add\n  or\n  dup6\n  sstore\n  jump(tag_7)\ntag_9:\n  dup3\n  dup1\n  add\n  0x01\n  add\n  dup6\n  sstore\n  dup3\n  iszero\n  tag_7\n  jumpi\n  swap2\n  dup3\n  add\ntag_10:\n  dup3\n  dup2\n  gt\n  iszero\n  tag_11\n  jumpi\n  dup3\n  mload\n  dup3\n  sstore\n  swap2\n  0x20\n  add\n  swap2\n  swap1\n  0x01\n  add\n  swap1\n  jump(tag_10)\ntag_11:\ntag_7:\n  pop\n  swap1\n  pop\n  tag_12\n  swap2\n  swap1\n  tag_13\n  jump\t// in\ntag_12:\n  pop\n  swap1\n  jump\t// out\ntag_13:\ntag_14:\n  dup1\n  dup3\n  gt\n  iszero\n  tag_15\n  jumpi\n  0x00\n  dup2\n  0x00\n  swap1\n  sstore\n  pop\n  0x01\n  add\n  jump(tag_14)\ntag_15:\n  pop\n  swap1\n  jump\t// out\n    /* \"#utility.yul\":7:187   */\ntag_16:\n    /* \"#utility.yul\":55:132   */\n  0x4e487b7100000000000000000000000000000000000000000000000000000000\n    /* \"#utility.yul\":52:53   */\n  0x00\n    /* \"#utility.yul\":45:133   */\n  mstore\n    /* \"#utility.yul\":152:156   */\n  0x22\n    /* \"#utility.yul\":149:150   */\n  0x04\n    /* \"#utility.yul\":142:157   */\n  mstore\n    /* \"#utility.yul\":176:180   */\n  0x24\n    /* \"#utility.yul\":173:174   */\n  0x00\n    /* \"#utility.yul\":166:181   */\n  revert\n    /* \"#utility.yul\":193:513   */\ntag_6:\n    /* \"#utility.yul\":237:243   */\n  0x00\n    /* \"#utility.yul\":274:275   */\n  0x02\n    /* \"#utility.yul\":268:272   */\n  dup3\n    /* \"#utility.yul\":264:276   */\n  div\n    /* \"#utility.yul\":254:276   */\n  swap1\n  pop\n    /* \"#utility.yul\":321:322   */\n  0x01\n    /* \"#utility.yul\":315:319   */\n  dup3\n    /* \"#utility.yul\":311:323   */\n  and\n    /* \"#utility.yul\":342:360   */\n  dup1\n    /* \"#utility.yul\":332:413   */\n  tag_20\n  jumpi\n    /* \"#utility.yul\":398:402   */\n  0x7f\n    /* \"#utility.yul\":390:396   */\n  dup3\n    /* \"#utility.yul\":386:403   */\n  and\n    /* \"#utility.yul\":376:403   */\n  swap2\n  pop\n    /* \"#utility.yul\":332:413   */\ntag_20:\n    /* \"#utility.yul\":460:462   */\n  0x20\n    /* \"#utility.yul\":452:458   */\n  dup3\n    /* \"#utility.yul\":449:463   */\n  lt\n    /* \"#utility.yul\":429:447   */\n  dup2\n    /* \"#utility.yul\":426:464   */\n  sub\n    /* \"#utility.yul\":423:507   */\n  tag_21\n  jumpi\n    /* \"#utility.yul\":479:497   */\n  tag_22\n  tag_16\n  jump\t// in\ntag_22:\n    /* \"#utility.yul\":423:507   */\ntag_21:\n    /* \"#utility.yul\":244:513   */\n  pop\n    /* \"#utility.yul\":193:513   */\n  swap2\n  swap1\n  pop\n  jump\t// out\n    /* \"contracts/DeresyRequests.sol\":56:6389  contract DeresyRequests {... */\ntag_4:\n  dataSize(sub_0)\n  dup1\n  dataOffset(sub_0)\n  0x00\n  codecopy\n  0x00\n  return\nstop\n\nsub_0: assembly {\n        /* \"contracts/DeresyRequests.sol\":56:6389  contract DeresyRequests {... */\n      mstore(0x40, 0x80)\n      jumpi(tag_1, lt(calldatasize, 0x04))\n      shr(0xe0, calldataload(0x00))\n      dup1\n      0xa0a8e460\n      gt\n      tag_11\n      jumpi\n      dup1\n      0xa0a8e460\n      eq\n      tag_6\n      jumpi\n      dup1\n      0xb6fc76af\n      eq\n      tag_7\n      jumpi\n      dup1\n      0xbe2761d0\n      eq\n      tag_8\n      jumpi\n      dup1\n      0xd9370019\n      eq\n      tag_9\n      jumpi\n      dup1\n      0xdd526054\n      eq\n      tag_10\n      jumpi\n      jump(tag_1)\n    tag_11:\n      dup1\n      0x0677b535\n      eq\n      tag_2\n      jumpi\n      dup1\n      0x629147e8\n      eq\n      tag_3\n      jumpi\n      dup1\n      0x85b92413\n      eq\n      tag_4\n      jumpi\n      dup1\n      0x86be6d51\n      eq\n      tag_5\n      jumpi\n    tag_1:\n      0x00\n      dup1\n      revert\n        /* \"contracts/DeresyRequests.sol\":1041:1706  function createReviewForm(string[] memory questions, string[][] memory choices, QuestionType[] memory questionTypes) external  returns (uint256){... */\n    tag_2:\n      callvalue\n      dup1\n      iszero\n      tag_12\n      jumpi\n      0x00\n      dup1\n      revert\n    tag_12:\n      pop\n      tag_13\n      0x04\n      dup1\n      calldatasize\n      sub\n      dup2\n      add\n      swap1\n      tag_14\n      swap2\n      swap1\n      tag_15\n      jump\t// in\n    tag_14:\n      tag_16\n      jump\t// in\n    tag_13:\n      mload(0x40)\n      tag_17\n      swap2\n      swap1\n      tag_18\n      jump\t// in\n    tag_17:\n      mload(0x40)\n      dup1\n      swap2\n      sub\n      swap1\n      return\n        /* \"contracts/DeresyRequests.sol\":3237:4264  function submitReview(string memory _name, uint8 targetIndex, string[] memory answers) external {... */\n    tag_3:\n      callvalue\n      dup1\n      iszero\n      tag_19\n      jumpi\n      0x00\n      dup1\n      revert\n    tag_19:\n      pop\n      tag_20\n      0x04\n      dup1\n      calldatasize\n      sub\n      dup2\n      add\n      swap1\n      tag_21\n      swap2\n      swap1\n      tag_22\n      jump\t// in\n    tag_21:\n      tag_23\n      jump\t// in\n    tag_20:\n      stop\n        /* \"contracts/DeresyRequests.sol\":4711:5222  function getRequest(string memory _name) public view returns (address[] memory reviewers, string[] memory targets, string[] memory targetsIPFSHashes, string memory formIpfsHash, uint256 rewardPerReview,Review[] memory reviews, uint256 reviewFormIndex,bool isClosed){... */\n    tag_4:\n      callvalue\n      dup1\n      iszero\n      tag_24\n      jumpi\n      0x00\n      dup1\n      revert\n    tag_24:\n      pop\n      tag_25\n      0x04\n      dup1\n      calldatasize\n      sub\n      dup2\n      add\n      swap1\n      tag_26\n      swap2\n      swap1\n      tag_27\n      jump\t// in\n    tag_26:\n      tag_28\n      jump\t// in\n    tag_25:\n      mload(0x40)\n      tag_29\n      swap9\n      swap8\n      swap7\n      swap6\n      swap5\n      swap4\n      swap3\n      swap2\n      swap1\n      tag_30\n      jump\t// in\n    tag_29:\n      mload(0x40)\n      dup1\n      swap2\n      sub\n      swap1\n      return\n        /* \"contracts/DeresyRequests.sol\":716:747  uint256 public reviewFormsTotal */\n    tag_5:\n      callvalue\n      dup1\n      iszero\n      tag_31\n      jumpi\n      0x00\n      dup1\n      revert\n    tag_31:\n      pop\n      tag_32\n      tag_33\n      jump\t// in\n    tag_32:\n      mload(0x40)\n      tag_34\n      swap2\n      swap1\n      tag_18\n      jump\t// in\n    tag_34:\n      mload(0x40)\n      dup1\n      swap2\n      sub\n      swap1\n      return\n        /* \"contracts/DeresyRequests.sol\":754:791  string public contractVersion = \"0.1\" */\n    tag_6:\n      callvalue\n      dup1\n      iszero\n      tag_35\n      jumpi\n      0x00\n      dup1\n      revert\n    tag_35:\n      pop\n      tag_36\n      tag_37\n      jump\t// in\n    tag_36:\n      mload(0x40)\n      tag_38\n      swap2\n      swap1\n      tag_39\n      jump\t// in\n    tag_38:\n      mload(0x40)\n      dup1\n      swap2\n      sub\n      swap1\n      return\n        /* \"contracts/DeresyRequests.sol\":5226:5503  function getReviewForm(uint256 _reviewFormIndex) public view returns(string[] memory, QuestionType[] memory, string[][] memory choices){... */\n    tag_7:\n      callvalue\n      dup1\n      iszero\n      tag_40\n      jumpi\n      0x00\n      dup1\n      revert\n    tag_40:\n      pop\n      tag_41\n      0x04\n      dup1\n      calldatasize\n      sub\n      dup2\n      add\n      swap1\n      tag_42\n      swap2\n      swap1\n      tag_43\n      jump\t// in\n    tag_42:\n      tag_44\n      jump\t// in\n    tag_41:\n      mload(0x40)\n      tag_45\n      swap4\n      swap3\n      swap2\n      swap1\n      tag_46\n      jump\t// in\n    tag_45:\n      mload(0x40)\n      dup1\n      swap2\n      sub\n      swap1\n      return\n        /* \"contracts/DeresyRequests.sol\":4268:4707  function closeReviewRequest(string memory _name) external{... */\n    tag_8:\n      callvalue\n      dup1\n      iszero\n      tag_47\n      jumpi\n      0x00\n      dup1\n      revert\n    tag_47:\n      pop\n      tag_48\n      0x04\n      dup1\n      calldatasize\n      sub\n      dup2\n      add\n      swap1\n      tag_49\n      swap2\n      swap1\n      tag_27\n      jump\t// in\n    tag_49:\n      tag_50\n      jump\t// in\n    tag_48:\n      stop\n        /* \"contracts/DeresyRequests.sol\":1735:3233  function createRequest(string memory _name, address[] memory reviewers, string[] memory targets, string[] memory targetsIPFSHashes, string memory formIpfsHash, uint256 rewardPerReview, uint256 reviewFormIndex) external payable{... */\n    tag_9:\n      tag_51\n      0x04\n      dup1\n      calldatasize\n      sub\n      dup2\n      add\n      swap1\n      tag_52\n      swap2\n      swap1\n      tag_53\n      jump\t// in\n    tag_52:\n      tag_54\n      jump\t// in\n    tag_51:\n      stop\n        /* \"contracts/DeresyRequests.sol\":5507:5613  function getReviewRequestsNames() public view returns(string[] memory){... */\n    tag_10:\n      callvalue\n      dup1\n      iszero\n      tag_55\n      jumpi\n      0x00\n      dup1\n      revert\n    tag_55:\n      pop\n      tag_56\n      tag_57\n      jump\t// in\n    tag_56:\n      mload(0x40)\n      tag_58\n      swap2\n      swap1\n      tag_59\n      jump\t// in\n    tag_58:\n      mload(0x40)\n      dup1\n      swap2\n      sub\n      swap1\n      return\n        /* \"contracts/DeresyRequests.sol\":1041:1706  function createReviewForm(string[] memory questions, string[][] memory choices, QuestionType[] memory questionTypes) external  returns (uint256){... */\n    tag_16:\n        /* \"contracts/DeresyRequests.sol\":1177:1184  uint256 */\n      0x00\n        /* \"contracts/DeresyRequests.sol\":1218:1219  0 */\n      dup1\n        /* \"contracts/DeresyRequests.sol\":1199:1208  questions */\n      dup5\n        /* \"contracts/DeresyRequests.sol\":1199:1215  questions.length */\n      mload\n        /* \"contracts/DeresyRequests.sol\":1199:1219  questions.length > 0 */\n      gt\n        /* \"contracts/DeresyRequests.sol\":1191:1255  require(questions.length > 0, \"Deresy: Questions can't be null\") */\n      tag_61\n      jumpi\n      mload(0x40)\n      0x08c379a000000000000000000000000000000000000000000000000000000000\n      dup2\n      mstore\n      0x04\n      add\n      tag_62\n      swap1\n      tag_63\n      jump\t// in\n    tag_62:\n      mload(0x40)\n      dup1\n      swap2\n      sub\n      swap1\n      revert\n    tag_61:\n        /* \"contracts/DeresyRequests.sol\":1292:1293  0 */\n      0x00\n        /* \"contracts/DeresyRequests.sol\":1269:1282  questionTypes */\n      dup3\n        /* \"contracts/DeresyRequests.sol\":1269:1289  questionTypes.length */\n      mload\n        /* \"contracts/DeresyRequests.sol\":1269:1293  questionTypes.length > 0 */\n      gt\n        /* \"contracts/DeresyRequests.sol\":1261:1334  require(questionTypes.length > 0, \"Deresy: Question Types can't be null\") */\n      tag_64\n      jumpi\n      mload(0x40)\n      0x08c379a000000000000000000000000000000000000000000000000000000000\n      dup2\n      mstore\n      0x04\n      add\n      tag_65\n      swap1\n      tag_66\n      jump\t// in\n    tag_65:\n      mload(0x40)\n      dup1\n      swap2\n      sub\n      swap1\n      revert\n    tag_64:\n        /* \"contracts/DeresyRequests.sol\":1372:1381  questions */\n      dup4\n        /* \"contracts/DeresyRequests.sol\":1372:1388  questions.length */\n      mload\n        /* \"contracts/DeresyRequests.sol\":1348:1361  questionTypes */\n      dup3\n        /* \"contracts/DeresyRequests.sol\":1348:1368  questionTypes.length */\n      mload\n        /* \"contracts/DeresyRequests.sol\":1348:1388  questionTypes.length == questions.length */\n      eq\n        /* \"contracts/DeresyRequests.sol\":1340:1446  require(questionTypes.length == questions.length, \"Deresy: Questions and types must have the same length\") */\n      tag_67\n      jumpi\n      mload(0x40)\n      0x08c379a000000000000000000000000000000000000000000000000000000000\n      dup2\n      mstore\n      0x04\n      add\n      tag_68\n      swap1\n      tag_69\n      jump\t// in\n    tag_68:\n      mload(0x40)\n      dup1\n      swap2\n      sub\n      swap1\n      revert\n    tag_67:\n        /* \"contracts/DeresyRequests.sol\":1480:1487  choices */\n      dup3\n        /* \"contracts/DeresyRequests.sol\":1480:1494  choices.length */\n      mload\n        /* \"contracts/DeresyRequests.sol\":1460:1469  questions */\n      dup5\n        /* \"contracts/DeresyRequests.sol\":1460:1476  questions.length */\n      mload\n        /* \"contracts/DeresyRequests.sol\":1460:1494  questions.length == choices.length */\n      eq\n        /* \"contracts/DeresyRequests.sol\":1452:1554  require(questions.length == choices.length, \"Deresy: Questions and choices must have the same length\") */\n      tag_70\n      jumpi\n      mload(0x40)\n      0x08c379a000000000000000000000000000000000000000000000000000000000\n      dup2\n      mstore\n      0x04\n      add\n      tag_71\n      swap1\n      tag_72\n      jump\t// in\n    tag_71:\n      mload(0x40)\n      dup1\n      swap2\n      sub\n      swap1\n      revert\n    tag_70:\n        /* \"contracts/DeresyRequests.sol\":1560:1571  reviewForms */\n      0x04\n        /* \"contracts/DeresyRequests.sol\":1577:1621  reviewForm(questions,questionTypes, choices) */\n      mload(0x40)\n      dup1\n      0x60\n      add\n      0x40\n      mstore\n      dup1\n        /* \"contracts/DeresyRequests.sol\":1588:1597  questions */\n      dup7\n        /* \"contracts/DeresyRequests.sol\":1577:1621  reviewForm(questions,questionTypes, choices) */\n      dup2\n      mstore\n      0x20\n      add\n        /* \"contracts/DeresyRequests.sol\":1598:1611  questionTypes */\n      dup5\n        /* \"contracts/DeresyRequests.sol\":1577:1621  reviewForm(questions,questionTypes, choices) */\n      dup2\n      mstore\n      0x20\n      add\n        /* \"contracts/DeresyRequests.sol\":1613:1620  choices */\n      dup6\n        /* \"contracts/DeresyRequests.sol\":1577:1621  reviewForm(questions,questionTypes, choices) */\n      dup2\n      mstore\n      pop\n        /* \"contracts/DeresyRequests.sol\":1560:1622  reviewForms.push(reviewForm(questions,questionTypes, choices)) */\n      swap1\n      dup1\n      0x01\n      dup2\n      sload\n      add\n      dup1\n      dup3\n      sstore\n      dup1\n      swap2\n      pop\n      pop\n      0x01\n      swap1\n      sub\n      swap1\n      0x00\n      mstore\n      keccak256(0x00, 0x20)\n      swap1\n      0x03\n      mul\n      add\n      0x00\n      swap1\n      swap2\n      swap1\n      swap2\n      swap1\n      swap2\n      pop\n      0x00\n      dup3\n      add\n      mload\n      dup2\n      0x00\n      add\n      swap1\n      dup1\n      mload\n      swap1\n      0x20\n      add\n      swap1\n      tag_74\n      swap3\n      swap2\n      swap1\n      tag_75\n      jump\t// in\n    tag_74:\n      pop\n      0x20\n      dup3\n      add\n      mload\n      dup2\n      0x01\n      add\n      swap1\n      dup1\n      mload\n      swap1\n      0x20\n      add\n      swap1\n      tag_76\n      swap3\n      swap2\n      swap1\n      tag_77\n      jump\t// in\n    tag_76:\n      pop\n      0x40\n      dup3\n      add\n      mload\n      dup2\n      0x02\n      add\n      swap1\n      dup1\n      mload\n      swap1\n      0x20\n      add\n      swap1\n      tag_78\n      swap3\n      swap2\n      swap1\n      tag_79\n      jump\t// in\n    tag_78:\n      pop\n      pop\n      pop\n        /* \"contracts/DeresyRequests.sol\":1648:1649  1 */\n      0x01\n        /* \"contracts/DeresyRequests.sol\":1628:1644  reviewFormsTotal */\n      0x02\n      0x00\n        /* \"contracts/DeresyRequests.sol\":1628:1649  reviewFormsTotal += 1 */\n      dup3\n      dup3\n      sload\n      tag_80\n      swap2\n      swap1\n      tag_81\n      jump\t// in\n    tag_80:\n      swap3\n      pop\n      pop\n      dup2\n      swap1\n      sstore\n      pop\n        /* \"contracts/DeresyRequests.sol\":1660:1701  CreatedReviewForm(reviewForms.length - 1) */\n      0x2ca1c706b776fc626b1e93b556d8968577908c5fee79ca88376ade10b781019c\n        /* \"contracts/DeresyRequests.sol\":1699:1700  1 */\n      0x01\n        /* \"contracts/DeresyRequests.sol\":1678:1689  reviewForms */\n      0x04\n        /* \"contracts/DeresyRequests.sol\":1678:1696  reviewForms.length */\n      dup1\n      sload\n      swap1\n      pop\n        /* \"contracts/DeresyRequests.sol\":1678:1700  reviewForms.length - 1 */\n      tag_82\n      swap2\n      swap1\n      tag_83\n      jump\t// in\n    tag_82:\n        /* \"contracts/DeresyRequests.sol\":1660:1701  CreatedReviewForm(reviewForms.length - 1) */\n      mload(0x40)\n      tag_84\n      swap2\n      swap1\n      tag_18\n      jump\t// in\n    tag_84:\n      mload(0x40)\n      dup1\n      swap2\n      sub\n      swap1\n      log1\n        /* \"contracts/DeresyRequests.sol\":1041:1706  function createReviewForm(string[] memory questions, string[][] memory choices, QuestionType[] memory questionTypes) external  returns (uint256){... */\n      swap4\n      swap3\n      pop\n      pop\n      pop\n      jump\t// out\n        /* \"contracts/DeresyRequests.sol\":3237:4264  function submitReview(string memory _name, uint8 targetIndex, string[] memory answers) external {... */\n    tag_23:\n        /* \"contracts/DeresyRequests.sol\":3381:3386  false */\n      0x00\n        /* \"contracts/DeresyRequests.sol\":3347:3386  reviewRequests[_name].isClosed == false */\n      iszero\n      iszero\n        /* \"contracts/DeresyRequests.sol\":3347:3361  reviewRequests */\n      0x00\n        /* \"contracts/DeresyRequests.sol\":3362:3367  _name */\n      dup5\n        /* \"contracts/DeresyRequests.sol\":3347:3368  reviewRequests[_name] */\n      mload(0x40)\n      tag_86\n      swap2\n      swap1\n      tag_87\n      jump\t// in\n    tag_86:\n      swap1\n      dup2\n      mstore\n      0x20\n      add\n      mload(0x40)\n      dup1\n      swap2\n      sub\n      swap1\n      keccak256\n        /* \"contracts/DeresyRequests.sol\":3347:3377  reviewRequests[_name].isClosed */\n      0x07\n      add\n      0x00\n      swap1\n      sload\n      swap1\n      0x0100\n      exp\n      swap1\n      div\n      0xff\n      and\n        /* \"contracts/DeresyRequests.sol\":3347:3386  reviewRequests[_name].isClosed == false */\n      iszero\n      iszero\n      eq\n        /* \"contracts/DeresyRequests.sol\":3339:3412  require(reviewRequests[_name].isClosed == false,\"Deresy: request closed\") */\n      tag_88\n      jumpi\n      mload(0x40)\n      0x08c379a000000000000000000000000000000000000000000000000000000000\n      dup2\n      mstore\n      0x04\n      add\n      tag_89\n      swap1\n      tag_90\n      jump\t// in\n    tag_89:\n      mload(0x40)\n      dup1\n      swap2\n      sub\n      swap1\n      revert\n    tag_88:\n        /* \"contracts/DeresyRequests.sol\":3440:3454  reviewRequests */\n      0x00\n        /* \"contracts/DeresyRequests.sol\":3455:3460  _name */\n      dup4\n        /* \"contracts/DeresyRequests.sol\":3440:3461  reviewRequests[_name] */\n      mload(0x40)\n      tag_91\n      swap2\n      swap1\n      tag_87\n      jump\t// in\n    tag_91:\n      swap1\n      dup2\n      mstore\n      0x20\n      add\n      mload(0x40)\n      dup1\n      swap2\n      sub\n      swap1\n      keccak256\n        /* \"contracts/DeresyRequests.sol\":3440:3469  reviewRequests[_name].targets */\n      0x02\n      add\n        /* \"contracts/DeresyRequests.sol\":3440:3476  reviewRequests[_name].targets.length */\n      dup1\n      sload\n      swap1\n      pop\n        /* \"contracts/DeresyRequests.sol\":3426:3437  targetIndex */\n      dup3\n        /* \"contracts/DeresyRequests.sol\":3426:3476  targetIndex < reviewRequests[_name].targets.length */\n      0xff\n      and\n      lt\n        /* \"contracts/DeresyRequests.sol\":3418:3507  require(targetIndex < reviewRequests[_name].targets.length,\"Deresy: targetIndex invalid\") */\n      tag_92\n      jumpi\n      mload(0x40)\n      0x08c379a000000000000000000000000000000000000000000000000000000000\n      dup2\n      mstore\n      0x04\n      add\n      tag_93\n      swap1\n      tag_94\n      jump\t// in\n    tag_93:\n      mload(0x40)\n      dup1\n      swap2\n      sub\n      swap1\n      revert\n    tag_92:\n        /* \"contracts/DeresyRequests.sol\":3592:3599  answers */\n      dup1\n        /* \"contracts/DeresyRequests.sol\":3592:3606  answers.length */\n      mload\n        /* \"contracts/DeresyRequests.sol\":3521:3532  reviewForms */\n      0x04\n        /* \"contracts/DeresyRequests.sol\":3533:3547  reviewRequests */\n      0x00\n        /* \"contracts/DeresyRequests.sol\":3548:3553  _name */\n      dup6\n        /* \"contracts/DeresyRequests.sol\":3533:3554  reviewRequests[_name] */\n      mload(0x40)\n      tag_95\n      swap2\n      swap1\n      tag_87\n      jump\t// in\n    tag_95:\n      swap1\n      dup2\n      mstore\n      0x20\n      add\n      mload(0x40)\n      dup1\n      swap2\n      sub\n      swap1\n      keccak256\n        /* \"contracts/DeresyRequests.sol\":3533:3570  reviewRequests[_name].reviewFormIndex */\n      0x09\n      add\n      sload\n        /* \"contracts/DeresyRequests.sol\":3521:3571  reviewForms[reviewRequests[_name].reviewFormIndex] */\n      dup2\n      sload\n      dup2\n      lt\n      tag_96\n      jumpi\n      tag_97\n      tag_98\n      jump\t// in\n    tag_97:\n    tag_96:\n      swap1\n      0x00\n      mstore\n      keccak256(0x00, 0x20)\n      swap1\n      0x03\n      mul\n      add\n        /* \"contracts/DeresyRequests.sol\":3521:3581  reviewForms[reviewRequests[_name].reviewFormIndex].questions */\n      0x00\n      add\n        /* \"contracts/DeresyRequests.sol\":3521:3588  reviewForms[reviewRequests[_name].reviewFormIndex].questions.length */\n      dup1\n      sload\n      swap1\n      pop\n        /* \"contracts/DeresyRequests.sol\":3521:3606  reviewForms[reviewRequests[_name].reviewFormIndex].questions.length == answers.length */\n      eq\n        /* \"contracts/DeresyRequests.sol\":3513:3662  require(reviewForms[reviewRequests[_name].reviewFormIndex].questions.length == answers.length,\"Deresy: Not the same number of questions and answers\") */\n      tag_100\n      jumpi\n      mload(0x40)\n      0x08c379a000000000000000000000000000000000000000000000000000000000\n      dup2\n      mstore\n      0x04\n      add\n      tag_101\n      swap1\n      tag_102\n      jump\t// in\n    tag_101:\n      mload(0x40)\n      dup1\n      swap2\n      sub\n      swap1\n      revert\n    tag_100:\n        /* \"contracts/DeresyRequests.sol\":3709:3713  true */\n      0x01\n        /* \"contracts/DeresyRequests.sol\":3676:3713  isReviewer(msg.sender, _name) == true */\n      iszero\n      iszero\n        /* \"contracts/DeresyRequests.sol\":3676:3705  isReviewer(msg.sender, _name) */\n      tag_103\n        /* \"contracts/DeresyRequests.sol\":3687:3697  msg.sender */\n      caller\n        /* \"contracts/DeresyRequests.sol\":3699:3704  _name */\n      dup6\n        /* \"contracts/DeresyRequests.sol\":3676:3686  isReviewer */\n      tag_104\n        /* \"contracts/DeresyRequests.sol\":3676:3705  isReviewer(msg.sender, _name) */\n      jump\t// in\n    tag_103:\n        /* \"contracts/DeresyRequests.sol\":3676:3713  isReviewer(msg.sender, _name) == true */\n      iszero\n      iszero\n      eq\n        /* \"contracts/DeresyRequests.sol\":3668:3786  require(isReviewer(msg.sender, _name) == true, \"This address is not in the reviewers list for the specified request.\") */\n      tag_105\n      jumpi\n      mload(0x40)\n      0x08c379a000000000000000000000000000000000000000000000000000000000\n      dup2\n      mstore\n      0x04\n      add\n      tag_106\n      swap1\n      tag_107\n      jump\t// in\n    tag_106:\n      mload(0x40)\n      dup1\n      swap2\n      sub\n      swap1\n      revert\n    tag_105:\n        /* \"contracts/DeresyRequests.sol\":3800:3850  hasSubmittedReview(msg.sender, _name, targetIndex) */\n      tag_108\n        /* \"contracts/DeresyRequests.sol\":3819:3829  msg.sender */\n      caller\n        /* \"contracts/DeresyRequests.sol\":3831:3836  _name */\n      dup5\n        /* \"contracts/DeresyRequests.sol\":3838:3849  targetIndex */\n      dup5\n        /* \"contracts/DeresyRequests.sol\":3800:3818  hasSubmittedReview */\n      tag_109\n        /* \"contracts/DeresyRequests.sol\":3800:3850  hasSubmittedReview(msg.sender, _name, targetIndex) */\n      jump\t// in\n    tag_108:\n        /* \"contracts/DeresyRequests.sol\":3792:3944  require(hasSubmittedReview(msg.sender, _name, targetIndex), \"This address has already submitted a review for the targte index in the specified request\") */\n      tag_110\n      jumpi\n      mload(0x40)\n      0x08c379a000000000000000000000000000000000000000000000000000000000\n      dup2\n      mstore\n      0x04\n      add\n      tag_111\n      swap1\n      tag_112\n      jump\t// in\n    tag_111:\n      mload(0x40)\n      dup1\n      swap2\n      sub\n      swap1\n      revert\n    tag_110:\n        /* \"contracts/DeresyRequests.sol\":4000:4014  reviewRequests */\n      0x00\n        /* \"contracts/DeresyRequests.sol\":4015:4020  _name */\n      dup4\n        /* \"contracts/DeresyRequests.sol\":4000:4021  reviewRequests[_name] */\n      mload(0x40)\n      tag_113\n      swap2\n      swap1\n      tag_87\n      jump\t// in\n    tag_113:\n      swap1\n      dup2\n      mstore\n      0x20\n      add\n      mload(0x40)\n      dup1\n      swap2\n      sub\n      swap1\n      keccak256\n        /* \"contracts/DeresyRequests.sol\":4000:4029  reviewRequests[_name].reviews */\n      0x06\n      add\n        /* \"contracts/DeresyRequests.sol\":4035:4074  Review(msg.sender,targetIndex, answers) */\n      mload(0x40)\n      dup1\n      0x60\n      add\n      0x40\n      mstore\n      dup1\n        /* \"contracts/DeresyRequests.sol\":4042:4052  msg.sender */\n      caller\n        /* \"contracts/DeresyRequests.sol\":4035:4074  Review(msg.sender,targetIndex, answers) */\n      0xffffffffffffffffffffffffffffffffffffffff\n      and\n      dup2\n      mstore\n      0x20\n      add\n        /* \"contracts/DeresyRequests.sol\":4053:4064  targetIndex */\n      dup5\n        /* \"contracts/DeresyRequests.sol\":4035:4074  Review(msg.sender,targetIndex, answers) */\n      0xff\n      and\n      dup2\n      mstore\n      0x20\n      add\n        /* \"contracts/DeresyRequests.sol\":4066:4073  answers */\n      dup4\n        /* \"contracts/DeresyRequests.sol\":4035:4074  Review(msg.sender,targetIndex, answers) */\n      dup2\n      mstore\n      pop\n        /* \"contracts/DeresyRequests.sol\":4000:4075  reviewRequests[_name].reviews.push(Review(msg.sender,targetIndex, answers)) */\n      swap1\n      dup1\n      0x01\n      dup2\n      sload\n      add\n      dup1\n      dup3\n      sstore\n      dup1\n      swap2\n      pop\n      pop\n      0x01\n      swap1\n      sub\n      swap1\n      0x00\n      mstore\n      keccak256(0x00, 0x20)\n      swap1\n      0x02\n      mul\n      add\n      0x00\n      swap1\n      swap2\n      swap1\n      swap2\n      swap1\n      swap2\n      pop\n      0x00\n      dup3\n      add\n      mload\n      dup2\n      0x00\n      add\n      exp(0x0100, 0x00)\n      dup2\n      sload\n      dup2\n      0xffffffffffffffffffffffffffffffffffffffff\n      mul\n      not\n      and\n      swap1\n      dup4\n      0xffffffffffffffffffffffffffffffffffffffff\n      and\n      mul\n      or\n      swap1\n      sstore\n      pop\n      0x20\n      dup3\n      add\n      mload\n      dup2\n      0x00\n      add\n      exp(0x0100, 0x14)\n      dup2\n      sload\n      dup2\n      0xff\n      mul\n      not\n      and\n      swap1\n      dup4\n      0xff\n      and\n      mul\n      or\n      swap1\n      sstore\n      pop\n      0x40\n      dup3\n      add\n      mload\n      dup2\n      0x01\n      add\n      swap1\n      dup1\n      mload\n      swap1\n      0x20\n      add\n      swap1\n      tag_115\n      swap3\n      swap2\n      swap1\n      tag_75\n      jump\t// in\n    tag_115:\n      pop\n      pop\n      pop\n        /* \"contracts/DeresyRequests.sol\":4116:4130  reviewRequests */\n      0x00\n        /* \"contracts/DeresyRequests.sol\":4131:4136  _name */\n      dup4\n        /* \"contracts/DeresyRequests.sol\":4116:4137  reviewRequests[_name] */\n      mload(0x40)\n      tag_116\n      swap2\n      swap1\n      tag_87\n      jump\t// in\n    tag_116:\n      swap1\n      dup2\n      mstore\n      0x20\n      add\n      mload(0x40)\n      dup1\n      swap2\n      sub\n      swap1\n      keccak256\n        /* \"contracts/DeresyRequests.sol\":4116:4153  reviewRequests[_name].rewardPerReview */\n      0x05\n      add\n      sload\n        /* \"contracts/DeresyRequests.sol\":4081:4095  reviewRequests */\n      0x00\n        /* \"contracts/DeresyRequests.sol\":4096:4101  _name */\n      dup5\n        /* \"contracts/DeresyRequests.sol\":4081:4102  reviewRequests[_name] */\n      mload(0x40)\n      tag_117\n      swap2\n      swap1\n      tag_87\n      jump\t// in\n    tag_117:\n      swap1\n      dup2\n      mstore\n      0x20\n      add\n      mload(0x40)\n      dup1\n      swap2\n      sub\n      swap1\n      keccak256\n        /* \"contracts/DeresyRequests.sol\":4081:4112  reviewRequests[_name].fundsLeft */\n      0x08\n      add\n      0x00\n        /* \"contracts/DeresyRequests.sol\":4081:4153  reviewRequests[_name].fundsLeft -= reviewRequests[_name].rewardPerReview */\n      dup3\n      dup3\n      sload\n      tag_118\n      swap2\n      swap1\n      tag_83\n      jump\t// in\n    tag_118:\n      swap3\n      pop\n      pop\n      dup2\n      swap1\n      sstore\n      pop\n        /* \"contracts/DeresyRequests.sol\":4167:4177  msg.sender */\n      caller\n        /* \"contracts/DeresyRequests.sol\":4159:4187  payable(msg.sender).transfer */\n      0xffffffffffffffffffffffffffffffffffffffff\n      and\n        /* \"contracts/DeresyRequests.sol\":4159:4226  payable(msg.sender).transfer(reviewRequests[_name].rewardPerReview) */\n      0x08fc\n        /* \"contracts/DeresyRequests.sol\":4188:4202  reviewRequests */\n      0x00\n        /* \"contracts/DeresyRequests.sol\":4203:4208  _name */\n      dup6\n        /* \"contracts/DeresyRequests.sol\":4188:4209  reviewRequests[_name] */\n      mload(0x40)\n      tag_119\n      swap2\n      swap1\n      tag_87\n      jump\t// in\n    tag_119:\n      swap1\n      dup2\n      mstore\n      0x20\n      add\n      mload(0x40)\n      dup1\n      swap2\n      sub\n      swap1\n      keccak256\n        /* \"contracts/DeresyRequests.sol\":4188:4225  reviewRequests[_name].rewardPerReview */\n      0x05\n      add\n      sload\n        /* \"contracts/DeresyRequests.sol\":4159:4226  payable(msg.sender).transfer(reviewRequests[_name].rewardPerReview) */\n      swap1\n      dup2\n      iszero\n      mul\n      swap1\n      mload(0x40)\n      0x00\n      mload(0x40)\n      dup1\n      dup4\n      sub\n      dup2\n      dup6\n      dup9\n      dup9\n      call\n      swap4\n      pop\n      pop\n      pop\n      pop\n      iszero\n      dup1\n      iszero\n      tag_121\n      jumpi\n      returndatasize\n      0x00\n      dup1\n      returndatacopy\n      revert(0x00, returndatasize)\n    tag_121:\n      pop\n        /* \"contracts/DeresyRequests.sol\":4237:4259  SubmittedReview(_name) */\n      0x4d6dd501df538f815f442947c933fc2f545525e75f909b918a6d0701acc7904c\n        /* \"contracts/DeresyRequests.sol\":4253:4258  _name */\n      dup4\n        /* \"contracts/DeresyRequests.sol\":4237:4259  SubmittedReview(_name) */\n      mload(0x40)\n      tag_122\n      swap2\n      swap1\n      tag_39\n      jump\t// in\n    tag_122:\n      mload(0x40)\n      dup1\n      swap2\n      sub\n      swap1\n      log1\n        /* \"contracts/DeresyRequests.sol\":3237:4264  function submitReview(string memory _name, uint8 targetIndex, string[] memory answers) external {... */\n      pop\n      pop\n      pop\n      jump\t// out\n        /* \"contracts/DeresyRequests.sol\":4711:5222  function getRequest(string memory _name) public view returns (address[] memory reviewers, string[] memory targets, string[] memory targetsIPFSHashes, string memory formIpfsHash, uint256 rewardPerReview,Review[] memory reviews, uint256 reviewFormIndex,bool isClosed){... */\n    tag_28:\n        /* \"contracts/DeresyRequests.sol\":4773:4799  address[] memory reviewers */\n      0x60\n        /* \"contracts/DeresyRequests.sol\":4801:4824  string[] memory targets */\n      dup1\n        /* \"contracts/DeresyRequests.sol\":4826:4859  string[] memory targetsIPFSHashes */\n      0x60\n        /* \"contracts/DeresyRequests.sol\":4861:4887  string memory formIpfsHash */\n      dup1\n        /* \"contracts/DeresyRequests.sol\":4889:4912  uint256 rewardPerReview */\n      0x00\n        /* \"contracts/DeresyRequests.sol\":4913:4936  Review[] memory reviews */\n      0x60\n        /* \"contracts/DeresyRequests.sol\":4938:4961  uint256 reviewFormIndex */\n      0x00\n        /* \"contracts/DeresyRequests.sol\":4962:4975  bool isClosed */\n      dup1\n        /* \"contracts/DeresyRequests.sol\":4982:5010  ReviewRequest memory request */\n      0x00\n        /* \"contracts/DeresyRequests.sol\":5013:5027  reviewRequests */\n      dup1\n        /* \"contracts/DeresyRequests.sol\":5028:5033  _name */\n      dup11\n        /* \"contracts/DeresyRequests.sol\":5013:5034  reviewRequests[_name] */\n      mload(0x40)\n      tag_124\n      swap2\n      swap1\n      tag_87\n      jump\t// in\n    tag_124:\n      swap1\n      dup2\n      mstore\n      0x20\n      add\n      mload(0x40)\n      dup1\n      swap2\n      sub\n      swap1\n      keccak256\n        /* \"contracts/DeresyRequests.sol\":4982:5034  ReviewRequest memory request = reviewRequests[_name] */\n      mload(0x40)\n      dup1\n      0x0140\n      add\n      0x40\n      mstore\n      swap1\n      dup2\n      0x00\n      dup3\n      add\n      0x00\n      swap1\n      sload\n      swap1\n      0x0100\n      exp\n      swap1\n      div\n      0xffffffffffffffffffffffffffffffffffffffff\n      and\n      0xffffffffffffffffffffffffffffffffffffffff\n      and\n      0xffffffffffffffffffffffffffffffffffffffff\n      and\n      dup2\n      mstore\n      0x20\n      add\n      0x01\n      dup3\n      add\n      dup1\n      sload\n      dup1\n      0x20\n      mul\n      0x20\n      add\n      mload(0x40)\n      swap1\n      dup2\n      add\n      0x40\n      mstore\n      dup1\n      swap3\n      swap2\n      swap1\n      dup2\n      dup2\n      mstore\n      0x20\n      add\n      dup3\n      dup1\n      sload\n      dup1\n      iszero\n      tag_125\n      jumpi\n      0x20\n      mul\n      dup3\n      add\n      swap2\n      swap1\n      0x00\n      mstore\n      keccak256(0x00, 0x20)\n      swap1\n    tag_126:\n      dup2\n      0x00\n      swap1\n      sload\n      swap1\n      0x0100\n      exp\n      swap1\n      div\n      0xffffffffffffffffffffffffffffffffffffffff\n      and\n      0xffffffffffffffffffffffffffffffffffffffff\n      and\n      dup2\n      mstore\n      0x20\n      add\n      swap1\n      0x01\n      add\n      swap1\n      dup1\n      dup4\n      gt\n      tag_126\n      jumpi\n    tag_125:\n      pop\n      pop\n      pop\n      pop\n      pop\n      dup2\n      mstore\n      0x20\n      add\n      0x02\n      dup3\n      add\n      dup1\n      sload\n      dup1\n      0x20\n      mul\n      0x20\n      add\n      mload(0x40)\n      swap1\n      dup2\n      add\n      0x40\n      mstore\n      dup1\n      swap3\n      swap2\n      swap1\n      dup2\n      dup2\n      mstore\n      0x20\n      add\n      0x00\n      swap1\n    tag_127:\n      dup3\n      dup3\n      lt\n      iszero\n      tag_128\n      jumpi\n      dup4\n      dup3\n      swap1\n      0x00\n      mstore\n      keccak256(0x00, 0x20)\n      add\n      dup1\n      sload\n      tag_130\n      swap1\n      tag_131\n      jump\t// in\n    tag_130:\n      dup1\n      0x1f\n      add\n      0x20\n      dup1\n      swap2\n      div\n      mul\n      0x20\n      add\n      mload(0x40)\n      swap1\n      dup2\n      add\n      0x40\n      mstore\n      dup1\n      swap3\n      swap2\n      swap1\n      dup2\n      dup2\n      mstore\n      0x20\n      add\n      dup3\n      dup1\n      sload\n      tag_132\n      swap1\n      tag_131\n      jump\t// in\n    tag_132:\n      dup1\n      iszero\n      tag_133\n      jumpi\n      dup1\n      0x1f\n      lt\n      tag_134\n      jumpi\n      0x0100\n      dup1\n      dup4\n      sload\n      div\n      mul\n      dup4\n      mstore\n      swap2\n      0x20\n      add\n      swap2\n      jump(tag_133)\n    tag_134:\n      dup3\n      add\n      swap2\n      swap1\n      0x00\n      mstore\n      keccak256(0x00, 0x20)\n      swap1\n    tag_135:\n      dup2\n      sload\n      dup2\n      mstore\n      swap1\n      0x01\n      add\n      swap1\n      0x20\n      add\n      dup1\n      dup4\n      gt\n      tag_135\n      jumpi\n      dup3\n      swap1\n      sub\n      0x1f\n      and\n      dup3\n      add\n      swap2\n    tag_133:\n      pop\n      pop\n      pop\n      pop\n      pop\n      dup2\n      mstore\n      0x20\n      add\n      swap1\n      0x01\n      add\n      swap1\n      jump(tag_127)\n    tag_128:\n      pop\n      pop\n      pop\n      pop\n      dup2\n      mstore\n      0x20\n      add\n      0x03\n      dup3\n      add\n      dup1\n      sload\n      dup1\n      0x20\n      mul\n      0x20\n      add\n      mload(0x40)\n      swap1\n      dup2\n      add\n      0x40\n      mstore\n      dup1\n      swap3\n      swap2\n      swap1\n      dup2\n      dup2\n      mstore\n      0x20\n      add\n      0x00\n      swap1\n    tag_136:\n      dup3\n      dup3\n      lt\n      iszero\n      tag_137\n      jumpi\n      dup4\n      dup3\n      swap1\n      0x00\n      mstore\n      keccak256(0x00, 0x20)\n      add\n      dup1\n      sload\n      tag_139\n      swap1\n      tag_131\n      jump\t// in\n    tag_139:\n      dup1\n      0x1f\n      add\n      0x20\n      dup1\n      swap2\n      div\n      mul\n      0x20\n      add\n      mload(0x40)\n      swap1\n      dup2\n      add\n      0x40\n      mstore\n      dup1\n      swap3\n      swap2\n      swap1\n      dup2\n      dup2\n      mstore\n      0x20\n      add\n      dup3\n      dup1\n      sload\n      tag_140\n      swap1\n      tag_131\n      jump\t// in\n    tag_140:\n      dup1\n      iszero\n      tag_141\n      jumpi\n      dup1\n      0x1f\n      lt\n      tag_142\n      jumpi\n      0x0100\n      dup1\n      dup4\n      sload\n      div\n      mul\n      dup4\n      mstore\n      swap2\n      0x20\n      add\n      swap2\n      jump(tag_141)\n    tag_142:\n      dup3\n      add\n      swap2\n      swap1\n      0x00\n      mstore\n      keccak256(0x00, 0x20)\n      swap1\n    tag_143:\n      dup2\n      sload\n      dup2\n      mstore\n      swap1\n      0x01\n      add\n      swap1\n      0x20\n      add\n      dup1\n      dup4\n      gt\n      tag_143\n      jumpi\n      dup3\n      swap1\n      sub\n      0x1f\n      and\n      dup3\n      add\n      swap2\n    tag_141:\n      pop\n      pop\n      pop\n      pop\n      pop\n      dup2\n      mstore\n      0x20\n      add\n      swap1\n      0x01\n      add\n      swap1\n      jump(tag_136)\n    tag_137:\n      pop\n      pop\n      pop\n      pop\n      dup2\n      mstore\n      0x20\n      add\n      0x04\n      dup3\n      add\n      dup1\n      sload\n      tag_144\n      swap1\n      tag_131\n      jump\t// in\n    tag_144:\n      dup1\n      0x1f\n      add\n      0x20\n      dup1\n      swap2\n      div\n      mul\n      0x20\n      add\n      mload(0x40)\n      swap1\n      dup2\n      add\n      0x40\n      mstore\n      dup1\n      swap3\n      swap2\n      swap1\n      dup2\n      dup2\n      mstore\n      0x20\n      add\n      dup3\n      dup1\n      sload\n      tag_145\n      swap1\n      tag_131\n      jump\t// in\n    tag_145:\n      dup1\n      iszero\n      tag_146\n      jumpi\n      dup1\n      0x1f\n      lt\n      tag_147\n      jumpi\n      0x0100\n      dup1\n      dup4\n      sload\n      div\n      mul\n      dup4\n      mstore\n      swap2\n      0x20\n      add\n      swap2\n      jump(tag_146)\n    tag_147:\n      dup3\n      add\n      swap2\n      swap1\n      0x00\n      mstore\n      keccak256(0x00, 0x20)\n      swap1\n    tag_148:\n      dup2\n      sload\n      dup2\n      mstore\n      swap1\n      0x01\n      add\n      swap1\n      0x20\n      add\n      dup1\n      dup4\n      gt\n      tag_148\n      jumpi\n      dup3\n      swap1\n      sub\n      0x1f\n      and\n      dup3\n      add\n      swap2\n    tag_146:\n      pop\n      pop\n      pop\n      pop\n      pop\n      dup2\n      mstore\n      0x20\n      add\n      0x05\n      dup3\n      add\n      sload\n      dup2\n      mstore\n      0x20\n      add\n      0x06\n      dup3\n      add\n      dup1\n      sload\n      dup1\n      0x20\n      mul\n      0x20\n      add\n      mload(0x40)\n      swap1\n      dup2\n      add\n      0x40\n      mstore\n      dup1\n      swap3\n      swap2\n      swap1\n      dup2\n      dup2\n      mstore\n      0x20\n      add\n      0x00\n      swap1\n    tag_149:\n      dup3\n      dup3\n      lt\n      iszero\n      tag_150\n      jumpi\n      dup4\n      dup3\n      swap1\n      0x00\n      mstore\n      keccak256(0x00, 0x20)\n      swap1\n      0x02\n      mul\n      add\n      mload(0x40)\n      dup1\n      0x60\n      add\n      0x40\n      mstore\n      swap1\n      dup2\n      0x00\n      dup3\n      add\n      0x00\n      swap1\n      sload\n      swap1\n      0x0100\n      exp\n      swap1\n      div\n      0xffffffffffffffffffffffffffffffffffffffff\n      and\n      0xffffffffffffffffffffffffffffffffffffffff\n      and\n      0xffffffffffffffffffffffffffffffffffffffff\n      and\n      dup2\n      mstore\n      0x20\n      add\n      0x00\n      dup3\n      add\n      0x14\n      swap1\n      sload\n      swap1\n      0x0100\n      exp\n      swap1\n      div\n      0xff\n      and\n      0xff\n      and\n      0xff\n      and\n      dup2\n      mstore\n      0x20\n      add\n      0x01\n      dup3\n      add\n      dup1\n      sload\n      dup1\n      0x20\n      mul\n      0x20\n      add\n      mload(0x40)\n      swap1\n      dup2\n      add\n      0x40\n      mstore\n      dup1\n      swap3\n      swap2\n      swap1\n      dup2\n      dup2\n      mstore\n      0x20\n      add\n      0x00\n      swap1\n    tag_152:\n      dup3\n      dup3\n      lt\n      iszero\n      tag_153\n      jumpi\n      dup4\n      dup3\n      swap1\n      0x00\n      mstore\n      keccak256(0x00, 0x20)\n      add\n      dup1\n      sload\n      tag_155\n      swap1\n      tag_131\n      jump\t// in\n    tag_155:\n      dup1\n      0x1f\n      add\n      0x20\n      dup1\n      swap2\n      div\n      mul\n      0x20\n      add\n      mload(0x40)\n      swap1\n      dup2\n      add\n      0x40\n      mstore\n      dup1\n      swap3\n      swap2\n      swap1\n      dup2\n      dup2\n      mstore\n      0x20\n      add\n      dup3\n      dup1\n      sload\n      tag_156\n      swap1\n      tag_131\n      jump\t// in\n    tag_156:\n      dup1\n      iszero\n      tag_157\n      jumpi\n      dup1\n      0x1f\n      lt\n      tag_158\n      jumpi\n      0x0100\n      dup1\n      dup4\n      sload\n      div\n      mul\n      dup4\n      mstore\n      swap2\n      0x20\n      add\n      swap2\n      jump(tag_157)\n    tag_158:\n      dup3\n      add\n      swap2\n      swap1\n      0x00\n      mstore\n      keccak256(0x00, 0x20)\n      swap1\n    tag_159:\n      dup2\n      sload\n      dup2\n      mstore\n      swap1\n      0x01\n      add\n      swap1\n      0x20\n      add\n      dup1\n      dup4\n      gt\n      tag_159\n      jumpi\n      dup3\n      swap1\n      sub\n      0x1f\n      and\n      dup3\n      add\n      swap2\n    tag_157:\n      pop\n      pop\n      pop\n      pop\n      pop\n      dup2\n      mstore\n      0x20\n      add\n      swap1\n      0x01\n      add\n      swap1\n      jump(tag_152)\n    tag_153:\n      pop\n      pop\n      pop\n      pop\n      dup2\n      mstore\n      pop\n      pop\n      dup2\n      mstore\n      0x20\n      add\n      swap1\n      0x01\n      add\n      swap1\n      jump(tag_149)\n    tag_150:\n      pop\n      pop\n      pop\n      pop\n      dup2\n      mstore\n      0x20\n      add\n      0x07\n      dup3\n      add\n      0x00\n      swap1\n      sload\n      swap1\n      0x0100\n      exp\n      swap1\n      div\n      0xff\n      and\n      iszero\n      iszero\n      iszero\n      iszero\n      dup2\n      mstore\n      0x20\n      add\n      0x08\n      dup3\n      add\n      sload\n      dup2\n      mstore\n      0x20\n      add\n      0x09\n      dup3\n      add\n      sload\n      dup2\n      mstore\n      pop\n      pop\n      swap1\n      pop\n        /* \"contracts/DeresyRequests.sol\":5048:5055  request */\n      dup1\n        /* \"contracts/DeresyRequests.sol\":5048:5065  request.reviewers */\n      0x20\n      add\n      mload\n        /* \"contracts/DeresyRequests.sol\":5067:5074  request */\n      dup2\n        /* \"contracts/DeresyRequests.sol\":5067:5082  request.targets */\n      0x40\n      add\n      mload\n        /* \"contracts/DeresyRequests.sol\":5084:5091  request */\n      dup3\n        /* \"contracts/DeresyRequests.sol\":5084:5109  request.targetsIPFSHashes */\n      0x60\n      add\n      mload\n        /* \"contracts/DeresyRequests.sol\":5111:5118  request */\n      dup4\n        /* \"contracts/DeresyRequests.sol\":5111:5131  request.formIpfsHash */\n      0x80\n      add\n      mload\n        /* \"contracts/DeresyRequests.sol\":5133:5140  request */\n      dup5\n        /* \"contracts/DeresyRequests.sol\":5133:5156  request.rewardPerReview */\n      0xa0\n      add\n      mload\n        /* \"contracts/DeresyRequests.sol\":5158:5165  request */\n      dup6\n        /* \"contracts/DeresyRequests.sol\":5158:5173  request.reviews */\n      0xc0\n      add\n      mload\n        /* \"contracts/DeresyRequests.sol\":5175:5182  request */\n      dup7\n        /* \"contracts/DeresyRequests.sol\":5175:5198  request.reviewFormIndex */\n      0x0120\n      add\n      mload\n        /* \"contracts/DeresyRequests.sol\":5200:5207  request */\n      dup8\n        /* \"contracts/DeresyRequests.sol\":5200:5216  request.isClosed */\n      0xe0\n      add\n      mload\n        /* \"contracts/DeresyRequests.sol\":5040:5217  return (request.reviewers, request.targets, request.targetsIPFSHashes, request.formIpfsHash, request.rewardPerReview, request.reviews, request.reviewFormIndex, request.isClosed) */\n      swap9\n      pop\n      swap9\n      pop\n      swap9\n      pop\n      swap9\n      pop\n      swap9\n      pop\n      swap9\n      pop\n      swap9\n      pop\n      swap9\n      pop\n      pop\n        /* \"contracts/DeresyRequests.sol\":4711:5222  function getRequest(string memory _name) public view returns (address[] memory reviewers, string[] memory targets, string[] memory targetsIPFSHashes, string memory formIpfsHash, uint256 rewardPerReview,Review[] memory reviews, uint256 reviewFormIndex,bool isClosed){... */\n      swap2\n      swap4\n      swap6\n      swap8\n      pop\n      swap2\n      swap4\n      swap6\n      swap8\n      jump\t// out\n        /* \"contracts/DeresyRequests.sol\":716:747  uint256 public reviewFormsTotal */\n    tag_33:\n      sload(0x02)\n      dup2\n      jump\t// out\n        /* \"contracts/DeresyRequests.sol\":754:791  string public contractVersion = \"0.1\" */\n    tag_37:\n      0x03\n      dup1\n      sload\n      tag_160\n      swap1\n      tag_131\n      jump\t// in\n    tag_160:\n      dup1\n      0x1f\n      add\n      0x20\n      dup1\n      swap2\n      div\n      mul\n      0x20\n      add\n      mload(0x40)\n      swap1\n      dup2\n      add\n      0x40\n      mstore\n      dup1\n      swap3\n      swap2\n      swap1\n      dup2\n      dup2\n      mstore\n      0x20\n      add\n      dup3\n      dup1\n      sload\n      tag_161\n      swap1\n      tag_131\n      jump\t// in\n    tag_161:\n      dup1\n      iszero\n      tag_162\n      jumpi\n      dup1\n      0x1f\n      lt\n      tag_163\n      jumpi\n      0x0100\n      dup1\n      dup4\n      sload\n      div\n      mul\n      dup4\n      mstore\n      swap2\n      0x20\n      add\n      swap2\n      jump(tag_162)\n    tag_163:\n      dup3\n      add\n      swap2\n      swap1\n      0x00\n      mstore\n      keccak256(0x00, 0x20)\n      swap1\n    tag_164:\n      dup2\n      sload\n      dup2\n      mstore\n      swap1\n      0x01\n      add\n      swap1\n      0x20\n      add\n      dup1\n      dup4\n      gt\n      tag_164\n      jumpi\n      dup3\n      swap1\n      sub\n      0x1f\n      and\n      dup3\n      add\n      swap2\n    tag_162:\n      pop\n      pop\n      pop\n      pop\n      pop\n      dup2\n      jump\t// out\n        /* \"contracts/DeresyRequests.sol\":5226:5503  function getReviewForm(uint256 _reviewFormIndex) public view returns(string[] memory, QuestionType[] memory, string[][] memory choices){... */\n    tag_44:\n        /* \"contracts/DeresyRequests.sol\":5295:5310  string[] memory */\n      0x60\n        /* \"contracts/DeresyRequests.sol\":5312:5333  QuestionType[] memory */\n      dup1\n        /* \"contracts/DeresyRequests.sol\":5335:5360  string[][] memory choices */\n      0x60\n        /* \"contracts/DeresyRequests.sol\":5375:5386  reviewForms */\n      0x04\n        /* \"contracts/DeresyRequests.sol\":5387:5403  _reviewFormIndex */\n      dup5\n        /* \"contracts/DeresyRequests.sol\":5375:5404  reviewForms[_reviewFormIndex] */\n      dup2\n      sload\n      dup2\n      lt\n      tag_166\n      jumpi\n      tag_167\n      tag_98\n      jump\t// in\n    tag_167:\n    tag_166:\n      swap1\n      0x00\n      mstore\n      keccak256(0x00, 0x20)\n      swap1\n      0x03\n      mul\n      add\n        /* \"contracts/DeresyRequests.sol\":5375:5414  reviewForms[_reviewFormIndex].questions */\n      0x00\n      add\n        /* \"contracts/DeresyRequests.sol\":5415:5426  reviewForms */\n      0x04\n        /* \"contracts/DeresyRequests.sol\":5427:5443  _reviewFormIndex */\n      dup6\n        /* \"contracts/DeresyRequests.sol\":5415:5444  reviewForms[_reviewFormIndex] */\n      dup2\n      sload\n      dup2\n      lt\n      tag_169\n      jumpi\n      tag_170\n      tag_98\n      jump\t// in\n    tag_170:\n    tag_169:\n      swap1\n      0x00\n      mstore\n      keccak256(0x00, 0x20)\n      swap1\n      0x03\n      mul\n      add\n        /* \"contracts/DeresyRequests.sol\":5415:5458  reviewForms[_reviewFormIndex].questionTypes */\n      0x01\n      add\n        /* \"contracts/DeresyRequests.sol\":5460:5471  reviewForms */\n      0x04\n        /* \"contracts/DeresyRequests.sol\":5472:5488  _reviewFormIndex */\n      dup7\n        /* \"contracts/DeresyRequests.sol\":5460:5489  reviewForms[_reviewFormIndex] */\n      dup2\n      sload\n      dup2\n      lt\n      tag_172\n      jumpi\n      tag_173\n      tag_98\n      jump\t// in\n    tag_173:\n    tag_172:\n      swap1\n      0x00\n      mstore\n      keccak256(0x00, 0x20)\n      swap1\n      0x03\n      mul\n      add\n        /* \"contracts/DeresyRequests.sol\":5460:5497  reviewForms[_reviewFormIndex].choices */\n      0x02\n      add\n        /* \"contracts/DeresyRequests.sol\":5367:5498  return (reviewForms[_reviewFormIndex].questions,reviewForms[_reviewFormIndex].questionTypes, reviewForms[_reviewFormIndex].choices) */\n      dup3\n      dup1\n      sload\n      dup1\n      0x20\n      mul\n      0x20\n      add\n      mload(0x40)\n      swap1\n      dup2\n      add\n      0x40\n      mstore\n      dup1\n      swap3\n      swap2\n      swap1\n      dup2\n      dup2\n      mstore\n      0x20\n      add\n      0x00\n      swap1\n    tag_175:\n      dup3\n      dup3\n      lt\n      iszero\n      tag_176\n      jumpi\n      dup4\n      dup3\n      swap1\n      0x00\n      mstore\n      keccak256(0x00, 0x20)\n      add\n      dup1\n      sload\n      tag_178\n      swap1\n      tag_131\n      jump\t// in\n    tag_178:\n      dup1\n      0x1f\n      add\n      0x20\n      dup1\n      swap2\n      div\n      mul\n      0x20\n      add\n      mload(0x40)\n      swap1\n      dup2\n      add\n      0x40\n      mstore\n      dup1\n      swap3\n      swap2\n      swap1\n      dup2\n      dup2\n      mstore\n      0x20\n      add\n      dup3\n      dup1\n      sload\n      tag_179\n      swap1\n      tag_131\n      jump\t// in\n    tag_179:\n      dup1\n      iszero\n      tag_180\n      jumpi\n      dup1\n      0x1f\n      lt\n      tag_181\n      jumpi\n      0x0100\n      dup1\n      dup4\n      sload\n      div\n      mul\n      dup4\n      mstore\n      swap2\n      0x20\n      add\n      swap2\n      jump(tag_180)\n    tag_181:\n      dup3\n      add\n      swap2\n      swap1\n      0x00\n      mstore\n      keccak256(0x00, 0x20)\n      swap1\n    tag_182:\n      dup2\n      sload\n      dup2\n      mstore\n      swap1\n      0x01\n      add\n      swap1\n      0x20\n      add\n      dup1\n      dup4\n      gt\n      tag_182\n      jumpi\n      dup3\n      swap1\n      sub\n      0x1f\n      and\n      dup3\n      add\n      swap2\n    tag_180:\n      pop\n      pop\n      pop\n      pop\n      pop\n      dup2\n      mstore\n      0x20\n      add\n      swap1\n      0x01\n      add\n      swap1\n      jump(tag_175)\n    tag_176:\n      pop\n      pop\n      pop\n      pop\n      swap3\n      pop\n      dup2\n      dup1\n      sload\n      dup1\n      0x20\n      mul\n      0x20\n      add\n      mload(0x40)\n      swap1\n      dup2\n      add\n      0x40\n      mstore\n      dup1\n      swap3\n      swap2\n      swap1\n      dup2\n      dup2\n      mstore\n      0x20\n      add\n      dup3\n      dup1\n      sload\n      dup1\n      iszero\n      tag_183\n      jumpi\n      0x20\n      mul\n      dup3\n      add\n      swap2\n      swap1\n      0x00\n      mstore\n      keccak256(0x00, 0x20)\n      swap1\n      0x00\n      swap1\n    tag_184:\n      dup3\n      dup3\n      swap1\n      sload\n      swap1\n      0x0100\n      exp\n      swap1\n      div\n      0xff\n      and\n      0x02\n      dup2\n      gt\n      iszero\n      tag_185\n      jumpi\n      tag_186\n      tag_187\n      jump\t// in\n    tag_186:\n    tag_185:\n      dup2\n      mstore\n      0x20\n      add\n      swap1\n      0x01\n      add\n      swap1\n      0x20\n      dup3\n      0x00\n      add\n      div\n      swap3\n      dup4\n      add\n      swap3\n      0x01\n      sub\n      dup3\n      mul\n      swap2\n      pop\n      dup1\n      dup5\n      gt\n      tag_184\n      jumpi\n      swap1\n      pop\n    tag_183:\n      pop\n      pop\n      pop\n      pop\n      pop\n      swap2\n      pop\n      dup1\n      dup1\n      sload\n      dup1\n      0x20\n      mul\n      0x20\n      add\n      mload(0x40)\n      swap1\n      dup2\n      add\n      0x40\n      mstore\n      dup1\n      swap3\n      swap2\n      swap1\n      dup2\n      dup2\n      mstore\n      0x20\n      add\n      0x00\n      swap1\n    tag_188:\n      dup3\n      dup3\n      lt\n      iszero\n      tag_189\n      jumpi\n      dup4\n      dup3\n      swap1\n      0x00\n      mstore\n      keccak256(0x00, 0x20)\n      add\n      dup1\n      sload\n      dup1\n      0x20\n      mul\n      0x20\n      add\n      mload(0x40)\n      swap1\n      dup2\n      add\n      0x40\n      mstore\n      dup1\n      swap3\n      swap2\n      swap1\n      dup2\n      dup2\n      mstore\n      0x20\n      add\n      0x00\n      swap1\n    tag_191:\n      dup3\n      dup3\n      lt\n      iszero\n      tag_192\n      jumpi\n      dup4\n      dup3\n      swap1\n      0x00\n      mstore\n      keccak256(0x00, 0x20)\n      add\n      dup1\n      sload\n      tag_194\n      swap1\n      tag_131\n      jump\t// in\n    tag_194:\n      dup1\n      0x1f\n      add\n      0x20\n      dup1\n      swap2\n      div\n      mul\n      0x20\n      add\n      mload(0x40)\n      swap1\n      dup2\n      add\n      0x40\n      mstore\n      dup1\n      swap3\n      swap2\n      swap1\n      dup2\n      dup2\n      mstore\n      0x20\n      add\n      dup3\n      dup1\n      sload\n      tag_195\n      swap1\n      tag_131\n      jump\t// in\n    tag_195:\n      dup1\n      iszero\n      tag_196\n      jumpi\n      dup1\n      0x1f\n      lt\n      tag_197\n      jumpi\n      0x0100\n      dup1\n      dup4\n      sload\n      div\n      mul\n      dup4\n      mstore\n      swap2\n      0x20\n      add\n      swap2\n      jump(tag_196)\n    tag_197:\n      dup3\n      add\n      swap2\n      swap1\n      0x00\n      mstore\n      keccak256(0x00, 0x20)\n      swap1\n    tag_198:\n      dup2\n      sload\n      dup2\n      mstore\n      swap1\n      0x01\n      add\n      swap1\n      0x20\n      add\n      dup1\n      dup4\n      gt\n      tag_198\n      jumpi\n      dup3\n      swap1\n      sub\n      0x1f\n      and\n      dup3\n      add\n      swap2\n    tag_196:\n      pop\n      pop\n      pop\n      pop\n      pop\n      dup2\n      mstore\n      0x20\n      add\n      swap1\n      0x01\n      add\n      swap1\n      jump(tag_191)\n    tag_192:\n      pop\n      pop\n      pop\n      pop\n      dup2\n      mstore\n      0x20\n      add\n      swap1\n      0x01\n      add\n      swap1\n      jump(tag_188)\n    tag_189:\n      pop\n      pop\n      pop\n      pop\n      swap1\n      pop\n      swap3\n      pop\n      swap3\n      pop\n      swap3\n      pop\n        /* \"contracts/DeresyRequests.sol\":5226:5503  function getReviewForm(uint256 _reviewFormIndex) public view returns(string[] memory, QuestionType[] memory, string[][] memory choices){... */\n      swap2\n      swap4\n      swap1\n      swap3\n      pop\n      jump\t// out\n        /* \"contracts/DeresyRequests.sol\":4268:4707  function closeReviewRequest(string memory _name) external{... */\n    tag_50:\n        /* \"contracts/DeresyRequests.sol\":4353:4367  reviewRequests */\n      0x00\n        /* \"contracts/DeresyRequests.sol\":4368:4373  _name */\n      dup2\n        /* \"contracts/DeresyRequests.sol\":4353:4374  reviewRequests[_name] */\n      mload(0x40)\n      tag_200\n      swap2\n      swap1\n      tag_87\n      jump\t// in\n    tag_200:\n      swap1\n      dup2\n      mstore\n      0x20\n      add\n      mload(0x40)\n      dup1\n      swap2\n      sub\n      swap1\n      keccak256\n        /* \"contracts/DeresyRequests.sol\":4353:4382  reviewRequests[_name].sponsor */\n      0x00\n      add\n      0x00\n      swap1\n      sload\n      swap1\n      0x0100\n      exp\n      swap1\n      div\n      0xffffffffffffffffffffffffffffffffffffffff\n      and\n        /* \"contracts/DeresyRequests.sol\":4339:4382  msg.sender == reviewRequests[_name].sponsor */\n      0xffffffffffffffffffffffffffffffffffffffff\n      and\n        /* \"contracts/DeresyRequests.sol\":4339:4349  msg.sender */\n      caller\n        /* \"contracts/DeresyRequests.sol\":4339:4382  msg.sender == reviewRequests[_name].sponsor */\n      0xffffffffffffffffffffffffffffffffffffffff\n      and\n      eq\n        /* \"contracts/DeresyRequests.sol\":4331:4416  require(msg.sender == reviewRequests[_name].sponsor, \"Deresy: It is not the sponsor\") */\n      tag_201\n      jumpi\n      mload(0x40)\n      0x08c379a000000000000000000000000000000000000000000000000000000000\n      dup2\n      mstore\n      0x04\n      add\n      tag_202\n      swap1\n      tag_203\n      jump\t// in\n    tag_202:\n      mload(0x40)\n      dup1\n      swap2\n      sub\n      swap1\n      revert\n    tag_201:\n        /* \"contracts/DeresyRequests.sol\":4464:4469  false */\n      0x00\n        /* \"contracts/DeresyRequests.sol\":4430:4469  reviewRequests[_name].isClosed == false */\n      iszero\n      iszero\n        /* \"contracts/DeresyRequests.sol\":4430:4444  reviewRequests */\n      0x00\n        /* \"contracts/DeresyRequests.sol\":4445:4450  _name */\n      dup3\n        /* \"contracts/DeresyRequests.sol\":4430:4451  reviewRequests[_name] */\n      mload(0x40)\n      tag_204\n      swap2\n      swap1\n      tag_87\n      jump\t// in\n    tag_204:\n      swap1\n      dup2\n      mstore\n      0x20\n      add\n      mload(0x40)\n      dup1\n      swap2\n      sub\n      swap1\n      keccak256\n        /* \"contracts/DeresyRequests.sol\":4430:4460  reviewRequests[_name].isClosed */\n      0x07\n      add\n      0x00\n      swap1\n      sload\n      swap1\n      0x0100\n      exp\n      swap1\n      div\n      0xff\n      and\n        /* \"contracts/DeresyRequests.sol\":4430:4469  reviewRequests[_name].isClosed == false */\n      iszero\n      iszero\n      eq\n        /* \"contracts/DeresyRequests.sol\":4422:4495  require(reviewRequests[_name].isClosed == false,\"Deresy: request closed\") */\n      tag_205\n      jumpi\n      mload(0x40)\n      0x08c379a000000000000000000000000000000000000000000000000000000000\n      dup2\n      mstore\n      0x04\n      add\n      tag_206\n      swap1\n      tag_90\n      jump\t// in\n    tag_206:\n      mload(0x40)\n      dup1\n      swap2\n      sub\n      swap1\n      revert\n    tag_205:\n        /* \"contracts/DeresyRequests.sol\":4509:4523  reviewRequests */\n      0x00\n        /* \"contracts/DeresyRequests.sol\":4524:4529  _name */\n      dup2\n        /* \"contracts/DeresyRequests.sol\":4509:4530  reviewRequests[_name] */\n      mload(0x40)\n      tag_207\n      swap2\n      swap1\n      tag_87\n      jump\t// in\n    tag_207:\n      swap1\n      dup2\n      mstore\n      0x20\n      add\n      mload(0x40)\n      dup1\n      swap2\n      sub\n      swap1\n      keccak256\n        /* \"contracts/DeresyRequests.sol\":4509:4538  reviewRequests[_name].sponsor */\n      0x00\n      add\n      0x00\n      swap1\n      sload\n      swap1\n      0x0100\n      exp\n      swap1\n      div\n      0xffffffffffffffffffffffffffffffffffffffff\n      and\n        /* \"contracts/DeresyRequests.sol\":4501:4548  payable(reviewRequests[_name].sponsor).transfer */\n      0xffffffffffffffffffffffffffffffffffffffff\n      and\n        /* \"contracts/DeresyRequests.sol\":4501:4581  payable(reviewRequests[_name].sponsor).transfer(reviewRequests[_name].fundsLeft) */\n      0x08fc\n        /* \"contracts/DeresyRequests.sol\":4549:4563  reviewRequests */\n      0x00\n        /* \"contracts/DeresyRequests.sol\":4564:4569  _name */\n      dup4\n        /* \"contracts/DeresyRequests.sol\":4549:4570  reviewRequests[_name] */\n      mload(0x40)\n      tag_208\n      swap2\n      swap1\n      tag_87\n      jump\t// in\n    tag_208:\n      swap1\n      dup2\n      mstore\n      0x20\n      add\n      mload(0x40)\n      dup1\n      swap2\n      sub\n      swap1\n      keccak256\n        /* \"contracts/DeresyRequests.sol\":4549:4580  reviewRequests[_name].fundsLeft */\n      0x08\n      add\n      sload\n        /* \"contracts/DeresyRequests.sol\":4501:4581  payable(reviewRequests[_name].sponsor).transfer(reviewRequests[_name].fundsLeft) */\n      swap1\n      dup2\n      iszero\n      mul\n      swap1\n      mload(0x40)\n      0x00\n      mload(0x40)\n      dup1\n      dup4\n      sub\n      dup2\n      dup6\n      dup9\n      dup9\n      call\n      swap4\n      pop\n      pop\n      pop\n      pop\n      iszero\n      dup1\n      iszero\n      tag_210\n      jumpi\n      returndatasize\n      0x00\n      dup1\n      returndatacopy\n      revert(0x00, returndatasize)\n    tag_210:\n      pop\n        /* \"contracts/DeresyRequests.sol\":4620:4624  true */\n      0x01\n        /* \"contracts/DeresyRequests.sol\":4587:4601  reviewRequests */\n      0x00\n        /* \"contracts/DeresyRequests.sol\":4602:4607  _name */\n      dup3\n        /* \"contracts/DeresyRequests.sol\":4587:4608  reviewRequests[_name] */\n      mload(0x40)\n      tag_211\n      swap2\n      swap1\n      tag_87\n      jump\t// in\n    tag_211:\n      swap1\n      dup2\n      mstore\n      0x20\n      add\n      mload(0x40)\n      dup1\n      swap2\n      sub\n      swap1\n      keccak256\n        /* \"contracts/DeresyRequests.sol\":4587:4617  reviewRequests[_name].isClosed */\n      0x07\n      add\n      0x00\n        /* \"contracts/DeresyRequests.sol\":4587:4624  reviewRequests[_name].isClosed = true */\n      0x0100\n      exp\n      dup2\n      sload\n      dup2\n      0xff\n      mul\n      not\n      and\n      swap1\n      dup4\n      iszero\n      iszero\n      mul\n      or\n      swap1\n      sstore\n      pop\n        /* \"contracts/DeresyRequests.sol\":4664:4665  0 */\n      0x00\n        /* \"contracts/DeresyRequests.sol\":4630:4644  reviewRequests */\n      dup1\n        /* \"contracts/DeresyRequests.sol\":4645:4650  _name */\n      dup3\n        /* \"contracts/DeresyRequests.sol\":4630:4651  reviewRequests[_name] */\n      mload(0x40)\n      tag_212\n      swap2\n      swap1\n      tag_87\n      jump\t// in\n    tag_212:\n      swap1\n      dup2\n      mstore\n      0x20\n      add\n      mload(0x40)\n      dup1\n      swap2\n      sub\n      swap1\n      keccak256\n        /* \"contracts/DeresyRequests.sol\":4630:4661  reviewRequests[_name].fundsLeft */\n      0x08\n      add\n        /* \"contracts/DeresyRequests.sol\":4630:4665  reviewRequests[_name].fundsLeft = 0 */\n      dup2\n      swap1\n      sstore\n      pop\n        /* \"contracts/DeresyRequests.sol\":4676:4702  ClosedReviewRequest(_name) */\n      0xbc5c8cb2024ed254e024e37b09895ecaa07948dd0fd7a08e30b80f559888f2cf\n        /* \"contracts/DeresyRequests.sol\":4696:4701  _name */\n      dup2\n        /* \"contracts/DeresyRequests.sol\":4676:4702  ClosedReviewRequest(_name) */\n      mload(0x40)\n      tag_213\n      swap2\n      swap1\n      tag_39\n      jump\t// in\n    tag_213:\n      mload(0x40)\n      dup1\n      swap2\n      sub\n      swap1\n      log1\n        /* \"contracts/DeresyRequests.sol\":4268:4707  function closeReviewRequest(string memory _name) external{... */\n      pop\n      jump\t// out\n        /* \"contracts/DeresyRequests.sol\":1735:3233  function createRequest(string memory _name, address[] memory reviewers, string[] memory targets, string[] memory targetsIPFSHashes, string memory formIpfsHash, uint256 rewardPerReview, uint256 reviewFormIndex) external payable{... */\n    tag_54:\n        /* \"contracts/DeresyRequests.sol\":1994:1995  0 */\n      0x00\n        /* \"contracts/DeresyRequests.sol\":1975:1984  reviewers */\n      dup7\n        /* \"contracts/DeresyRequests.sol\":1975:1991  reviewers.length */\n      mload\n        /* \"contracts/DeresyRequests.sol\":1975:1995  reviewers.length > 0 */\n      gt\n        /* \"contracts/DeresyRequests.sol\":1967:2031  require(reviewers.length > 0,\"Deresy: Reviewers cannot be null\") */\n      tag_215\n      jumpi\n      mload(0x40)\n      0x08c379a000000000000000000000000000000000000000000000000000000000\n      dup2\n      mstore\n      0x04\n      add\n      tag_216\n      swap1\n      tag_217\n      jump\t// in\n    tag_216:\n      mload(0x40)\n      dup1\n      swap2\n      sub\n      swap1\n      revert\n    tag_215:\n        /* \"contracts/DeresyRequests.sol\":2062:2063  0 */\n      0x00\n        /* \"contracts/DeresyRequests.sol\":2045:2052  targets */\n      dup6\n        /* \"contracts/DeresyRequests.sol\":2045:2059  targets.length */\n      mload\n        /* \"contracts/DeresyRequests.sol\":2045:2063  targets.length > 0 */\n      gt\n        /* \"contracts/DeresyRequests.sol\":2037:2097  require(targets.length > 0,\"Deresy: Targets cannot be null\") */\n      tag_218\n      jumpi\n      mload(0x40)\n      0x08c379a000000000000000000000000000000000000000000000000000000000\n      dup2\n      mstore\n      0x04\n      add\n      tag_219\n      swap1\n      tag_220\n      jump\t// in\n    tag_219:\n      mload(0x40)\n      dup1\n      swap2\n      sub\n      swap1\n      revert\n    tag_218:\n        /* \"contracts/DeresyRequests.sol\":2138:2139  0 */\n      0x00\n        /* \"contracts/DeresyRequests.sol\":2111:2128  targetsIPFSHashes */\n      dup5\n        /* \"contracts/DeresyRequests.sol\":2111:2135  targetsIPFSHashes.length */\n      mload\n        /* \"contracts/DeresyRequests.sol\":2111:2139  targetsIPFSHashes.length > 0 */\n      gt\n        /* \"contracts/DeresyRequests.sol\":2103:2186  require(targetsIPFSHashes.length > 0, \"Deresy: Targets IPFS hashes cannot be null\") */\n      tag_221\n      jumpi\n      mload(0x40)\n      0x08c379a000000000000000000000000000000000000000000000000000000000\n      dup2\n      mstore\n      0x04\n      add\n      tag_222\n      swap1\n      tag_223\n      jump\t// in\n    tag_222:\n      mload(0x40)\n      dup1\n      swap2\n      sub\n      swap1\n      revert\n    tag_221:\n        /* \"contracts/DeresyRequests.sol\":2218:2235  targetsIPFSHashes */\n      dup4\n        /* \"contracts/DeresyRequests.sol\":2218:2242  targetsIPFSHashes.length */\n      mload\n        /* \"contracts/DeresyRequests.sol\":2200:2207  targets */\n      dup6\n        /* \"contracts/DeresyRequests.sol\":2200:2214  targets.length */\n      mload\n        /* \"contracts/DeresyRequests.sol\":2200:2242  targets.length == targetsIPFSHashes.length */\n      eq\n        /* \"contracts/DeresyRequests.sol\":2192:2316  require(targets.length == targetsIPFSHashes.length, \"Deresy: Targets and targetsIPFSHashes array must have the same length\") */\n      tag_224\n      jumpi\n      mload(0x40)\n      0x08c379a000000000000000000000000000000000000000000000000000000000\n      dup2\n      mstore\n      0x04\n      add\n      tag_225\n      swap1\n      tag_226\n      jump\t// in\n    tag_225:\n      mload(0x40)\n      dup1\n      swap2\n      sub\n      swap1\n      revert\n    tag_224:\n        /* \"contracts/DeresyRequests.sol\":2370:2371  1 */\n      0x01\n        /* \"contracts/DeresyRequests.sol\":2349:2360  reviewForms */\n      0x04\n        /* \"contracts/DeresyRequests.sol\":2349:2367  reviewForms.length */\n      dup1\n      sload\n      swap1\n      pop\n        /* \"contracts/DeresyRequests.sol\":2349:2371  reviewForms.length - 1 */\n      tag_227\n      swap2\n      swap1\n      tag_83\n      jump\t// in\n    tag_227:\n        /* \"contracts/DeresyRequests.sol\":2330:2345  reviewFormIndex */\n      dup2\n        /* \"contracts/DeresyRequests.sol\":2330:2371  reviewFormIndex <= reviewForms.length - 1 */\n      gt\n      iszero\n        /* \"contracts/DeresyRequests.sol\":2322:2406  require(reviewFormIndex <= reviewForms.length - 1,\"Deresy: ReviewFormIndex invalid\") */\n      tag_228\n      jumpi\n      mload(0x40)\n      0x08c379a000000000000000000000000000000000000000000000000000000000\n      dup2\n      mstore\n      0x04\n      add\n      tag_229\n      swap1\n      tag_230\n      jump\t// in\n    tag_229:\n      mload(0x40)\n      dup1\n      swap2\n      sub\n      swap1\n      revert\n    tag_228:\n        /* \"contracts/DeresyRequests.sol\":2438:2439  0 */\n      0x00\n        /* \"contracts/DeresyRequests.sol\":2420:2435  rewardPerReview */\n      dup3\n        /* \"contracts/DeresyRequests.sol\":2420:2439  rewardPerReview > 0 */\n      gt\n        /* \"contracts/DeresyRequests.sol\":2412:2482  require(rewardPerReview > 0,\"Deresy: rewardPerReview cannot be empty\") */\n      tag_231\n      jumpi\n      mload(0x40)\n      0x08c379a000000000000000000000000000000000000000000000000000000000\n      dup2\n      mstore\n      0x04\n      add\n      tag_232\n      swap1\n      tag_233\n      jump\t// in\n    tag_232:\n      mload(0x40)\n      dup1\n      swap2\n      sub\n      swap1\n      revert\n    tag_231:\n        /* \"contracts/DeresyRequests.sol\":2537:2538  0 */\n      0x00\n        /* \"contracts/DeresyRequests.sol\":2496:2539  reviewRequests[_name].sponsor == address(0) */\n      0xffffffffffffffffffffffffffffffffffffffff\n      and\n        /* \"contracts/DeresyRequests.sol\":2496:2510  reviewRequests */\n      0x00\n        /* \"contracts/DeresyRequests.sol\":2511:2516  _name */\n      dup9\n        /* \"contracts/DeresyRequests.sol\":2496:2517  reviewRequests[_name] */\n      mload(0x40)\n      tag_234\n      swap2\n      swap1\n      tag_87\n      jump\t// in\n    tag_234:\n      swap1\n      dup2\n      mstore\n      0x20\n      add\n      mload(0x40)\n      dup1\n      swap2\n      sub\n      swap1\n      keccak256\n        /* \"contracts/DeresyRequests.sol\":2496:2525  reviewRequests[_name].sponsor */\n      0x00\n      add\n      0x00\n      swap1\n      sload\n      swap1\n      0x0100\n      exp\n      swap1\n      div\n      0xffffffffffffffffffffffffffffffffffffffff\n      and\n        /* \"contracts/DeresyRequests.sol\":2496:2539  reviewRequests[_name].sponsor == address(0) */\n      0xffffffffffffffffffffffffffffffffffffffff\n      and\n      eq\n        /* \"contracts/DeresyRequests.sol\":2488:2566  require(reviewRequests[_name].sponsor == address(0),\"Deresy: Name duplicated\") */\n      tag_235\n      jumpi\n      mload(0x40)\n      0x08c379a000000000000000000000000000000000000000000000000000000000\n      dup2\n      mstore\n      0x04\n      add\n      tag_236\n      swap1\n      tag_237\n      jump\t// in\n    tag_236:\n      mload(0x40)\n      dup1\n      swap2\n      sub\n      swap1\n      revert\n    tag_235:\n        /* \"contracts/DeresyRequests.sol\":2632:2647  rewardPerReview */\n      dup2\n        /* \"contracts/DeresyRequests.sol\":2614:2621  targets */\n      dup6\n        /* \"contracts/DeresyRequests.sol\":2614:2628  targets.length */\n      mload\n        /* \"contracts/DeresyRequests.sol\":2595:2604  reviewers */\n      dup8\n        /* \"contracts/DeresyRequests.sol\":2595:2611  reviewers.length */\n      mload\n        /* \"contracts/DeresyRequests.sol\":2595:2628  reviewers.length * targets.length */\n      tag_238\n      swap2\n      swap1\n      tag_239\n      jump\t// in\n    tag_238:\n        /* \"contracts/DeresyRequests.sol\":2594:2647  (reviewers.length * targets.length) * rewardPerReview */\n      tag_240\n      swap2\n      swap1\n      tag_239\n      jump\t// in\n    tag_240:\n        /* \"contracts/DeresyRequests.sol\":2580:2589  msg.value */\n      callvalue\n        /* \"contracts/DeresyRequests.sol\":2580:2648  msg.value >= ((reviewers.length * targets.length) * rewardPerReview) */\n      lt\n      iszero\n        /* \"contracts/DeresyRequests.sol\":2572:2677  require(msg.value >= ((reviewers.length * targets.length) * rewardPerReview),\"Deresy: msg.value invalid\") */\n      tag_241\n      jumpi\n      mload(0x40)\n      0x08c379a000000000000000000000000000000000000000000000000000000000\n      dup2\n      mstore\n      0x04\n      add\n      tag_242\n      swap1\n      tag_243\n      jump\t// in\n    tag_242:\n      mload(0x40)\n      dup1\n      swap2\n      sub\n      swap1\n      revert\n    tag_241:\n        /* \"contracts/DeresyRequests.sol\":2715:2725  msg.sender */\n      caller\n        /* \"contracts/DeresyRequests.sol\":2683:2697  reviewRequests */\n      0x00\n        /* \"contracts/DeresyRequests.sol\":2698:2703  _name */\n      dup9\n        /* \"contracts/DeresyRequests.sol\":2683:2704  reviewRequests[_name] */\n      mload(0x40)\n      tag_244\n      swap2\n      swap1\n      tag_87\n      jump\t// in\n    tag_244:\n      swap1\n      dup2\n      mstore\n      0x20\n      add\n      mload(0x40)\n      dup1\n      swap2\n      sub\n      swap1\n      keccak256\n        /* \"contracts/DeresyRequests.sol\":2683:2712  reviewRequests[_name].sponsor */\n      0x00\n      add\n      0x00\n        /* \"contracts/DeresyRequests.sol\":2683:2725  reviewRequests[_name].sponsor = msg.sender */\n      0x0100\n      exp\n      dup2\n      sload\n      dup2\n      0xffffffffffffffffffffffffffffffffffffffff\n      mul\n      not\n      and\n      swap1\n      dup4\n      0xffffffffffffffffffffffffffffffffffffffff\n      and\n      mul\n      or\n      swap1\n      sstore\n      pop\n        /* \"contracts/DeresyRequests.sol\":2765:2774  reviewers */\n      dup6\n        /* \"contracts/DeresyRequests.sol\":2731:2745  reviewRequests */\n      0x00\n        /* \"contracts/DeresyRequests.sol\":2746:2751  _name */\n      dup9\n        /* \"contracts/DeresyRequests.sol\":2731:2752  reviewRequests[_name] */\n      mload(0x40)\n      tag_245\n      swap2\n      swap1\n      tag_87\n      jump\t// in\n    tag_245:\n      swap1\n      dup2\n      mstore\n      0x20\n      add\n      mload(0x40)\n      dup1\n      swap2\n      sub\n      swap1\n      keccak256\n        /* \"contracts/DeresyRequests.sol\":2731:2762  reviewRequests[_name].reviewers */\n      0x01\n      add\n        /* \"contracts/DeresyRequests.sol\":2731:2774  reviewRequests[_name].reviewers = reviewers */\n      swap1\n      dup1\n      mload\n      swap1\n      0x20\n      add\n      swap1\n      tag_246\n      swap3\n      swap2\n      swap1\n      tag_247\n      jump\t// in\n    tag_246:\n      pop\n        /* \"contracts/DeresyRequests.sol\":2812:2819  targets */\n      dup5\n        /* \"contracts/DeresyRequests.sol\":2780:2794  reviewRequests */\n      0x00\n        /* \"contracts/DeresyRequests.sol\":2795:2800  _name */\n      dup9\n        /* \"contracts/DeresyRequests.sol\":2780:2801  reviewRequests[_name] */\n      mload(0x40)\n      tag_248\n      swap2\n      swap1\n      tag_87\n      jump\t// in\n    tag_248:\n      swap1\n      dup2\n      mstore\n      0x20\n      add\n      mload(0x40)\n      dup1\n      swap2\n      sub\n      swap1\n      keccak256\n        /* \"contracts/DeresyRequests.sol\":2780:2809  reviewRequests[_name].targets */\n      0x02\n      add\n        /* \"contracts/DeresyRequests.sol\":2780:2819  reviewRequests[_name].targets = targets */\n      swap1\n      dup1\n      mload\n      swap1\n      0x20\n      add\n      swap1\n      tag_249\n      swap3\n      swap2\n      swap1\n      tag_75\n      jump\t// in\n    tag_249:\n      pop\n        /* \"contracts/DeresyRequests.sol\":2867:2884  targetsIPFSHashes */\n      dup4\n        /* \"contracts/DeresyRequests.sol\":2825:2839  reviewRequests */\n      0x00\n        /* \"contracts/DeresyRequests.sol\":2840:2845  _name */\n      dup9\n        /* \"contracts/DeresyRequests.sol\":2825:2846  reviewRequests[_name] */\n      mload(0x40)\n      tag_250\n      swap2\n      swap1\n      tag_87\n      jump\t// in\n    tag_250:\n      swap1\n      dup2\n      mstore\n      0x20\n      add\n      mload(0x40)\n      dup1\n      swap2\n      sub\n      swap1\n      keccak256\n        /* \"contracts/DeresyRequests.sol\":2825:2864  reviewRequests[_name].targetsIPFSHashes */\n      0x03\n      add\n        /* \"contracts/DeresyRequests.sol\":2825:2884  reviewRequests[_name].targetsIPFSHashes = targetsIPFSHashes */\n      swap1\n      dup1\n      mload\n      swap1\n      0x20\n      add\n      swap1\n      tag_251\n      swap3\n      swap2\n      swap1\n      tag_75\n      jump\t// in\n    tag_251:\n      pop\n        /* \"contracts/DeresyRequests.sol\":2927:2939  formIpfsHash */\n      dup3\n        /* \"contracts/DeresyRequests.sol\":2890:2904  reviewRequests */\n      0x00\n        /* \"contracts/DeresyRequests.sol\":2905:2910  _name */\n      dup9\n        /* \"contracts/DeresyRequests.sol\":2890:2911  reviewRequests[_name] */\n      mload(0x40)\n      tag_252\n      swap2\n      swap1\n      tag_87\n      jump\t// in\n    tag_252:\n      swap1\n      dup2\n      mstore\n      0x20\n      add\n      mload(0x40)\n      dup1\n      swap2\n      sub\n      swap1\n      keccak256\n        /* \"contracts/DeresyRequests.sol\":2890:2924  reviewRequests[_name].formIpfsHash */\n      0x04\n      add\n        /* \"contracts/DeresyRequests.sol\":2890:2939  reviewRequests[_name].formIpfsHash = formIpfsHash */\n      swap1\n      dup1\n      mload\n      swap1\n      0x20\n      add\n      swap1\n      tag_253\n      swap3\n      swap2\n      swap1\n      tag_254\n      jump\t// in\n    tag_253:\n      pop\n        /* \"contracts/DeresyRequests.sol\":2985:3000  rewardPerReview */\n      dup2\n        /* \"contracts/DeresyRequests.sol\":2945:2959  reviewRequests */\n      0x00\n        /* \"contracts/DeresyRequests.sol\":2960:2965  _name */\n      dup9\n        /* \"contracts/DeresyRequests.sol\":2945:2966  reviewRequests[_name] */\n      mload(0x40)\n      tag_255\n      swap2\n      swap1\n      tag_87\n      jump\t// in\n    tag_255:\n      swap1\n      dup2\n      mstore\n      0x20\n      add\n      mload(0x40)\n      dup1\n      swap2\n      sub\n      swap1\n      keccak256\n        /* \"contracts/DeresyRequests.sol\":2945:2982  reviewRequests[_name].rewardPerReview */\n      0x05\n      add\n        /* \"contracts/DeresyRequests.sol\":2945:3000  reviewRequests[_name].rewardPerReview = rewardPerReview */\n      dup2\n      swap1\n      sstore\n      pop\n        /* \"contracts/DeresyRequests.sol\":3039:3044  false */\n      0x00\n        /* \"contracts/DeresyRequests.sol\":3006:3020  reviewRequests */\n      dup1\n        /* \"contracts/DeresyRequests.sol\":3021:3026  _name */\n      dup9\n        /* \"contracts/DeresyRequests.sol\":3006:3027  reviewRequests[_name] */\n      mload(0x40)\n      tag_256\n      swap2\n      swap1\n      tag_87\n      jump\t// in\n    tag_256:\n      swap1\n      dup2\n      mstore\n      0x20\n      add\n      mload(0x40)\n      dup1\n      swap2\n      sub\n      swap1\n      keccak256\n        /* \"contracts/DeresyRequests.sol\":3006:3036  reviewRequests[_name].isClosed */\n      0x07\n      add\n      0x00\n        /* \"contracts/DeresyRequests.sol\":3006:3044  reviewRequests[_name].isClosed = false */\n      0x0100\n      exp\n      dup2\n      sload\n      dup2\n      0xff\n      mul\n      not\n      and\n      swap1\n      dup4\n      iszero\n      iszero\n      mul\n      or\n      swap1\n      sstore\n      pop\n        /* \"contracts/DeresyRequests.sol\":3084:3093  msg.value */\n      callvalue\n        /* \"contracts/DeresyRequests.sol\":3050:3064  reviewRequests */\n      0x00\n        /* \"contracts/DeresyRequests.sol\":3065:3070  _name */\n      dup9\n        /* \"contracts/DeresyRequests.sol\":3050:3071  reviewRequests[_name] */\n      mload(0x40)\n      tag_257\n      swap2\n      swap1\n      tag_87\n      jump\t// in\n    tag_257:\n      swap1\n      dup2\n      mstore\n      0x20\n      add\n      mload(0x40)\n      dup1\n      swap2\n      sub\n      swap1\n      keccak256\n        /* \"contracts/DeresyRequests.sol\":3050:3081  reviewRequests[_name].fundsLeft */\n      0x08\n      add\n        /* \"contracts/DeresyRequests.sol\":3050:3093  reviewRequests[_name].fundsLeft = msg.value */\n      dup2\n      swap1\n      sstore\n      pop\n        /* \"contracts/DeresyRequests.sol\":3139:3154  reviewFormIndex */\n      dup1\n        /* \"contracts/DeresyRequests.sol\":3099:3113  reviewRequests */\n      0x00\n        /* \"contracts/DeresyRequests.sol\":3114:3119  _name */\n      dup9\n        /* \"contracts/DeresyRequests.sol\":3099:3120  reviewRequests[_name] */\n      mload(0x40)\n      tag_258\n      swap2\n      swap1\n      tag_87\n      jump\t// in\n    tag_258:\n      swap1\n      dup2\n      mstore\n      0x20\n      add\n      mload(0x40)\n      dup1\n      swap2\n      sub\n      swap1\n      keccak256\n        /* \"contracts/DeresyRequests.sol\":3099:3136  reviewRequests[_name].reviewFormIndex */\n      0x09\n      add\n        /* \"contracts/DeresyRequests.sol\":3099:3154  reviewRequests[_name].reviewFormIndex = reviewFormIndex */\n      dup2\n      swap1\n      sstore\n      pop\n        /* \"contracts/DeresyRequests.sol\":3160:3178  reviewRequestNames */\n      0x01\n        /* \"contracts/DeresyRequests.sol\":3184:3189  _name */\n      dup8\n        /* \"contracts/DeresyRequests.sol\":3160:3190  reviewRequestNames.push(_name) */\n      swap1\n      dup1\n      0x01\n      dup2\n      sload\n      add\n      dup1\n      dup3\n      sstore\n      dup1\n      swap2\n      pop\n      pop\n      0x01\n      swap1\n      sub\n      swap1\n      0x00\n      mstore\n      keccak256(0x00, 0x20)\n      add\n      0x00\n      swap1\n      swap2\n      swap1\n      swap2\n      swap1\n      swap2\n      pop\n      swap1\n      dup1\n      mload\n      swap1\n      0x20\n      add\n      swap1\n      tag_260\n      swap3\n      swap2\n      swap1\n      tag_254\n      jump\t// in\n    tag_260:\n      pop\n        /* \"contracts/DeresyRequests.sol\":3201:3228  CreatedReviewRequest(_name) */\n      0x0448feabbf5bb385eb3ea2cb16d90b1cb3b4c8936e399cf7a10e7b8946eec667\n        /* \"contracts/DeresyRequests.sol\":3222:3227  _name */\n      dup8\n        /* \"contracts/DeresyRequests.sol\":3201:3228  CreatedReviewRequest(_name) */\n      mload(0x40)\n      tag_261\n      swap2\n      swap1\n      tag_39\n      jump\t// in\n    tag_261:\n      mload(0x40)\n      dup1\n      swap2\n      sub\n      swap1\n      log1\n        /* \"contracts/DeresyRequests.sol\":1735:3233  function createRequest(string memory _name, address[] memory reviewers, string[] memory targets, string[] memory targetsIPFSHashes, string memory formIpfsHash, uint256 rewardPerReview, uint256 reviewFormIndex) external payable{... */\n      pop\n      pop\n      pop\n      pop\n      pop\n      pop\n      pop\n      jump\t// out\n        /* \"contracts/DeresyRequests.sol\":5507:5613  function getReviewRequestsNames() public view returns(string[] memory){... */\n    tag_57:\n        /* \"contracts/DeresyRequests.sol\":5561:5576  string[] memory */\n      0x60\n        /* \"contracts/DeresyRequests.sol\":5590:5608  reviewRequestNames */\n      0x01\n        /* \"contracts/DeresyRequests.sol\":5583:5608  return reviewRequestNames */\n      dup1\n      sload\n      dup1\n      0x20\n      mul\n      0x20\n      add\n      mload(0x40)\n      swap1\n      dup2\n      add\n      0x40\n      mstore\n      dup1\n      swap3\n      swap2\n      swap1\n      dup2\n      dup2\n      mstore\n      0x20\n      add\n      0x00\n      swap1\n    tag_263:\n      dup3\n      dup3\n      lt\n      iszero\n      tag_264\n      jumpi\n      dup4\n      dup3\n      swap1\n      0x00\n      mstore\n      keccak256(0x00, 0x20)\n      add\n      dup1\n      sload\n      tag_266\n      swap1\n      tag_131\n      jump\t// in\n    tag_266:\n      dup1\n      0x1f\n      add\n      0x20\n      dup1\n      swap2\n      div\n      mul\n      0x20\n      add\n      mload(0x40)\n      swap1\n      dup2\n      add\n      0x40\n      mstore\n      dup1\n      swap3\n      swap2\n      swap1\n      dup2\n      dup2\n      mstore\n      0x20\n      add\n      dup3\n      dup1\n      sload\n      tag_267\n      swap1\n      tag_131\n      jump\t// in\n    tag_267:\n      dup1\n      iszero\n      tag_268\n      jumpi\n      dup1\n      0x1f\n      lt\n      tag_269\n      jumpi\n      0x0100\n      dup1\n      dup4\n      sload\n      div\n      mul\n      dup4\n      mstore\n      swap2\n      0x20\n      add\n      swap2\n      jump(tag_268)\n    tag_269:\n      dup3\n      add\n      swap2\n      swap1\n      0x00\n      mstore\n      keccak256(0x00, 0x20)\n      swap1\n    tag_270:\n      dup2\n      sload\n      dup2\n      mstore\n      swap1\n      0x01\n      add\n      swap1\n      0x20\n      add\n      dup1\n      dup4\n      gt\n      tag_270\n      jumpi\n      dup3\n      swap1\n      sub\n      0x1f\n      and\n      dup3\n      add\n      swap2\n    tag_268:\n      pop\n      pop\n      pop\n      pop\n      pop\n      dup2\n      mstore\n      0x20\n      add\n      swap1\n      0x01\n      add\n      swap1\n      jump(tag_263)\n    tag_264:\n      pop\n      pop\n      pop\n      pop\n      swap1\n      pop\n        /* \"contracts/DeresyRequests.sol\":5507:5613  function getReviewRequestsNames() public view returns(string[] memory){... */\n      swap1\n      jump\t// out\n        /* \"contracts/DeresyRequests.sol\":5617:5955  function isReviewer(address reviewerAddress, string memory _name) internal view returns (bool) {... */\n    tag_104:\n        /* \"contracts/DeresyRequests.sol\":5706:5710  bool */\n      0x00\n        /* \"contracts/DeresyRequests.sol\":5718:5736  bool reviewerFound */\n      dup1\n        /* \"contracts/DeresyRequests.sol\":5739:5744  false */\n      0x00\n        /* \"contracts/DeresyRequests.sol\":5718:5744  bool reviewerFound = false */\n      swap1\n      pop\n        /* \"contracts/DeresyRequests.sol\":5755:5761  uint i */\n      0x00\n        /* \"contracts/DeresyRequests.sol\":5750:5925  for (uint i = 0; i < reviewRequests[_name].reviewers.length; i++){... */\n    tag_272:\n        /* \"contracts/DeresyRequests.sol\":5771:5785  reviewRequests */\n      0x00\n        /* \"contracts/DeresyRequests.sol\":5786:5791  _name */\n      dup5\n        /* \"contracts/DeresyRequests.sol\":5771:5792  reviewRequests[_name] */\n      mload(0x40)\n      tag_275\n      swap2\n      swap1\n      tag_87\n      jump\t// in\n    tag_275:\n      swap1\n      dup2\n      mstore\n      0x20\n      add\n      mload(0x40)\n      dup1\n      swap2\n      sub\n      swap1\n      keccak256\n        /* \"contracts/DeresyRequests.sol\":5771:5802  reviewRequests[_name].reviewers */\n      0x01\n      add\n        /* \"contracts/DeresyRequests.sol\":5771:5809  reviewRequests[_name].reviewers.length */\n      dup1\n      sload\n      swap1\n      pop\n        /* \"contracts/DeresyRequests.sol\":5767:5768  i */\n      dup2\n        /* \"contracts/DeresyRequests.sol\":5767:5809  i < reviewRequests[_name].reviewers.length */\n      lt\n        /* \"contracts/DeresyRequests.sol\":5750:5925  for (uint i = 0; i < reviewRequests[_name].reviewers.length; i++){... */\n      iszero\n      tag_273\n      jumpi\n        /* \"contracts/DeresyRequests.sol\":5864:5879  reviewerAddress */\n      dup5\n        /* \"contracts/DeresyRequests.sol\":5826:5879  reviewRequests[_name].reviewers[i] == reviewerAddress */\n      0xffffffffffffffffffffffffffffffffffffffff\n      and\n        /* \"contracts/DeresyRequests.sol\":5826:5840  reviewRequests */\n      0x00\n        /* \"contracts/DeresyRequests.sol\":5841:5846  _name */\n      dup6\n        /* \"contracts/DeresyRequests.sol\":5826:5847  reviewRequests[_name] */\n      mload(0x40)\n      tag_276\n      swap2\n      swap1\n      tag_87\n      jump\t// in\n    tag_276:\n      swap1\n      dup2\n      mstore\n      0x20\n      add\n      mload(0x40)\n      dup1\n      swap2\n      sub\n      swap1\n      keccak256\n        /* \"contracts/DeresyRequests.sol\":5826:5857  reviewRequests[_name].reviewers */\n      0x01\n      add\n        /* \"contracts/DeresyRequests.sol\":5858:5859  i */\n      dup3\n        /* \"contracts/DeresyRequests.sol\":5826:5860  reviewRequests[_name].reviewers[i] */\n      dup2\n      sload\n      dup2\n      lt\n      tag_277\n      jumpi\n      tag_278\n      tag_98\n      jump\t// in\n    tag_278:\n    tag_277:\n      swap1\n      0x00\n      mstore\n      keccak256(0x00, 0x20)\n      add\n      0x00\n      swap1\n      sload\n      swap1\n      0x0100\n      exp\n      swap1\n      div\n      0xffffffffffffffffffffffffffffffffffffffff\n      and\n        /* \"contracts/DeresyRequests.sol\":5826:5879  reviewRequests[_name].reviewers[i] == reviewerAddress */\n      0xffffffffffffffffffffffffffffffffffffffff\n      and\n      sub\n        /* \"contracts/DeresyRequests.sol\":5823:5919  if(reviewRequests[_name].reviewers[i] == reviewerAddress){... */\n      tag_280\n      jumpi\n        /* \"contracts/DeresyRequests.sol\":5906:5910  true */\n      0x01\n        /* \"contracts/DeresyRequests.sol\":5890:5910  reviewerFound = true */\n      swap2\n      pop\n        /* \"contracts/DeresyRequests.sol\":5823:5919  if(reviewRequests[_name].reviewers[i] == reviewerAddress){... */\n    tag_280:\n        /* \"contracts/DeresyRequests.sol\":5811:5814  i++ */\n      dup1\n      dup1\n      tag_281\n      swap1\n      tag_282\n      jump\t// in\n    tag_281:\n      swap2\n      pop\n      pop\n        /* \"contracts/DeresyRequests.sol\":5750:5925  for (uint i = 0; i < reviewRequests[_name].reviewers.length; i++){... */\n      jump(tag_272)\n    tag_273:\n      pop\n        /* \"contracts/DeresyRequests.sol\":5937:5950  reviewerFound */\n      dup1\n        /* \"contracts/DeresyRequests.sol\":5930:5950  return reviewerFound */\n      swap2\n      pop\n      pop\n        /* \"contracts/DeresyRequests.sol\":5617:5955  function isReviewer(address reviewerAddress, string memory _name) internal view returns (bool) {... */\n      swap3\n      swap2\n      pop\n      pop\n      jump\t// out\n        /* \"contracts/DeresyRequests.sol\":5959:6387  function hasSubmittedReview(address reviewerAddress, string memory _name, uint8 targetIndex) internal view returns (bool) {... */\n    tag_109:\n        /* \"contracts/DeresyRequests.sol\":6075:6079  bool */\n      0x00\n        /* \"contracts/DeresyRequests.sol\":6087:6103  bool notReviewed */\n      dup1\n        /* \"contracts/DeresyRequests.sol\":6106:6110  true */\n      0x01\n        /* \"contracts/DeresyRequests.sol\":6087:6110  bool notReviewed = true */\n      swap1\n      pop\n        /* \"contracts/DeresyRequests.sol\":6120:6126  uint i */\n      0x00\n        /* \"contracts/DeresyRequests.sol\":6116:6359  for(uint i = 0; i < reviewRequests[_name].reviews.length; i++) {... */\n    tag_284:\n        /* \"contracts/DeresyRequests.sol\":6136:6150  reviewRequests */\n      0x00\n        /* \"contracts/DeresyRequests.sol\":6151:6156  _name */\n      dup6\n        /* \"contracts/DeresyRequests.sol\":6136:6157  reviewRequests[_name] */\n      mload(0x40)\n      tag_287\n      swap2\n      swap1\n      tag_87\n      jump\t// in\n    tag_287:\n      swap1\n      dup2\n      mstore\n      0x20\n      add\n      mload(0x40)\n      dup1\n      swap2\n      sub\n      swap1\n      keccak256\n        /* \"contracts/DeresyRequests.sol\":6136:6165  reviewRequests[_name].reviews */\n      0x06\n      add\n        /* \"contracts/DeresyRequests.sol\":6136:6172  reviewRequests[_name].reviews.length */\n      dup1\n      sload\n      swap1\n      pop\n        /* \"contracts/DeresyRequests.sol\":6132:6133  i */\n      dup2\n        /* \"contracts/DeresyRequests.sol\":6132:6172  i < reviewRequests[_name].reviews.length */\n      lt\n        /* \"contracts/DeresyRequests.sol\":6116:6359  for(uint i = 0; i < reviewRequests[_name].reviews.length; i++) {... */\n      iszero\n      tag_285\n      jumpi\n        /* \"contracts/DeresyRequests.sol\":6238:6249  targetIndex */\n      dup4\n        /* \"contracts/DeresyRequests.sol\":6190:6249  reviewRequests[_name].reviews[i].targetIndex == targetIndex */\n      0xff\n      and\n        /* \"contracts/DeresyRequests.sol\":6190:6204  reviewRequests */\n      0x00\n        /* \"contracts/DeresyRequests.sol\":6205:6210  _name */\n      dup7\n        /* \"contracts/DeresyRequests.sol\":6190:6211  reviewRequests[_name] */\n      mload(0x40)\n      tag_288\n      swap2\n      swap1\n      tag_87\n      jump\t// in\n    tag_288:\n      swap1\n      dup2\n      mstore\n      0x20\n      add\n      mload(0x40)\n      dup1\n      swap2\n      sub\n      swap1\n      keccak256\n        /* \"contracts/DeresyRequests.sol\":6190:6219  reviewRequests[_name].reviews */\n      0x06\n      add\n        /* \"contracts/DeresyRequests.sol\":6220:6221  i */\n      dup3\n        /* \"contracts/DeresyRequests.sol\":6190:6222  reviewRequests[_name].reviews[i] */\n      dup2\n      sload\n      dup2\n      lt\n      tag_289\n      jumpi\n      tag_290\n      tag_98\n      jump\t// in\n    tag_290:\n    tag_289:\n      swap1\n      0x00\n      mstore\n      keccak256(0x00, 0x20)\n      swap1\n      0x02\n      mul\n      add\n        /* \"contracts/DeresyRequests.sol\":6190:6234  reviewRequests[_name].reviews[i].targetIndex */\n      0x00\n      add\n      0x14\n      swap1\n      sload\n      swap1\n      0x0100\n      exp\n      swap1\n      div\n      0xff\n      and\n        /* \"contracts/DeresyRequests.sol\":6190:6249  reviewRequests[_name].reviews[i].targetIndex == targetIndex */\n      0xff\n      and\n      eq\n        /* \"contracts/DeresyRequests.sol\":6190:6313  reviewRequests[_name].reviews[i].targetIndex == targetIndex && reviewRequests[_name].reviews[i].reviewer == reviewerAddress */\n      dup1\n      iszero\n      tag_292\n      jumpi\n      pop\n        /* \"contracts/DeresyRequests.sol\":6298:6313  reviewerAddress */\n      dup6\n        /* \"contracts/DeresyRequests.sol\":6253:6313  reviewRequests[_name].reviews[i].reviewer == reviewerAddress */\n      0xffffffffffffffffffffffffffffffffffffffff\n      and\n        /* \"contracts/DeresyRequests.sol\":6253:6267  reviewRequests */\n      0x00\n        /* \"contracts/DeresyRequests.sol\":6268:6273  _name */\n      dup7\n        /* \"contracts/DeresyRequests.sol\":6253:6274  reviewRequests[_name] */\n      mload(0x40)\n      tag_293\n      swap2\n      swap1\n      tag_87\n      jump\t// in\n    tag_293:\n      swap1\n      dup2\n      mstore\n      0x20\n      add\n      mload(0x40)\n      dup1\n      swap2\n      sub\n      swap1\n      keccak256\n        /* \"contracts/DeresyRequests.sol\":6253:6282  reviewRequests[_name].reviews */\n      0x06\n      add\n        /* \"contracts/DeresyRequests.sol\":6283:6284  i */\n      dup3\n        /* \"contracts/DeresyRequests.sol\":6253:6285  reviewRequests[_name].reviews[i] */\n      dup2\n      sload\n      dup2\n      lt\n      tag_294\n      jumpi\n      tag_295\n      tag_98\n      jump\t// in\n    tag_295:\n    tag_294:\n      swap1\n      0x00\n      mstore\n      keccak256(0x00, 0x20)\n      swap1\n      0x02\n      mul\n      add\n        /* \"contracts/DeresyRequests.sol\":6253:6294  reviewRequests[_name].reviews[i].reviewer */\n      0x00\n      add\n      0x00\n      swap1\n      sload\n      swap1\n      0x0100\n      exp\n      swap1\n      div\n      0xffffffffffffffffffffffffffffffffffffffff\n      and\n        /* \"contracts/DeresyRequests.sol\":6253:6313  reviewRequests[_name].reviews[i].reviewer == reviewerAddress */\n      0xffffffffffffffffffffffffffffffffffffffff\n      and\n      eq\n        /* \"contracts/DeresyRequests.sol\":6190:6313  reviewRequests[_name].reviews[i].targetIndex == targetIndex && reviewRequests[_name].reviews[i].reviewer == reviewerAddress */\n    tag_292:\n        /* \"contracts/DeresyRequests.sol\":6187:6353  if(reviewRequests[_name].reviews[i].targetIndex == targetIndex && reviewRequests[_name].reviews[i].reviewer == reviewerAddress) {... */\n      iszero\n      tag_297\n      jumpi\n        /* \"contracts/DeresyRequests.sol\":6339:6344  false */\n      0x00\n        /* \"contracts/DeresyRequests.sol\":6325:6344  notReviewed = false */\n      swap2\n      pop\n        /* \"contracts/DeresyRequests.sol\":6187:6353  if(reviewRequests[_name].reviews[i].targetIndex == targetIndex && reviewRequests[_name].reviews[i].reviewer == reviewerAddress) {... */\n    tag_297:\n        /* \"contracts/DeresyRequests.sol\":6174:6177  i++ */\n      dup1\n      dup1\n      tag_298\n      swap1\n      tag_282\n      jump\t// in\n    tag_298:\n      swap2\n      pop\n      pop\n        /* \"contracts/DeresyRequests.sol\":6116:6359  for(uint i = 0; i < reviewRequests[_name].reviews.length; i++) {... */\n      jump(tag_284)\n    tag_285:\n      pop\n        /* \"contracts/DeresyRequests.sol\":6371:6382  notReviewed */\n      dup1\n        /* \"contracts/DeresyRequests.sol\":6364:6382  return notReviewed */\n      swap2\n      pop\n      pop\n        /* \"contracts/DeresyRequests.sol\":5959:6387  function hasSubmittedReview(address reviewerAddress, string memory _name, uint8 targetIndex) internal view returns (bool) {... */\n      swap4\n      swap3\n      pop\n      pop\n      pop\n      jump\t// out\n    tag_75:\n      dup3\n      dup1\n      sload\n      dup3\n      dup3\n      sstore\n      swap1\n      0x00\n      mstore\n      keccak256(0x00, 0x20)\n      swap1\n      dup2\n      add\n      swap3\n      dup3\n      iszero\n      tag_299\n      jumpi\n      swap2\n      0x20\n      mul\n      dup3\n      add\n    tag_300:\n      dup3\n      dup2\n      gt\n      iszero\n      tag_301\n      jumpi\n      dup3\n      mload\n      dup3\n      swap1\n      dup1\n      mload\n      swap1\n      0x20\n      add\n      swap1\n      tag_302\n      swap3\n      swap2\n      swap1\n      tag_254\n      jump\t// in\n    tag_302:\n      pop\n      swap2\n      0x20\n      add\n      swap2\n      swap1\n      0x01\n      add\n      swap1\n      jump(tag_300)\n    tag_301:\n    tag_299:\n      pop\n      swap1\n      pop\n      tag_303\n      swap2\n      swap1\n      tag_304\n      jump\t// in\n    tag_303:\n      pop\n      swap1\n      jump\t// out\n    tag_77:\n      dup3\n      dup1\n      sload\n      dup3\n      dup3\n      sstore\n      swap1\n      0x00\n      mstore\n      keccak256(0x00, 0x20)\n      swap1\n      0x1f\n      add\n      0x20\n      swap1\n      div\n      dup2\n      add\n      swap3\n      dup3\n      iszero\n      tag_305\n      jumpi\n      swap2\n      0x20\n      mul\n      dup3\n      add\n      0x00\n    tag_306:\n      dup4\n      dup3\n      gt\n      iszero\n      tag_307\n      jumpi\n      dup4\n      mload\n      dup4\n      dup3\n      0x0100\n      exp\n      dup2\n      sload\n      dup2\n      0xff\n      mul\n      not\n      and\n      swap1\n      dup4\n      0x02\n      dup2\n      gt\n      iszero\n      tag_308\n      jumpi\n      tag_309\n      tag_187\n      jump\t// in\n    tag_309:\n    tag_308:\n      mul\n      or\n      swap1\n      sstore\n      pop\n      swap3\n      0x20\n      add\n      swap3\n      0x01\n      add\n      0x20\n      dup2\n      0x00\n      add\n      div\n      swap3\n      dup4\n      add\n      swap3\n      0x01\n      sub\n      mul\n      jump(tag_306)\n    tag_307:\n      dup1\n      iszero\n      tag_310\n      jumpi\n      dup3\n      dup2\n      0x0100\n      exp\n      dup2\n      sload\n      swap1\n      0xff\n      mul\n      not\n      and\n      swap1\n      sstore\n      0x01\n      add\n      0x20\n      dup2\n      0x00\n      add\n      div\n      swap3\n      dup4\n      add\n      swap3\n      0x01\n      sub\n      mul\n      jump(tag_307)\n    tag_310:\n      pop\n    tag_305:\n      pop\n      swap1\n      pop\n      tag_311\n      swap2\n      swap1\n      tag_312\n      jump\t// in\n    tag_311:\n      pop\n      swap1\n      jump\t// out\n    tag_79:\n      dup3\n      dup1\n      sload\n      dup3\n      dup3\n      sstore\n      swap1\n      0x00\n      mstore\n      keccak256(0x00, 0x20)\n      swap1\n      dup2\n      add\n      swap3\n      dup3\n      iszero\n      tag_313\n      jumpi\n      swap2\n      0x20\n      mul\n      dup3\n      add\n    tag_314:\n      dup3\n      dup2\n      gt\n      iszero\n      tag_315\n      jumpi\n      dup3\n      mload\n      dup3\n      swap1\n      dup1\n      mload\n      swap1\n      0x20\n      add\n      swap1\n      tag_316\n      swap3\n      swap2\n      swap1\n      tag_75\n      jump\t// in\n    tag_316:\n      pop\n      swap2\n      0x20\n      add\n      swap2\n      swap1\n      0x01\n      add\n      swap1\n      jump(tag_314)\n    tag_315:\n    tag_313:\n      pop\n      swap1\n      pop\n      tag_317\n      swap2\n      swap1\n      tag_318\n      jump\t// in\n    tag_317:\n      pop\n      swap1\n      jump\t// out\n    tag_247:\n      dup3\n      dup1\n      sload\n      dup3\n      dup3\n      sstore\n      swap1\n      0x00\n      mstore\n      keccak256(0x00, 0x20)\n      swap1\n      dup2\n      add\n      swap3\n      dup3\n      iszero\n      tag_319\n      jumpi\n      swap2\n      0x20\n      mul\n      dup3\n      add\n    tag_320:\n      dup3\n      dup2\n      gt\n      iszero\n      tag_321\n      jumpi\n      dup3\n      mload\n      dup3\n      exp(0x0100, 0x00)\n      dup2\n      sload\n      dup2\n      0xffffffffffffffffffffffffffffffffffffffff\n      mul\n      not\n      and\n      swap1\n      dup4\n      0xffffffffffffffffffffffffffffffffffffffff\n      and\n      mul\n      or\n      swap1\n      sstore\n      pop\n      swap2\n      0x20\n      add\n      swap2\n      swap1\n      0x01\n      add\n      swap1\n      jump(tag_320)\n    tag_321:\n    tag_319:\n      pop\n      swap1\n      pop\n      tag_322\n      swap2\n      swap1\n      tag_312\n      jump\t// in\n    tag_322:\n      pop\n      swap1\n      jump\t// out\n    tag_254:\n      dup3\n      dup1\n      sload\n      tag_323\n      swap1\n      tag_131\n      jump\t// in\n    tag_323:\n      swap1\n      0x00\n      mstore\n      keccak256(0x00, 0x20)\n      swap1\n      0x1f\n      add\n      0x20\n      swap1\n      div\n      dup2\n      add\n      swap3\n      dup3\n      tag_325\n      jumpi\n      0x00\n      dup6\n      sstore\n      jump(tag_324)\n    tag_325:\n      dup3\n      0x1f\n      lt\n      tag_326\n      jumpi\n      dup1\n      mload\n      not(0xff)\n      and\n      dup4\n      dup1\n      add\n      or\n      dup6\n      sstore\n      jump(tag_324)\n    tag_326:\n      dup3\n      dup1\n      add\n      0x01\n      add\n      dup6\n      sstore\n      dup3\n      iszero\n      tag_324\n      jumpi\n      swap2\n      dup3\n      add\n    tag_327:\n      dup3\n      dup2\n      gt\n      iszero\n      tag_328\n      jumpi\n      dup3\n      mload\n      dup3\n      sstore\n      swap2\n      0x20\n      add\n      swap2\n      swap1\n      0x01\n      add\n      swap1\n      jump(tag_327)\n    tag_328:\n    tag_324:\n      pop\n      swap1\n      pop\n      tag_329\n      swap2\n      swap1\n      tag_312\n      jump\t// in\n    tag_329:\n      pop\n      swap1\n      jump\t// out\n    tag_304:\n    tag_330:\n      dup1\n      dup3\n      gt\n      iszero\n      tag_331\n      jumpi\n      0x00\n      dup2\n      dup2\n      tag_332\n      swap2\n      swap1\n      tag_333\n      jump\t// in\n    tag_332:\n      pop\n      0x01\n      add\n      jump(tag_330)\n    tag_331:\n      pop\n      swap1\n      jump\t// out\n    tag_312:\n    tag_334:\n      dup1\n      dup3\n      gt\n      iszero\n      tag_335\n      jumpi\n      0x00\n      dup2\n      0x00\n      swap1\n      sstore\n      pop\n      0x01\n      add\n      jump(tag_334)\n    tag_335:\n      pop\n      swap1\n      jump\t// out\n    tag_318:\n    tag_336:\n      dup1\n      dup3\n      gt\n      iszero\n      tag_337\n      jumpi\n      0x00\n      dup2\n      dup2\n      tag_338\n      swap2\n      swap1\n      tag_339\n      jump\t// in\n    tag_338:\n      pop\n      0x01\n      add\n      jump(tag_336)\n    tag_337:\n      pop\n      swap1\n      jump\t// out\n    tag_333:\n      pop\n      dup1\n      sload\n      tag_340\n      swap1\n      tag_131\n      jump\t// in\n    tag_340:\n      0x00\n      dup3\n      sstore\n      dup1\n      0x1f\n      lt\n      tag_342\n      jumpi\n      pop\n      jump(tag_341)\n    tag_342:\n      0x1f\n      add\n      0x20\n      swap1\n      div\n      swap1\n      0x00\n      mstore\n      keccak256(0x00, 0x20)\n      swap1\n      dup2\n      add\n      swap1\n      tag_343\n      swap2\n      swap1\n      tag_312\n      jump\t// in\n    tag_343:\n    tag_341:\n      pop\n      jump\t// out\n    tag_339:\n      pop\n      dup1\n      sload\n      0x00\n      dup3\n      sstore\n      swap1\n      0x00\n      mstore\n      keccak256(0x00, 0x20)\n      swap1\n      dup2\n      add\n      swap1\n      tag_345\n      swap2\n      swap1\n      tag_304\n      jump\t// in\n    tag_345:\n      pop\n      jump\t// out\n        /* \"#utility.yul\":7:82   */\n    tag_346:\n        /* \"#utility.yul\":40:46   */\n      0x00\n        /* \"#utility.yul\":73:75   */\n      0x40\n        /* \"#utility.yul\":67:76   */\n      mload\n        /* \"#utility.yul\":57:76   */\n      swap1\n      pop\n        /* \"#utility.yul\":7:82   */\n      swap1\n      jump\t// out\n        /* \"#utility.yul\":88:205   */\n    tag_347:\n        /* \"#utility.yul\":197:198   */\n      0x00\n        /* \"#utility.yul\":194:195   */\n      dup1\n        /* \"#utility.yul\":187:199   */\n      revert\n        /* \"#utility.yul\":211:328   */\n    tag_348:\n        /* \"#utility.yul\":320:321   */\n      0x00\n        /* \"#utility.yul\":317:318   */\n      dup1\n        /* \"#utility.yul\":310:322   */\n      revert\n        /* \"#utility.yul\":334:451   */\n    tag_349:\n        /* \"#utility.yul\":443:444   */\n      0x00\n        /* \"#utility.yul\":440:441   */\n      dup1\n        /* \"#utility.yul\":433:445   */\n      revert\n        /* \"#utility.yul\":457:559   */\n    tag_350:\n        /* \"#utility.yul\":498:504   */\n      0x00\n        /* \"#utility.yul\":549:551   */\n      0x1f\n        /* \"#utility.yul\":545:552   */\n      not\n        /* \"#utility.yul\":540:542   */\n      0x1f\n        /* \"#utility.yul\":533:538   */\n      dup4\n        /* \"#utility.yul\":529:543   */\n      add\n        /* \"#utility.yul\":525:553   */\n      and\n        /* \"#utility.yul\":515:553   */\n      swap1\n      pop\n        /* \"#utility.yul\":457:559   */\n      swap2\n      swap1\n      pop\n      jump\t// out\n        /* \"#utility.yul\":565:745   */\n    tag_351:\n        /* \"#utility.yul\":613:690   */\n      0x4e487b7100000000000000000000000000000000000000000000000000000000\n        /* \"#utility.yul\":610:611   */\n      0x00\n        /* \"#utility.yul\":603:691   */\n      mstore\n        /* \"#utility.yul\":710:714   */\n      0x41\n        /* \"#utility.yul\":707:708   */\n      0x04\n        /* \"#utility.yul\":700:715   */\n      mstore\n        /* \"#utility.yul\":734:738   */\n      0x24\n        /* \"#utility.yul\":731:732   */\n      0x00\n        /* \"#utility.yul\":724:739   */\n      revert\n        /* \"#utility.yul\":751:1032   */\n    tag_352:\n        /* \"#utility.yul\":834:861   */\n      tag_480\n        /* \"#utility.yul\":856:860   */\n      dup3\n        /* \"#utility.yul\":834:861   */\n      tag_350\n      jump\t// in\n    tag_480:\n        /* \"#utility.yul\":826:832   */\n      dup2\n        /* \"#utility.yul\":822:862   */\n      add\n        /* \"#utility.yul\":964:970   */\n      dup2\n        /* \"#utility.yul\":952:962   */\n      dup2\n        /* \"#utility.yul\":949:971   */\n      lt\n        /* \"#utility.yul\":928:946   */\n      0xffffffffffffffff\n        /* \"#utility.yul\":916:926   */\n      dup3\n        /* \"#utility.yul\":913:947   */\n      gt\n        /* \"#utility.yul\":910:972   */\n      or\n        /* \"#utility.yul\":907:995   */\n      iszero\n      tag_481\n      jumpi\n        /* \"#utility.yul\":975:993   */\n      tag_482\n      tag_351\n      jump\t// in\n    tag_482:\n        /* \"#utility.yul\":907:995   */\n    tag_481:\n        /* \"#utility.yul\":1015:1025   */\n      dup1\n        /* \"#utility.yul\":1011:1013   */\n      0x40\n        /* \"#utility.yul\":1004:1026   */\n      mstore\n        /* \"#utility.yul\":794:1032   */\n      pop\n        /* \"#utility.yul\":751:1032   */\n      pop\n      pop\n      jump\t// out\n        /* \"#utility.yul\":1038:1167   */\n    tag_353:\n        /* \"#utility.yul\":1072:1078   */\n      0x00\n        /* \"#utility.yul\":1099:1119   */\n      tag_484\n      tag_346\n      jump\t// in\n    tag_484:\n        /* \"#utility.yul\":1089:1119   */\n      swap1\n      pop\n        /* \"#utility.yul\":1128:1161   */\n      tag_485\n        /* \"#utility.yul\":1156:1160   */\n      dup3\n        /* \"#utility.yul\":1148:1154   */\n      dup3\n        /* \"#utility.yul\":1128:1161   */\n      tag_352\n      jump\t// in\n    tag_485:\n        /* \"#utility.yul\":1038:1167   */\n      swap2\n      swap1\n      pop\n      jump\t// out\n        /* \"#utility.yul\":1173:1494   */\n    tag_354:\n        /* \"#utility.yul\":1260:1264   */\n      0x00\n        /* \"#utility.yul\":1350:1368   */\n      0xffffffffffffffff\n        /* \"#utility.yul\":1342:1348   */\n      dup3\n        /* \"#utility.yul\":1339:1369   */\n      gt\n        /* \"#utility.yul\":1336:1392   */\n      iszero\n      tag_487\n      jumpi\n        /* \"#utility.yul\":1372:1390   */\n      tag_488\n      tag_351\n      jump\t// in\n    tag_488:\n        /* \"#utility.yul\":1336:1392   */\n    tag_487:\n        /* \"#utility.yul\":1422:1426   */\n      0x20\n        /* \"#utility.yul\":1414:1420   */\n      dup3\n        /* \"#utility.yul\":1410:1427   */\n      mul\n        /* \"#utility.yul\":1402:1427   */\n      swap1\n      pop\n        /* \"#utility.yul\":1482:1486   */\n      0x20\n        /* \"#utility.yul\":1476:1480   */\n      dup2\n        /* \"#utility.yul\":1472:1487   */\n      add\n        /* \"#utility.yul\":1464:1487   */\n      swap1\n      pop\n        /* \"#utility.yul\":1173:1494   */\n      swap2\n      swap1\n      pop\n      jump\t// out\n        /* \"#utility.yul\":1500:1617   */\n    tag_355:\n        /* \"#utility.yul\":1609:1610   */\n      0x00\n        /* \"#utility.yul\":1606:1607   */\n      dup1\n        /* \"#utility.yul\":1599:1611   */\n      revert\n        /* \"#utility.yul\":1623:1740   */\n    tag_356:\n        /* \"#utility.yul\":1732:1733   */\n      0x00\n        /* \"#utility.yul\":1729:1730   */\n      dup1\n        /* \"#utility.yul\":1722:1734   */\n      revert\n        /* \"#utility.yul\":1746:2054   */\n    tag_357:\n        /* \"#utility.yul\":1808:1812   */\n      0x00\n        /* \"#utility.yul\":1898:1916   */\n      0xffffffffffffffff\n        /* \"#utility.yul\":1890:1896   */\n      dup3\n        /* \"#utility.yul\":1887:1917   */\n      gt\n        /* \"#utility.yul\":1884:1940   */\n      iszero\n      tag_492\n      jumpi\n        /* \"#utility.yul\":1920:1938   */\n      tag_493\n      tag_351\n      jump\t// in\n    tag_493:\n        /* \"#utility.yul\":1884:1940   */\n    tag_492:\n        /* \"#utility.yul\":1958:1987   */\n      tag_494\n        /* \"#utility.yul\":1980:1986   */\n      dup3\n        /* \"#utility.yul\":1958:1987   */\n      tag_350\n      jump\t// in\n    tag_494:\n        /* \"#utility.yul\":1950:1987   */\n      swap1\n      pop\n        /* \"#utility.yul\":2042:2046   */\n      0x20\n        /* \"#utility.yul\":2036:2040   */\n      dup2\n        /* \"#utility.yul\":2032:2047   */\n      add\n        /* \"#utility.yul\":2024:2047   */\n      swap1\n      pop\n        /* \"#utility.yul\":1746:2054   */\n      swap2\n      swap1\n      pop\n      jump\t// out\n        /* \"#utility.yul\":2060:2214   */\n    tag_358:\n        /* \"#utility.yul\":2144:2150   */\n      dup3\n        /* \"#utility.yul\":2139:2142   */\n      dup2\n        /* \"#utility.yul\":2134:2137   */\n      dup4\n        /* \"#utility.yul\":2121:2151   */\n      calldatacopy\n        /* \"#utility.yul\":2206:2207   */\n      0x00\n        /* \"#utility.yul\":2197:2203   */\n      dup4\n        /* \"#utility.yul\":2192:2195   */\n      dup4\n        /* \"#utility.yul\":2188:2204   */\n      add\n        /* \"#utility.yul\":2181:2208   */\n      mstore\n        /* \"#utility.yul\":2060:2214   */\n      pop\n      pop\n      pop\n      jump\t// out\n        /* \"#utility.yul\":2220:2632   */\n    tag_359:\n        /* \"#utility.yul\":2298:2303   */\n      0x00\n        /* \"#utility.yul\":2323:2389   */\n      tag_497\n        /* \"#utility.yul\":2339:2388   */\n      tag_498\n        /* \"#utility.yul\":2381:2387   */\n      dup5\n        /* \"#utility.yul\":2339:2388   */\n      tag_357\n      jump\t// in\n    tag_498:\n        /* \"#utility.yul\":2323:2389   */\n      tag_353\n      jump\t// in\n    tag_497:\n        /* \"#utility.yul\":2314:2389   */\n      swap1\n      pop\n        /* \"#utility.yul\":2412:2418   */\n      dup3\n        /* \"#utility.yul\":2405:2410   */\n      dup2\n        /* \"#utility.yul\":2398:2419   */\n      mstore\n        /* \"#utility.yul\":2450:2454   */\n      0x20\n        /* \"#utility.yul\":2443:2448   */\n      dup2\n        /* \"#utility.yul\":2439:2455   */\n      add\n        /* \"#utility.yul\":2488:2491   */\n      dup5\n        /* \"#utility.yul\":2479:2485   */\n      dup5\n        /* \"#utility.yul\":2474:2477   */\n      dup5\n        /* \"#utility.yul\":2470:2486   */\n      add\n        /* \"#utility.yul\":2467:2492   */\n      gt\n        /* \"#utility.yul\":2464:2576   */\n      iszero\n      tag_499\n      jumpi\n        /* \"#utility.yul\":2495:2574   */\n      tag_500\n      tag_356\n      jump\t// in\n    tag_500:\n        /* \"#utility.yul\":2464:2576   */\n    tag_499:\n        /* \"#utility.yul\":2585:2626   */\n      tag_501\n        /* \"#utility.yul\":2619:2625   */\n      dup5\n        /* \"#utility.yul\":2614:2617   */\n      dup3\n        /* \"#utility.yul\":2609:2612   */\n      dup6\n        /* \"#utility.yul\":2585:2626   */\n      tag_358\n      jump\t// in\n    tag_501:\n        /* \"#utility.yul\":2304:2632   */\n      pop\n        /* \"#utility.yul\":2220:2632   */\n      swap4\n      swap3\n      pop\n      pop\n      pop\n      jump\t// out\n        /* \"#utility.yul\":2652:2992   */\n    tag_360:\n        /* \"#utility.yul\":2708:2713   */\n      0x00\n        /* \"#utility.yul\":2757:2760   */\n      dup3\n        /* \"#utility.yul\":2750:2754   */\n      0x1f\n        /* \"#utility.yul\":2742:2748   */\n      dup4\n        /* \"#utility.yul\":2738:2755   */\n      add\n        /* \"#utility.yul\":2734:2761   */\n      slt\n        /* \"#utility.yul\":2724:2846   */\n      tag_503\n      jumpi\n        /* \"#utility.yul\":2765:2844   */\n      tag_504\n      tag_349\n      jump\t// in\n    tag_504:\n        /* \"#utility.yul\":2724:2846   */\n    tag_503:\n        /* \"#utility.yul\":2882:2888   */\n      dup2\n        /* \"#utility.yul\":2869:2889   */\n      calldataload\n        /* \"#utility.yul\":2907:2986   */\n      tag_505\n        /* \"#utility.yul\":2982:2985   */\n      dup5\n        /* \"#utility.yul\":2974:2980   */\n      dup3\n        /* \"#utility.yul\":2967:2971   */\n      0x20\n        /* \"#utility.yul\":2959:2965   */\n      dup7\n        /* \"#utility.yul\":2955:2972   */\n      add\n        /* \"#utility.yul\":2907:2986   */\n      tag_359\n      jump\t// in\n    tag_505:\n        /* \"#utility.yul\":2898:2986   */\n      swap2\n      pop\n        /* \"#utility.yul\":2714:2992   */\n      pop\n        /* \"#utility.yul\":2652:2992   */\n      swap3\n      swap2\n      pop\n      pop\n      jump\t// out\n        /* \"#utility.yul\":3014:3959   */\n    tag_361:\n        /* \"#utility.yul\":3120:3125   */\n      0x00\n        /* \"#utility.yul\":3145:3236   */\n      tag_507\n        /* \"#utility.yul\":3161:3235   */\n      tag_508\n        /* \"#utility.yul\":3228:3234   */\n      dup5\n        /* \"#utility.yul\":3161:3235   */\n      tag_354\n      jump\t// in\n    tag_508:\n        /* \"#utility.yul\":3145:3236   */\n      tag_353\n      jump\t// in\n    tag_507:\n        /* \"#utility.yul\":3136:3236   */\n      swap1\n      pop\n        /* \"#utility.yul\":3256:3261   */\n      dup1\n        /* \"#utility.yul\":3285:3291   */\n      dup4\n        /* \"#utility.yul\":3278:3283   */\n      dup3\n        /* \"#utility.yul\":3271:3292   */\n      mstore\n        /* \"#utility.yul\":3319:3323   */\n      0x20\n        /* \"#utility.yul\":3312:3317   */\n      dup3\n        /* \"#utility.yul\":3308:3324   */\n      add\n        /* \"#utility.yul\":3301:3324   */\n      swap1\n      pop\n        /* \"#utility.yul\":3372:3376   */\n      0x20\n        /* \"#utility.yul\":3364:3370   */\n      dup5\n        /* \"#utility.yul\":3360:3377   */\n      mul\n        /* \"#utility.yul\":3352:3358   */\n      dup4\n        /* \"#utility.yul\":3348:3378   */\n      add\n        /* \"#utility.yul\":3401:3404   */\n      dup6\n        /* \"#utility.yul\":3393:3399   */\n      dup2\n        /* \"#utility.yul\":3390:3405   */\n      gt\n        /* \"#utility.yul\":3387:3509   */\n      iszero\n      tag_509\n      jumpi\n        /* \"#utility.yul\":3420:3499   */\n      tag_510\n      tag_355\n      jump\t// in\n    tag_510:\n        /* \"#utility.yul\":3387:3509   */\n    tag_509:\n        /* \"#utility.yul\":3535:3541   */\n      dup4\n        /* \"#utility.yul\":3518:3953   */\n    tag_511:\n        /* \"#utility.yul\":3552:3558   */\n      dup2\n        /* \"#utility.yul\":3547:3550   */\n      dup2\n        /* \"#utility.yul\":3544:3559   */\n      lt\n        /* \"#utility.yul\":3518:3953   */\n      iszero\n      tag_513\n      jumpi\n        /* \"#utility.yul\":3641:3644   */\n      dup1\n        /* \"#utility.yul\":3628:3645   */\n      calldataload\n        /* \"#utility.yul\":3677:3695   */\n      0xffffffffffffffff\n        /* \"#utility.yul\":3664:3675   */\n      dup2\n        /* \"#utility.yul\":3661:3696   */\n      gt\n        /* \"#utility.yul\":3658:3780   */\n      iszero\n      tag_514\n      jumpi\n        /* \"#utility.yul\":3699:3778   */\n      tag_515\n      tag_349\n      jump\t// in\n    tag_515:\n        /* \"#utility.yul\":3658:3780   */\n    tag_514:\n        /* \"#utility.yul\":3823:3834   */\n      dup1\n        /* \"#utility.yul\":3815:3821   */\n      dup7\n        /* \"#utility.yul\":3811:3835   */\n      add\n        /* \"#utility.yul\":3861:3908   */\n      tag_516\n        /* \"#utility.yul\":3904:3907   */\n      dup10\n        /* \"#utility.yul\":3892:3902   */\n      dup3\n        /* \"#utility.yul\":3861:3908   */\n      tag_360\n      jump\t// in\n    tag_516:\n        /* \"#utility.yul\":3856:3859   */\n      dup6\n        /* \"#utility.yul\":3849:3909   */\n      mstore\n        /* \"#utility.yul\":3938:3942   */\n      0x20\n        /* \"#utility.yul\":3933:3936   */\n      dup6\n        /* \"#utility.yul\":3929:3943   */\n      add\n        /* \"#utility.yul\":3922:3943   */\n      swap5\n      pop\n        /* \"#utility.yul\":3594:3953   */\n      pop\n      pop\n        /* \"#utility.yul\":3578:3582   */\n      0x20\n        /* \"#utility.yul\":3573:3576   */\n      dup2\n        /* \"#utility.yul\":3569:3583   */\n      add\n        /* \"#utility.yul\":3562:3583   */\n      swap1\n      pop\n        /* \"#utility.yul\":3518:3953   */\n      jump(tag_511)\n    tag_513:\n        /* \"#utility.yul\":3522:3543   */\n      pop\n        /* \"#utility.yul\":3126:3959   */\n      pop\n      pop\n        /* \"#utility.yul\":3014:3959   */\n      swap4\n      swap3\n      pop\n      pop\n      pop\n      jump\t// out\n        /* \"#utility.yul\":3981:4371   */\n    tag_362:\n        /* \"#utility.yul\":4062:4067   */\n      0x00\n        /* \"#utility.yul\":4111:4114   */\n      dup3\n        /* \"#utility.yul\":4104:4108   */\n      0x1f\n        /* \"#utility.yul\":4096:4102   */\n      dup4\n        /* \"#utility.yul\":4092:4109   */\n      add\n        /* \"#utility.yul\":4088:4115   */\n      slt\n        /* \"#utility.yul\":4078:4200   */\n      tag_518\n      jumpi\n        /* \"#utility.yul\":4119:4198   */\n      tag_519\n      tag_349\n      jump\t// in\n    tag_519:\n        /* \"#utility.yul\":4078:4200   */\n    tag_518:\n        /* \"#utility.yul\":4236:4242   */\n      dup2\n        /* \"#utility.yul\":4223:4243   */\n      calldataload\n        /* \"#utility.yul\":4261:4365   */\n      tag_520\n        /* \"#utility.yul\":4361:4364   */\n      dup5\n        /* \"#utility.yul\":4353:4359   */\n      dup3\n        /* \"#utility.yul\":4346:4350   */\n      0x20\n        /* \"#utility.yul\":4338:4344   */\n      dup7\n        /* \"#utility.yul\":4334:4351   */\n      add\n        /* \"#utility.yul\":4261:4365   */\n      tag_361\n      jump\t// in\n    tag_520:\n        /* \"#utility.yul\":4252:4365   */\n      swap2\n      pop\n        /* \"#utility.yul\":4068:4371   */\n      pop\n        /* \"#utility.yul\":3981:4371   */\n      swap3\n      swap2\n      pop\n      pop\n      jump\t// out\n        /* \"#utility.yul\":4377:4723   */\n    tag_363:\n        /* \"#utility.yul\":4489:4493   */\n      0x00\n        /* \"#utility.yul\":4579:4597   */\n      0xffffffffffffffff\n        /* \"#utility.yul\":4571:4577   */\n      dup3\n        /* \"#utility.yul\":4568:4598   */\n      gt\n        /* \"#utility.yul\":4565:4621   */\n      iszero\n      tag_522\n      jumpi\n        /* \"#utility.yul\":4601:4619   */\n      tag_523\n      tag_351\n      jump\t// in\n    tag_523:\n        /* \"#utility.yul\":4565:4621   */\n    tag_522:\n        /* \"#utility.yul\":4651:4655   */\n      0x20\n        /* \"#utility.yul\":4643:4649   */\n      dup3\n        /* \"#utility.yul\":4639:4656   */\n      mul\n        /* \"#utility.yul\":4631:4656   */\n      swap1\n      pop\n        /* \"#utility.yul\":4711:4715   */\n      0x20\n        /* \"#utility.yul\":4705:4709   */\n      dup2\n        /* \"#utility.yul\":4701:4716   */\n      add\n        /* \"#utility.yul\":4693:4716   */\n      swap1\n      pop\n        /* \"#utility.yul\":4377:4723   */\n      swap2\n      swap1\n      pop\n      jump\t// out\n        /* \"#utility.yul\":4747:5767   */\n    tag_364:\n        /* \"#utility.yul\":4878:4883   */\n      0x00\n        /* \"#utility.yul\":4903:5019   */\n      tag_525\n        /* \"#utility.yul\":4919:5018   */\n      tag_526\n        /* \"#utility.yul\":5011:5017   */\n      dup5\n        /* \"#utility.yul\":4919:5018   */\n      tag_363\n      jump\t// in\n    tag_526:\n        /* \"#utility.yul\":4903:5019   */\n      tag_353\n      jump\t// in\n    tag_525:\n        /* \"#utility.yul\":4894:5019   */\n      swap1\n      pop\n        /* \"#utility.yul\":5039:5044   */\n      dup1\n        /* \"#utility.yul\":5068:5074   */\n      dup4\n        /* \"#utility.yul\":5061:5066   */\n      dup3\n        /* \"#utility.yul\":5054:5075   */\n      mstore\n        /* \"#utility.yul\":5102:5106   */\n      0x20\n        /* \"#utility.yul\":5095:5100   */\n      dup3\n        /* \"#utility.yul\":5091:5107   */\n      add\n        /* \"#utility.yul\":5084:5107   */\n      swap1\n      pop\n        /* \"#utility.yul\":5155:5159   */\n      0x20\n        /* \"#utility.yul\":5147:5153   */\n      dup5\n        /* \"#utility.yul\":5143:5160   */\n      mul\n        /* \"#utility.yul\":5135:5141   */\n      dup4\n        /* \"#utility.yul\":5131:5161   */\n      add\n        /* \"#utility.yul\":5184:5187   */\n      dup6\n        /* \"#utility.yul\":5176:5182   */\n      dup2\n        /* \"#utility.yul\":5173:5188   */\n      gt\n        /* \"#utility.yul\":5170:5292   */\n      iszero\n      tag_527\n      jumpi\n        /* \"#utility.yul\":5203:5282   */\n      tag_528\n      tag_355\n      jump\t// in\n    tag_528:\n        /* \"#utility.yul\":5170:5292   */\n    tag_527:\n        /* \"#utility.yul\":5318:5324   */\n      dup4\n        /* \"#utility.yul\":5301:5761   */\n    tag_529:\n        /* \"#utility.yul\":5335:5341   */\n      dup2\n        /* \"#utility.yul\":5330:5333   */\n      dup2\n        /* \"#utility.yul\":5327:5342   */\n      lt\n        /* \"#utility.yul\":5301:5761   */\n      iszero\n      tag_531\n      jumpi\n        /* \"#utility.yul\":5424:5427   */\n      dup1\n        /* \"#utility.yul\":5411:5428   */\n      calldataload\n        /* \"#utility.yul\":5460:5478   */\n      0xffffffffffffffff\n        /* \"#utility.yul\":5447:5458   */\n      dup2\n        /* \"#utility.yul\":5444:5479   */\n      gt\n        /* \"#utility.yul\":5441:5563   */\n      iszero\n      tag_532\n      jumpi\n        /* \"#utility.yul\":5482:5561   */\n      tag_533\n      tag_349\n      jump\t// in\n    tag_533:\n        /* \"#utility.yul\":5441:5563   */\n    tag_532:\n        /* \"#utility.yul\":5606:5617   */\n      dup1\n        /* \"#utility.yul\":5598:5604   */\n      dup7\n        /* \"#utility.yul\":5594:5618   */\n      add\n        /* \"#utility.yul\":5644:5716   */\n      tag_534\n        /* \"#utility.yul\":5712:5715   */\n      dup10\n        /* \"#utility.yul\":5700:5710   */\n      dup3\n        /* \"#utility.yul\":5644:5716   */\n      tag_362\n      jump\t// in\n    tag_534:\n        /* \"#utility.yul\":5639:5642   */\n      dup6\n        /* \"#utility.yul\":5632:5717   */\n      mstore\n        /* \"#utility.yul\":5746:5750   */\n      0x20\n        /* \"#utility.yul\":5741:5744   */\n      dup6\n        /* \"#utility.yul\":5737:5751   */\n      add\n        /* \"#utility.yul\":5730:5751   */\n      swap5\n      pop\n        /* \"#utility.yul\":5377:5761   */\n      pop\n      pop\n        /* \"#utility.yul\":5361:5365   */\n      0x20\n        /* \"#utility.yul\":5356:5359   */\n      dup2\n        /* \"#utility.yul\":5352:5366   */\n      add\n        /* \"#utility.yul\":5345:5366   */\n      swap1\n      pop\n        /* \"#utility.yul\":5301:5761   */\n      jump(tag_529)\n    tag_531:\n        /* \"#utility.yul\":5305:5326   */\n      pop\n        /* \"#utility.yul\":4884:5767   */\n      pop\n      pop\n        /* \"#utility.yul\":4747:5767   */\n      swap4\n      swap3\n      pop\n      pop\n      pop\n      jump\t// out\n        /* \"#utility.yul\":5791:6231   */\n    tag_365:\n        /* \"#utility.yul\":5897:5902   */\n      0x00\n        /* \"#utility.yul\":5946:5949   */\n      dup3\n        /* \"#utility.yul\":5939:5943   */\n      0x1f\n        /* \"#utility.yul\":5931:5937   */\n      dup4\n        /* \"#utility.yul\":5927:5944   */\n      add\n        /* \"#utility.yul\":5923:5950   */\n      slt\n        /* \"#utility.yul\":5913:6035   */\n      tag_536\n      jumpi\n        /* \"#utility.yul\":5954:6033   */\n      tag_537\n      tag_349\n      jump\t// in\n    tag_537:\n        /* \"#utility.yul\":5913:6035   */\n    tag_536:\n        /* \"#utility.yul\":6071:6077   */\n      dup2\n        /* \"#utility.yul\":6058:6078   */\n      calldataload\n        /* \"#utility.yul\":6096:6225   */\n      tag_538\n        /* \"#utility.yul\":6221:6224   */\n      dup5\n        /* \"#utility.yul\":6213:6219   */\n      dup3\n        /* \"#utility.yul\":6206:6210   */\n      0x20\n        /* \"#utility.yul\":6198:6204   */\n      dup7\n        /* \"#utility.yul\":6194:6211   */\n      add\n        /* \"#utility.yul\":6096:6225   */\n      tag_364\n      jump\t// in\n    tag_538:\n        /* \"#utility.yul\":6087:6225   */\n      swap2\n      pop\n        /* \"#utility.yul\":5903:6231   */\n      pop\n        /* \"#utility.yul\":5791:6231   */\n      swap3\n      swap2\n      pop\n      pop\n      jump\t// out\n        /* \"#utility.yul\":6237:6562   */\n    tag_366:\n        /* \"#utility.yul\":6328:6332   */\n      0x00\n        /* \"#utility.yul\":6418:6436   */\n      0xffffffffffffffff\n        /* \"#utility.yul\":6410:6416   */\n      dup3\n        /* \"#utility.yul\":6407:6437   */\n      gt\n        /* \"#utility.yul\":6404:6460   */\n      iszero\n      tag_540\n      jumpi\n        /* \"#utility.yul\":6440:6458   */\n      tag_541\n      tag_351\n      jump\t// in\n    tag_541:\n        /* \"#utility.yul\":6404:6460   */\n    tag_540:\n        /* \"#utility.yul\":6490:6494   */\n      0x20\n        /* \"#utility.yul\":6482:6488   */\n      dup3\n        /* \"#utility.yul\":6478:6495   */\n      mul\n        /* \"#utility.yul\":6470:6495   */\n      swap1\n      pop\n        /* \"#utility.yul\":6550:6554   */\n      0x20\n        /* \"#utility.yul\":6544:6548   */\n      dup2\n        /* \"#utility.yul\":6540:6555   */\n      add\n        /* \"#utility.yul\":6532:6555   */\n      swap1\n      pop\n        /* \"#utility.yul\":6237:6562   */\n      swap2\n      swap1\n      pop\n      jump\t// out\n        /* \"#utility.yul\":6568:6681   */\n    tag_367:\n        /* \"#utility.yul\":6655:6656   */\n      0x03\n        /* \"#utility.yul\":6648:6653   */\n      dup2\n        /* \"#utility.yul\":6645:6657   */\n      lt\n        /* \"#utility.yul\":6635:6675   */\n      tag_543\n      jumpi\n        /* \"#utility.yul\":6671:6672   */\n      0x00\n        /* \"#utility.yul\":6668:6669   */\n      dup1\n        /* \"#utility.yul\":6661:6673   */\n      revert\n        /* \"#utility.yul\":6635:6675   */\n    tag_543:\n        /* \"#utility.yul\":6568:6681   */\n      pop\n      jump\t// out\n        /* \"#utility.yul\":6687:6854   */\n    tag_368:\n        /* \"#utility.yul\":6747:6752   */\n      0x00\n        /* \"#utility.yul\":6785:6791   */\n      dup2\n        /* \"#utility.yul\":6772:6792   */\n      calldataload\n        /* \"#utility.yul\":6763:6792   */\n      swap1\n      pop\n        /* \"#utility.yul\":6801:6848   */\n      tag_545\n        /* \"#utility.yul\":6842:6847   */\n      dup2\n        /* \"#utility.yul\":6801:6848   */\n      tag_367\n      jump\t// in\n    tag_545:\n        /* \"#utility.yul\":6687:6854   */\n      swap3\n      swap2\n      pop\n      pop\n      jump\t// out\n        /* \"#utility.yul\":6902:7654   */\n    tag_369:\n        /* \"#utility.yul\":7012:7017   */\n      0x00\n        /* \"#utility.yul\":7037:7132   */\n      tag_547\n        /* \"#utility.yul\":7053:7131   */\n      tag_548\n        /* \"#utility.yul\":7124:7130   */\n      dup5\n        /* \"#utility.yul\":7053:7131   */\n      tag_366\n      jump\t// in\n    tag_548:\n        /* \"#utility.yul\":7037:7132   */\n      tag_353\n      jump\t// in\n    tag_547:\n        /* \"#utility.yul\":7028:7132   */\n      swap1\n      pop\n        /* \"#utility.yul\":7152:7157   */\n      dup1\n        /* \"#utility.yul\":7181:7187   */\n      dup4\n        /* \"#utility.yul\":7174:7179   */\n      dup3\n        /* \"#utility.yul\":7167:7188   */\n      mstore\n        /* \"#utility.yul\":7215:7219   */\n      0x20\n        /* \"#utility.yul\":7208:7213   */\n      dup3\n        /* \"#utility.yul\":7204:7220   */\n      add\n        /* \"#utility.yul\":7197:7220   */\n      swap1\n      pop\n        /* \"#utility.yul\":7268:7272   */\n      0x20\n        /* \"#utility.yul\":7260:7266   */\n      dup5\n        /* \"#utility.yul\":7256:7273   */\n      mul\n        /* \"#utility.yul\":7248:7254   */\n      dup4\n        /* \"#utility.yul\":7244:7274   */\n      add\n        /* \"#utility.yul\":7297:7300   */\n      dup6\n        /* \"#utility.yul\":7289:7295   */\n      dup2\n        /* \"#utility.yul\":7286:7301   */\n      gt\n        /* \"#utility.yul\":7283:7405   */\n      iszero\n      tag_549\n      jumpi\n        /* \"#utility.yul\":7316:7395   */\n      tag_550\n      tag_355\n      jump\t// in\n    tag_550:\n        /* \"#utility.yul\":7283:7405   */\n    tag_549:\n        /* \"#utility.yul\":7431:7437   */\n      dup4\n        /* \"#utility.yul\":7414:7648   */\n    tag_551:\n        /* \"#utility.yul\":7448:7454   */\n      dup2\n        /* \"#utility.yul\":7443:7446   */\n      dup2\n        /* \"#utility.yul\":7440:7455   */\n      lt\n        /* \"#utility.yul\":7414:7648   */\n      iszero\n      tag_553\n      jumpi\n        /* \"#utility.yul\":7523:7526   */\n      dup1\n        /* \"#utility.yul\":7552:7603   */\n      tag_554\n        /* \"#utility.yul\":7599:7602   */\n      dup9\n        /* \"#utility.yul\":7587:7597   */\n      dup3\n        /* \"#utility.yul\":7552:7603   */\n      tag_368\n      jump\t// in\n    tag_554:\n        /* \"#utility.yul\":7547:7550   */\n      dup5\n        /* \"#utility.yul\":7540:7604   */\n      mstore\n        /* \"#utility.yul\":7633:7637   */\n      0x20\n        /* \"#utility.yul\":7628:7631   */\n      dup5\n        /* \"#utility.yul\":7624:7638   */\n      add\n        /* \"#utility.yul\":7617:7638   */\n      swap4\n      pop\n        /* \"#utility.yul\":7490:7648   */\n      pop\n        /* \"#utility.yul\":7474:7478   */\n      0x20\n        /* \"#utility.yul\":7469:7472   */\n      dup2\n        /* \"#utility.yul\":7465:7479   */\n      add\n        /* \"#utility.yul\":7458:7479   */\n      swap1\n      pop\n        /* \"#utility.yul\":7414:7648   */\n      jump(tag_551)\n    tag_553:\n        /* \"#utility.yul\":7418:7439   */\n      pop\n        /* \"#utility.yul\":7018:7654   */\n      pop\n      pop\n        /* \"#utility.yul\":6902:7654   */\n      swap4\n      swap3\n      pop\n      pop\n      pop\n      jump\t// out\n        /* \"#utility.yul\":7702:8100   */\n    tag_370:\n        /* \"#utility.yul\":7787:7792   */\n      0x00\n        /* \"#utility.yul\":7836:7839   */\n      dup3\n        /* \"#utility.yul\":7829:7833   */\n      0x1f\n        /* \"#utility.yul\":7821:7827   */\n      dup4\n        /* \"#utility.yul\":7817:7834   */\n      add\n        /* \"#utility.yul\":7813:7840   */\n      slt\n        /* \"#utility.yul\":7803:7925   */\n      tag_556\n      jumpi\n        /* \"#utility.yul\":7844:7923   */\n      tag_557\n      tag_349\n      jump\t// in\n    tag_557:\n        /* \"#utility.yul\":7803:7925   */\n    tag_556:\n        /* \"#utility.yul\":7961:7967   */\n      dup2\n        /* \"#utility.yul\":7948:7968   */\n      calldataload\n        /* \"#utility.yul\":7986:8094   */\n      tag_558\n        /* \"#utility.yul\":8090:8093   */\n      dup5\n        /* \"#utility.yul\":8082:8088   */\n      dup3\n        /* \"#utility.yul\":8075:8079   */\n      0x20\n        /* \"#utility.yul\":8067:8073   */\n      dup7\n        /* \"#utility.yul\":8063:8080   */\n      add\n        /* \"#utility.yul\":7986:8094   */\n      tag_369\n      jump\t// in\n    tag_558:\n        /* \"#utility.yul\":7977:8094   */\n      swap2\n      pop\n        /* \"#utility.yul\":7793:8100   */\n      pop\n        /* \"#utility.yul\":7702:8100   */\n      swap3\n      swap2\n      pop\n      pop\n      jump\t// out\n        /* \"#utility.yul\":8106:9473   */\n    tag_15:\n        /* \"#utility.yul\":8317:8323   */\n      0x00\n        /* \"#utility.yul\":8325:8331   */\n      dup1\n        /* \"#utility.yul\":8333:8339   */\n      0x00\n        /* \"#utility.yul\":8382:8384   */\n      0x60\n        /* \"#utility.yul\":8370:8379   */\n      dup5\n        /* \"#utility.yul\":8361:8368   */\n      dup7\n        /* \"#utility.yul\":8357:8380   */\n      sub\n        /* \"#utility.yul\":8353:8385   */\n      slt\n        /* \"#utility.yul\":8350:8469   */\n      iszero\n      tag_560\n      jumpi\n        /* \"#utility.yul\":8388:8467   */\n      tag_561\n      tag_347\n      jump\t// in\n    tag_561:\n        /* \"#utility.yul\":8350:8469   */\n    tag_560:\n        /* \"#utility.yul\":8536:8537   */\n      0x00\n        /* \"#utility.yul\":8525:8534   */\n      dup5\n        /* \"#utility.yul\":8521:8538   */\n      add\n        /* \"#utility.yul\":8508:8539   */\n      calldataload\n        /* \"#utility.yul\":8566:8584   */\n      0xffffffffffffffff\n        /* \"#utility.yul\":8558:8564   */\n      dup2\n        /* \"#utility.yul\":8555:8585   */\n      gt\n        /* \"#utility.yul\":8552:8669   */\n      iszero\n      tag_562\n      jumpi\n        /* \"#utility.yul\":8588:8667   */\n      tag_563\n      tag_348\n      jump\t// in\n    tag_563:\n        /* \"#utility.yul\":8552:8669   */\n    tag_562:\n        /* \"#utility.yul\":8693:8781   */\n      tag_564\n        /* \"#utility.yul\":8773:8780   */\n      dup7\n        /* \"#utility.yul\":8764:8770   */\n      dup3\n        /* \"#utility.yul\":8753:8762   */\n      dup8\n        /* \"#utility.yul\":8749:8771   */\n      add\n        /* \"#utility.yul\":8693:8781   */\n      tag_362\n      jump\t// in\n    tag_564:\n        /* \"#utility.yul\":8683:8781   */\n      swap4\n      pop\n        /* \"#utility.yul\":8479:8791   */\n      pop\n        /* \"#utility.yul\":8858:8860   */\n      0x20\n        /* \"#utility.yul\":8847:8856   */\n      dup5\n        /* \"#utility.yul\":8843:8861   */\n      add\n        /* \"#utility.yul\":8830:8862   */\n      calldataload\n        /* \"#utility.yul\":8889:8907   */\n      0xffffffffffffffff\n        /* \"#utility.yul\":8881:8887   */\n      dup2\n        /* \"#utility.yul\":8878:8908   */\n      gt\n        /* \"#utility.yul\":8875:8992   */\n      iszero\n      tag_565\n      jumpi\n        /* \"#utility.yul\":8911:8990   */\n      tag_566\n      tag_348\n      jump\t// in\n    tag_566:\n        /* \"#utility.yul\":8875:8992   */\n    tag_565:\n        /* \"#utility.yul\":9016:9129   */\n      tag_567\n        /* \"#utility.yul\":9121:9128   */\n      dup7\n        /* \"#utility.yul\":9112:9118   */\n      dup3\n        /* \"#utility.yul\":9101:9110   */\n      dup8\n        /* \"#utility.yul\":9097:9119   */\n      add\n        /* \"#utility.yul\":9016:9129   */\n      tag_365\n      jump\t// in\n    tag_567:\n        /* \"#utility.yul\":9006:9129   */\n      swap3\n      pop\n        /* \"#utility.yul\":8801:9139   */\n      pop\n        /* \"#utility.yul\":9206:9208   */\n      0x40\n        /* \"#utility.yul\":9195:9204   */\n      dup5\n        /* \"#utility.yul\":9191:9209   */\n      add\n        /* \"#utility.yul\":9178:9210   */\n      calldataload\n        /* \"#utility.yul\":9237:9255   */\n      0xffffffffffffffff\n        /* \"#utility.yul\":9229:9235   */\n      dup2\n        /* \"#utility.yul\":9226:9256   */\n      gt\n        /* \"#utility.yul\":9223:9340   */\n      iszero\n      tag_568\n      jumpi\n        /* \"#utility.yul\":9259:9338   */\n      tag_569\n      tag_348\n      jump\t// in\n    tag_569:\n        /* \"#utility.yul\":9223:9340   */\n    tag_568:\n        /* \"#utility.yul\":9364:9456   */\n      tag_570\n        /* \"#utility.yul\":9448:9455   */\n      dup7\n        /* \"#utility.yul\":9439:9445   */\n      dup3\n        /* \"#utility.yul\":9428:9437   */\n      dup8\n        /* \"#utility.yul\":9424:9446   */\n      add\n        /* \"#utility.yul\":9364:9456   */\n      tag_370\n      jump\t// in\n    tag_570:\n        /* \"#utility.yul\":9354:9456   */\n      swap2\n      pop\n        /* \"#utility.yul\":9149:9466   */\n      pop\n        /* \"#utility.yul\":8106:9473   */\n      swap3\n      pop\n      swap3\n      pop\n      swap3\n      jump\t// out\n        /* \"#utility.yul\":9479:9556   */\n    tag_371:\n        /* \"#utility.yul\":9516:9523   */\n      0x00\n        /* \"#utility.yul\":9545:9550   */\n      dup2\n        /* \"#utility.yul\":9534:9550   */\n      swap1\n      pop\n        /* \"#utility.yul\":9479:9556   */\n      swap2\n      swap1\n      pop\n      jump\t// out\n        /* \"#utility.yul\":9562:9680   */\n    tag_372:\n        /* \"#utility.yul\":9649:9673   */\n      tag_573\n        /* \"#utility.yul\":9667:9672   */\n      dup2\n        /* \"#utility.yul\":9649:9673   */\n      tag_371\n      jump\t// in\n    tag_573:\n        /* \"#utility.yul\":9644:9647   */\n      dup3\n        /* \"#utility.yul\":9637:9674   */\n      mstore\n        /* \"#utility.yul\":9562:9680   */\n      pop\n      pop\n      jump\t// out\n        /* \"#utility.yul\":9686:9908   */\n    tag_18:\n        /* \"#utility.yul\":9779:9783   */\n      0x00\n        /* \"#utility.yul\":9817:9819   */\n      0x20\n        /* \"#utility.yul\":9806:9815   */\n      dup3\n        /* \"#utility.yul\":9802:9820   */\n      add\n        /* \"#utility.yul\":9794:9820   */\n      swap1\n      pop\n        /* \"#utility.yul\":9830:9901   */\n      tag_575\n        /* \"#utility.yul\":9898:9899   */\n      0x00\n        /* \"#utility.yul\":9887:9896   */\n      dup4\n        /* \"#utility.yul\":9883:9900   */\n      add\n        /* \"#utility.yul\":9874:9880   */\n      dup5\n        /* \"#utility.yul\":9830:9901   */\n      tag_372\n      jump\t// in\n    tag_575:\n        /* \"#utility.yul\":9686:9908   */\n      swap3\n      swap2\n      pop\n      pop\n      jump\t// out\n        /* \"#utility.yul\":9914:10000   */\n    tag_373:\n        /* \"#utility.yul\":9949:9956   */\n      0x00\n        /* \"#utility.yul\":9989:9993   */\n      0xff\n        /* \"#utility.yul\":9982:9987   */\n      dup3\n        /* \"#utility.yul\":9978:9994   */\n      and\n        /* \"#utility.yul\":9967:9994   */\n      swap1\n      pop\n        /* \"#utility.yul\":9914:10000   */\n      swap2\n      swap1\n      pop\n      jump\t// out\n        /* \"#utility.yul\":10006:10124   */\n    tag_374:\n        /* \"#utility.yul\":10077:10099   */\n      tag_578\n        /* \"#utility.yul\":10093:10098   */\n      dup2\n        /* \"#utility.yul\":10077:10099   */\n      tag_373\n      jump\t// in\n    tag_578:\n        /* \"#utility.yul\":10070:10075   */\n      dup2\n        /* \"#utility.yul\":10067:10100   */\n      eq\n        /* \"#utility.yul\":10057:10118   */\n      tag_579\n      jumpi\n        /* \"#utility.yul\":10114:10115   */\n      0x00\n        /* \"#utility.yul\":10111:10112   */\n      dup1\n        /* \"#utility.yul\":10104:10116   */\n      revert\n        /* \"#utility.yul\":10057:10118   */\n    tag_579:\n        /* \"#utility.yul\":10006:10124   */\n      pop\n      jump\t// out\n        /* \"#utility.yul\":10130:10265   */\n    tag_375:\n        /* \"#utility.yul\":10174:10179   */\n      0x00\n        /* \"#utility.yul\":10212:10218   */\n      dup2\n        /* \"#utility.yul\":10199:10219   */\n      calldataload\n        /* \"#utility.yul\":10190:10219   */\n      swap1\n      pop\n        /* \"#utility.yul\":10228:10259   */\n      tag_581\n        /* \"#utility.yul\":10253:10258   */\n      dup2\n        /* \"#utility.yul\":10228:10259   */\n      tag_374\n      jump\t// in\n    tag_581:\n        /* \"#utility.yul\":10130:10265   */\n      swap3\n      swap2\n      pop\n      pop\n      jump\t// out\n        /* \"#utility.yul\":10271:11296   */\n    tag_22:\n        /* \"#utility.yul\":10391:10397   */\n      0x00\n        /* \"#utility.yul\":10399:10405   */\n      dup1\n        /* \"#utility.yul\":10407:10413   */\n      0x00\n        /* \"#utility.yul\":10456:10458   */\n      0x60\n        /* \"#utility.yul\":10444:10453   */\n      dup5\n        /* \"#utility.yul\":10435:10442   */\n      dup7\n        /* \"#utility.yul\":10431:10454   */\n      sub\n        /* \"#utility.yul\":10427:10459   */\n      slt\n        /* \"#utility.yul\":10424:10543   */\n      iszero\n      tag_583\n      jumpi\n        /* \"#utility.yul\":10462:10541   */\n      tag_584\n      tag_347\n      jump\t// in\n    tag_584:\n        /* \"#utility.yul\":10424:10543   */\n    tag_583:\n        /* \"#utility.yul\":10610:10611   */\n      0x00\n        /* \"#utility.yul\":10599:10608   */\n      dup5\n        /* \"#utility.yul\":10595:10612   */\n      add\n        /* \"#utility.yul\":10582:10613   */\n      calldataload\n        /* \"#utility.yul\":10640:10658   */\n      0xffffffffffffffff\n        /* \"#utility.yul\":10632:10638   */\n      dup2\n        /* \"#utility.yul\":10629:10659   */\n      gt\n        /* \"#utility.yul\":10626:10743   */\n      iszero\n      tag_585\n      jumpi\n        /* \"#utility.yul\":10662:10741   */\n      tag_586\n      tag_348\n      jump\t// in\n    tag_586:\n        /* \"#utility.yul\":10626:10743   */\n    tag_585:\n        /* \"#utility.yul\":10767:10830   */\n      tag_587\n        /* \"#utility.yul\":10822:10829   */\n      dup7\n        /* \"#utility.yul\":10813:10819   */\n      dup3\n        /* \"#utility.yul\":10802:10811   */\n      dup8\n        /* \"#utility.yul\":10798:10820   */\n      add\n        /* \"#utility.yul\":10767:10830   */\n      tag_360\n      jump\t// in\n    tag_587:\n        /* \"#utility.yul\":10757:10830   */\n      swap4\n      pop\n        /* \"#utility.yul\":10553:10840   */\n      pop\n        /* \"#utility.yul\":10879:10881   */\n      0x20\n        /* \"#utility.yul\":10905:10956   */\n      tag_588\n        /* \"#utility.yul\":10948:10955   */\n      dup7\n        /* \"#utility.yul\":10939:10945   */\n      dup3\n        /* \"#utility.yul\":10928:10937   */\n      dup8\n        /* \"#utility.yul\":10924:10946   */\n      add\n        /* \"#utility.yul\":10905:10956   */\n      tag_375\n      jump\t// in\n    tag_588:\n        /* \"#utility.yul\":10895:10956   */\n      swap3\n      pop\n        /* \"#utility.yul\":10850:10966   */\n      pop\n        /* \"#utility.yul\":11033:11035   */\n      0x40\n        /* \"#utility.yul\":11022:11031   */\n      dup5\n        /* \"#utility.yul\":11018:11036   */\n      add\n        /* \"#utility.yul\":11005:11037   */\n      calldataload\n        /* \"#utility.yul\":11064:11082   */\n      0xffffffffffffffff\n        /* \"#utility.yul\":11056:11062   */\n      dup2\n        /* \"#utility.yul\":11053:11083   */\n      gt\n        /* \"#utility.yul\":11050:11167   */\n      iszero\n      tag_589\n      jumpi\n        /* \"#utility.yul\":11086:11165   */\n      tag_590\n      tag_348\n      jump\t// in\n    tag_590:\n        /* \"#utility.yul\":11050:11167   */\n    tag_589:\n        /* \"#utility.yul\":11191:11279   */\n      tag_591\n        /* \"#utility.yul\":11271:11278   */\n      dup7\n        /* \"#utility.yul\":11262:11268   */\n      dup3\n        /* \"#utility.yul\":11251:11260   */\n      dup8\n        /* \"#utility.yul\":11247:11269   */\n      add\n        /* \"#utility.yul\":11191:11279   */\n      tag_362\n      jump\t// in\n    tag_591:\n        /* \"#utility.yul\":11181:11279   */\n      swap2\n      pop\n        /* \"#utility.yul\":10976:11289   */\n      pop\n        /* \"#utility.yul\":10271:11296   */\n      swap3\n      pop\n      swap3\n      pop\n      swap3\n      jump\t// out\n        /* \"#utility.yul\":11302:11811   */\n    tag_27:\n        /* \"#utility.yul\":11371:11377   */\n      0x00\n        /* \"#utility.yul\":11420:11422   */\n      0x20\n        /* \"#utility.yul\":11408:11417   */\n      dup3\n        /* \"#utility.yul\":11399:11406   */\n      dup5\n        /* \"#utility.yul\":11395:11418   */\n      sub\n        /* \"#utility.yul\":11391:11423   */\n      slt\n        /* \"#utility.yul\":11388:11507   */\n      iszero\n      tag_593\n      jumpi\n        /* \"#utility.yul\":11426:11505   */\n      tag_594\n      tag_347\n      jump\t// in\n    tag_594:\n        /* \"#utility.yul\":11388:11507   */\n    tag_593:\n        /* \"#utility.yul\":11574:11575   */\n      0x00\n        /* \"#utility.yul\":11563:11572   */\n      dup3\n        /* \"#utility.yul\":11559:11576   */\n      add\n        /* \"#utility.yul\":11546:11577   */\n      calldataload\n        /* \"#utility.yul\":11604:11622   */\n      0xffffffffffffffff\n        /* \"#utility.yul\":11596:11602   */\n      dup2\n        /* \"#utility.yul\":11593:11623   */\n      gt\n        /* \"#utility.yul\":11590:11707   */\n      iszero\n      tag_595\n      jumpi\n        /* \"#utility.yul\":11626:11705   */\n      tag_596\n      tag_348\n      jump\t// in\n    tag_596:\n        /* \"#utility.yul\":11590:11707   */\n    tag_595:\n        /* \"#utility.yul\":11731:11794   */\n      tag_597\n        /* \"#utility.yul\":11786:11793   */\n      dup5\n        /* \"#utility.yul\":11777:11783   */\n      dup3\n        /* \"#utility.yul\":11766:11775   */\n      dup6\n        /* \"#utility.yul\":11762:11784   */\n      add\n        /* \"#utility.yul\":11731:11794   */\n      tag_360\n      jump\t// in\n    tag_597:\n        /* \"#utility.yul\":11721:11794   */\n      swap2\n      pop\n        /* \"#utility.yul\":11517:11804   */\n      pop\n        /* \"#utility.yul\":11302:11811   */\n      swap3\n      swap2\n      pop\n      pop\n      jump\t// out\n        /* \"#utility.yul\":11817:11931   */\n    tag_376:\n        /* \"#utility.yul\":11884:11890   */\n      0x00\n        /* \"#utility.yul\":11918:11923   */\n      dup2\n        /* \"#utility.yul\":11912:11924   */\n      mload\n        /* \"#utility.yul\":11902:11924   */\n      swap1\n      pop\n        /* \"#utility.yul\":11817:11931   */\n      swap2\n      swap1\n      pop\n      jump\t// out\n        /* \"#utility.yul\":11937:12121   */\n    tag_377:\n        /* \"#utility.yul\":12036:12047   */\n      0x00\n        /* \"#utility.yul\":12070:12076   */\n      dup3\n        /* \"#utility.yul\":12065:12068   */\n      dup3\n        /* \"#utility.yul\":12058:12077   */\n      mstore\n        /* \"#utility.yul\":12110:12114   */\n      0x20\n        /* \"#utility.yul\":12105:12108   */\n      dup3\n        /* \"#utility.yul\":12101:12115   */\n      add\n        /* \"#utility.yul\":12086:12115   */\n      swap1\n      pop\n        /* \"#utility.yul\":11937:12121   */\n      swap3\n      swap2\n      pop\n      pop\n      jump\t// out\n        /* \"#utility.yul\":12127:12259   */\n    tag_378:\n        /* \"#utility.yul\":12194:12198   */\n      0x00\n        /* \"#utility.yul\":12217:12220   */\n      dup2\n        /* \"#utility.yul\":12209:12220   */\n      swap1\n      pop\n        /* \"#utility.yul\":12247:12251   */\n      0x20\n        /* \"#utility.yul\":12242:12245   */\n      dup3\n        /* \"#utility.yul\":12238:12252   */\n      add\n        /* \"#utility.yul\":12230:12252   */\n      swap1\n      pop\n        /* \"#utility.yul\":12127:12259   */\n      swap2\n      swap1\n      pop\n      jump\t// out\n        /* \"#utility.yul\":12265:12391   */\n    tag_379:\n        /* \"#utility.yul\":12302:12309   */\n      0x00\n        /* \"#utility.yul\":12342:12384   */\n      0xffffffffffffffffffffffffffffffffffffffff\n        /* \"#utility.yul\":12335:12340   */\n      dup3\n        /* \"#utility.yul\":12331:12385   */\n      and\n        /* \"#utility.yul\":12320:12385   */\n      swap1\n      pop\n        /* \"#utility.yul\":12265:12391   */\n      swap2\n      swap1\n      pop\n      jump\t// out\n        /* \"#utility.yul\":12397:12493   */\n    tag_380:\n        /* \"#utility.yul\":12434:12441   */\n      0x00\n        /* \"#utility.yul\":12463:12487   */\n      tag_603\n        /* \"#utility.yul\":12481:12486   */\n      dup3\n        /* \"#utility.yul\":12463:12487   */\n      tag_379\n      jump\t// in\n    tag_603:\n        /* \"#utility.yul\":12452:12487   */\n      swap1\n      pop\n        /* \"#utility.yul\":12397:12493   */\n      swap2\n      swap1\n      pop\n      jump\t// out\n        /* \"#utility.yul\":12499:12607   */\n    tag_381:\n        /* \"#utility.yul\":12576:12600   */\n      tag_605\n        /* \"#utility.yul\":12594:12599   */\n      dup2\n        /* \"#utility.yul\":12576:12600   */\n      tag_380\n      jump\t// in\n    tag_605:\n        /* \"#utility.yul\":12571:12574   */\n      dup3\n        /* \"#utility.yul\":12564:12601   */\n      mstore\n        /* \"#utility.yul\":12499:12607   */\n      pop\n      pop\n      jump\t// out\n        /* \"#utility.yul\":12613:12792   */\n    tag_382:\n        /* \"#utility.yul\":12682:12692   */\n      0x00\n        /* \"#utility.yul\":12703:12749   */\n      tag_607\n        /* \"#utility.yul\":12745:12748   */\n      dup4\n        /* \"#utility.yul\":12737:12743   */\n      dup4\n        /* \"#utility.yul\":12703:12749   */\n      tag_381\n      jump\t// in\n    tag_607:\n        /* \"#utility.yul\":12781:12785   */\n      0x20\n        /* \"#utility.yul\":12776:12779   */\n      dup4\n        /* \"#utility.yul\":12772:12786   */\n      add\n        /* \"#utility.yul\":12758:12786   */\n      swap1\n      pop\n        /* \"#utility.yul\":12613:12792   */\n      swap3\n      swap2\n      pop\n      pop\n      jump\t// out\n        /* \"#utility.yul\":12798:12911   */\n    tag_383:\n        /* \"#utility.yul\":12868:12872   */\n      0x00\n        /* \"#utility.yul\":12900:12904   */\n      0x20\n        /* \"#utility.yul\":12895:12898   */\n      dup3\n        /* \"#utility.yul\":12891:12905   */\n      add\n        /* \"#utility.yul\":12883:12905   */\n      swap1\n      pop\n        /* \"#utility.yul\":12798:12911   */\n      swap2\n      swap1\n      pop\n      jump\t// out\n        /* \"#utility.yul\":12947:13679   */\n    tag_384:\n        /* \"#utility.yul\":13066:13069   */\n      0x00\n        /* \"#utility.yul\":13095:13149   */\n      tag_610\n        /* \"#utility.yul\":13143:13148   */\n      dup3\n        /* \"#utility.yul\":13095:13149   */\n      tag_376\n      jump\t// in\n    tag_610:\n        /* \"#utility.yul\":13165:13251   */\n      tag_611\n        /* \"#utility.yul\":13244:13250   */\n      dup2\n        /* \"#utility.yul\":13239:13242   */\n      dup6\n        /* \"#utility.yul\":13165:13251   */\n      tag_377\n      jump\t// in\n    tag_611:\n        /* \"#utility.yul\":13158:13251   */\n      swap4\n      pop\n        /* \"#utility.yul\":13275:13331   */\n      tag_612\n        /* \"#utility.yul\":13325:13330   */\n      dup4\n        /* \"#utility.yul\":13275:13331   */\n      tag_378\n      jump\t// in\n    tag_612:\n        /* \"#utility.yul\":13354:13361   */\n      dup1\n        /* \"#utility.yul\":13385:13386   */\n      0x00\n        /* \"#utility.yul\":13370:13654   */\n    tag_613:\n        /* \"#utility.yul\":13395:13401   */\n      dup4\n        /* \"#utility.yul\":13392:13393   */\n      dup2\n        /* \"#utility.yul\":13389:13402   */\n      lt\n        /* \"#utility.yul\":13370:13654   */\n      iszero\n      tag_615\n      jumpi\n        /* \"#utility.yul\":13471:13477   */\n      dup2\n        /* \"#utility.yul\":13465:13478   */\n      mload\n        /* \"#utility.yul\":13498:13561   */\n      tag_616\n        /* \"#utility.yul\":13557:13560   */\n      dup9\n        /* \"#utility.yul\":13542:13555   */\n      dup3\n        /* \"#utility.yul\":13498:13561   */\n      tag_382\n      jump\t// in\n    tag_616:\n        /* \"#utility.yul\":13491:13561   */\n      swap8\n      pop\n        /* \"#utility.yul\":13584:13644   */\n      tag_617\n        /* \"#utility.yul\":13637:13643   */\n      dup4\n        /* \"#utility.yul\":13584:13644   */\n      tag_383\n      jump\t// in\n    tag_617:\n        /* \"#utility.yul\":13574:13644   */\n      swap3\n      pop\n        /* \"#utility.yul\":13430:13654   */\n      pop\n        /* \"#utility.yul\":13417:13418   */\n      0x01\n        /* \"#utility.yul\":13414:13415   */\n      dup2\n        /* \"#utility.yul\":13410:13419   */\n      add\n        /* \"#utility.yul\":13405:13419   */\n      swap1\n      pop\n        /* \"#utility.yul\":13370:13654   */\n      jump(tag_613)\n    tag_615:\n        /* \"#utility.yul\":13374:13388   */\n      pop\n        /* \"#utility.yul\":13670:13673   */\n      dup6\n        /* \"#utility.yul\":13663:13673   */\n      swap4\n      pop\n        /* \"#utility.yul\":13071:13679   */\n      pop\n      pop\n      pop\n        /* \"#utility.yul\":12947:13679   */\n      swap3\n      swap2\n      pop\n      pop\n      jump\t// out\n        /* \"#utility.yul\":13685:13809   */\n    tag_385:\n        /* \"#utility.yul\":13762:13768   */\n      0x00\n        /* \"#utility.yul\":13796:13801   */\n      dup2\n        /* \"#utility.yul\":13790:13802   */\n      mload\n        /* \"#utility.yul\":13780:13802   */\n      swap1\n      pop\n        /* \"#utility.yul\":13685:13809   */\n      swap2\n      swap1\n      pop\n      jump\t// out\n        /* \"#utility.yul\":13815:14009   */\n    tag_386:\n        /* \"#utility.yul\":13924:13935   */\n      0x00\n        /* \"#utility.yul\":13958:13964   */\n      dup3\n        /* \"#utility.yul\":13953:13956   */\n      dup3\n        /* \"#utility.yul\":13946:13965   */\n      mstore\n        /* \"#utility.yul\":13998:14002   */\n      0x20\n        /* \"#utility.yul\":13993:13996   */\n      dup3\n        /* \"#utility.yul\":13989:14003   */\n      add\n        /* \"#utility.yul\":13974:14003   */\n      swap1\n      pop\n        /* \"#utility.yul\":13815:14009   */\n      swap3\n      swap2\n      pop\n      pop\n      jump\t// out\n        /* \"#utility.yul\":14015:14157   */\n    tag_387:\n        /* \"#utility.yul\":14092:14096   */\n      0x00\n        /* \"#utility.yul\":14115:14118   */\n      dup2\n        /* \"#utility.yul\":14107:14118   */\n      swap1\n      pop\n        /* \"#utility.yul\":14145:14149   */\n      0x20\n        /* \"#utility.yul\":14140:14143   */\n      dup3\n        /* \"#utility.yul\":14136:14150   */\n      add\n        /* \"#utility.yul\":14128:14150   */\n      swap1\n      pop\n        /* \"#utility.yul\":14015:14157   */\n      swap2\n      swap1\n      pop\n      jump\t// out\n        /* \"#utility.yul\":14163:14262   */\n    tag_388:\n        /* \"#utility.yul\":14215:14221   */\n      0x00\n        /* \"#utility.yul\":14249:14254   */\n      dup2\n        /* \"#utility.yul\":14243:14255   */\n      mload\n        /* \"#utility.yul\":14233:14255   */\n      swap1\n      pop\n        /* \"#utility.yul\":14163:14262   */\n      swap2\n      swap1\n      pop\n      jump\t// out\n        /* \"#utility.yul\":14268:14427   */\n    tag_389:\n        /* \"#utility.yul\":14342:14353   */\n      0x00\n        /* \"#utility.yul\":14376:14382   */\n      dup3\n        /* \"#utility.yul\":14371:14374   */\n      dup3\n        /* \"#utility.yul\":14364:14383   */\n      mstore\n        /* \"#utility.yul\":14416:14420   */\n      0x20\n        /* \"#utility.yul\":14411:14414   */\n      dup3\n        /* \"#utility.yul\":14407:14421   */\n      add\n        /* \"#utility.yul\":14392:14421   */\n      swap1\n      pop\n        /* \"#utility.yul\":14268:14427   */\n      swap3\n      swap2\n      pop\n      pop\n      jump\t// out\n        /* \"#utility.yul\":14433:14740   */\n    tag_390:\n        /* \"#utility.yul\":14501:14502   */\n      0x00\n        /* \"#utility.yul\":14511:14624   */\n    tag_624:\n        /* \"#utility.yul\":14525:14531   */\n      dup4\n        /* \"#utility.yul\":14522:14523   */\n      dup2\n        /* \"#utility.yul\":14519:14532   */\n      lt\n        /* \"#utility.yul\":14511:14624   */\n      iszero\n      tag_626\n      jumpi\n        /* \"#utility.yul\":14610:14611   */\n      dup1\n        /* \"#utility.yul\":14605:14608   */\n      dup3\n        /* \"#utility.yul\":14601:14612   */\n      add\n        /* \"#utility.yul\":14595:14613   */\n      mload\n        /* \"#utility.yul\":14591:14592   */\n      dup2\n        /* \"#utility.yul\":14586:14589   */\n      dup5\n        /* \"#utility.yul\":14582:14593   */\n      add\n        /* \"#utility.yul\":14575:14614   */\n      mstore\n        /* \"#utility.yul\":14547:14549   */\n      0x20\n        /* \"#utility.yul\":14544:14545   */\n      dup2\n        /* \"#utility.yul\":14540:14550   */\n      add\n        /* \"#utility.yul\":14535:14550   */\n      swap1\n      pop\n        /* \"#utility.yul\":14511:14624   */\n      jump(tag_624)\n    tag_626:\n        /* \"#utility.yul\":14642:14648   */\n      dup4\n        /* \"#utility.yul\":14639:14640   */\n      dup2\n        /* \"#utility.yul\":14636:14649   */\n      gt\n        /* \"#utility.yul\":14633:14734   */\n      iszero\n      tag_627\n      jumpi\n        /* \"#utility.yul\":14722:14723   */\n      0x00\n        /* \"#utility.yul\":14713:14719   */\n      dup5\n        /* \"#utility.yul\":14708:14711   */\n      dup5\n        /* \"#utility.yul\":14704:14720   */\n      add\n        /* \"#utility.yul\":14697:14724   */\n      mstore\n        /* \"#utility.yul\":14633:14734   */\n    tag_627:\n        /* \"#utility.yul\":14482:14740   */\n      pop\n        /* \"#utility.yul\":14433:14740   */\n      pop\n      pop\n      pop\n      jump\t// out\n        /* \"#utility.yul\":14746:15090   */\n    tag_391:\n        /* \"#utility.yul\":14824:14827   */\n      0x00\n        /* \"#utility.yul\":14852:14891   */\n      tag_629\n        /* \"#utility.yul\":14885:14890   */\n      dup3\n        /* \"#utility.yul\":14852:14891   */\n      tag_388\n      jump\t// in\n    tag_629:\n        /* \"#utility.yul\":14907:14968   */\n      tag_630\n        /* \"#utility.yul\":14961:14967   */\n      dup2\n        /* \"#utility.yul\":14956:14959   */\n      dup6\n        /* \"#utility.yul\":14907:14968   */\n      tag_389\n      jump\t// in\n    tag_630:\n        /* \"#utility.yul\":14900:14968   */\n      swap4\n      pop\n        /* \"#utility.yul\":14977:15029   */\n      tag_631\n        /* \"#utility.yul\":15022:15028   */\n      dup2\n        /* \"#utility.yul\":15017:15020   */\n      dup6\n        /* \"#utility.yul\":15010:15014   */\n      0x20\n        /* \"#utility.yul\":15003:15008   */\n      dup7\n        /* \"#utility.yul\":14999:15015   */\n      add\n        /* \"#utility.yul\":14977:15029   */\n      tag_390\n      jump\t// in\n    tag_631:\n        /* \"#utility.yul\":15054:15083   */\n      tag_632\n        /* \"#utility.yul\":15076:15082   */\n      dup2\n        /* \"#utility.yul\":15054:15083   */\n      tag_350\n      jump\t// in\n    tag_632:\n        /* \"#utility.yul\":15049:15052   */\n      dup5\n        /* \"#utility.yul\":15045:15084   */\n      add\n        /* \"#utility.yul\":15038:15084   */\n      swap2\n      pop\n        /* \"#utility.yul\":14828:15090   */\n      pop\n        /* \"#utility.yul\":14746:15090   */\n      swap3\n      swap2\n      pop\n      pop\n      jump\t// out\n        /* \"#utility.yul\":15096:15292   */\n    tag_392:\n        /* \"#utility.yul\":15185:15195   */\n      0x00\n        /* \"#utility.yul\":15220:15286   */\n      tag_634\n        /* \"#utility.yul\":15282:15285   */\n      dup4\n        /* \"#utility.yul\":15274:15280   */\n      dup4\n        /* \"#utility.yul\":15220:15286   */\n      tag_391\n      jump\t// in\n    tag_634:\n        /* \"#utility.yul\":15206:15286   */\n      swap1\n      pop\n        /* \"#utility.yul\":15096:15292   */\n      swap3\n      swap2\n      pop\n      pop\n      jump\t// out\n        /* \"#utility.yul\":15298:15421   */\n    tag_393:\n        /* \"#utility.yul\":15378:15382   */\n      0x00\n        /* \"#utility.yul\":15410:15414   */\n      0x20\n        /* \"#utility.yul\":15405:15408   */\n      dup3\n        /* \"#utility.yul\":15401:15415   */\n      add\n        /* \"#utility.yul\":15393:15415   */\n      swap1\n      pop\n        /* \"#utility.yul\":15298:15421   */\n      swap2\n      swap1\n      pop\n      jump\t// out\n        /* \"#utility.yul\":15455:16446   */\n    tag_394:\n        /* \"#utility.yul\":15594:15597   */\n      0x00\n        /* \"#utility.yul\":15623:15687   */\n      tag_637\n        /* \"#utility.yul\":15681:15686   */\n      dup3\n        /* \"#utility.yul\":15623:15687   */\n      tag_385\n      jump\t// in\n    tag_637:\n        /* \"#utility.yul\":15703:15799   */\n      tag_638\n        /* \"#utility.yul\":15792:15798   */\n      dup2\n        /* \"#utility.yul\":15787:15790   */\n      dup6\n        /* \"#utility.yul\":15703:15799   */\n      tag_386\n      jump\t// in\n    tag_638:\n        /* \"#utility.yul\":15696:15799   */\n      swap4\n      pop\n        /* \"#utility.yul\":15825:15828   */\n      dup4\n        /* \"#utility.yul\":15870:15874   */\n      0x20\n        /* \"#utility.yul\":15862:15868   */\n      dup3\n        /* \"#utility.yul\":15858:15875   */\n      mul\n        /* \"#utility.yul\":15853:15856   */\n      dup6\n        /* \"#utility.yul\":15849:15876   */\n      add\n        /* \"#utility.yul\":15900:15966   */\n      tag_639\n        /* \"#utility.yul\":15960:15965   */\n      dup6\n        /* \"#utility.yul\":15900:15966   */\n      tag_387\n      jump\t// in\n    tag_639:\n        /* \"#utility.yul\":15989:15996   */\n      dup1\n        /* \"#utility.yul\":16020:16021   */\n      0x00\n        /* \"#utility.yul\":16005:16401   */\n    tag_640:\n        /* \"#utility.yul\":16030:16036   */\n      dup6\n        /* \"#utility.yul\":16027:16028   */\n      dup2\n        /* \"#utility.yul\":16024:16037   */\n      lt\n        /* \"#utility.yul\":16005:16401   */\n      iszero\n      tag_642\n      jumpi\n        /* \"#utility.yul\":16101:16110   */\n      dup5\n        /* \"#utility.yul\":16095:16099   */\n      dup5\n        /* \"#utility.yul\":16091:16111   */\n      sub\n        /* \"#utility.yul\":16086:16089   */\n      dup10\n        /* \"#utility.yul\":16079:16112   */\n      mstore\n        /* \"#utility.yul\":16152:16158   */\n      dup2\n        /* \"#utility.yul\":16146:16159   */\n      mload\n        /* \"#utility.yul\":16180:16264   */\n      tag_643\n        /* \"#utility.yul\":16259:16263   */\n      dup6\n        /* \"#utility.yul\":16244:16257   */\n      dup3\n        /* \"#utility.yul\":16180:16264   */\n      tag_392\n      jump\t// in\n    tag_643:\n        /* \"#utility.yul\":16172:16264   */\n      swap5\n      pop\n        /* \"#utility.yul\":16287:16357   */\n      tag_644\n        /* \"#utility.yul\":16350:16356   */\n      dup4\n        /* \"#utility.yul\":16287:16357   */\n      tag_393\n      jump\t// in\n    tag_644:\n        /* \"#utility.yul\":16277:16357   */\n      swap3\n      pop\n        /* \"#utility.yul\":16386:16390   */\n      0x20\n        /* \"#utility.yul\":16381:16384   */\n      dup11\n        /* \"#utility.yul\":16377:16391   */\n      add\n        /* \"#utility.yul\":16370:16391   */\n      swap10\n      pop\n        /* \"#utility.yul\":16065:16401   */\n      pop\n        /* \"#utility.yul\":16052:16053   */\n      0x01\n        /* \"#utility.yul\":16049:16050   */\n      dup2\n        /* \"#utility.yul\":16045:16054   */\n      add\n        /* \"#utility.yul\":16040:16054   */\n      swap1\n      pop\n        /* \"#utility.yul\":16005:16401   */\n      jump(tag_640)\n    tag_642:\n        /* \"#utility.yul\":16009:16023   */\n      pop\n        /* \"#utility.yul\":16417:16421   */\n      dup3\n        /* \"#utility.yul\":16410:16421   */\n      swap8\n      pop\n        /* \"#utility.yul\":16437:16440   */\n      dup8\n        /* \"#utility.yul\":16430:16440   */\n      swap6\n      pop\n        /* \"#utility.yul\":15599:16446   */\n      pop\n      pop\n      pop\n      pop\n      pop\n        /* \"#utility.yul\":15455:16446   */\n      swap3\n      swap2\n      pop\n      pop\n      jump\t// out\n        /* \"#utility.yul\":16452:16621   */\n    tag_395:\n        /* \"#utility.yul\":16536:16547   */\n      0x00\n        /* \"#utility.yul\":16570:16576   */\n      dup3\n        /* \"#utility.yul\":16565:16568   */\n      dup3\n        /* \"#utility.yul\":16558:16577   */\n      mstore\n        /* \"#utility.yul\":16610:16614   */\n      0x20\n        /* \"#utility.yul\":16605:16608   */\n      dup3\n        /* \"#utility.yul\":16601:16615   */\n      add\n        /* \"#utility.yul\":16586:16615   */\n      swap1\n      pop\n        /* \"#utility.yul\":16452:16621   */\n      swap3\n      swap2\n      pop\n      pop\n      jump\t// out\n        /* \"#utility.yul\":16627:16991   */\n    tag_396:\n        /* \"#utility.yul\":16715:16718   */\n      0x00\n        /* \"#utility.yul\":16743:16782   */\n      tag_647\n        /* \"#utility.yul\":16776:16781   */\n      dup3\n        /* \"#utility.yul\":16743:16782   */\n      tag_388\n      jump\t// in\n    tag_647:\n        /* \"#utility.yul\":16798:16869   */\n      tag_648\n        /* \"#utility.yul\":16862:16868   */\n      dup2\n        /* \"#utility.yul\":16857:16860   */\n      dup6\n        /* \"#utility.yul\":16798:16869   */\n      tag_395\n      jump\t// in\n    tag_648:\n        /* \"#utility.yul\":16791:16869   */\n      swap4\n      pop\n        /* \"#utility.yul\":16878:16930   */\n      tag_649\n        /* \"#utility.yul\":16923:16929   */\n      dup2\n        /* \"#utility.yul\":16918:16921   */\n      dup6\n        /* \"#utility.yul\":16911:16915   */\n      0x20\n        /* \"#utility.yul\":16904:16909   */\n      dup7\n        /* \"#utility.yul\":16900:16916   */\n      add\n        /* \"#utility.yul\":16878:16930   */\n      tag_390\n      jump\t// in\n    tag_649:\n        /* \"#utility.yul\":16955:16984   */\n      tag_650\n        /* \"#utility.yul\":16977:16983   */\n      dup2\n        /* \"#utility.yul\":16955:16984   */\n      tag_350\n      jump\t// in\n    tag_650:\n        /* \"#utility.yul\":16950:16953   */\n      dup5\n        /* \"#utility.yul\":16946:16985   */\n      add\n        /* \"#utility.yul\":16939:16985   */\n      swap2\n      pop\n        /* \"#utility.yul\":16719:16991   */\n      pop\n        /* \"#utility.yul\":16627:16991   */\n      swap3\n      swap2\n      pop\n      pop\n      jump\t// out\n        /* \"#utility.yul\":16997:17133   */\n    tag_397:\n        /* \"#utility.yul\":17086:17092   */\n      0x00\n        /* \"#utility.yul\":17120:17125   */\n      dup2\n        /* \"#utility.yul\":17114:17126   */\n      mload\n        /* \"#utility.yul\":17104:17126   */\n      swap1\n      pop\n        /* \"#utility.yul\":16997:17133   */\n      swap2\n      swap1\n      pop\n      jump\t// out\n        /* \"#utility.yul\":17139:17345   */\n    tag_398:\n        /* \"#utility.yul\":17260:17271   */\n      0x00\n        /* \"#utility.yul\":17294:17300   */\n      dup3\n        /* \"#utility.yul\":17289:17292   */\n      dup3\n        /* \"#utility.yul\":17282:17301   */\n      mstore\n        /* \"#utility.yul\":17334:17338   */\n      0x20\n        /* \"#utility.yul\":17329:17332   */\n      dup3\n        /* \"#utility.yul\":17325:17339   */\n      add\n        /* \"#utility.yul\":17310:17339   */\n      swap1\n      pop\n        /* \"#utility.yul\":17139:17345   */\n      swap3\n      swap2\n      pop\n      pop\n      jump\t// out\n        /* \"#utility.yul\":17351:17505   */\n    tag_399:\n        /* \"#utility.yul\":17440:17444   */\n      0x00\n        /* \"#utility.yul\":17463:17466   */\n      dup2\n        /* \"#utility.yul\":17455:17466   */\n      swap1\n      pop\n        /* \"#utility.yul\":17493:17497   */\n      0x20\n        /* \"#utility.yul\":17488:17491   */\n      dup3\n        /* \"#utility.yul\":17484:17498   */\n      add\n        /* \"#utility.yul\":17476:17498   */\n      swap1\n      pop\n        /* \"#utility.yul\":17351:17505   */\n      swap2\n      swap1\n      pop\n      jump\t// out\n        /* \"#utility.yul\":17511:17613   */\n    tag_400:\n        /* \"#utility.yul\":17584:17606   */\n      tag_655\n        /* \"#utility.yul\":17600:17605   */\n      dup2\n        /* \"#utility.yul\":17584:17606   */\n      tag_373\n      jump\t// in\n    tag_655:\n        /* \"#utility.yul\":17579:17582   */\n      dup3\n        /* \"#utility.yul\":17572:17607   */\n      mstore\n        /* \"#utility.yul\":17511:17613   */\n      pop\n      pop\n      jump\t// out\n        /* \"#utility.yul\":17619:17803   */\n    tag_401:\n        /* \"#utility.yul\":17718:17729   */\n      0x00\n        /* \"#utility.yul\":17752:17758   */\n      dup3\n        /* \"#utility.yul\":17747:17750   */\n      dup3\n        /* \"#utility.yul\":17740:17759   */\n      mstore\n        /* \"#utility.yul\":17792:17796   */\n      0x20\n        /* \"#utility.yul\":17787:17790   */\n      dup3\n        /* \"#utility.yul\":17783:17797   */\n      add\n        /* \"#utility.yul\":17768:17797   */\n      swap1\n      pop\n        /* \"#utility.yul\":17619:17803   */\n      swap3\n      swap2\n      pop\n      pop\n      jump\t// out\n        /* \"#utility.yul\":17837:18808   */\n    tag_402:\n        /* \"#utility.yul\":17966:17969   */\n      0x00\n        /* \"#utility.yul\":17995:18059   */\n      tag_658\n        /* \"#utility.yul\":18053:18058   */\n      dup3\n        /* \"#utility.yul\":17995:18059   */\n      tag_385\n      jump\t// in\n    tag_658:\n        /* \"#utility.yul\":18075:18161   */\n      tag_659\n        /* \"#utility.yul\":18154:18160   */\n      dup2\n        /* \"#utility.yul\":18149:18152   */\n      dup6\n        /* \"#utility.yul\":18075:18161   */\n      tag_401\n      jump\t// in\n    tag_659:\n        /* \"#utility.yul\":18068:18161   */\n      swap4\n      pop\n        /* \"#utility.yul\":18187:18190   */\n      dup4\n        /* \"#utility.yul\":18232:18236   */\n      0x20\n        /* \"#utility.yul\":18224:18230   */\n      dup3\n        /* \"#utility.yul\":18220:18237   */\n      mul\n        /* \"#utility.yul\":18215:18218   */\n      dup6\n        /* \"#utility.yul\":18211:18238   */\n      add\n        /* \"#utility.yul\":18262:18328   */\n      tag_660\n        /* \"#utility.yul\":18322:18327   */\n      dup6\n        /* \"#utility.yul\":18262:18328   */\n      tag_387\n      jump\t// in\n    tag_660:\n        /* \"#utility.yul\":18351:18358   */\n      dup1\n        /* \"#utility.yul\":18382:18383   */\n      0x00\n        /* \"#utility.yul\":18367:18763   */\n    tag_661:\n        /* \"#utility.yul\":18392:18398   */\n      dup6\n        /* \"#utility.yul\":18389:18390   */\n      dup2\n        /* \"#utility.yul\":18386:18399   */\n      lt\n        /* \"#utility.yul\":18367:18763   */\n      iszero\n      tag_663\n      jumpi\n        /* \"#utility.yul\":18463:18472   */\n      dup5\n        /* \"#utility.yul\":18457:18461   */\n      dup5\n        /* \"#utility.yul\":18453:18473   */\n      sub\n        /* \"#utility.yul\":18448:18451   */\n      dup10\n        /* \"#utility.yul\":18441:18474   */\n      mstore\n        /* \"#utility.yul\":18514:18520   */\n      dup2\n        /* \"#utility.yul\":18508:18521   */\n      mload\n        /* \"#utility.yul\":18542:18626   */\n      tag_664\n        /* \"#utility.yul\":18621:18625   */\n      dup6\n        /* \"#utility.yul\":18606:18619   */\n      dup3\n        /* \"#utility.yul\":18542:18626   */\n      tag_392\n      jump\t// in\n    tag_664:\n        /* \"#utility.yul\":18534:18626   */\n      swap5\n      pop\n        /* \"#utility.yul\":18649:18719   */\n      tag_665\n        /* \"#utility.yul\":18712:18718   */\n      dup4\n        /* \"#utility.yul\":18649:18719   */\n      tag_393\n      jump\t// in\n    tag_665:\n        /* \"#utility.yul\":18639:18719   */\n      swap3\n      pop\n        /* \"#utility.yul\":18748:18752   */\n      0x20\n        /* \"#utility.yul\":18743:18746   */\n      dup11\n        /* \"#utility.yul\":18739:18753   */\n      add\n        /* \"#utility.yul\":18732:18753   */\n      swap10\n      pop\n        /* \"#utility.yul\":18427:18763   */\n      pop\n        /* \"#utility.yul\":18414:18415   */\n      0x01\n        /* \"#utility.yul\":18411:18412   */\n      dup2\n        /* \"#utility.yul\":18407:18416   */\n      add\n        /* \"#utility.yul\":18402:18416   */\n      swap1\n      pop\n        /* \"#utility.yul\":18367:18763   */\n      jump(tag_661)\n    tag_663:\n        /* \"#utility.yul\":18371:18385   */\n      pop\n        /* \"#utility.yul\":18779:18783   */\n      dup3\n        /* \"#utility.yul\":18772:18783   */\n      swap8\n      pop\n        /* \"#utility.yul\":18799:18802   */\n      dup8\n        /* \"#utility.yul\":18792:18802   */\n      swap6\n      pop\n        /* \"#utility.yul\":17971:18808   */\n      pop\n      pop\n      pop\n      pop\n      pop\n        /* \"#utility.yul\":17837:18808   */\n      swap3\n      swap2\n      pop\n      pop\n      jump\t// out\n        /* \"#utility.yul\":18882:19706   */\n    tag_403:\n        /* \"#utility.yul\":18985:18988   */\n      0x00\n        /* \"#utility.yul\":19021:19025   */\n      0x60\n        /* \"#utility.yul\":19016:19019   */\n      dup4\n        /* \"#utility.yul\":19012:19026   */\n      add\n        /* \"#utility.yul\":19112:19116   */\n      0x00\n        /* \"#utility.yul\":19105:19110   */\n      dup4\n        /* \"#utility.yul\":19101:19117   */\n      add\n        /* \"#utility.yul\":19095:19118   */\n      mload\n        /* \"#utility.yul\":19131:19194   */\n      tag_667\n        /* \"#utility.yul\":19188:19192   */\n      0x00\n        /* \"#utility.yul\":19183:19186   */\n      dup7\n        /* \"#utility.yul\":19179:19193   */\n      add\n        /* \"#utility.yul\":19165:19177   */\n      dup3\n        /* \"#utility.yul\":19131:19194   */\n      tag_381\n      jump\t// in\n    tag_667:\n        /* \"#utility.yul\":19036:19204   */\n      pop\n        /* \"#utility.yul\":19293:19297   */\n      0x20\n        /* \"#utility.yul\":19286:19291   */\n      dup4\n        /* \"#utility.yul\":19282:19298   */\n      add\n        /* \"#utility.yul\":19276:19299   */\n      mload\n        /* \"#utility.yul\":19312:19371   */\n      tag_668\n        /* \"#utility.yul\":19365:19369   */\n      0x20\n        /* \"#utility.yul\":19360:19363   */\n      dup7\n        /* \"#utility.yul\":19356:19370   */\n      add\n        /* \"#utility.yul\":19342:19354   */\n      dup3\n        /* \"#utility.yul\":19312:19371   */\n      tag_400\n      jump\t// in\n    tag_668:\n        /* \"#utility.yul\":19214:19381   */\n      pop\n        /* \"#utility.yul\":19466:19470   */\n      0x40\n        /* \"#utility.yul\":19459:19464   */\n      dup4\n        /* \"#utility.yul\":19455:19471   */\n      add\n        /* \"#utility.yul\":19449:19472   */\n      mload\n        /* \"#utility.yul\":19519:19522   */\n      dup5\n        /* \"#utility.yul\":19513:19517   */\n      dup3\n        /* \"#utility.yul\":19509:19523   */\n      sub\n        /* \"#utility.yul\":19502:19506   */\n      0x40\n        /* \"#utility.yul\":19497:19500   */\n      dup7\n        /* \"#utility.yul\":19493:19507   */\n      add\n        /* \"#utility.yul\":19486:19524   */\n      mstore\n        /* \"#utility.yul\":19545:19668   */\n      tag_669\n        /* \"#utility.yul\":19663:19667   */\n      dup3\n        /* \"#utility.yul\":19649:19661   */\n      dup3\n        /* \"#utility.yul\":19545:19668   */\n      tag_402\n      jump\t// in\n    tag_669:\n        /* \"#utility.yul\":19537:19668   */\n      swap2\n      pop\n        /* \"#utility.yul\":19391:19679   */\n      pop\n        /* \"#utility.yul\":19696:19700   */\n      dup1\n        /* \"#utility.yul\":19689:19700   */\n      swap2\n      pop\n        /* \"#utility.yul\":18990:19706   */\n      pop\n        /* \"#utility.yul\":18882:19706   */\n      swap3\n      swap2\n      pop\n      pop\n      jump\t// out\n        /* \"#utility.yul\":19712:19956   */\n    tag_404:\n        /* \"#utility.yul\":19825:19835   */\n      0x00\n        /* \"#utility.yul\":19860:19950   */\n      tag_671\n        /* \"#utility.yul\":19946:19949   */\n      dup4\n        /* \"#utility.yul\":19938:19944   */\n      dup4\n        /* \"#utility.yul\":19860:19950   */\n      tag_403\n      jump\t// in\n    tag_671:\n        /* \"#utility.yul\":19846:19950   */\n      swap1\n      pop\n        /* \"#utility.yul\":19712:19956   */\n      swap3\n      swap2\n      pop\n      pop\n      jump\t// out\n        /* \"#utility.yul\":19962:20097   */\n    tag_405:\n        /* \"#utility.yul\":20054:20058   */\n      0x00\n        /* \"#utility.yul\":20086:20090   */\n      0x20\n        /* \"#utility.yul\":20081:20084   */\n      dup3\n        /* \"#utility.yul\":20077:20091   */\n      add\n        /* \"#utility.yul\":20069:20091   */\n      swap1\n      pop\n        /* \"#utility.yul\":19962:20097   */\n      swap2\n      swap1\n      pop\n      jump\t// out\n        /* \"#utility.yul\":20175:21262   */\n    tag_406:\n        /* \"#utility.yul\":20338:20341   */\n      0x00\n        /* \"#utility.yul\":20367:20443   */\n      tag_674\n        /* \"#utility.yul\":20437:20442   */\n      dup3\n        /* \"#utility.yul\":20367:20443   */\n      tag_397\n      jump\t// in\n    tag_674:\n        /* \"#utility.yul\":20459:20567   */\n      tag_675\n        /* \"#utility.yul\":20560:20566   */\n      dup2\n        /* \"#utility.yul\":20555:20558   */\n      dup6\n        /* \"#utility.yul\":20459:20567   */\n      tag_398\n      jump\t// in\n    tag_675:\n        /* \"#utility.yul\":20452:20567   */\n      swap4\n      pop\n        /* \"#utility.yul\":20593:20596   */\n      dup4\n        /* \"#utility.yul\":20638:20642   */\n      0x20\n        /* \"#utility.yul\":20630:20636   */\n      dup3\n        /* \"#utility.yul\":20626:20643   */\n      mul\n        /* \"#utility.yul\":20621:20624   */\n      dup6\n        /* \"#utility.yul\":20617:20644   */\n      add\n        /* \"#utility.yul\":20668:20746   */\n      tag_676\n        /* \"#utility.yul\":20740:20745   */\n      dup6\n        /* \"#utility.yul\":20668:20746   */\n      tag_399\n      jump\t// in\n    tag_676:\n        /* \"#utility.yul\":20769:20776   */\n      dup1\n        /* \"#utility.yul\":20800:20801   */\n      0x00\n        /* \"#utility.yul\":20785:21217   */\n    tag_677:\n        /* \"#utility.yul\":20810:20816   */\n      dup6\n        /* \"#utility.yul\":20807:20808   */\n      dup2\n        /* \"#utility.yul\":20804:20817   */\n      lt\n        /* \"#utility.yul\":20785:21217   */\n      iszero\n      tag_679\n      jumpi\n        /* \"#utility.yul\":20881:20890   */\n      dup5\n        /* \"#utility.yul\":20875:20879   */\n      dup5\n        /* \"#utility.yul\":20871:20891   */\n      sub\n        /* \"#utility.yul\":20866:20869   */\n      dup10\n        /* \"#utility.yul\":20859:20892   */\n      mstore\n        /* \"#utility.yul\":20932:20938   */\n      dup2\n        /* \"#utility.yul\":20926:20939   */\n      mload\n        /* \"#utility.yul\":20960:21068   */\n      tag_680\n        /* \"#utility.yul\":21063:21067   */\n      dup6\n        /* \"#utility.yul\":21048:21061   */\n      dup3\n        /* \"#utility.yul\":20960:21068   */\n      tag_404\n      jump\t// in\n    tag_680:\n        /* \"#utility.yul\":20952:21068   */\n      swap5\n      pop\n        /* \"#utility.yul\":21091:21173   */\n      tag_681\n        /* \"#utility.yul\":21166:21172   */\n      dup4\n        /* \"#utility.yul\":21091:21173   */\n      tag_405\n      jump\t// in\n    tag_681:\n        /* \"#utility.yul\":21081:21173   */\n      swap3\n      pop\n        /* \"#utility.yul\":21202:21206   */\n      0x20\n        /* \"#utility.yul\":21197:21200   */\n      dup11\n        /* \"#utility.yul\":21193:21207   */\n      add\n        /* \"#utility.yul\":21186:21207   */\n      swap10\n      pop\n        /* \"#utility.yul\":20845:21217   */\n      pop\n        /* \"#utility.yul\":20832:20833   */\n      0x01\n        /* \"#utility.yul\":20829:20830   */\n      dup2\n        /* \"#utility.yul\":20825:20834   */\n      add\n        /* \"#utility.yul\":20820:20834   */\n      swap1\n      pop\n        /* \"#utility.yul\":20785:21217   */\n      jump(tag_677)\n    tag_679:\n        /* \"#utility.yul\":20789:20803   */\n      pop\n        /* \"#utility.yul\":21233:21237   */\n      dup3\n        /* \"#utility.yul\":21226:21237   */\n      swap8\n      pop\n        /* \"#utility.yul\":21253:21256   */\n      dup8\n        /* \"#utility.yul\":21246:21256   */\n      swap6\n      pop\n        /* \"#utility.yul\":20343:21262   */\n      pop\n      pop\n      pop\n      pop\n      pop\n        /* \"#utility.yul\":20175:21262   */\n      swap3\n      swap2\n      pop\n      pop\n      jump\t// out\n        /* \"#utility.yul\":21268:21358   */\n    tag_407:\n        /* \"#utility.yul\":21302:21309   */\n      0x00\n        /* \"#utility.yul\":21345:21350   */\n      dup2\n        /* \"#utility.yul\":21338:21351   */\n      iszero\n        /* \"#utility.yul\":21331:21352   */\n      iszero\n        /* \"#utility.yul\":21320:21352   */\n      swap1\n      pop\n        /* \"#utility.yul\":21268:21358   */\n      swap2\n      swap1\n      pop\n      jump\t// out\n        /* \"#utility.yul\":21364:21473   */\n    tag_408:\n        /* \"#utility.yul\":21445:21466   */\n      tag_684\n        /* \"#utility.yul\":21460:21465   */\n      dup2\n        /* \"#utility.yul\":21445:21466   */\n      tag_407\n      jump\t// in\n    tag_684:\n        /* \"#utility.yul\":21440:21443   */\n      dup3\n        /* \"#utility.yul\":21433:21467   */\n      mstore\n        /* \"#utility.yul\":21364:21473   */\n      pop\n      pop\n      jump\t// out\n        /* \"#utility.yul\":21479:23327   */\n    tag_30:\n        /* \"#utility.yul\":22066:22070   */\n      0x00\n        /* \"#utility.yul\":22104:22107   */\n      0x0100\n        /* \"#utility.yul\":22093:22102   */\n      dup3\n        /* \"#utility.yul\":22089:22108   */\n      add\n        /* \"#utility.yul\":22081:22108   */\n      swap1\n      pop\n        /* \"#utility.yul\":22154:22163   */\n      dup2\n        /* \"#utility.yul\":22148:22152   */\n      dup2\n        /* \"#utility.yul\":22144:22164   */\n      sub\n        /* \"#utility.yul\":22140:22141   */\n      0x00\n        /* \"#utility.yul\":22129:22138   */\n      dup4\n        /* \"#utility.yul\":22125:22142   */\n      add\n        /* \"#utility.yul\":22118:22165   */\n      mstore\n        /* \"#utility.yul\":22182:22290   */\n      tag_686\n        /* \"#utility.yul\":22285:22289   */\n      dup2\n        /* \"#utility.yul\":22276:22282   */\n      dup12\n        /* \"#utility.yul\":22182:22290   */\n      tag_384\n      jump\t// in\n    tag_686:\n        /* \"#utility.yul\":22174:22290   */\n      swap1\n      pop\n        /* \"#utility.yul\":22337:22346   */\n      dup2\n        /* \"#utility.yul\":22331:22335   */\n      dup2\n        /* \"#utility.yul\":22327:22347   */\n      sub\n        /* \"#utility.yul\":22322:22324   */\n      0x20\n        /* \"#utility.yul\":22311:22320   */\n      dup4\n        /* \"#utility.yul\":22307:22325   */\n      add\n        /* \"#utility.yul\":22300:22348   */\n      mstore\n        /* \"#utility.yul\":22365:22493   */\n      tag_687\n        /* \"#utility.yul\":22488:22492   */\n      dup2\n        /* \"#utility.yul\":22479:22485   */\n      dup11\n        /* \"#utility.yul\":22365:22493   */\n      tag_394\n      jump\t// in\n    tag_687:\n        /* \"#utility.yul\":22357:22493   */\n      swap1\n      pop\n        /* \"#utility.yul\":22540:22549   */\n      dup2\n        /* \"#utility.yul\":22534:22538   */\n      dup2\n        /* \"#utility.yul\":22530:22550   */\n      sub\n        /* \"#utility.yul\":22525:22527   */\n      0x40\n        /* \"#utility.yul\":22514:22523   */\n      dup4\n        /* \"#utility.yul\":22510:22528   */\n      add\n        /* \"#utility.yul\":22503:22551   */\n      mstore\n        /* \"#utility.yul\":22568:22696   */\n      tag_688\n        /* \"#utility.yul\":22691:22695   */\n      dup2\n        /* \"#utility.yul\":22682:22688   */\n      dup10\n        /* \"#utility.yul\":22568:22696   */\n      tag_394\n      jump\t// in\n    tag_688:\n        /* \"#utility.yul\":22560:22696   */\n      swap1\n      pop\n        /* \"#utility.yul\":22743:22752   */\n      dup2\n        /* \"#utility.yul\":22737:22741   */\n      dup2\n        /* \"#utility.yul\":22733:22753   */\n      sub\n        /* \"#utility.yul\":22728:22730   */\n      0x60\n        /* \"#utility.yul\":22717:22726   */\n      dup4\n        /* \"#utility.yul\":22713:22731   */\n      add\n        /* \"#utility.yul\":22706:22754   */\n      mstore\n        /* \"#utility.yul\":22771:22849   */\n      tag_689\n        /* \"#utility.yul\":22844:22848   */\n      dup2\n        /* \"#utility.yul\":22835:22841   */\n      dup9\n        /* \"#utility.yul\":22771:22849   */\n      tag_396\n      jump\t// in\n    tag_689:\n        /* \"#utility.yul\":22763:22849   */\n      swap1\n      pop\n        /* \"#utility.yul\":22859:22932   */\n      tag_690\n        /* \"#utility.yul\":22927:22930   */\n      0x80\n        /* \"#utility.yul\":22916:22925   */\n      dup4\n        /* \"#utility.yul\":22912:22931   */\n      add\n        /* \"#utility.yul\":22903:22909   */\n      dup8\n        /* \"#utility.yul\":22859:22932   */\n      tag_372\n      jump\t// in\n    tag_690:\n        /* \"#utility.yul\":22980:22989   */\n      dup2\n        /* \"#utility.yul\":22974:22978   */\n      dup2\n        /* \"#utility.yul\":22970:22990   */\n      sub\n        /* \"#utility.yul\":22964:22967   */\n      0xa0\n        /* \"#utility.yul\":22953:22962   */\n      dup4\n        /* \"#utility.yul\":22949:22968   */\n      add\n        /* \"#utility.yul\":22942:22991   */\n      mstore\n        /* \"#utility.yul\":23008:23160   */\n      tag_691\n        /* \"#utility.yul\":23155:23159   */\n      dup2\n        /* \"#utility.yul\":23146:23152   */\n      dup7\n        /* \"#utility.yul\":23008:23160   */\n      tag_406\n      jump\t// in\n    tag_691:\n        /* \"#utility.yul\":23000:23160   */\n      swap1\n      pop\n        /* \"#utility.yul\":23170:23243   */\n      tag_692\n        /* \"#utility.yul\":23238:23241   */\n      0xc0\n        /* \"#utility.yul\":23227:23236   */\n      dup4\n        /* \"#utility.yul\":23223:23242   */\n      add\n        /* \"#utility.yul\":23214:23220   */\n      dup6\n        /* \"#utility.yul\":23170:23243   */\n      tag_372\n      jump\t// in\n    tag_692:\n        /* \"#utility.yul\":23253:23320   */\n      tag_693\n        /* \"#utility.yul\":23315:23318   */\n      0xe0\n        /* \"#utility.yul\":23304:23313   */\n      dup4\n        /* \"#utility.yul\":23300:23319   */\n      add\n        /* \"#utility.yul\":23291:23297   */\n      dup5\n        /* \"#utility.yul\":23253:23320   */\n      tag_408\n      jump\t// in\n    tag_693:\n        /* \"#utility.yul\":21479:23327   */\n      swap10\n      swap9\n      pop\n      pop\n      pop\n      pop\n      pop\n      pop\n      pop\n      pop\n      pop\n      jump\t// out\n        /* \"#utility.yul\":23333:23646   */\n    tag_39:\n        /* \"#utility.yul\":23446:23450   */\n      0x00\n        /* \"#utility.yul\":23484:23486   */\n      0x20\n        /* \"#utility.yul\":23473:23482   */\n      dup3\n        /* \"#utility.yul\":23469:23487   */\n      add\n        /* \"#utility.yul\":23461:23487   */\n      swap1\n      pop\n        /* \"#utility.yul\":23533:23542   */\n      dup2\n        /* \"#utility.yul\":23527:23531   */\n      dup2\n        /* \"#utility.yul\":23523:23543   */\n      sub\n        /* \"#utility.yul\":23519:23520   */\n      0x00\n        /* \"#utility.yul\":23508:23517   */\n      dup4\n        /* \"#utility.yul\":23504:23521   */\n      add\n        /* \"#utility.yul\":23497:23544   */\n      mstore\n        /* \"#utility.yul\":23561:23639   */\n      tag_695\n        /* \"#utility.yul\":23634:23638   */\n      dup2\n        /* \"#utility.yul\":23625:23631   */\n      dup5\n        /* \"#utility.yul\":23561:23639   */\n      tag_396\n      jump\t// in\n    tag_695:\n        /* \"#utility.yul\":23553:23639   */\n      swap1\n      pop\n        /* \"#utility.yul\":23333:23646   */\n      swap3\n      swap2\n      pop\n      pop\n      jump\t// out\n        /* \"#utility.yul\":23652:23774   */\n    tag_409:\n        /* \"#utility.yul\":23725:23749   */\n      tag_697\n        /* \"#utility.yul\":23743:23748   */\n      dup2\n        /* \"#utility.yul\":23725:23749   */\n      tag_371\n      jump\t// in\n    tag_697:\n        /* \"#utility.yul\":23718:23723   */\n      dup2\n        /* \"#utility.yul\":23715:23750   */\n      eq\n        /* \"#utility.yul\":23705:23768   */\n      tag_698\n      jumpi\n        /* \"#utility.yul\":23764:23765   */\n      0x00\n        /* \"#utility.yul\":23761:23762   */\n      dup1\n        /* \"#utility.yul\":23754:23766   */\n      revert\n        /* \"#utility.yul\":23705:23768   */\n    tag_698:\n        /* \"#utility.yul\":23652:23774   */\n      pop\n      jump\t// out\n        /* \"#utility.yul\":23780:23919   */\n    tag_410:\n        /* \"#utility.yul\":23826:23831   */\n      0x00\n        /* \"#utility.yul\":23864:23870   */\n      dup2\n        /* \"#utility.yul\":23851:23871   */\n      calldataload\n        /* \"#utility.yul\":23842:23871   */\n      swap1\n      pop\n        /* \"#utility.yul\":23880:23913   */\n      tag_700\n        /* \"#utility.yul\":23907:23912   */\n      dup2\n        /* \"#utility.yul\":23880:23913   */\n      tag_409\n      jump\t// in\n    tag_700:\n        /* \"#utility.yul\":23780:23919   */\n      swap3\n      swap2\n      pop\n      pop\n      jump\t// out\n        /* \"#utility.yul\":23925:24254   */\n    tag_43:\n        /* \"#utility.yul\":23984:23990   */\n      0x00\n        /* \"#utility.yul\":24033:24035   */\n      0x20\n        /* \"#utility.yul\":24021:24030   */\n      dup3\n        /* \"#utility.yul\":24012:24019   */\n      dup5\n        /* \"#utility.yul\":24008:24031   */\n      sub\n        /* \"#utility.yul\":24004:24036   */\n      slt\n        /* \"#utility.yul\":24001:24120   */\n      iszero\n      tag_702\n      jumpi\n        /* \"#utility.yul\":24039:24118   */\n      tag_703\n      tag_347\n      jump\t// in\n    tag_703:\n        /* \"#utility.yul\":24001:24120   */\n    tag_702:\n        /* \"#utility.yul\":24159:24160   */\n      0x00\n        /* \"#utility.yul\":24184:24237   */\n      tag_704\n        /* \"#utility.yul\":24229:24236   */\n      dup5\n        /* \"#utility.yul\":24220:24226   */\n      dup3\n        /* \"#utility.yul\":24209:24218   */\n      dup6\n        /* \"#utility.yul\":24205:24227   */\n      add\n        /* \"#utility.yul\":24184:24237   */\n      tag_410\n      jump\t// in\n    tag_704:\n        /* \"#utility.yul\":24174:24237   */\n      swap2\n      pop\n        /* \"#utility.yul\":24130:24247   */\n      pop\n        /* \"#utility.yul\":23925:24254   */\n      swap3\n      swap2\n      pop\n      pop\n      jump\t// out\n        /* \"#utility.yul\":24260:24388   */\n    tag_411:\n        /* \"#utility.yul\":24341:24347   */\n      0x00\n        /* \"#utility.yul\":24375:24380   */\n      dup2\n        /* \"#utility.yul\":24369:24381   */\n      mload\n        /* \"#utility.yul\":24359:24381   */\n      swap1\n      pop\n        /* \"#utility.yul\":24260:24388   */\n      swap2\n      swap1\n      pop\n      jump\t// out\n        /* \"#utility.yul\":24394:24576   */\n    tag_412:\n        /* \"#utility.yul\":24491:24502   */\n      0x00\n        /* \"#utility.yul\":24525:24531   */\n      dup3\n        /* \"#utility.yul\":24520:24523   */\n      dup3\n        /* \"#utility.yul\":24513:24532   */\n      mstore\n        /* \"#utility.yul\":24565:24569   */\n      0x20\n        /* \"#utility.yul\":24560:24563   */\n      dup3\n        /* \"#utility.yul\":24556:24570   */\n      add\n        /* \"#utility.yul\":24541:24570   */\n      swap1\n      pop\n        /* \"#utility.yul\":24394:24576   */\n      swap3\n      swap2\n      pop\n      pop\n      jump\t// out\n        /* \"#utility.yul\":24582:24728   */\n    tag_413:\n        /* \"#utility.yul\":24663:24667   */\n      0x00\n        /* \"#utility.yul\":24686:24689   */\n      dup2\n        /* \"#utility.yul\":24678:24689   */\n      swap1\n      pop\n        /* \"#utility.yul\":24716:24720   */\n      0x20\n        /* \"#utility.yul\":24711:24714   */\n      dup3\n        /* \"#utility.yul\":24707:24721   */\n      add\n        /* \"#utility.yul\":24699:24721   */\n      swap1\n      pop\n        /* \"#utility.yul\":24582:24728   */\n      swap2\n      swap1\n      pop\n      jump\t// out\n        /* \"#utility.yul\":24734:24914   */\n    tag_187:\n        /* \"#utility.yul\":24782:24859   */\n      0x4e487b7100000000000000000000000000000000000000000000000000000000\n        /* \"#utility.yul\":24779:24780   */\n      0x00\n        /* \"#utility.yul\":24772:24860   */\n      mstore\n        /* \"#utility.yul\":24879:24883   */\n      0x21\n        /* \"#utility.yul\":24876:24877   */\n      0x04\n        /* \"#utility.yul\":24869:24884   */\n      mstore\n        /* \"#utility.yul\":24903:24907   */\n      0x24\n        /* \"#utility.yul\":24900:24901   */\n      0x00\n        /* \"#utility.yul\":24893:24908   */\n      revert\n        /* \"#utility.yul\":24920:25039   */\n    tag_414:\n        /* \"#utility.yul\":25007:25008   */\n      0x03\n        /* \"#utility.yul\":25000:25005   */\n      dup2\n        /* \"#utility.yul\":24997:25009   */\n      lt\n        /* \"#utility.yul\":24987:25033   */\n      tag_710\n      jumpi\n        /* \"#utility.yul\":25013:25031   */\n      tag_711\n      tag_187\n      jump\t// in\n    tag_711:\n        /* \"#utility.yul\":24987:25033   */\n    tag_710:\n        /* \"#utility.yul\":24920:25039   */\n      pop\n      jump\t// out\n        /* \"#utility.yul\":25045:25184   */\n    tag_415:\n        /* \"#utility.yul\":25096:25103   */\n      0x00\n        /* \"#utility.yul\":25125:25130   */\n      dup2\n        /* \"#utility.yul\":25114:25130   */\n      swap1\n      pop\n        /* \"#utility.yul\":25131:25178   */\n      tag_713\n        /* \"#utility.yul\":25172:25177   */\n      dup3\n        /* \"#utility.yul\":25131:25178   */\n      tag_414\n      jump\t// in\n    tag_713:\n        /* \"#utility.yul\":25045:25184   */\n      swap2\n      swap1\n      pop\n      jump\t// out\n        /* \"#utility.yul\":25190:25329   */\n    tag_416:\n        /* \"#utility.yul\":25252:25261   */\n      0x00\n        /* \"#utility.yul\":25285:25323   */\n      tag_715\n        /* \"#utility.yul\":25317:25322   */\n      dup3\n        /* \"#utility.yul\":25285:25323   */\n      tag_415\n      jump\t// in\n    tag_715:\n        /* \"#utility.yul\":25272:25323   */\n      swap1\n      pop\n        /* \"#utility.yul\":25190:25329   */\n      swap2\n      swap1\n      pop\n      jump\t// out\n        /* \"#utility.yul\":25335:25480   */\n    tag_417:\n        /* \"#utility.yul\":25424:25473   */\n      tag_717\n        /* \"#utility.yul\":25467:25472   */\n      dup2\n        /* \"#utility.yul\":25424:25473   */\n      tag_416\n      jump\t// in\n    tag_717:\n        /* \"#utility.yul\":25419:25422   */\n      dup3\n        /* \"#utility.yul\":25412:25474   */\n      mstore\n        /* \"#utility.yul\":25335:25480   */\n      pop\n      pop\n      jump\t// out\n        /* \"#utility.yul\":25486:25689   */\n    tag_418:\n        /* \"#utility.yul\":25567:25577   */\n      0x00\n        /* \"#utility.yul\":25588:25646   */\n      tag_719\n        /* \"#utility.yul\":25642:25645   */\n      dup4\n        /* \"#utility.yul\":25634:25640   */\n      dup4\n        /* \"#utility.yul\":25588:25646   */\n      tag_417\n      jump\t// in\n    tag_719:\n        /* \"#utility.yul\":25678:25682   */\n      0x20\n        /* \"#utility.yul\":25673:25676   */\n      dup4\n        /* \"#utility.yul\":25669:25683   */\n      add\n        /* \"#utility.yul\":25655:25683   */\n      swap1\n      pop\n        /* \"#utility.yul\":25486:25689   */\n      swap3\n      swap2\n      pop\n      pop\n      jump\t// out\n        /* \"#utility.yul\":25695:25822   */\n    tag_419:\n        /* \"#utility.yul\":25779:25783   */\n      0x00\n        /* \"#utility.yul\":25811:25815   */\n      0x20\n        /* \"#utility.yul\":25806:25809   */\n      dup3\n        /* \"#utility.yul\":25802:25816   */\n      add\n        /* \"#utility.yul\":25794:25816   */\n      swap1\n      pop\n        /* \"#utility.yul\":25695:25822   */\n      swap2\n      swap1\n      pop\n      jump\t// out\n        /* \"#utility.yul\":25881:26677   */\n    tag_420:\n        /* \"#utility.yul\":26012:26015   */\n      0x00\n        /* \"#utility.yul\":26041:26109   */\n      tag_722\n        /* \"#utility.yul\":26103:26108   */\n      dup3\n        /* \"#utility.yul\":26041:26109   */\n      tag_411\n      jump\t// in\n    tag_722:\n        /* \"#utility.yul\":26125:26209   */\n      tag_723\n        /* \"#utility.yul\":26202:26208   */\n      dup2\n        /* \"#utility.yul\":26197:26200   */\n      dup6\n        /* \"#utility.yul\":26125:26209   */\n      tag_412\n      jump\t// in\n    tag_723:\n        /* \"#utility.yul\":26118:26209   */\n      swap4\n      pop\n        /* \"#utility.yul\":26233:26303   */\n      tag_724\n        /* \"#utility.yul\":26297:26302   */\n      dup4\n        /* \"#utility.yul\":26233:26303   */\n      tag_413\n      jump\t// in\n    tag_724:\n        /* \"#utility.yul\":26326:26333   */\n      dup1\n        /* \"#utility.yul\":26357:26358   */\n      0x00\n        /* \"#utility.yul\":26342:26652   */\n    tag_725:\n        /* \"#utility.yul\":26367:26373   */\n      dup4\n        /* \"#utility.yul\":26364:26365   */\n      dup2\n        /* \"#utility.yul\":26361:26374   */\n      lt\n        /* \"#utility.yul\":26342:26652   */\n      iszero\n      tag_727\n      jumpi\n        /* \"#utility.yul\":26443:26449   */\n      dup2\n        /* \"#utility.yul\":26437:26450   */\n      mload\n        /* \"#utility.yul\":26470:26545   */\n      tag_728\n        /* \"#utility.yul\":26541:26544   */\n      dup9\n        /* \"#utility.yul\":26526:26539   */\n      dup3\n        /* \"#utility.yul\":26470:26545   */\n      tag_418\n      jump\t// in\n    tag_728:\n        /* \"#utility.yul\":26463:26545   */\n      swap8\n      pop\n        /* \"#utility.yul\":26568:26642   */\n      tag_729\n        /* \"#utility.yul\":26635:26641   */\n      dup4\n        /* \"#utility.yul\":26568:26642   */\n      tag_419\n      jump\t// in\n    tag_729:\n        /* \"#utility.yul\":26558:26642   */\n      swap3\n      pop\n        /* \"#utility.yul\":26402:26652   */\n      pop\n        /* \"#utility.yul\":26389:26390   */\n      0x01\n        /* \"#utility.yul\":26386:26387   */\n      dup2\n        /* \"#utility.yul\":26382:26391   */\n      add\n        /* \"#utility.yul\":26377:26391   */\n      swap1\n      pop\n        /* \"#utility.yul\":26342:26652   */\n      jump(tag_725)\n    tag_727:\n        /* \"#utility.yul\":26346:26360   */\n      pop\n        /* \"#utility.yul\":26668:26671   */\n      dup6\n        /* \"#utility.yul\":26661:26671   */\n      swap4\n      pop\n        /* \"#utility.yul\":26017:26677   */\n      pop\n      pop\n      pop\n        /* \"#utility.yul\":25881:26677   */\n      swap3\n      swap2\n      pop\n      pop\n      jump\t// out\n        /* \"#utility.yul\":26683:26832   */\n    tag_421:\n        /* \"#utility.yul\":26785:26791   */\n      0x00\n        /* \"#utility.yul\":26819:26824   */\n      dup2\n        /* \"#utility.yul\":26813:26825   */\n      mload\n        /* \"#utility.yul\":26803:26825   */\n      swap1\n      pop\n        /* \"#utility.yul\":26683:26832   */\n      swap2\n      swap1\n      pop\n      jump\t// out\n        /* \"#utility.yul\":26838:27057   */\n    tag_422:\n        /* \"#utility.yul\":26972:26983   */\n      0x00\n        /* \"#utility.yul\":27006:27012   */\n      dup3\n        /* \"#utility.yul\":27001:27004   */\n      dup3\n        /* \"#utility.yul\":26994:27013   */\n      mstore\n        /* \"#utility.yul\":27046:27050   */\n      0x20\n        /* \"#utility.yul\":27041:27044   */\n      dup3\n        /* \"#utility.yul\":27037:27051   */\n      add\n        /* \"#utility.yul\":27022:27051   */\n      swap1\n      pop\n        /* \"#utility.yul\":26838:27057   */\n      swap3\n      swap2\n      pop\n      pop\n      jump\t// out\n        /* \"#utility.yul\":27063:27230   */\n    tag_423:\n        /* \"#utility.yul\":27165:27169   */\n      0x00\n        /* \"#utility.yul\":27188:27191   */\n      dup2\n        /* \"#utility.yul\":27180:27191   */\n      swap1\n      pop\n        /* \"#utility.yul\":27218:27222   */\n      0x20\n        /* \"#utility.yul\":27213:27216   */\n      dup3\n        /* \"#utility.yul\":27209:27223   */\n      add\n        /* \"#utility.yul\":27201:27223   */\n      swap1\n      pop\n        /* \"#utility.yul\":27063:27230   */\n      swap2\n      swap1\n      pop\n      jump\t// out\n        /* \"#utility.yul\":27236:27532   */\n    tag_424:\n        /* \"#utility.yul\":27375:27385   */\n      0x00\n        /* \"#utility.yul\":27410:27526   */\n      tag_734\n        /* \"#utility.yul\":27522:27525   */\n      dup4\n        /* \"#utility.yul\":27514:27520   */\n      dup4\n        /* \"#utility.yul\":27410:27526   */\n      tag_402\n      jump\t// in\n    tag_734:\n        /* \"#utility.yul\":27396:27526   */\n      swap1\n      pop\n        /* \"#utility.yul\":27236:27532   */\n      swap3\n      swap2\n      pop\n      pop\n      jump\t// out\n        /* \"#utility.yul\":27538:27686   */\n    tag_425:\n        /* \"#utility.yul\":27643:27647   */\n      0x00\n        /* \"#utility.yul\":27675:27679   */\n      0x20\n        /* \"#utility.yul\":27670:27673   */\n      dup3\n        /* \"#utility.yul\":27666:27680   */\n      add\n        /* \"#utility.yul\":27658:27680   */\n      swap1\n      pop\n        /* \"#utility.yul\":27538:27686   */\n      swap2\n      swap1\n      pop\n      jump\t// out\n        /* \"#utility.yul\":27724:28915   */\n    tag_426:\n        /* \"#utility.yul\":27913:27916   */\n      0x00\n        /* \"#utility.yul\":27942:28031   */\n      tag_737\n        /* \"#utility.yul\":28025:28030   */\n      dup3\n        /* \"#utility.yul\":27942:28031   */\n      tag_421\n      jump\t// in\n    tag_737:\n        /* \"#utility.yul\":28047:28168   */\n      tag_738\n        /* \"#utility.yul\":28161:28167   */\n      dup2\n        /* \"#utility.yul\":28156:28159   */\n      dup6\n        /* \"#utility.yul\":28047:28168   */\n      tag_422\n      jump\t// in\n    tag_738:\n        /* \"#utility.yul\":28040:28168   */\n      swap4\n      pop\n        /* \"#utility.yul\":28194:28197   */\n      dup4\n        /* \"#utility.yul\":28239:28243   */\n      0x20\n        /* \"#utility.yul\":28231:28237   */\n      dup3\n        /* \"#utility.yul\":28227:28244   */\n      mul\n        /* \"#utility.yul\":28222:28225   */\n      dup6\n        /* \"#utility.yul\":28218:28245   */\n      add\n        /* \"#utility.yul\":28269:28360   */\n      tag_739\n        /* \"#utility.yul\":28354:28359   */\n      dup6\n        /* \"#utility.yul\":28269:28360   */\n      tag_423\n      jump\t// in\n    tag_739:\n        /* \"#utility.yul\":28383:28390   */\n      dup1\n        /* \"#utility.yul\":28414:28415   */\n      0x00\n        /* \"#utility.yul\":28399:28870   */\n    tag_740:\n        /* \"#utility.yul\":28424:28430   */\n      dup6\n        /* \"#utility.yul\":28421:28422   */\n      dup2\n        /* \"#utility.yul\":28418:28431   */\n      lt\n        /* \"#utility.yul\":28399:28870   */\n      iszero\n      tag_742\n      jumpi\n        /* \"#utility.yul\":28495:28504   */\n      dup5\n        /* \"#utility.yul\":28489:28493   */\n      dup5\n        /* \"#utility.yul\":28485:28505   */\n      sub\n        /* \"#utility.yul\":28480:28483   */\n      dup10\n        /* \"#utility.yul\":28473:28506   */\n      mstore\n        /* \"#utility.yul\":28546:28552   */\n      dup2\n        /* \"#utility.yul\":28540:28553   */\n      mload\n        /* \"#utility.yul\":28574:28708   */\n      tag_743\n        /* \"#utility.yul\":28703:28707   */\n      dup6\n        /* \"#utility.yul\":28688:28701   */\n      dup3\n        /* \"#utility.yul\":28574:28708   */\n      tag_424\n      jump\t// in\n    tag_743:\n        /* \"#utility.yul\":28566:28708   */\n      swap5\n      pop\n        /* \"#utility.yul\":28731:28826   */\n      tag_744\n        /* \"#utility.yul\":28819:28825   */\n      dup4\n        /* \"#utility.yul\":28731:28826   */\n      tag_425\n      jump\t// in\n    tag_744:\n        /* \"#utility.yul\":28721:28826   */\n      swap3\n      pop\n        /* \"#utility.yul\":28855:28859   */\n      0x20\n        /* \"#utility.yul\":28850:28853   */\n      dup11\n        /* \"#utility.yul\":28846:28860   */\n      add\n        /* \"#utility.yul\":28839:28860   */\n      swap10\n      pop\n        /* \"#utility.yul\":28459:28870   */\n      pop\n        /* \"#utility.yul\":28446:28447   */\n      0x01\n        /* \"#utility.yul\":28443:28444   */\n      dup2\n        /* \"#utility.yul\":28439:28448   */\n      add\n        /* \"#utility.yul\":28434:28448   */\n      swap1\n      pop\n        /* \"#utility.yul\":28399:28870   */\n      jump(tag_740)\n    tag_742:\n        /* \"#utility.yul\":28403:28417   */\n      pop\n        /* \"#utility.yul\":28886:28890   */\n      dup3\n        /* \"#utility.yul\":28879:28890   */\n      swap8\n      pop\n        /* \"#utility.yul\":28906:28909   */\n      dup8\n        /* \"#utility.yul\":28899:28909   */\n      swap6\n      pop\n        /* \"#utility.yul\":27918:28915   */\n      pop\n      pop\n      pop\n      pop\n      pop\n        /* \"#utility.yul\":27724:28915   */\n      swap3\n      swap2\n      pop\n      pop\n      jump\t// out\n        /* \"#utility.yul\":28921:30020   */\n    tag_46:\n        /* \"#utility.yul\":29322:29326   */\n      0x00\n        /* \"#utility.yul\":29360:29362   */\n      0x60\n        /* \"#utility.yul\":29349:29358   */\n      dup3\n        /* \"#utility.yul\":29345:29363   */\n      add\n        /* \"#utility.yul\":29337:29363   */\n      swap1\n      pop\n        /* \"#utility.yul\":29409:29418   */\n      dup2\n        /* \"#utility.yul\":29403:29407   */\n      dup2\n        /* \"#utility.yul\":29399:29419   */\n      sub\n        /* \"#utility.yul\":29395:29396   */\n      0x00\n        /* \"#utility.yul\":29384:29393   */\n      dup4\n        /* \"#utility.yul\":29380:29397   */\n      add\n        /* \"#utility.yul\":29373:29420   */\n      mstore\n        /* \"#utility.yul\":29437:29565   */\n      tag_746\n        /* \"#utility.yul\":29560:29564   */\n      dup2\n        /* \"#utility.yul\":29551:29557   */\n      dup7\n        /* \"#utility.yul\":29437:29565   */\n      tag_394\n      jump\t// in\n    tag_746:\n        /* \"#utility.yul\":29429:29565   */\n      swap1\n      pop\n        /* \"#utility.yul\":29612:29621   */\n      dup2\n        /* \"#utility.yul\":29606:29610   */\n      dup2\n        /* \"#utility.yul\":29602:29622   */\n      sub\n        /* \"#utility.yul\":29597:29599   */\n      0x20\n        /* \"#utility.yul\":29586:29595   */\n      dup4\n        /* \"#utility.yul\":29582:29600   */\n      add\n        /* \"#utility.yul\":29575:29623   */\n      mstore\n        /* \"#utility.yul\":29640:29760   */\n      tag_747\n        /* \"#utility.yul\":29755:29759   */\n      dup2\n        /* \"#utility.yul\":29746:29752   */\n      dup6\n        /* \"#utility.yul\":29640:29760   */\n      tag_420\n      jump\t// in\n    tag_747:\n        /* \"#utility.yul\":29632:29760   */\n      swap1\n      pop\n        /* \"#utility.yul\":29807:29816   */\n      dup2\n        /* \"#utility.yul\":29801:29805   */\n      dup2\n        /* \"#utility.yul\":29797:29817   */\n      sub\n        /* \"#utility.yul\":29792:29794   */\n      0x40\n        /* \"#utility.yul\":29781:29790   */\n      dup4\n        /* \"#utility.yul\":29777:29795   */\n      add\n        /* \"#utility.yul\":29770:29818   */\n      mstore\n        /* \"#utility.yul\":29835:30013   */\n      tag_748\n        /* \"#utility.yul\":30008:30012   */\n      dup2\n        /* \"#utility.yul\":29999:30005   */\n      dup5\n        /* \"#utility.yul\":29835:30013   */\n      tag_426\n      jump\t// in\n    tag_748:\n        /* \"#utility.yul\":29827:30013   */\n      swap1\n      pop\n        /* \"#utility.yul\":28921:30020   */\n      swap5\n      swap4\n      pop\n      pop\n      pop\n      pop\n      jump\t// out\n        /* \"#utility.yul\":30026:30337   */\n    tag_427:\n        /* \"#utility.yul\":30103:30107   */\n      0x00\n        /* \"#utility.yul\":30193:30211   */\n      0xffffffffffffffff\n        /* \"#utility.yul\":30185:30191   */\n      dup3\n        /* \"#utility.yul\":30182:30212   */\n      gt\n        /* \"#utility.yul\":30179:30235   */\n      iszero\n      tag_750\n      jumpi\n        /* \"#utility.yul\":30215:30233   */\n      tag_751\n      tag_351\n      jump\t// in\n    tag_751:\n        /* \"#utility.yul\":30179:30235   */\n    tag_750:\n        /* \"#utility.yul\":30265:30269   */\n      0x20\n        /* \"#utility.yul\":30257:30263   */\n      dup3\n        /* \"#utility.yul\":30253:30270   */\n      mul\n        /* \"#utility.yul\":30245:30270   */\n      swap1\n      pop\n        /* \"#utility.yul\":30325:30329   */\n      0x20\n        /* \"#utility.yul\":30319:30323   */\n      dup2\n        /* \"#utility.yul\":30315:30330   */\n      add\n        /* \"#utility.yul\":30307:30330   */\n      swap1\n      pop\n        /* \"#utility.yul\":30026:30337   */\n      swap2\n      swap1\n      pop\n      jump\t// out\n        /* \"#utility.yul\":30343:30465   */\n    tag_428:\n        /* \"#utility.yul\":30416:30440   */\n      tag_753\n        /* \"#utility.yul\":30434:30439   */\n      dup2\n        /* \"#utility.yul\":30416:30440   */\n      tag_380\n      jump\t// in\n    tag_753:\n        /* \"#utility.yul\":30409:30414   */\n      dup2\n        /* \"#utility.yul\":30406:30441   */\n      eq\n        /* \"#utility.yul\":30396:30459   */\n      tag_754\n      jumpi\n        /* \"#utility.yul\":30455:30456   */\n      0x00\n        /* \"#utility.yul\":30452:30453   */\n      dup1\n        /* \"#utility.yul\":30445:30457   */\n      revert\n        /* \"#utility.yul\":30396:30459   */\n    tag_754:\n        /* \"#utility.yul\":30343:30465   */\n      pop\n      jump\t// out\n        /* \"#utility.yul\":30471:30610   */\n    tag_429:\n        /* \"#utility.yul\":30517:30522   */\n      0x00\n        /* \"#utility.yul\":30555:30561   */\n      dup2\n        /* \"#utility.yul\":30542:30562   */\n      calldataload\n        /* \"#utility.yul\":30533:30562   */\n      swap1\n      pop\n        /* \"#utility.yul\":30571:30604   */\n      tag_756\n        /* \"#utility.yul\":30598:30603   */\n      dup2\n        /* \"#utility.yul\":30571:30604   */\n      tag_428\n      jump\t// in\n    tag_756:\n        /* \"#utility.yul\":30471:30610   */\n      swap3\n      swap2\n      pop\n      pop\n      jump\t// out\n        /* \"#utility.yul\":30633:31343   */\n    tag_430:\n        /* \"#utility.yul\":30729:30734   */\n      0x00\n        /* \"#utility.yul\":30754:30835   */\n      tag_758\n        /* \"#utility.yul\":30770:30834   */\n      tag_759\n        /* \"#utility.yul\":30827:30833   */\n      dup5\n        /* \"#utility.yul\":30770:30834   */\n      tag_427\n      jump\t// in\n    tag_759:\n        /* \"#utility.yul\":30754:30835   */\n      tag_353\n      jump\t// in\n    tag_758:\n        /* \"#utility.yul\":30745:30835   */\n      swap1\n      pop\n        /* \"#utility.yul\":30855:30860   */\n      dup1\n        /* \"#utility.yul\":30884:30890   */\n      dup4\n        /* \"#utility.yul\":30877:30882   */\n      dup3\n        /* \"#utility.yul\":30870:30891   */\n      mstore\n        /* \"#utility.yul\":30918:30922   */\n      0x20\n        /* \"#utility.yul\":30911:30916   */\n      dup3\n        /* \"#utility.yul\":30907:30923   */\n      add\n        /* \"#utility.yul\":30900:30923   */\n      swap1\n      pop\n        /* \"#utility.yul\":30971:30975   */\n      0x20\n        /* \"#utility.yul\":30963:30969   */\n      dup5\n        /* \"#utility.yul\":30959:30976   */\n      mul\n        /* \"#utility.yul\":30951:30957   */\n      dup4\n        /* \"#utility.yul\":30947:30977   */\n      add\n        /* \"#utility.yul\":31000:31003   */\n      dup6\n        /* \"#utility.yul\":30992:30998   */\n      dup2\n        /* \"#utility.yul\":30989:31004   */\n      gt\n        /* \"#utility.yul\":30986:31108   */\n      iszero\n      tag_760\n      jumpi\n        /* \"#utility.yul\":31019:31098   */\n      tag_761\n      tag_355\n      jump\t// in\n    tag_761:\n        /* \"#utility.yul\":30986:31108   */\n    tag_760:\n        /* \"#utility.yul\":31134:31140   */\n      dup4\n        /* \"#utility.yul\":31117:31337   */\n    tag_762:\n        /* \"#utility.yul\":31151:31157   */\n      dup2\n        /* \"#utility.yul\":31146:31149   */\n      dup2\n        /* \"#utility.yul\":31143:31158   */\n      lt\n        /* \"#utility.yul\":31117:31337   */\n      iszero\n      tag_764\n      jumpi\n        /* \"#utility.yul\":31226:31229   */\n      dup1\n        /* \"#utility.yul\":31255:31292   */\n      tag_765\n        /* \"#utility.yul\":31288:31291   */\n      dup9\n        /* \"#utility.yul\":31276:31286   */\n      dup3\n        /* \"#utility.yul\":31255:31292   */\n      tag_429\n      jump\t// in\n    tag_765:\n        /* \"#utility.yul\":31250:31253   */\n      dup5\n        /* \"#utility.yul\":31243:31293   */\n      mstore\n        /* \"#utility.yul\":31322:31326   */\n      0x20\n        /* \"#utility.yul\":31317:31320   */\n      dup5\n        /* \"#utility.yul\":31313:31327   */\n      add\n        /* \"#utility.yul\":31306:31327   */\n      swap4\n      pop\n        /* \"#utility.yul\":31193:31337   */\n      pop\n        /* \"#utility.yul\":31177:31181   */\n      0x20\n        /* \"#utility.yul\":31172:31175   */\n      dup2\n        /* \"#utility.yul\":31168:31182   */\n      add\n        /* \"#utility.yul\":31161:31182   */\n      swap1\n      pop\n        /* \"#utility.yul\":31117:31337   */\n      jump(tag_762)\n    tag_764:\n        /* \"#utility.yul\":31121:31142   */\n      pop\n        /* \"#utility.yul\":30735:31343   */\n      pop\n      pop\n        /* \"#utility.yul\":30633:31343   */\n      swap4\n      swap3\n      pop\n      pop\n      pop\n      jump\t// out\n        /* \"#utility.yul\":31366:31736   */\n    tag_431:\n        /* \"#utility.yul\":31437:31442   */\n      0x00\n        /* \"#utility.yul\":31486:31489   */\n      dup3\n        /* \"#utility.yul\":31479:31483   */\n      0x1f\n        /* \"#utility.yul\":31471:31477   */\n      dup4\n        /* \"#utility.yul\":31467:31484   */\n      add\n        /* \"#utility.yul\":31463:31490   */\n      slt\n        /* \"#utility.yul\":31453:31575   */\n      tag_767\n      jumpi\n        /* \"#utility.yul\":31494:31573   */\n      tag_768\n      tag_349\n      jump\t// in\n    tag_768:\n        /* \"#utility.yul\":31453:31575   */\n    tag_767:\n        /* \"#utility.yul\":31611:31617   */\n      dup2\n        /* \"#utility.yul\":31598:31618   */\n      calldataload\n        /* \"#utility.yul\":31636:31730   */\n      tag_769\n        /* \"#utility.yul\":31726:31729   */\n      dup5\n        /* \"#utility.yul\":31718:31724   */\n      dup3\n        /* \"#utility.yul\":31711:31715   */\n      0x20\n        /* \"#utility.yul\":31703:31709   */\n      dup7\n        /* \"#utility.yul\":31699:31716   */\n      add\n        /* \"#utility.yul\":31636:31730   */\n      tag_430\n      jump\t// in\n    tag_769:\n        /* \"#utility.yul\":31627:31730   */\n      swap2\n      pop\n        /* \"#utility.yul\":31443:31736   */\n      pop\n        /* \"#utility.yul\":31366:31736   */\n      swap3\n      swap2\n      pop\n      pop\n      jump\t// out\n        /* \"#utility.yul\":31742:33975   */\n    tag_53:\n        /* \"#utility.yul\":31970:31976   */\n      0x00\n        /* \"#utility.yul\":31978:31984   */\n      dup1\n        /* \"#utility.yul\":31986:31992   */\n      0x00\n        /* \"#utility.yul\":31994:32000   */\n      dup1\n        /* \"#utility.yul\":32002:32008   */\n      0x00\n        /* \"#utility.yul\":32010:32016   */\n      dup1\n        /* \"#utility.yul\":32018:32024   */\n      0x00\n        /* \"#utility.yul\":32067:32070   */\n      0xe0\n        /* \"#utility.yul\":32055:32064   */\n      dup9\n        /* \"#utility.yul\":32046:32053   */\n      dup11\n        /* \"#utility.yul\":32042:32065   */\n      sub\n        /* \"#utility.yul\":32038:32071   */\n      slt\n        /* \"#utility.yul\":32035:32155   */\n      iszero\n      tag_771\n      jumpi\n        /* \"#utility.yul\":32074:32153   */\n      tag_772\n      tag_347\n      jump\t// in\n    tag_772:\n        /* \"#utility.yul\":32035:32155   */\n    tag_771:\n        /* \"#utility.yul\":32222:32223   */\n      0x00\n        /* \"#utility.yul\":32211:32220   */\n      dup9\n        /* \"#utility.yul\":32207:32224   */\n      add\n        /* \"#utility.yul\":32194:32225   */\n      calldataload\n        /* \"#utility.yul\":32252:32270   */\n      0xffffffffffffffff\n        /* \"#utility.yul\":32244:32250   */\n      dup2\n        /* \"#utility.yul\":32241:32271   */\n      gt\n        /* \"#utility.yul\":32238:32355   */\n      iszero\n      tag_773\n      jumpi\n        /* \"#utility.yul\":32274:32353   */\n      tag_774\n      tag_348\n      jump\t// in\n    tag_774:\n        /* \"#utility.yul\":32238:32355   */\n    tag_773:\n        /* \"#utility.yul\":32379:32442   */\n      tag_775\n        /* \"#utility.yul\":32434:32441   */\n      dup11\n        /* \"#utility.yul\":32425:32431   */\n      dup3\n        /* \"#utility.yul\":32414:32423   */\n      dup12\n        /* \"#utility.yul\":32410:32432   */\n      add\n        /* \"#utility.yul\":32379:32442   */\n      tag_360\n      jump\t// in\n    tag_775:\n        /* \"#utility.yul\":32369:32442   */\n      swap8\n      pop\n        /* \"#utility.yul\":32165:32452   */\n      pop\n        /* \"#utility.yul\":32519:32521   */\n      0x20\n        /* \"#utility.yul\":32508:32517   */\n      dup9\n        /* \"#utility.yul\":32504:32522   */\n      add\n        /* \"#utility.yul\":32491:32523   */\n      calldataload\n        /* \"#utility.yul\":32550:32568   */\n      0xffffffffffffffff\n        /* \"#utility.yul\":32542:32548   */\n      dup2\n        /* \"#utility.yul\":32539:32569   */\n      gt\n        /* \"#utility.yul\":32536:32653   */\n      iszero\n      tag_776\n      jumpi\n        /* \"#utility.yul\":32572:32651   */\n      tag_777\n      tag_348\n      jump\t// in\n    tag_777:\n        /* \"#utility.yul\":32536:32653   */\n    tag_776:\n        /* \"#utility.yul\":32677:32755   */\n      tag_778\n        /* \"#utility.yul\":32747:32754   */\n      dup11\n        /* \"#utility.yul\":32738:32744   */\n      dup3\n        /* \"#utility.yul\":32727:32736   */\n      dup12\n        /* \"#utility.yul\":32723:32745   */\n      add\n        /* \"#utility.yul\":32677:32755   */\n      tag_431\n      jump\t// in\n    tag_778:\n        /* \"#utility.yul\":32667:32755   */\n      swap7\n      pop\n        /* \"#utility.yul\":32462:32765   */\n      pop\n        /* \"#utility.yul\":32832:32834   */\n      0x40\n        /* \"#utility.yul\":32821:32830   */\n      dup9\n        /* \"#utility.yul\":32817:32835   */\n      add\n        /* \"#utility.yul\":32804:32836   */\n      calldataload\n        /* \"#utility.yul\":32863:32881   */\n      0xffffffffffffffff\n        /* \"#utility.yul\":32855:32861   */\n      dup2\n        /* \"#utility.yul\":32852:32882   */\n      gt\n        /* \"#utility.yul\":32849:32966   */\n      iszero\n      tag_779\n      jumpi\n        /* \"#utility.yul\":32885:32964   */\n      tag_780\n      tag_348\n      jump\t// in\n    tag_780:\n        /* \"#utility.yul\":32849:32966   */\n    tag_779:\n        /* \"#utility.yul\":32990:33078   */\n      tag_781\n        /* \"#utility.yul\":33070:33077   */\n      dup11\n        /* \"#utility.yul\":33061:33067   */\n      dup3\n        /* \"#utility.yul\":33050:33059   */\n      dup12\n        /* \"#utility.yul\":33046:33068   */\n      add\n        /* \"#utility.yul\":32990:33078   */\n      tag_362\n      jump\t// in\n    tag_781:\n        /* \"#utility.yul\":32980:33078   */\n      swap6\n      pop\n        /* \"#utility.yul\":32775:33088   */\n      pop\n        /* \"#utility.yul\":33155:33157   */\n      0x60\n        /* \"#utility.yul\":33144:33153   */\n      dup9\n        /* \"#utility.yul\":33140:33158   */\n      add\n        /* \"#utility.yul\":33127:33159   */\n      calldataload\n        /* \"#utility.yul\":33186:33204   */\n      0xffffffffffffffff\n        /* \"#utility.yul\":33178:33184   */\n      dup2\n        /* \"#utility.yul\":33175:33205   */\n      gt\n        /* \"#utility.yul\":33172:33289   */\n      iszero\n      tag_782\n      jumpi\n        /* \"#utility.yul\":33208:33287   */\n      tag_783\n      tag_348\n      jump\t// in\n    tag_783:\n        /* \"#utility.yul\":33172:33289   */\n    tag_782:\n        /* \"#utility.yul\":33313:33401   */\n      tag_784\n        /* \"#utility.yul\":33393:33400   */\n      dup11\n        /* \"#utility.yul\":33384:33390   */\n      dup3\n        /* \"#utility.yul\":33373:33382   */\n      dup12\n        /* \"#utility.yul\":33369:33391   */\n      add\n        /* \"#utility.yul\":33313:33401   */\n      tag_362\n      jump\t// in\n    tag_784:\n        /* \"#utility.yul\":33303:33401   */\n      swap5\n      pop\n        /* \"#utility.yul\":33098:33411   */\n      pop\n        /* \"#utility.yul\":33478:33481   */\n      0x80\n        /* \"#utility.yul\":33467:33476   */\n      dup9\n        /* \"#utility.yul\":33463:33482   */\n      add\n        /* \"#utility.yul\":33450:33483   */\n      calldataload\n        /* \"#utility.yul\":33510:33528   */\n      0xffffffffffffffff\n        /* \"#utility.yul\":33502:33508   */\n      dup2\n        /* \"#utility.yul\":33499:33529   */\n      gt\n        /* \"#utility.yul\":33496:33613   */\n      iszero\n      tag_785\n      jumpi\n        /* \"#utility.yul\":33532:33611   */\n      tag_786\n      tag_348\n      jump\t// in\n    tag_786:\n        /* \"#utility.yul\":33496:33613   */\n    tag_785:\n        /* \"#utility.yul\":33637:33700   */\n      tag_787\n        /* \"#utility.yul\":33692:33699   */\n      dup11\n        /* \"#utility.yul\":33683:33689   */\n      dup3\n        /* \"#utility.yul\":33672:33681   */\n      dup12\n        /* \"#utility.yul\":33668:33690   */\n      add\n        /* \"#utility.yul\":33637:33700   */\n      tag_360\n      jump\t// in\n    tag_787:\n        /* \"#utility.yul\":33627:33700   */\n      swap4\n      pop\n        /* \"#utility.yul\":33421:33710   */\n      pop\n        /* \"#utility.yul\":33749:33752   */\n      0xa0\n        /* \"#utility.yul\":33776:33829   */\n      tag_788\n        /* \"#utility.yul\":33821:33828   */\n      dup11\n        /* \"#utility.yul\":33812:33818   */\n      dup3\n        /* \"#utility.yul\":33801:33810   */\n      dup12\n        /* \"#utility.yul\":33797:33819   */\n      add\n        /* \"#utility.yul\":33776:33829   */\n      tag_410\n      jump\t// in\n    tag_788:\n        /* \"#utility.yul\":33766:33829   */\n      swap3\n      pop\n        /* \"#utility.yul\":33720:33839   */\n      pop\n        /* \"#utility.yul\":33878:33881   */\n      0xc0\n        /* \"#utility.yul\":33905:33958   */\n      tag_789\n        /* \"#utility.yul\":33950:33957   */\n      dup11\n        /* \"#utility.yul\":33941:33947   */\n      dup3\n        /* \"#utility.yul\":33930:33939   */\n      dup12\n        /* \"#utility.yul\":33926:33948   */\n      add\n        /* \"#utility.yul\":33905:33958   */\n      tag_410\n      jump\t// in\n    tag_789:\n        /* \"#utility.yul\":33895:33958   */\n      swap2\n      pop\n        /* \"#utility.yul\":33849:33968   */\n      pop\n        /* \"#utility.yul\":31742:33975   */\n      swap3\n      swap6\n      swap9\n      swap2\n      swap5\n      swap8\n      pop\n      swap3\n      swap6\n      pop\n      jump\t// out\n        /* \"#utility.yul\":33981:34394   */\n    tag_59:\n        /* \"#utility.yul\":34144:34148   */\n      0x00\n        /* \"#utility.yul\":34182:34184   */\n      0x20\n        /* \"#utility.yul\":34171:34180   */\n      dup3\n        /* \"#utility.yul\":34167:34185   */\n      add\n        /* \"#utility.yul\":34159:34185   */\n      swap1\n      pop\n        /* \"#utility.yul\":34231:34240   */\n      dup2\n        /* \"#utility.yul\":34225:34229   */\n      dup2\n        /* \"#utility.yul\":34221:34241   */\n      sub\n        /* \"#utility.yul\":34217:34218   */\n      0x00\n        /* \"#utility.yul\":34206:34215   */\n      dup4\n        /* \"#utility.yul\":34202:34219   */\n      add\n        /* \"#utility.yul\":34195:34242   */\n      mstore\n        /* \"#utility.yul\":34259:34387   */\n      tag_791\n        /* \"#utility.yul\":34382:34386   */\n      dup2\n        /* \"#utility.yul\":34373:34379   */\n      dup5\n        /* \"#utility.yul\":34259:34387   */\n      tag_394\n      jump\t// in\n    tag_791:\n        /* \"#utility.yul\":34251:34387   */\n      swap1\n      pop\n        /* \"#utility.yul\":33981:34394   */\n      swap3\n      swap2\n      pop\n      pop\n      jump\t// out\n        /* \"#utility.yul\":34400:34581   */\n    tag_432:\n        /* \"#utility.yul\":34540:34573   */\n      0x4465726573793a205175657374696f6e732063616e2774206265206e756c6c00\n        /* \"#utility.yul\":34536:34537   */\n      0x00\n        /* \"#utility.yul\":34528:34534   */\n      dup3\n        /* \"#utility.yul\":34524:34538   */\n      add\n        /* \"#utility.yul\":34517:34574   */\n      mstore\n        /* \"#utility.yul\":34400:34581   */\n      pop\n      jump\t// out\n        /* \"#utility.yul\":34587:34953   */\n    tag_433:\n        /* \"#utility.yul\":34729:34732   */\n      0x00\n        /* \"#utility.yul\":34750:34817   */\n      tag_794\n        /* \"#utility.yul\":34814:34816   */\n      0x1f\n        /* \"#utility.yul\":34809:34812   */\n      dup4\n        /* \"#utility.yul\":34750:34817   */\n      tag_395\n      jump\t// in\n    tag_794:\n        /* \"#utility.yul\":34743:34817   */\n      swap2\n      pop\n        /* \"#utility.yul\":34826:34919   */\n      tag_795\n        /* \"#utility.yul\":34915:34918   */\n      dup3\n        /* \"#utility.yul\":34826:34919   */\n      tag_432\n      jump\t// in\n    tag_795:\n        /* \"#utility.yul\":34944:34946   */\n      0x20\n        /* \"#utility.yul\":34939:34942   */\n      dup3\n        /* \"#utility.yul\":34935:34947   */\n      add\n        /* \"#utility.yul\":34928:34947   */\n      swap1\n      pop\n        /* \"#utility.yul\":34587:34953   */\n      swap2\n      swap1\n      pop\n      jump\t// out\n        /* \"#utility.yul\":34959:35378   */\n    tag_63:\n        /* \"#utility.yul\":35125:35129   */\n      0x00\n        /* \"#utility.yul\":35163:35165   */\n      0x20\n        /* \"#utility.yul\":35152:35161   */\n      dup3\n        /* \"#utility.yul\":35148:35166   */\n      add\n        /* \"#utility.yul\":35140:35166   */\n      swap1\n      pop\n        /* \"#utility.yul\":35212:35221   */\n      dup2\n        /* \"#utility.yul\":35206:35210   */\n      dup2\n        /* \"#utility.yul\":35202:35222   */\n      sub\n        /* \"#utility.yul\":35198:35199   */\n      0x00\n        /* \"#utility.yul\":35187:35196   */\n      dup4\n        /* \"#utility.yul\":35183:35200   */\n      add\n        /* \"#utility.yul\":35176:35223   */\n      mstore\n        /* \"#utility.yul\":35240:35371   */\n      tag_797\n        /* \"#utility.yul\":35366:35370   */\n      dup2\n        /* \"#utility.yul\":35240:35371   */\n      tag_433\n      jump\t// in\n    tag_797:\n        /* \"#utility.yul\":35232:35371   */\n      swap1\n      pop\n        /* \"#utility.yul\":34959:35378   */\n      swap2\n      swap1\n      pop\n      jump\t// out\n        /* \"#utility.yul\":35384:35607   */\n    tag_434:\n        /* \"#utility.yul\":35524:35558   */\n      0x4465726573793a205175657374696f6e2054797065732063616e277420626520\n        /* \"#utility.yul\":35520:35521   */\n      0x00\n        /* \"#utility.yul\":35512:35518   */\n      dup3\n        /* \"#utility.yul\":35508:35522   */\n      add\n        /* \"#utility.yul\":35501:35559   */\n      mstore\n        /* \"#utility.yul\":35593:35599   */\n      0x6e756c6c00000000000000000000000000000000000000000000000000000000\n        /* \"#utility.yul\":35588:35590   */\n      0x20\n        /* \"#utility.yul\":35580:35586   */\n      dup3\n        /* \"#utility.yul\":35576:35591   */\n      add\n        /* \"#utility.yul\":35569:35600   */\n      mstore\n        /* \"#utility.yul\":35384:35607   */\n      pop\n      jump\t// out\n        /* \"#utility.yul\":35613:35979   */\n    tag_435:\n        /* \"#utility.yul\":35755:35758   */\n      0x00\n        /* \"#utility.yul\":35776:35843   */\n      tag_800\n        /* \"#utility.yul\":35840:35842   */\n      0x24\n        /* \"#utility.yul\":35835:35838   */\n      dup4\n        /* \"#utility.yul\":35776:35843   */\n      tag_395\n      jump\t// in\n    tag_800:\n        /* \"#utility.yul\":35769:35843   */\n      swap2\n      pop\n        /* \"#utility.yul\":35852:35945   */\n      tag_801\n        /* \"#utility.yul\":35941:35944   */\n      dup3\n        /* \"#utility.yul\":35852:35945   */\n      tag_434\n      jump\t// in\n    tag_801:\n        /* \"#utility.yul\":35970:35972   */\n      0x40\n        /* \"#utility.yul\":35965:35968   */\n      dup3\n        /* \"#utility.yul\":35961:35973   */\n      add\n        /* \"#utility.yul\":35954:35973   */\n      swap1\n      pop\n        /* \"#utility.yul\":35613:35979   */\n      swap2\n      swap1\n      pop\n      jump\t// out\n        /* \"#utility.yul\":35985:36404   */\n    tag_66:\n        /* \"#utility.yul\":36151:36155   */\n      0x00\n        /* \"#utility.yul\":36189:36191   */\n      0x20\n        /* \"#utility.yul\":36178:36187   */\n      dup3\n        /* \"#utility.yul\":36174:36192   */\n      add\n        /* \"#utility.yul\":36166:36192   */\n      swap1\n      pop\n        /* \"#utility.yul\":36238:36247   */\n      dup2\n        /* \"#utility.yul\":36232:36236   */\n      dup2\n        /* \"#utility.yul\":36228:36248   */\n      sub\n        /* \"#utility.yul\":36224:36225   */\n      0x00\n        /* \"#utility.yul\":36213:36222   */\n      dup4\n        /* \"#utility.yul\":36209:36226   */\n      add\n        /* \"#utility.yul\":36202:36249   */\n      mstore\n        /* \"#utility.yul\":36266:36397   */\n      tag_803\n        /* \"#utility.yul\":36392:36396   */\n      dup2\n        /* \"#utility.yul\":36266:36397   */\n      tag_435\n      jump\t// in\n    tag_803:\n        /* \"#utility.yul\":36258:36397   */\n      swap1\n      pop\n        /* \"#utility.yul\":35985:36404   */\n      swap2\n      swap1\n      pop\n      jump\t// out\n        /* \"#utility.yul\":36410:36650   */\n    tag_436:\n        /* \"#utility.yul\":36550:36584   */\n      0x4465726573793a205175657374696f6e7320616e64207479706573206d757374\n        /* \"#utility.yul\":36546:36547   */\n      0x00\n        /* \"#utility.yul\":36538:36544   */\n      dup3\n        /* \"#utility.yul\":36534:36548   */\n      add\n        /* \"#utility.yul\":36527:36585   */\n      mstore\n        /* \"#utility.yul\":36619:36642   */\n      0x2068617665207468652073616d65206c656e6774680000000000000000000000\n        /* \"#utility.yul\":36614:36616   */\n      0x20\n        /* \"#utility.yul\":36606:36612   */\n      dup3\n        /* \"#utility.yul\":36602:36617   */\n      add\n        /* \"#utility.yul\":36595:36643   */\n      mstore\n        /* \"#utility.yul\":36410:36650   */\n      pop\n      jump\t// out\n        /* \"#utility.yul\":36656:37022   */\n    tag_437:\n        /* \"#utility.yul\":36798:36801   */\n      0x00\n        /* \"#utility.yul\":36819:36886   */\n      tag_806\n        /* \"#utility.yul\":36883:36885   */\n      0x35\n        /* \"#utility.yul\":36878:36881   */\n      dup4\n        /* \"#utility.yul\":36819:36886   */\n      tag_395\n      jump\t// in\n    tag_806:\n        /* \"#utility.yul\":36812:36886   */\n      swap2\n      pop\n        /* \"#utility.yul\":36895:36988   */\n      tag_807\n        /* \"#utility.yul\":36984:36987   */\n      dup3\n        /* \"#utility.yul\":36895:36988   */\n      tag_436\n      jump\t// in\n    tag_807:\n        /* \"#utility.yul\":37013:37015   */\n      0x40\n        /* \"#utility.yul\":37008:37011   */\n      dup3\n        /* \"#utility.yul\":37004:37016   */\n      add\n        /* \"#utility.yul\":36997:37016   */\n      swap1\n      pop\n        /* \"#utility.yul\":36656:37022   */\n      swap2\n      swap1\n      pop\n      jump\t// out\n        /* \"#utility.yul\":37028:37447   */\n    tag_69:\n        /* \"#utility.yul\":37194:37198   */\n      0x00\n        /* \"#utility.yul\":37232:37234   */\n      0x20\n        /* \"#utility.yul\":37221:37230   */\n      dup3\n        /* \"#utility.yul\":37217:37235   */\n      add\n        /* \"#utility.yul\":37209:37235   */\n      swap1\n      pop\n        /* \"#utility.yul\":37281:37290   */\n      dup2\n        /* \"#utility.yul\":37275:37279   */\n      dup2\n        /* \"#utility.yul\":37271:37291   */\n      sub\n        /* \"#utility.yul\":37267:37268   */\n      0x00\n        /* \"#utility.yul\":37256:37265   */\n      dup4\n        /* \"#utility.yul\":37252:37269   */\n      add\n        /* \"#utility.yul\":37245:37292   */\n      mstore\n        /* \"#utility.yul\":37309:37440   */\n      tag_809\n        /* \"#utility.yul\":37435:37439   */\n      dup2\n        /* \"#utility.yul\":37309:37440   */\n      tag_437\n      jump\t// in\n    tag_809:\n        /* \"#utility.yul\":37301:37440   */\n      swap1\n      pop\n        /* \"#utility.yul\":37028:37447   */\n      swap2\n      swap1\n      pop\n      jump\t// out\n        /* \"#utility.yul\":37453:37695   */\n    tag_438:\n        /* \"#utility.yul\":37593:37627   */\n      0x4465726573793a205175657374696f6e7320616e642063686f69636573206d75\n        /* \"#utility.yul\":37589:37590   */\n      0x00\n        /* \"#utility.yul\":37581:37587   */\n      dup3\n        /* \"#utility.yul\":37577:37591   */\n      add\n        /* \"#utility.yul\":37570:37628   */\n      mstore\n        /* \"#utility.yul\":37662:37687   */\n      0x73742068617665207468652073616d65206c656e677468000000000000000000\n        /* \"#utility.yul\":37657:37659   */\n      0x20\n        /* \"#utility.yul\":37649:37655   */\n      dup3\n        /* \"#utility.yul\":37645:37660   */\n      add\n        /* \"#utility.yul\":37638:37688   */\n      mstore\n        /* \"#utility.yul\":37453:37695   */\n      pop\n      jump\t// out\n        /* \"#utility.yul\":37701:38067   */\n    tag_439:\n        /* \"#utility.yul\":37843:37846   */\n      0x00\n        /* \"#utility.yul\":37864:37931   */\n      tag_812\n        /* \"#utility.yul\":37928:37930   */\n      0x37\n        /* \"#utility.yul\":37923:37926   */\n      dup4\n        /* \"#utility.yul\":37864:37931   */\n      tag_395\n      jump\t// in\n    tag_812:\n        /* \"#utility.yul\":37857:37931   */\n      swap2\n      pop\n        /* \"#utility.yul\":37940:38033   */\n      tag_813\n        /* \"#utility.yul\":38029:38032   */\n      dup3\n        /* \"#utility.yul\":37940:38033   */\n      tag_438\n      jump\t// in\n    tag_813:\n        /* \"#utility.yul\":38058:38060   */\n      0x40\n        /* \"#utility.yul\":38053:38056   */\n      dup3\n        /* \"#utility.yul\":38049:38061   */\n      add\n        /* \"#utility.yul\":38042:38061   */\n      swap1\n      pop\n        /* \"#utility.yul\":37701:38067   */\n      swap2\n      swap1\n      pop\n      jump\t// out\n        /* \"#utility.yul\":38073:38492   */\n    tag_72:\n        /* \"#utility.yul\":38239:38243   */\n      0x00\n        /* \"#utility.yul\":38277:38279   */\n      0x20\n        /* \"#utility.yul\":38266:38275   */\n      dup3\n        /* \"#utility.yul\":38262:38280   */\n      add\n        /* \"#utility.yul\":38254:38280   */\n      swap1\n      pop\n        /* \"#utility.yul\":38326:38335   */\n      dup2\n        /* \"#utility.yul\":38320:38324   */\n      dup2\n        /* \"#utility.yul\":38316:38336   */\n      sub\n        /* \"#utility.yul\":38312:38313   */\n      0x00\n        /* \"#utility.yul\":38301:38310   */\n      dup4\n        /* \"#utility.yul\":38297:38314   */\n      add\n        /* \"#utility.yul\":38290:38337   */\n      mstore\n        /* \"#utility.yul\":38354:38485   */\n      tag_815\n        /* \"#utility.yul\":38480:38484   */\n      dup2\n        /* \"#utility.yul\":38354:38485   */\n      tag_439\n      jump\t// in\n    tag_815:\n        /* \"#utility.yul\":38346:38485   */\n      swap1\n      pop\n        /* \"#utility.yul\":38073:38492   */\n      swap2\n      swap1\n      pop\n      jump\t// out\n        /* \"#utility.yul\":38498:38678   */\n    tag_440:\n        /* \"#utility.yul\":38546:38623   */\n      0x4e487b7100000000000000000000000000000000000000000000000000000000\n        /* \"#utility.yul\":38543:38544   */\n      0x00\n        /* \"#utility.yul\":38536:38624   */\n      mstore\n        /* \"#utility.yul\":38643:38647   */\n      0x11\n        /* \"#utility.yul\":38640:38641   */\n      0x04\n        /* \"#utility.yul\":38633:38648   */\n      mstore\n        /* \"#utility.yul\":38667:38671   */\n      0x24\n        /* \"#utility.yul\":38664:38665   */\n      0x00\n        /* \"#utility.yul\":38657:38672   */\n      revert\n        /* \"#utility.yul\":38684:38989   */\n    tag_81:\n        /* \"#utility.yul\":38724:38727   */\n      0x00\n        /* \"#utility.yul\":38743:38763   */\n      tag_818\n        /* \"#utility.yul\":38761:38762   */\n      dup3\n        /* \"#utility.yul\":38743:38763   */\n      tag_371\n      jump\t// in\n    tag_818:\n        /* \"#utility.yul\":38738:38763   */\n      swap2\n      pop\n        /* \"#utility.yul\":38777:38797   */\n      tag_819\n        /* \"#utility.yul\":38795:38796   */\n      dup4\n        /* \"#utility.yul\":38777:38797   */\n      tag_371\n      jump\t// in\n    tag_819:\n        /* \"#utility.yul\":38772:38797   */\n      swap3\n      pop\n        /* \"#utility.yul\":38931:38932   */\n      dup3\n        /* \"#utility.yul\":38863:38929   */\n      0xffffffffffffffffffffffffffffffffffffffffffffffffffffffffffffffff\n        /* \"#utility.yul\":38859:38933   */\n      sub\n        /* \"#utility.yul\":38856:38857   */\n      dup3\n        /* \"#utility.yul\":38853:38934   */\n      gt\n        /* \"#utility.yul\":38850:38957   */\n      iszero\n      tag_820\n      jumpi\n        /* \"#utility.yul\":38937:38955   */\n      tag_821\n      tag_440\n      jump\t// in\n    tag_821:\n        /* \"#utility.yul\":38850:38957   */\n    tag_820:\n        /* \"#utility.yul\":38981:38982   */\n      dup3\n        /* \"#utility.yul\":38978:38979   */\n      dup3\n        /* \"#utility.yul\":38974:38983   */\n      add\n        /* \"#utility.yul\":38967:38983   */\n      swap1\n      pop\n        /* \"#utility.yul\":38684:38989   */\n      swap3\n      swap2\n      pop\n      pop\n      jump\t// out\n        /* \"#utility.yul\":38995:39186   */\n    tag_83:\n        /* \"#utility.yul\":39035:39039   */\n      0x00\n        /* \"#utility.yul\":39055:39075   */\n      tag_823\n        /* \"#utility.yul\":39073:39074   */\n      dup3\n        /* \"#utility.yul\":39055:39075   */\n      tag_371\n      jump\t// in\n    tag_823:\n        /* \"#utility.yul\":39050:39075   */\n      swap2\n      pop\n        /* \"#utility.yul\":39089:39109   */\n      tag_824\n        /* \"#utility.yul\":39107:39108   */\n      dup4\n        /* \"#utility.yul\":39089:39109   */\n      tag_371\n      jump\t// in\n    tag_824:\n        /* \"#utility.yul\":39084:39109   */\n      swap3\n      pop\n        /* \"#utility.yul\":39128:39129   */\n      dup3\n        /* \"#utility.yul\":39125:39126   */\n      dup3\n        /* \"#utility.yul\":39122:39130   */\n      lt\n        /* \"#utility.yul\":39119:39153   */\n      iszero\n      tag_825\n      jumpi\n        /* \"#utility.yul\":39133:39151   */\n      tag_826\n      tag_440\n      jump\t// in\n    tag_826:\n        /* \"#utility.yul\":39119:39153   */\n    tag_825:\n        /* \"#utility.yul\":39178:39179   */\n      dup3\n        /* \"#utility.yul\":39175:39176   */\n      dup3\n        /* \"#utility.yul\":39171:39180   */\n      sub\n        /* \"#utility.yul\":39163:39180   */\n      swap1\n      pop\n        /* \"#utility.yul\":38995:39186   */\n      swap3\n      swap2\n      pop\n      pop\n      jump\t// out\n        /* \"#utility.yul\":39192:39340   */\n    tag_441:\n        /* \"#utility.yul\":39294:39305   */\n      0x00\n        /* \"#utility.yul\":39331:39334   */\n      dup2\n        /* \"#utility.yul\":39316:39334   */\n      swap1\n      pop\n        /* \"#utility.yul\":39192:39340   */\n      swap3\n      swap2\n      pop\n      pop\n      jump\t// out\n        /* \"#utility.yul\":39346:39723   */\n    tag_442:\n        /* \"#utility.yul\":39452:39455   */\n      0x00\n        /* \"#utility.yul\":39480:39519   */\n      tag_829\n        /* \"#utility.yul\":39513:39518   */\n      dup3\n        /* \"#utility.yul\":39480:39519   */\n      tag_388\n      jump\t// in\n    tag_829:\n        /* \"#utility.yul\":39535:39624   */\n      tag_830\n        /* \"#utility.yul\":39617:39623   */\n      dup2\n        /* \"#utility.yul\":39612:39615   */\n      dup6\n        /* \"#utility.yul\":39535:39624   */\n      tag_441\n      jump\t// in\n    tag_830:\n        /* \"#utility.yul\":39528:39624   */\n      swap4\n      pop\n        /* \"#utility.yul\":39633:39685   */\n      tag_831\n        /* \"#utility.yul\":39678:39684   */\n      dup2\n        /* \"#utility.yul\":39673:39676   */\n      dup6\n        /* \"#utility.yul\":39666:39670   */\n      0x20\n        /* \"#utility.yul\":39659:39664   */\n      dup7\n        /* \"#utility.yul\":39655:39671   */\n      add\n        /* \"#utility.yul\":39633:39685   */\n      tag_390\n      jump\t// in\n    tag_831:\n        /* \"#utility.yul\":39710:39716   */\n      dup1\n        /* \"#utility.yul\":39705:39708   */\n      dup5\n        /* \"#utility.yul\":39701:39717   */\n      add\n        /* \"#utility.yul\":39694:39717   */\n      swap2\n      pop\n        /* \"#utility.yul\":39456:39723   */\n      pop\n        /* \"#utility.yul\":39346:39723   */\n      swap3\n      swap2\n      pop\n      pop\n      jump\t// out\n        /* \"#utility.yul\":39729:40004   */\n    tag_87:\n        /* \"#utility.yul\":39861:39864   */\n      0x00\n        /* \"#utility.yul\":39883:39978   */\n      tag_833\n        /* \"#utility.yul\":39974:39977   */\n      dup3\n        /* \"#utility.yul\":39965:39971   */\n      dup5\n        /* \"#utility.yul\":39883:39978   */\n      tag_442\n      jump\t// in\n    tag_833:\n        /* \"#utility.yul\":39876:39978   */\n      swap2\n      pop\n        /* \"#utility.yul\":39995:39998   */\n      dup2\n        /* \"#utility.yul\":39988:39998   */\n      swap1\n      pop\n        /* \"#utility.yul\":39729:40004   */\n      swap3\n      swap2\n      pop\n      pop\n      jump\t// out\n        /* \"#utility.yul\":40010:40182   */\n    tag_443:\n        /* \"#utility.yul\":40150:40174   */\n      0x4465726573793a207265717565737420636c6f73656400000000000000000000\n        /* \"#utility.yul\":40146:40147   */\n      0x00\n        /* \"#utility.yul\":40138:40144   */\n      dup3\n        /* \"#utility.yul\":40134:40148   */\n      add\n        /* \"#utility.yul\":40127:40175   */\n      mstore\n        /* \"#utility.yul\":40010:40182   */\n      pop\n      jump\t// out\n        /* \"#utility.yul\":40188:40554   */\n    tag_444:\n        /* \"#utility.yul\":40330:40333   */\n      0x00\n        /* \"#utility.yul\":40351:40418   */\n      tag_836\n        /* \"#utility.yul\":40415:40417   */\n      0x16\n        /* \"#utility.yul\":40410:40413   */\n      dup4\n        /* \"#utility.yul\":40351:40418   */\n      tag_395\n      jump\t// in\n    tag_836:\n        /* \"#utility.yul\":40344:40418   */\n      swap2\n      pop\n        /* \"#utility.yul\":40427:40520   */\n      tag_837\n        /* \"#utility.yul\":40516:40519   */\n      dup3\n        /* \"#utility.yul\":40427:40520   */\n      tag_443\n      jump\t// in\n    tag_837:\n        /* \"#utility.yul\":40545:40547   */\n      0x20\n        /* \"#utility.yul\":40540:40543   */\n      dup3\n        /* \"#utility.yul\":40536:40548   */\n      add\n        /* \"#utility.yul\":40529:40548   */\n      swap1\n      pop\n        /* \"#utility.yul\":40188:40554   */\n      swap2\n      swap1\n      pop\n      jump\t// out\n        /* \"#utility.yul\":40560:40979   */\n    tag_90:\n        /* \"#utility.yul\":40726:40730   */\n      0x00\n        /* \"#utility.yul\":40764:40766   */\n      0x20\n        /* \"#utility.yul\":40753:40762   */\n      dup3\n        /* \"#utility.yul\":40749:40767   */\n      add\n        /* \"#utility.yul\":40741:40767   */\n      swap1\n      pop\n        /* \"#utility.yul\":40813:40822   */\n      dup2\n        /* \"#utility.yul\":40807:40811   */\n      dup2\n        /* \"#utility.yul\":40803:40823   */\n      sub\n        /* \"#utility.yul\":40799:40800   */\n      0x00\n        /* \"#utility.yul\":40788:40797   */\n      dup4\n        /* \"#utility.yul\":40784:40801   */\n      add\n        /* \"#utility.yul\":40777:40824   */\n      mstore\n        /* \"#utility.yul\":40841:40972   */\n      tag_839\n        /* \"#utility.yul\":40967:40971   */\n      dup2\n        /* \"#utility.yul\":40841:40972   */\n      tag_444\n      jump\t// in\n    tag_839:\n        /* \"#utility.yul\":40833:40972   */\n      swap1\n      pop\n        /* \"#utility.yul\":40560:40979   */\n      swap2\n      swap1\n      pop\n      jump\t// out\n        /* \"#utility.yul\":40985:41162   */\n    tag_445:\n        /* \"#utility.yul\":41125:41154   */\n      0x4465726573793a20746172676574496e64657820696e76616c69640000000000\n        /* \"#utility.yul\":41121:41122   */\n      0x00\n        /* \"#utility.yul\":41113:41119   */\n      dup3\n        /* \"#utility.yul\":41109:41123   */\n      add\n        /* \"#utility.yul\":41102:41155   */\n      mstore\n        /* \"#utility.yul\":40985:41162   */\n      pop\n      jump\t// out\n        /* \"#utility.yul\":41168:41534   */\n    tag_446:\n        /* \"#utility.yul\":41310:41313   */\n      0x00\n        /* \"#utility.yul\":41331:41398   */\n      tag_842\n        /* \"#utility.yul\":41395:41397   */\n      0x1b\n        /* \"#utility.yul\":41390:41393   */\n      dup4\n        /* \"#utility.yul\":41331:41398   */\n      tag_395\n      jump\t// in\n    tag_842:\n        /* \"#utility.yul\":41324:41398   */\n      swap2\n      pop\n        /* \"#utility.yul\":41407:41500   */\n      tag_843\n        /* \"#utility.yul\":41496:41499   */\n      dup3\n        /* \"#utility.yul\":41407:41500   */\n      tag_445\n      jump\t// in\n    tag_843:\n        /* \"#utility.yul\":41525:41527   */\n      0x20\n        /* \"#utility.yul\":41520:41523   */\n      dup3\n        /* \"#utility.yul\":41516:41528   */\n      add\n        /* \"#utility.yul\":41509:41528   */\n      swap1\n      pop\n        /* \"#utility.yul\":41168:41534   */\n      swap2\n      swap1\n      pop\n      jump\t// out\n        /* \"#utility.yul\":41540:41959   */\n    tag_94:\n        /* \"#utility.yul\":41706:41710   */\n      0x00\n        /* \"#utility.yul\":41744:41746   */\n      0x20\n        /* \"#utility.yul\":41733:41742   */\n      dup3\n        /* \"#utility.yul\":41729:41747   */\n      add\n        /* \"#utility.yul\":41721:41747   */\n      swap1\n      pop\n        /* \"#utility.yul\":41793:41802   */\n      dup2\n        /* \"#utility.yul\":41787:41791   */\n      dup2\n        /* \"#utility.yul\":41783:41803   */\n      sub\n        /* \"#utility.yul\":41779:41780   */\n      0x00\n        /* \"#utility.yul\":41768:41777   */\n      dup4\n        /* \"#utility.yul\":41764:41781   */\n      add\n        /* \"#utility.yul\":41757:41804   */\n      mstore\n        /* \"#utility.yul\":41821:41952   */\n      tag_845\n        /* \"#utility.yul\":41947:41951   */\n      dup2\n        /* \"#utility.yul\":41821:41952   */\n      tag_446\n      jump\t// in\n    tag_845:\n        /* \"#utility.yul\":41813:41952   */\n      swap1\n      pop\n        /* \"#utility.yul\":41540:41959   */\n      swap2\n      swap1\n      pop\n      jump\t// out\n        /* \"#utility.yul\":41965:42145   */\n    tag_98:\n        /* \"#utility.yul\":42013:42090   */\n      0x4e487b7100000000000000000000000000000000000000000000000000000000\n        /* \"#utility.yul\":42010:42011   */\n      0x00\n        /* \"#utility.yul\":42003:42091   */\n      mstore\n        /* \"#utility.yul\":42110:42114   */\n      0x32\n        /* \"#utility.yul\":42107:42108   */\n      0x04\n        /* \"#utility.yul\":42100:42115   */\n      mstore\n        /* \"#utility.yul\":42134:42138   */\n      0x24\n        /* \"#utility.yul\":42131:42132   */\n      0x00\n        /* \"#utility.yul\":42124:42139   */\n      revert\n        /* \"#utility.yul\":42151:42390   */\n    tag_447:\n        /* \"#utility.yul\":42291:42325   */\n      0x4465726573793a204e6f74207468652073616d65206e756d626572206f662071\n        /* \"#utility.yul\":42287:42288   */\n      0x00\n        /* \"#utility.yul\":42279:42285   */\n      dup3\n        /* \"#utility.yul\":42275:42289   */\n      add\n        /* \"#utility.yul\":42268:42326   */\n      mstore\n        /* \"#utility.yul\":42360:42382   */\n      0x75657374696f6e7320616e6420616e7377657273000000000000000000000000\n        /* \"#utility.yul\":42355:42357   */\n      0x20\n        /* \"#utility.yul\":42347:42353   */\n      dup3\n        /* \"#utility.yul\":42343:42358   */\n      add\n        /* \"#utility.yul\":42336:42383   */\n      mstore\n        /* \"#utility.yul\":42151:42390   */\n      pop\n      jump\t// out\n        /* \"#utility.yul\":42396:42762   */\n    tag_448:\n        /* \"#utility.yul\":42538:42541   */\n      0x00\n        /* \"#utility.yul\":42559:42626   */\n      tag_849\n        /* \"#utility.yul\":42623:42625   */\n      0x34\n        /* \"#utility.yul\":42618:42621   */\n      dup4\n        /* \"#utility.yul\":42559:42626   */\n      tag_395\n      jump\t// in\n    tag_849:\n        /* \"#utility.yul\":42552:42626   */\n      swap2\n      pop\n        /* \"#utility.yul\":42635:42728   */\n      tag_850\n        /* \"#utility.yul\":42724:42727   */\n      dup3\n        /* \"#utility.yul\":42635:42728   */\n      tag_447\n      jump\t// in\n    tag_850:\n        /* \"#utility.yul\":42753:42755   */\n      0x40\n        /* \"#utility.yul\":42748:42751   */\n      dup3\n        /* \"#utility.yul\":42744:42756   */\n      add\n        /* \"#utility.yul\":42737:42756   */\n      swap1\n      pop\n        /* \"#utility.yul\":42396:42762   */\n      swap2\n      swap1\n      pop\n      jump\t// out\n        /* \"#utility.yul\":42768:43187   */\n    tag_102:\n        /* \"#utility.yul\":42934:42938   */\n      0x00\n        /* \"#utility.yul\":42972:42974   */\n      0x20\n        /* \"#utility.yul\":42961:42970   */\n      dup3\n        /* \"#utility.yul\":42957:42975   */\n      add\n        /* \"#utility.yul\":42949:42975   */\n      swap1\n      pop\n        /* \"#utility.yul\":43021:43030   */\n      dup2\n        /* \"#utility.yul\":43015:43019   */\n      dup2\n        /* \"#utility.yul\":43011:43031   */\n      sub\n        /* \"#utility.yul\":43007:43008   */\n      0x00\n        /* \"#utility.yul\":42996:43005   */\n      dup4\n        /* \"#utility.yul\":42992:43009   */\n      add\n        /* \"#utility.yul\":42985:43032   */\n      mstore\n        /* \"#utility.yul\":43049:43180   */\n      tag_852\n        /* \"#utility.yul\":43175:43179   */\n      dup2\n        /* \"#utility.yul\":43049:43180   */\n      tag_448\n      jump\t// in\n    tag_852:\n        /* \"#utility.yul\":43041:43180   */\n      swap1\n      pop\n        /* \"#utility.yul\":42768:43187   */\n      swap2\n      swap1\n      pop\n      jump\t// out\n        /* \"#utility.yul\":43193:43485   */\n    tag_449:\n        /* \"#utility.yul\":43333:43367   */\n      0x546869732061646472657373206973206e6f7420696e20746865207265766965\n        /* \"#utility.yul\":43329:43330   */\n      0x00\n        /* \"#utility.yul\":43321:43327   */\n      dup3\n        /* \"#utility.yul\":43317:43331   */\n      add\n        /* \"#utility.yul\":43310:43368   */\n      mstore\n        /* \"#utility.yul\":43402:43436   */\n      0x77657273206c69737420666f7220746865207370656369666965642072657175\n        /* \"#utility.yul\":43397:43399   */\n      0x20\n        /* \"#utility.yul\":43389:43395   */\n      dup3\n        /* \"#utility.yul\":43385:43400   */\n      add\n        /* \"#utility.yul\":43378:43437   */\n      mstore\n        /* \"#utility.yul\":43471:43477   */\n      0x6573742e00000000000000000000000000000000000000000000000000000000\n        /* \"#utility.yul\":43466:43468   */\n      0x40\n        /* \"#utility.yul\":43458:43464   */\n      dup3\n        /* \"#utility.yul\":43454:43469   */\n      add\n        /* \"#utility.yul\":43447:43478   */\n      mstore\n        /* \"#utility.yul\":43193:43485   */\n      pop\n      jump\t// out\n        /* \"#utility.yul\":43491:43857   */\n    tag_450:\n        /* \"#utility.yul\":43633:43636   */\n      0x00\n        /* \"#utility.yul\":43654:43721   */\n      tag_855\n        /* \"#utility.yul\":43718:43720   */\n      0x44\n        /* \"#utility.yul\":43713:43716   */\n      dup4\n        /* \"#utility.yul\":43654:43721   */\n      tag_395\n      jump\t// in\n    tag_855:\n        /* \"#utility.yul\":43647:43721   */\n      swap2\n      pop\n        /* \"#utility.yul\":43730:43823   */\n      tag_856\n        /* \"#utility.yul\":43819:43822   */\n      dup3\n        /* \"#utility.yul\":43730:43823   */\n      tag_449\n      jump\t// in\n    tag_856:\n        /* \"#utility.yul\":43848:43850   */\n      0x60\n        /* \"#utility.yul\":43843:43846   */\n      dup3\n        /* \"#utility.yul\":43839:43851   */\n      add\n        /* \"#utility.yul\":43832:43851   */\n      swap1\n      pop\n        /* \"#utility.yul\":43491:43857   */\n      swap2\n      swap1\n      pop\n      jump\t// out\n        /* \"#utility.yul\":43863:44282   */\n    tag_107:\n        /* \"#utility.yul\":44029:44033   */\n      0x00\n        /* \"#utility.yul\":44067:44069   */\n      0x20\n        /* \"#utility.yul\":44056:44065   */\n      dup3\n        /* \"#utility.yul\":44052:44070   */\n      add\n        /* \"#utility.yul\":44044:44070   */\n      swap1\n      pop\n        /* \"#utility.yul\":44116:44125   */\n      dup2\n        /* \"#utility.yul\":44110:44114   */\n      dup2\n        /* \"#utility.yul\":44106:44126   */\n      sub\n        /* \"#utility.yul\":44102:44103   */\n      0x00\n        /* \"#utility.yul\":44091:44100   */\n      dup4\n        /* \"#utility.yul\":44087:44104   */\n      add\n        /* \"#utility.yul\":44080:44127   */\n      mstore\n        /* \"#utility.yul\":44144:44275   */\n      tag_858\n        /* \"#utility.yul\":44270:44274   */\n      dup2\n        /* \"#utility.yul\":44144:44275   */\n      tag_450\n      jump\t// in\n    tag_858:\n        /* \"#utility.yul\":44136:44275   */\n      swap1\n      pop\n        /* \"#utility.yul\":43863:44282   */\n      swap2\n      swap1\n      pop\n      jump\t// out\n        /* \"#utility.yul\":44288:44601   */\n    tag_451:\n        /* \"#utility.yul\":44428:44462   */\n      0x5468697320616464726573732068617320616c7265616479207375626d697474\n        /* \"#utility.yul\":44424:44425   */\n      0x00\n        /* \"#utility.yul\":44416:44422   */\n      dup3\n        /* \"#utility.yul\":44412:44426   */\n      add\n        /* \"#utility.yul\":44405:44463   */\n      mstore\n        /* \"#utility.yul\":44497:44531   */\n      0x656420612072657669657720666f72207468652074617267746520696e646578\n        /* \"#utility.yul\":44492:44494   */\n      0x20\n        /* \"#utility.yul\":44484:44490   */\n      dup3\n        /* \"#utility.yul\":44480:44495   */\n      add\n        /* \"#utility.yul\":44473:44532   */\n      mstore\n        /* \"#utility.yul\":44566:44593   */\n      0x20696e2074686520737065636966696564207265717565737400000000000000\n        /* \"#utility.yul\":44561:44563   */\n      0x40\n        /* \"#utility.yul\":44553:44559   */\n      dup3\n        /* \"#utility.yul\":44549:44564   */\n      add\n        /* \"#utility.yul\":44542:44594   */\n      mstore\n        /* \"#utility.yul\":44288:44601   */\n      pop\n      jump\t// out\n        /* \"#utility.yul\":44607:44973   */\n    tag_452:\n        /* \"#utility.yul\":44749:44752   */\n      0x00\n        /* \"#utility.yul\":44770:44837   */\n      tag_861\n        /* \"#utility.yul\":44834:44836   */\n      0x59\n        /* \"#utility.yul\":44829:44832   */\n      dup4\n        /* \"#utility.yul\":44770:44837   */\n      tag_395\n      jump\t// in\n    tag_861:\n        /* \"#utility.yul\":44763:44837   */\n      swap2\n      pop\n        /* \"#utility.yul\":44846:44939   */\n      tag_862\n        /* \"#utility.yul\":44935:44938   */\n      dup3\n        /* \"#utility.yul\":44846:44939   */\n      tag_451\n      jump\t// in\n    tag_862:\n        /* \"#utility.yul\":44964:44966   */\n      0x60\n        /* \"#utility.yul\":44959:44962   */\n      dup3\n        /* \"#utility.yul\":44955:44967   */\n      add\n        /* \"#utility.yul\":44948:44967   */\n      swap1\n      pop\n        /* \"#utility.yul\":44607:44973   */\n      swap2\n      swap1\n      pop\n      jump\t// out\n        /* \"#utility.yul\":44979:45398   */\n    tag_112:\n        /* \"#utility.yul\":45145:45149   */\n      0x00\n        /* \"#utility.yul\":45183:45185   */\n      0x20\n        /* \"#utility.yul\":45172:45181   */\n      dup3\n        /* \"#utility.yul\":45168:45186   */\n      add\n        /* \"#utility.yul\":45160:45186   */\n      swap1\n      pop\n        /* \"#utility.yul\":45232:45241   */\n      dup2\n        /* \"#utility.yul\":45226:45230   */\n      dup2\n        /* \"#utility.yul\":45222:45242   */\n      sub\n        /* \"#utility.yul\":45218:45219   */\n      0x00\n        /* \"#utility.yul\":45207:45216   */\n      dup4\n        /* \"#utility.yul\":45203:45220   */\n      add\n        /* \"#utility.yul\":45196:45243   */\n      mstore\n        /* \"#utility.yul\":45260:45391   */\n      tag_864\n        /* \"#utility.yul\":45386:45390   */\n      dup2\n        /* \"#utility.yul\":45260:45391   */\n      tag_452\n      jump\t// in\n    tag_864:\n        /* \"#utility.yul\":45252:45391   */\n      swap1\n      pop\n        /* \"#utility.yul\":44979:45398   */\n      swap2\n      swap1\n      pop\n      jump\t// out\n        /* \"#utility.yul\":45404:45584   */\n    tag_453:\n        /* \"#utility.yul\":45452:45529   */\n      0x4e487b7100000000000000000000000000000000000000000000000000000000\n        /* \"#utility.yul\":45449:45450   */\n      0x00\n        /* \"#utility.yul\":45442:45530   */\n      mstore\n        /* \"#utility.yul\":45549:45553   */\n      0x22\n        /* \"#utility.yul\":45546:45547   */\n      0x04\n        /* \"#utility.yul\":45539:45554   */\n      mstore\n        /* \"#utility.yul\":45573:45577   */\n      0x24\n        /* \"#utility.yul\":45570:45571   */\n      0x00\n        /* \"#utility.yul\":45563:45578   */\n      revert\n        /* \"#utility.yul\":45590:45910   */\n    tag_131:\n        /* \"#utility.yul\":45634:45640   */\n      0x00\n        /* \"#utility.yul\":45671:45672   */\n      0x02\n        /* \"#utility.yul\":45665:45669   */\n      dup3\n        /* \"#utility.yul\":45661:45673   */\n      div\n        /* \"#utility.yul\":45651:45673   */\n      swap1\n      pop\n        /* \"#utility.yul\":45718:45719   */\n      0x01\n        /* \"#utility.yul\":45712:45716   */\n      dup3\n        /* \"#utility.yul\":45708:45720   */\n      and\n        /* \"#utility.yul\":45739:45757   */\n      dup1\n        /* \"#utility.yul\":45729:45810   */\n      tag_867\n      jumpi\n        /* \"#utility.yul\":45795:45799   */\n      0x7f\n        /* \"#utility.yul\":45787:45793   */\n      dup3\n        /* \"#utility.yul\":45783:45800   */\n      and\n        /* \"#utility.yul\":45773:45800   */\n      swap2\n      pop\n        /* \"#utility.yul\":45729:45810   */\n    tag_867:\n        /* \"#utility.yul\":45857:45859   */\n      0x20\n        /* \"#utility.yul\":45849:45855   */\n      dup3\n        /* \"#utility.yul\":45846:45860   */\n      lt\n        /* \"#utility.yul\":45826:45844   */\n      dup2\n        /* \"#utility.yul\":45823:45861   */\n      sub\n        /* \"#utility.yul\":45820:45904   */\n      tag_868\n      jumpi\n        /* \"#utility.yul\":45876:45894   */\n      tag_869\n      tag_453\n      jump\t// in\n    tag_869:\n        /* \"#utility.yul\":45820:45904   */\n    tag_868:\n        /* \"#utility.yul\":45641:45910   */\n      pop\n        /* \"#utility.yul\":45590:45910   */\n      swap2\n      swap1\n      pop\n      jump\t// out\n        /* \"#utility.yul\":45916:46095   */\n    tag_454:\n        /* \"#utility.yul\":46056:46087   */\n      0x4465726573793a204974206973206e6f74207468652073706f6e736f72000000\n        /* \"#utility.yul\":46052:46053   */\n      0x00\n        /* \"#utility.yul\":46044:46050   */\n      dup3\n        /* \"#utility.yul\":46040:46054   */\n      add\n        /* \"#utility.yul\":46033:46088   */\n      mstore\n        /* \"#utility.yul\":45916:46095   */\n      pop\n      jump\t// out\n        /* \"#utility.yul\":46101:46467   */\n    tag_455:\n        /* \"#utility.yul\":46243:46246   */\n      0x00\n        /* \"#utility.yul\":46264:46331   */\n      tag_872\n        /* \"#utility.yul\":46328:46330   */\n      0x1d\n        /* \"#utility.yul\":46323:46326   */\n      dup4\n        /* \"#utility.yul\":46264:46331   */\n      tag_395\n      jump\t// in\n    tag_872:\n        /* \"#utility.yul\":46257:46331   */\n      swap2\n      pop\n        /* \"#utility.yul\":46340:46433   */\n      tag_873\n        /* \"#utility.yul\":46429:46432   */\n      dup3\n        /* \"#utility.yul\":46340:46433   */\n      tag_454\n      jump\t// in\n    tag_873:\n        /* \"#utility.yul\":46458:46460   */\n      0x20\n        /* \"#utility.yul\":46453:46456   */\n      dup3\n        /* \"#utility.yul\":46449:46461   */\n      add\n        /* \"#utility.yul\":46442:46461   */\n      swap1\n      pop\n        /* \"#utility.yul\":46101:46467   */\n      swap2\n      swap1\n      pop\n      jump\t// out\n        /* \"#utility.yul\":46473:46892   */\n    tag_203:\n        /* \"#utility.yul\":46639:46643   */\n      0x00\n        /* \"#utility.yul\":46677:46679   */\n      0x20\n        /* \"#utility.yul\":46666:46675   */\n      dup3\n        /* \"#utility.yul\":46662:46680   */\n      add\n        /* \"#utility.yul\":46654:46680   */\n      swap1\n      pop\n        /* \"#utility.yul\":46726:46735   */\n      dup2\n        /* \"#utility.yul\":46720:46724   */\n      dup2\n        /* \"#utility.yul\":46716:46736   */\n      sub\n        /* \"#utility.yul\":46712:46713   */\n      0x00\n        /* \"#utility.yul\":46701:46710   */\n      dup4\n        /* \"#utility.yul\":46697:46714   */\n      add\n        /* \"#utility.yul\":46690:46737   */\n      mstore\n        /* \"#utility.yul\":46754:46885   */\n      tag_875\n        /* \"#utility.yul\":46880:46884   */\n      dup2\n        /* \"#utility.yul\":46754:46885   */\n      tag_455\n      jump\t// in\n    tag_875:\n        /* \"#utility.yul\":46746:46885   */\n      swap1\n      pop\n        /* \"#utility.yul\":46473:46892   */\n      swap2\n      swap1\n      pop\n      jump\t// out\n        /* \"#utility.yul\":46898:47080   */\n    tag_456:\n        /* \"#utility.yul\":47038:47072   */\n      0x4465726573793a205265766965776572732063616e6e6f74206265206e756c6c\n        /* \"#utility.yul\":47034:47035   */\n      0x00\n        /* \"#utility.yul\":47026:47032   */\n      dup3\n        /* \"#utility.yul\":47022:47036   */\n      add\n        /* \"#utility.yul\":47015:47073   */\n      mstore\n        /* \"#utility.yul\":46898:47080   */\n      pop\n      jump\t// out\n        /* \"#utility.yul\":47086:47452   */\n    tag_457:\n        /* \"#utility.yul\":47228:47231   */\n      0x00\n        /* \"#utility.yul\":47249:47316   */\n      tag_878\n        /* \"#utility.yul\":47313:47315   */\n      0x20\n        /* \"#utility.yul\":47308:47311   */\n      dup4\n        /* \"#utility.yul\":47249:47316   */\n      tag_395\n      jump\t// in\n    tag_878:\n        /* \"#utility.yul\":47242:47316   */\n      swap2\n      pop\n        /* \"#utility.yul\":47325:47418   */\n      tag_879\n        /* \"#utility.yul\":47414:47417   */\n      dup3\n        /* \"#utility.yul\":47325:47418   */\n      tag_456\n      jump\t// in\n    tag_879:\n        /* \"#utility.yul\":47443:47445   */\n      0x20\n        /* \"#utility.yul\":47438:47441   */\n      dup3\n        /* \"#utility.yul\":47434:47446   */\n      add\n        /* \"#utility.yul\":47427:47446   */\n      swap1\n      pop\n        /* \"#utility.yul\":47086:47452   */\n      swap2\n      swap1\n      pop\n      jump\t// out\n        /* \"#utility.yul\":47458:47877   */\n    tag_217:\n        /* \"#utility.yul\":47624:47628   */\n      0x00\n        /* \"#utility.yul\":47662:47664   */\n      0x20\n        /* \"#utility.yul\":47651:47660   */\n      dup3\n        /* \"#utility.yul\":47647:47665   */\n      add\n        /* \"#utility.yul\":47639:47665   */\n      swap1\n      pop\n        /* \"#utility.yul\":47711:47720   */\n      dup2\n        /* \"#utility.yul\":47705:47709   */\n      dup2\n        /* \"#utility.yul\":47701:47721   */\n      sub\n        /* \"#utility.yul\":47697:47698   */\n      0x00\n        /* \"#utility.yul\":47686:47695   */\n      dup4\n        /* \"#utility.yul\":47682:47699   */\n      add\n        /* \"#utility.yul\":47675:47722   */\n      mstore\n        /* \"#utility.yul\":47739:47870   */\n      tag_881\n        /* \"#utility.yul\":47865:47869   */\n      dup2\n        /* \"#utility.yul\":47739:47870   */\n      tag_457\n      jump\t// in\n    tag_881:\n        /* \"#utility.yul\":47731:47870   */\n      swap1\n      pop\n        /* \"#utility.yul\":47458:47877   */\n      swap2\n      swap1\n      pop\n      jump\t// out\n        /* \"#utility.yul\":47883:48063   */\n    tag_458:\n        /* \"#utility.yul\":48023:48055   */\n      0x4465726573793a20546172676574732063616e6e6f74206265206e756c6c0000\n        /* \"#utility.yul\":48019:48020   */\n      0x00\n        /* \"#utility.yul\":48011:48017   */\n      dup3\n        /* \"#utility.yul\":48007:48021   */\n      add\n        /* \"#utility.yul\":48000:48056   */\n      mstore\n        /* \"#utility.yul\":47883:48063   */\n      pop\n      jump\t// out\n        /* \"#utility.yul\":48069:48435   */\n    tag_459:\n        /* \"#utility.yul\":48211:48214   */\n      0x00\n        /* \"#utility.yul\":48232:48299   */\n      tag_884\n        /* \"#utility.yul\":48296:48298   */\n      0x1e\n        /* \"#utility.yul\":48291:48294   */\n      dup4\n        /* \"#utility.yul\":48232:48299   */\n      tag_395\n      jump\t// in\n    tag_884:\n        /* \"#utility.yul\":48225:48299   */\n      swap2\n      pop\n        /* \"#utility.yul\":48308:48401   */\n      tag_885\n        /* \"#utility.yul\":48397:48400   */\n      dup3\n        /* \"#utility.yul\":48308:48401   */\n      tag_458\n      jump\t// in\n    tag_885:\n        /* \"#utility.yul\":48426:48428   */\n      0x20\n        /* \"#utility.yul\":48421:48424   */\n      dup3\n        /* \"#utility.yul\":48417:48429   */\n      add\n        /* \"#utility.yul\":48410:48429   */\n      swap1\n      pop\n        /* \"#utility.yul\":48069:48435   */\n      swap2\n      swap1\n      pop\n      jump\t// out\n        /* \"#utility.yul\":48441:48860   */\n    tag_220:\n        /* \"#utility.yul\":48607:48611   */\n      0x00\n        /* \"#utility.yul\":48645:48647   */\n      0x20\n        /* \"#utility.yul\":48634:48643   */\n      dup3\n        /* \"#utility.yul\":48630:48648   */\n      add\n        /* \"#utility.yul\":48622:48648   */\n      swap1\n      pop\n        /* \"#utility.yul\":48694:48703   */\n      dup2\n        /* \"#utility.yul\":48688:48692   */\n      dup2\n        /* \"#utility.yul\":48684:48704   */\n      sub\n        /* \"#utility.yul\":48680:48681   */\n      0x00\n        /* \"#utility.yul\":48669:48678   */\n      dup4\n        /* \"#utility.yul\":48665:48682   */\n      add\n        /* \"#utility.yul\":48658:48705   */\n      mstore\n        /* \"#utility.yul\":48722:48853   */\n      tag_887\n        /* \"#utility.yul\":48848:48852   */\n      dup2\n        /* \"#utility.yul\":48722:48853   */\n      tag_459\n      jump\t// in\n    tag_887:\n        /* \"#utility.yul\":48714:48853   */\n      swap1\n      pop\n        /* \"#utility.yul\":48441:48860   */\n      swap2\n      swap1\n      pop\n      jump\t// out\n        /* \"#utility.yul\":48866:49095   */\n    tag_460:\n        /* \"#utility.yul\":49006:49040   */\n      0x4465726573793a20546172676574732049504653206861736865732063616e6e\n        /* \"#utility.yul\":49002:49003   */\n      0x00\n        /* \"#utility.yul\":48994:49000   */\n      dup3\n        /* \"#utility.yul\":48990:49004   */\n      add\n        /* \"#utility.yul\":48983:49041   */\n      mstore\n        /* \"#utility.yul\":49075:49087   */\n      0x6f74206265206e756c6c00000000000000000000000000000000000000000000\n        /* \"#utility.yul\":49070:49072   */\n      0x20\n        /* \"#utility.yul\":49062:49068   */\n      dup3\n        /* \"#utility.yul\":49058:49073   */\n      add\n        /* \"#utility.yul\":49051:49088   */\n      mstore\n        /* \"#utility.yul\":48866:49095   */\n      pop\n      jump\t// out\n        /* \"#utility.yul\":49101:49467   */\n    tag_461:\n        /* \"#utility.yul\":49243:49246   */\n      0x00\n        /* \"#utility.yul\":49264:49331   */\n      tag_890\n        /* \"#utility.yul\":49328:49330   */\n      0x2a\n        /* \"#utility.yul\":49323:49326   */\n      dup4\n        /* \"#utility.yul\":49264:49331   */\n      tag_395\n      jump\t// in\n    tag_890:\n        /* \"#utility.yul\":49257:49331   */\n      swap2\n      pop\n        /* \"#utility.yul\":49340:49433   */\n      tag_891\n        /* \"#utility.yul\":49429:49432   */\n      dup3\n        /* \"#utility.yul\":49340:49433   */\n      tag_460\n      jump\t// in\n    tag_891:\n        /* \"#utility.yul\":49458:49460   */\n      0x40\n        /* \"#utility.yul\":49453:49456   */\n      dup3\n        /* \"#utility.yul\":49449:49461   */\n      add\n        /* \"#utility.yul\":49442:49461   */\n      swap1\n      pop\n        /* \"#utility.yul\":49101:49467   */\n      swap2\n      swap1\n      pop\n      jump\t// out\n        /* \"#utility.yul\":49473:49892   */\n    tag_223:\n        /* \"#utility.yul\":49639:49643   */\n      0x00\n        /* \"#utility.yul\":49677:49679   */\n      0x20\n        /* \"#utility.yul\":49666:49675   */\n      dup3\n        /* \"#utility.yul\":49662:49680   */\n      add\n        /* \"#utility.yul\":49654:49680   */\n      swap1\n      pop\n        /* \"#utility.yul\":49726:49735   */\n      dup2\n        /* \"#utility.yul\":49720:49724   */\n      dup2\n        /* \"#utility.yul\":49716:49736   */\n      sub\n        /* \"#utility.yul\":49712:49713   */\n      0x00\n        /* \"#utility.yul\":49701:49710   */\n      dup4\n        /* \"#utility.yul\":49697:49714   */\n      add\n        /* \"#utility.yul\":49690:49737   */\n      mstore\n        /* \"#utility.yul\":49754:49885   */\n      tag_893\n        /* \"#utility.yul\":49880:49884   */\n      dup2\n        /* \"#utility.yul\":49754:49885   */\n      tag_461\n      jump\t// in\n    tag_893:\n        /* \"#utility.yul\":49746:49885   */\n      swap1\n      pop\n        /* \"#utility.yul\":49473:49892   */\n      swap2\n      swap1\n      pop\n      jump\t// out\n        /* \"#utility.yul\":49898:50191   */\n    tag_462:\n        /* \"#utility.yul\":50038:50072   */\n      0x4465726573793a205461726765747320616e6420746172676574734950465348\n        /* \"#utility.yul\":50034:50035   */\n      0x00\n        /* \"#utility.yul\":50026:50032   */\n      dup3\n        /* \"#utility.yul\":50022:50036   */\n      add\n        /* \"#utility.yul\":50015:50073   */\n      mstore\n        /* \"#utility.yul\":50107:50141   */\n      0x6173686573206172726179206d7573742068617665207468652073616d65206c\n        /* \"#utility.yul\":50102:50104   */\n      0x20\n        /* \"#utility.yul\":50094:50100   */\n      dup3\n        /* \"#utility.yul\":50090:50105   */\n      add\n        /* \"#utility.yul\":50083:50142   */\n      mstore\n        /* \"#utility.yul\":50176:50183   */\n      0x656e677468000000000000000000000000000000000000000000000000000000\n        /* \"#utility.yul\":50171:50173   */\n      0x40\n        /* \"#utility.yul\":50163:50169   */\n      dup3\n        /* \"#utility.yul\":50159:50174   */\n      add\n        /* \"#utility.yul\":50152:50184   */\n      mstore\n        /* \"#utility.yul\":49898:50191   */\n      pop\n      jump\t// out\n        /* \"#utility.yul\":50197:50563   */\n    tag_463:\n        /* \"#utility.yul\":50339:50342   */\n      0x00\n        /* \"#utility.yul\":50360:50427   */\n      tag_896\n        /* \"#utility.yul\":50424:50426   */\n      0x45\n        /* \"#utility.yul\":50419:50422   */\n      dup4\n        /* \"#utility.yul\":50360:50427   */\n      tag_395\n      jump\t// in\n    tag_896:\n        /* \"#utility.yul\":50353:50427   */\n      swap2\n      pop\n        /* \"#utility.yul\":50436:50529   */\n      tag_897\n        /* \"#utility.yul\":50525:50528   */\n      dup3\n        /* \"#utility.yul\":50436:50529   */\n      tag_462\n      jump\t// in\n    tag_897:\n        /* \"#utility.yul\":50554:50556   */\n      0x60\n        /* \"#utility.yul\":50549:50552   */\n      dup3\n        /* \"#utility.yul\":50545:50557   */\n      add\n        /* \"#utility.yul\":50538:50557   */\n      swap1\n      pop\n        /* \"#utility.yul\":50197:50563   */\n      swap2\n      swap1\n      pop\n      jump\t// out\n        /* \"#utility.yul\":50569:50988   */\n    tag_226:\n        /* \"#utility.yul\":50735:50739   */\n      0x00\n        /* \"#utility.yul\":50773:50775   */\n      0x20\n        /* \"#utility.yul\":50762:50771   */\n      dup3\n        /* \"#utility.yul\":50758:50776   */\n      add\n        /* \"#utility.yul\":50750:50776   */\n      swap1\n      pop\n        /* \"#utility.yul\":50822:50831   */\n      dup2\n        /* \"#utility.yul\":50816:50820   */\n      dup2\n        /* \"#utility.yul\":50812:50832   */\n      sub\n        /* \"#utility.yul\":50808:50809   */\n      0x00\n        /* \"#utility.yul\":50797:50806   */\n      dup4\n        /* \"#utility.yul\":50793:50810   */\n      add\n        /* \"#utility.yul\":50786:50833   */\n      mstore\n        /* \"#utility.yul\":50850:50981   */\n      tag_899\n        /* \"#utility.yul\":50976:50980   */\n      dup2\n        /* \"#utility.yul\":50850:50981   */\n      tag_463\n      jump\t// in\n    tag_899:\n        /* \"#utility.yul\":50842:50981   */\n      swap1\n      pop\n        /* \"#utility.yul\":50569:50988   */\n      swap2\n      swap1\n      pop\n      jump\t// out\n        /* \"#utility.yul\":50994:51175   */\n    tag_464:\n        /* \"#utility.yul\":51134:51167   */\n      0x4465726573793a20526576696577466f726d496e64657820696e76616c696400\n        /* \"#utility.yul\":51130:51131   */\n      0x00\n        /* \"#utility.yul\":51122:51128   */\n      dup3\n        /* \"#utility.yul\":51118:51132   */\n      add\n        /* \"#utility.yul\":51111:51168   */\n      mstore\n        /* \"#utility.yul\":50994:51175   */\n      pop\n      jump\t// out\n        /* \"#utility.yul\":51181:51547   */\n    tag_465:\n        /* \"#utility.yul\":51323:51326   */\n      0x00\n        /* \"#utility.yul\":51344:51411   */\n      tag_902\n        /* \"#utility.yul\":51408:51410   */\n      0x1f\n        /* \"#utility.yul\":51403:51406   */\n      dup4\n        /* \"#utility.yul\":51344:51411   */\n      tag_395\n      jump\t// in\n    tag_902:\n        /* \"#utility.yul\":51337:51411   */\n      swap2\n      pop\n        /* \"#utility.yul\":51420:51513   */\n      tag_903\n        /* \"#utility.yul\":51509:51512   */\n      dup3\n        /* \"#utility.yul\":51420:51513   */\n      tag_464\n      jump\t// in\n    tag_903:\n        /* \"#utility.yul\":51538:51540   */\n      0x20\n        /* \"#utility.yul\":51533:51536   */\n      dup3\n        /* \"#utility.yul\":51529:51541   */\n      add\n        /* \"#utility.yul\":51522:51541   */\n      swap1\n      pop\n        /* \"#utility.yul\":51181:51547   */\n      swap2\n      swap1\n      pop\n      jump\t// out\n        /* \"#utility.yul\":51553:51972   */\n    tag_230:\n        /* \"#utility.yul\":51719:51723   */\n      0x00\n        /* \"#utility.yul\":51757:51759   */\n      0x20\n        /* \"#utility.yul\":51746:51755   */\n      dup3\n        /* \"#utility.yul\":51742:51760   */\n      add\n        /* \"#utility.yul\":51734:51760   */\n      swap1\n      pop\n        /* \"#utility.yul\":51806:51815   */\n      dup2\n        /* \"#utility.yul\":51800:51804   */\n      dup2\n        /* \"#utility.yul\":51796:51816   */\n      sub\n        /* \"#utility.yul\":51792:51793   */\n      0x00\n        /* \"#utility.yul\":51781:51790   */\n      dup4\n        /* \"#utility.yul\":51777:51794   */\n      add\n        /* \"#utility.yul\":51770:51817   */\n      mstore\n        /* \"#utility.yul\":51834:51965   */\n      tag_905\n        /* \"#utility.yul\":51960:51964   */\n      dup2\n        /* \"#utility.yul\":51834:51965   */\n      tag_465\n      jump\t// in\n    tag_905:\n        /* \"#utility.yul\":51826:51965   */\n      swap1\n      pop\n        /* \"#utility.yul\":51553:51972   */\n      swap2\n      swap1\n      pop\n      jump\t// out\n        /* \"#utility.yul\":51978:52204   */\n    tag_466:\n        /* \"#utility.yul\":52118:52152   */\n      0x4465726573793a207265776172645065725265766965772063616e6e6f742062\n        /* \"#utility.yul\":52114:52115   */\n      0x00\n        /* \"#utility.yul\":52106:52112   */\n      dup3\n        /* \"#utility.yul\":52102:52116   */\n      add\n        /* \"#utility.yul\":52095:52153   */\n      mstore\n        /* \"#utility.yul\":52187:52196   */\n      0x6520656d70747900000000000000000000000000000000000000000000000000\n        /* \"#utility.yul\":52182:52184   */\n      0x20\n        /* \"#utility.yul\":52174:52180   */\n      dup3\n        /* \"#utility.yul\":52170:52185   */\n      add\n        /* \"#utility.yul\":52163:52197   */\n      mstore\n        /* \"#utility.yul\":51978:52204   */\n      pop\n      jump\t// out\n        /* \"#utility.yul\":52210:52576   */\n    tag_467:\n        /* \"#utility.yul\":52352:52355   */\n      0x00\n        /* \"#utility.yul\":52373:52440   */\n      tag_908\n        /* \"#utility.yul\":52437:52439   */\n      0x27\n        /* \"#utility.yul\":52432:52435   */\n      dup4\n        /* \"#utility.yul\":52373:52440   */\n      tag_395\n      jump\t// in\n    tag_908:\n        /* \"#utility.yul\":52366:52440   */\n      swap2\n      pop\n        /* \"#utility.yul\":52449:52542   */\n      tag_909\n        /* \"#utility.yul\":52538:52541   */\n      dup3\n        /* \"#utility.yul\":52449:52542   */\n      tag_466\n      jump\t// in\n    tag_909:\n        /* \"#utility.yul\":52567:52569   */\n      0x40\n        /* \"#utility.yul\":52562:52565   */\n      dup3\n        /* \"#utility.yul\":52558:52570   */\n      add\n        /* \"#utility.yul\":52551:52570   */\n      swap1\n      pop\n        /* \"#utility.yul\":52210:52576   */\n      swap2\n      swap1\n      pop\n      jump\t// out\n        /* \"#utility.yul\":52582:53001   */\n    tag_233:\n        /* \"#utility.yul\":52748:52752   */\n      0x00\n        /* \"#utility.yul\":52786:52788   */\n      0x20\n        /* \"#utility.yul\":52775:52784   */\n      dup3\n        /* \"#utility.yul\":52771:52789   */\n      add\n        /* \"#utility.yul\":52763:52789   */\n      swap1\n      pop\n        /* \"#utility.yul\":52835:52844   */\n      dup2\n        /* \"#utility.yul\":52829:52833   */\n      dup2\n        /* \"#utility.yul\":52825:52845   */\n      sub\n        /* \"#utility.yul\":52821:52822   */\n      0x00\n        /* \"#utility.yul\":52810:52819   */\n      dup4\n        /* \"#utility.yul\":52806:52823   */\n      add\n        /* \"#utility.yul\":52799:52846   */\n      mstore\n        /* \"#utility.yul\":52863:52994   */\n      tag_911\n        /* \"#utility.yul\":52989:52993   */\n      dup2\n        /* \"#utility.yul\":52863:52994   */\n      tag_467\n      jump\t// in\n    tag_911:\n        /* \"#utility.yul\":52855:52994   */\n      swap1\n      pop\n        /* \"#utility.yul\":52582:53001   */\n      swap2\n      swap1\n      pop\n      jump\t// out\n        /* \"#utility.yul\":53007:53180   */\n    tag_468:\n        /* \"#utility.yul\":53147:53172   */\n      0x4465726573793a204e616d65206475706c696361746564000000000000000000\n        /* \"#utility.yul\":53143:53144   */\n      0x00\n        /* \"#utility.yul\":53135:53141   */\n      dup3\n        /* \"#utility.yul\":53131:53145   */\n      add\n        /* \"#utility.yul\":53124:53173   */\n      mstore\n        /* \"#utility.yul\":53007:53180   */\n      pop\n      jump\t// out\n        /* \"#utility.yul\":53186:53552   */\n    tag_469:\n        /* \"#utility.yul\":53328:53331   */\n      0x00\n        /* \"#utility.yul\":53349:53416   */\n      tag_914\n        /* \"#utility.yul\":53413:53415   */\n      0x17\n        /* \"#utility.yul\":53408:53411   */\n      dup4\n        /* \"#utility.yul\":53349:53416   */\n      tag_395\n      jump\t// in\n    tag_914:\n        /* \"#utility.yul\":53342:53416   */\n      swap2\n      pop\n        /* \"#utility.yul\":53425:53518   */\n      tag_915\n        /* \"#utility.yul\":53514:53517   */\n      dup3\n        /* \"#utility.yul\":53425:53518   */\n      tag_468\n      jump\t// in\n    tag_915:\n        /* \"#utility.yul\":53543:53545   */\n      0x20\n        /* \"#utility.yul\":53538:53541   */\n      dup3\n        /* \"#utility.yul\":53534:53546   */\n      add\n        /* \"#utility.yul\":53527:53546   */\n      swap1\n      pop\n        /* \"#utility.yul\":53186:53552   */\n      swap2\n      swap1\n      pop\n      jump\t// out\n        /* \"#utility.yul\":53558:53977   */\n    tag_237:\n        /* \"#utility.yul\":53724:53728   */\n      0x00\n        /* \"#utility.yul\":53762:53764   */\n      0x20\n        /* \"#utility.yul\":53751:53760   */\n      dup3\n        /* \"#utility.yul\":53747:53765   */\n      add\n        /* \"#utility.yul\":53739:53765   */\n      swap1\n      pop\n        /* \"#utility.yul\":53811:53820   */\n      dup2\n        /* \"#utility.yul\":53805:53809   */\n      dup2\n        /* \"#utility.yul\":53801:53821   */\n      sub\n        /* \"#utility.yul\":53797:53798   */\n      0x00\n        /* \"#utility.yul\":53786:53795   */\n      dup4\n        /* \"#utility.yul\":53782:53799   */\n      add\n        /* \"#utility.yul\":53775:53822   */\n      mstore\n        /* \"#utility.yul\":53839:53970   */\n      tag_917\n        /* \"#utility.yul\":53965:53969   */\n      dup2\n        /* \"#utility.yul\":53839:53970   */\n      tag_469\n      jump\t// in\n    tag_917:\n        /* \"#utility.yul\":53831:53970   */\n      swap1\n      pop\n        /* \"#utility.yul\":53558:53977   */\n      swap2\n      swap1\n      pop\n      jump\t// out\n        /* \"#utility.yul\":53983:54331   */\n    tag_239:\n        /* \"#utility.yul\":54023:54030   */\n      0x00\n        /* \"#utility.yul\":54046:54066   */\n      tag_919\n        /* \"#utility.yul\":54064:54065   */\n      dup3\n        /* \"#utility.yul\":54046:54066   */\n      tag_371\n      jump\t// in\n    tag_919:\n        /* \"#utility.yul\":54041:54066   */\n      swap2\n      pop\n        /* \"#utility.yul\":54080:54100   */\n      tag_920\n        /* \"#utility.yul\":54098:54099   */\n      dup4\n        /* \"#utility.yul\":54080:54100   */\n      tag_371\n      jump\t// in\n    tag_920:\n        /* \"#utility.yul\":54075:54100   */\n      swap3\n      pop\n        /* \"#utility.yul\":54268:54269   */\n      dup2\n        /* \"#utility.yul\":54200:54266   */\n      0xffffffffffffffffffffffffffffffffffffffffffffffffffffffffffffffff\n        /* \"#utility.yul\":54196:54270   */\n      div\n        /* \"#utility.yul\":54193:54194   */\n      dup4\n        /* \"#utility.yul\":54190:54271   */\n      gt\n        /* \"#utility.yul\":54185:54186   */\n      dup3\n        /* \"#utility.yul\":54178:54187   */\n      iszero\n        /* \"#utility.yul\":54171:54188   */\n      iszero\n        /* \"#utility.yul\":54167:54272   */\n      and\n        /* \"#utility.yul\":54164:54295   */\n      iszero\n      tag_921\n      jumpi\n        /* \"#utility.yul\":54275:54293   */\n      tag_922\n      tag_440\n      jump\t// in\n    tag_922:\n        /* \"#utility.yul\":54164:54295   */\n    tag_921:\n        /* \"#utility.yul\":54323:54324   */\n      dup3\n        /* \"#utility.yul\":54320:54321   */\n      dup3\n        /* \"#utility.yul\":54316:54325   */\n      mul\n        /* \"#utility.yul\":54305:54325   */\n      swap1\n      pop\n        /* \"#utility.yul\":53983:54331   */\n      swap3\n      swap2\n      pop\n      pop\n      jump\t// out\n        /* \"#utility.yul\":54337:54512   */\n    tag_470:\n        /* \"#utility.yul\":54477:54504   */\n      0x4465726573793a206d73672e76616c756520696e76616c696400000000000000\n        /* \"#utility.yul\":54473:54474   */\n      0x00\n        /* \"#utility.yul\":54465:54471   */\n      dup3\n        /* \"#utility.yul\":54461:54475   */\n      add\n        /* \"#utility.yul\":54454:54505   */\n      mstore\n        /* \"#utility.yul\":54337:54512   */\n      pop\n      jump\t// out\n        /* \"#utility.yul\":54518:54884   */\n    tag_471:\n        /* \"#utility.yul\":54660:54663   */\n      0x00\n        /* \"#utility.yul\":54681:54748   */\n      tag_925\n        /* \"#utility.yul\":54745:54747   */\n      0x19\n        /* \"#utility.yul\":54740:54743   */\n      dup4\n        /* \"#utility.yul\":54681:54748   */\n      tag_395\n      jump\t// in\n    tag_925:\n        /* \"#utility.yul\":54674:54748   */\n      swap2\n      pop\n        /* \"#utility.yul\":54757:54850   */\n      tag_926\n        /* \"#utility.yul\":54846:54849   */\n      dup3\n        /* \"#utility.yul\":54757:54850   */\n      tag_470\n      jump\t// in\n    tag_926:\n        /* \"#utility.yul\":54875:54877   */\n      0x20\n        /* \"#utility.yul\":54870:54873   */\n      dup3\n        /* \"#utility.yul\":54866:54878   */\n      add\n        /* \"#utility.yul\":54859:54878   */\n      swap1\n      pop\n        /* \"#utility.yul\":54518:54884   */\n      swap2\n      swap1\n      pop\n      jump\t// out\n        /* \"#utility.yul\":54890:55309   */\n    tag_243:\n        /* \"#utility.yul\":55056:55060   */\n      0x00\n        /* \"#utility.yul\":55094:55096   */\n      0x20\n        /* \"#utility.yul\":55083:55092   */\n      dup3\n        /* \"#utility.yul\":55079:55097   */\n      add\n        /* \"#utility.yul\":55071:55097   */\n      swap1\n      pop\n        /* \"#utility.yul\":55143:55152   */\n      dup2\n        /* \"#utility.yul\":55137:55141   */\n      dup2\n        /* \"#utility.yul\":55133:55153   */\n      sub\n        /* \"#utility.yul\":55129:55130   */\n      0x00\n        /* \"#utility.yul\":55118:55127   */\n      dup4\n        /* \"#utility.yul\":55114:55131   */\n      add\n        /* \"#utility.yul\":55107:55154   */\n      mstore\n        /* \"#utility.yul\":55171:55302   */\n      tag_928\n        /* \"#utility.yul\":55297:55301   */\n      dup2\n        /* \"#utility.yul\":55171:55302   */\n      tag_471\n      jump\t// in\n    tag_928:\n        /* \"#utility.yul\":55163:55302   */\n      swap1\n      pop\n        /* \"#utility.yul\":54890:55309   */\n      swap2\n      swap1\n      pop\n      jump\t// out\n        /* \"#utility.yul\":55315:55548   */\n    tag_282:\n        /* \"#utility.yul\":55354:55357   */\n      0x00\n        /* \"#utility.yul\":55377:55401   */\n      tag_930\n        /* \"#utility.yul\":55395:55400   */\n      dup3\n        /* \"#utility.yul\":55377:55401   */\n      tag_371\n      jump\t// in\n    tag_930:\n        /* \"#utility.yul\":55368:55401   */\n      swap2\n      pop\n        /* \"#utility.yul\":55423:55489   */\n      0xffffffffffffffffffffffffffffffffffffffffffffffffffffffffffffffff\n        /* \"#utility.yul\":55416:55421   */\n      dup3\n        /* \"#utility.yul\":55413:55490   */\n      sub\n        /* \"#utility.yul\":55410:55513   */\n      tag_931\n      jumpi\n        /* \"#utility.yul\":55493:55511   */\n      tag_932\n      tag_440\n      jump\t// in\n    tag_932:\n        /* \"#utility.yul\":55410:55513   */\n    tag_931:\n        /* \"#utility.yul\":55540:55541   */\n      0x01\n        /* \"#utility.yul\":55533:55538   */\n      dup3\n        /* \"#utility.yul\":55529:55542   */\n      add\n        /* \"#utility.yul\":55522:55542   */\n      swap1\n      pop\n        /* \"#utility.yul\":55315:55548   */\n      swap2\n      swap1\n      pop\n      jump\t// out\n\n    auxdata: 0xa2646970667358221220d670d399303b4c0212ea3a3644068f5c862b67a1daf89ed88b93009971dd444e64736f6c634300080e0033\n}\n",
				"bytecode": {
					"linkReferences": {},
					"object": "60806040526040518060400160405280600381526020017f302e310000000000000000000000000000000000000000000000000000000000815250600390805190602001906200005192919062000066565b503480156200005f57600080fd5b506200017a565b828054620000749062000145565b90600052602060002090601f016020900481019282620000985760008555620000e4565b82601f10620000b357805160ff1916838001178555620000e4565b82800160010185558215620000e4579182015b82811115620000e3578251825591602001919060010190620000c6565b5b509050620000f39190620000f7565b5090565b5b8082111562000112576000816000905550600101620000f8565b5090565b7f4e487b7100000000000000000000000000000000000000000000000000000000600052602260045260246000fd5b600060028204905060018216806200015e57607f821691505b60208210810362000174576200017362000116565b5b50919050565b613ae0806200018a6000396000f3fe6080604052600436106100865760003560e01c8063a0a8e46011610059578063a0a8e46014610160578063b6fc76af1461018b578063be2761d0146101ca578063d9370019146101f3578063dd5260541461020f57610086565b80630677b5351461008b578063629147e8146100c857806385b92413146100f157806386be6d5114610135575b600080fd5b34801561009757600080fd5b506100b260048036038101906100ad9190612350565b61023a565b6040516100bf9190612410565b60405180910390f35b3480156100d457600080fd5b506100ef60048036038101906100ea9190612464565b610453565b005b3480156100fd57600080fd5b50610118600480360381019061011391906124ef565b610859565b60405161012c98979695949392919061297e565b60405180910390f35b34801561014157600080fd5b5061014a610de4565b6040516101579190612410565b60405180910390f35b34801561016c57600080fd5b50610175610dea565b6040516101829190612a1f565b60405180910390f35b34801561019757600080fd5b506101b260048036038101906101ad9190612a6d565b610e78565b6040516101c193929190612c82565b60405180910390f35b3480156101d657600080fd5b506101f160048036038101906101ec91906124ef565b61116d565b005b61020d60048036038101906102089190612dbd565b6113d4565b005b34801561021b57600080fd5b506102246118e5565b6040516102319190612eeb565b60405180910390f35b60008084511161027f576040517f08c379a000000000000000000000000000000000000000000000000000000000815260040161027690612f59565b60405180910390fd5b60008251116102c3576040517f08c379a00000000000000000000000000000000000000000000000000000000081526004016102ba90612feb565b60405180910390fd5b8351825114610307576040517f08c379a00000000000000000000000000000000000000000000000000000000081526004016102fe9061307d565b60405180910390fd5b825184511461034b576040517f08c379a00000000000000000000000000000000000000000000000000000000081526004016103429061310f565b60405180910390fd5b6004604051806060016040528086815260200184815260200185815250908060018154018082558091505060019003906000526020600020906003020160009091909190915060008201518160000190805190602001906103ad929190611bfb565b5060208201518160010190805190602001906103ca929190611c5b565b5060408201518160020190805190602001906103e7929190611d11565b5050506001600260008282546103fd919061315e565b925050819055507f2ca1c706b776fc626b1e93b556d8968577908c5fee79ca88376ade10b781019c600160048054905061043791906131b4565b6040516104449190612410565b60405180910390a19392505050565b600015156000846040516104679190613224565b908152602001604051809103902060070160009054906101000a900460ff161515146104c8576040517f08c379a00000000000000000000000000000000000000000000000000000000081526004016104bf90613287565b60405180910390fd5b6000836040516104d89190613224565b9081526020016040518091039020600201805490508260ff1610610531576040517f08c379a0000000000000000000000000000000000000000000000000000000008152600401610528906132f3565b60405180910390fd5b805160046000856040516105459190613224565b9081526020016040518091039020600901548154811061056857610567613313565b5b906000526020600020906003020160000180549050146105bd576040517f08c379a00000000000000000000000000000000000000000000000000000000081526004016105b4906133b4565b60405180910390fd5b600115156105cb33856119be565b15151461060d576040517f08c379a00000000000000000000000000000000000000000000000000000000081526004016106049061346c565b60405180910390fd5b610618338484611aa7565b610657576040517f08c379a000000000000000000000000000000000000000000000000000000000815260040161064e90613524565b60405180910390fd5b6000836040516106679190613224565b908152602001604051809103902060060160405180606001604052803373ffffffffffffffffffffffffffffffffffffffff1681526020018460ff16815260200183815250908060018154018082558091505060019003906000526020600020906002020160009091909190915060008201518160000160006101000a81548173ffffffffffffffffffffffffffffffffffffffff021916908373ffffffffffffffffffffffffffffffffffffffff16021790555060208201518160000160146101000a81548160ff021916908360ff1602179055506040820151816001019080519060200190610759929190611bfb565b50505060008360405161076c9190613224565b90815260200160405180910390206005015460008460405161078e9190613224565b908152602001604051809103902060080160008282546107ae91906131b4565b925050819055503373ffffffffffffffffffffffffffffffffffffffff166108fc6000856040516107df9190613224565b9081526020016040518091039020600501549081150290604051600060405180830381858888f1935050505015801561081c573d6000803e3d6000fd5b507f4d6dd501df538f815f442947c933fc2f545525e75f909b918a6d0701acc7904c8360405161084c9190612a1f565b60405180910390a1505050565b606080606080600060606000806000808a6040516108779190613224565b9081526020016040518091039020604051806101400160405290816000820160009054906101000a900473ffffffffffffffffffffffffffffffffffffffff1673ffffffffffffffffffffffffffffffffffffffff1673ffffffffffffffffffffffffffffffffffffffff1681526020016001820180548060200260200160405190810160405280929190818152602001828054801561096c57602002820191906000526020600020905b8160009054906101000a900473ffffffffffffffffffffffffffffffffffffffff1673ffffffffffffffffffffffffffffffffffffffff1681526020019060010190808311610922575b5050505050815260200160028201805480602002602001604051908101604052809291908181526020016000905b82821015610a465783829060005260206000200180546109b990613573565b80601f01602080910402602001604051908101604052809291908181526020018280546109e590613573565b8015610a325780601f10610a0757610100808354040283529160200191610a32565b820191906000526020600020905b815481529060010190602001808311610a1557829003601f168201915b50505050508152602001906001019061099a565b50505050815260200160038201805480602002602001604051908101604052809291908181526020016000905b82821015610b1f578382906000526020600020018054610a9290613573565b80601f0160208091040260200160405190810160405280929190818152602001828054610abe90613573565b8015610b0b5780601f10610ae057610100808354040283529160200191610b0b565b820191906000526020600020905b815481529060010190602001808311610aee57829003601f168201915b505050505081526020019060010190610a73565b505050508152602001600482018054610b3790613573565b80601f0160208091040260200160405190810160405280929190818152602001828054610b6390613573565b8015610bb05780601f10610b8557610100808354040283529160200191610bb0565b820191906000526020600020905b815481529060010190602001808311610b9357829003601f168201915b505050505081526020016005820154815260200160068201805480602002602001604051908101604052809291908181526020016000905b82821015610d6657838290600052602060002090600202016040518060600160405290816000820160009054906101000a900473ffffffffffffffffffffffffffffffffffffffff1673ffffffffffffffffffffffffffffffffffffffff1673ffffffffffffffffffffffffffffffffffffffff1681526020016000820160149054906101000a900460ff1660ff1660ff16815260200160018201805480602002602001604051908101604052809291908181526020016000905b82821015610d4f578382906000526020600020018054610cc290613573565b80601f0160208091040260200160405190810160405280929190818152602001828054610cee90613573565b8015610d3b5780601f10610d1057610100808354040283529160200191610d3b565b820191906000526020600020905b815481529060010190602001808311610d1e57829003601f168201915b505050505081526020019060010190610ca3565b505050508152505081526020019060010190610be8565b5050505081526020016007820160009054906101000a900460ff1615151515815260200160088201548152602001600982015481525050905080602001518160400151826060015183608001518460a001518560c001518661012001518760e001519850985098509850985098509850985050919395975091939597565b60025481565b60038054610df790613573565b80601f0160208091040260200160405190810160405280929190818152602001828054610e2390613573565b8015610e705780601f10610e4557610100808354040283529160200191610e70565b820191906000526020600020905b815481529060010190602001808311610e5357829003601f168201915b505050505081565b606080606060048481548110610e9157610e90613313565b5b906000526020600020906003020160000160048581548110610eb657610eb5613313565b5b906000526020600020906003020160010160048681548110610edb57610eda613313565b5b906000526020600020906003020160020182805480602002602001604051908101604052809291908181526020016000905b82821015610fb9578382906000526020600020018054610f2c90613573565b80601f0160208091040260200160405190810160405280929190818152602001828054610f5890613573565b8015610fa55780601f10610f7a57610100808354040283529160200191610fa5565b820191906000526020600020905b815481529060010190602001808311610f8857829003601f168201915b505050505081526020019060010190610f0d565b5050505092508180548060200260200160405190810160405280929190818152602001828054801561103f57602002820191906000526020600020906000905b82829054906101000a900460ff16600281111561101957611018612ac6565b5b81526020019060010190602082600001049283019260010382029150808411610ff95790505b5050505050915080805480602002602001604051908101604052809291908181526020016000905b8282101561115a57838290600052602060002001805480602002602001604051908101604052809291908181526020016000905b828210156111475783829060005260206000200180546110ba90613573565b80601f01602080910402602001604051908101604052809291908181526020018280546110e690613573565b80156111335780601f1061110857610100808354040283529160200191611133565b820191906000526020600020905b81548152906001019060200180831161111657829003601f168201915b50505050508152602001906001019061109b565b5050505081526020019060010190611067565b5050505090509250925092509193909250565b60008160405161117d9190613224565b908152602001604051809103902060000160009054906101000a900473ffffffffffffffffffffffffffffffffffffffff1673ffffffffffffffffffffffffffffffffffffffff163373ffffffffffffffffffffffffffffffffffffffff161461121c576040517f08c379a0000000000000000000000000000000000000000000000000000000008152600401611213906135f0565b60405180910390fd5b600015156000826040516112309190613224565b908152602001604051809103902060070160009054906101000a900460ff16151514611291576040517f08c379a000000000000000000000000000000000000000000000000000000000815260040161128890613287565b60405180910390fd5b6000816040516112a19190613224565b908152602001604051809103902060000160009054906101000a900473ffffffffffffffffffffffffffffffffffffffff1673ffffffffffffffffffffffffffffffffffffffff166108fc6000836040516112fc9190613224565b9081526020016040518091039020600801549081150290604051600060405180830381858888f19350505050158015611339573d6000803e3d6000fd5b50600160008260405161134c9190613224565b908152602001604051809103902060070160006101000a81548160ff021916908315150217905550600080826040516113859190613224565b9081526020016040518091039020600801819055507fbc5c8cb2024ed254e024e37b09895ecaa07948dd0fd7a08e30b80f559888f2cf816040516113c99190612a1f565b60405180910390a150565b6000865111611418576040517f08c379a000000000000000000000000000000000000000000000000000000000815260040161140f9061365c565b60405180910390fd5b600085511161145c576040517f08c379a0000000000000000000000000000000000000000000000000000000008152600401611453906136c8565b60405180910390fd5b60008451116114a0576040517f08c379a00000000000000000000000000000000000000000000000000000000081526004016114979061375a565b60405180910390fd5b83518551146114e4576040517f08c379a00000000000000000000000000000000000000000000000000000000081526004016114db90613812565b60405180910390fd5b60016004805490506114f691906131b4565b811115611538576040517f08c379a000000000000000000000000000000000000000000000000000000000815260040161152f9061387e565b60405180910390fd5b6000821161157b576040517f08c379a000000000000000000000000000000000000000000000000000000000815260040161157290613910565b60405180910390fd5b600073ffffffffffffffffffffffffffffffffffffffff166000886040516115a39190613224565b908152602001604051809103902060000160009054906101000a900473ffffffffffffffffffffffffffffffffffffffff1673ffffffffffffffffffffffffffffffffffffffff161461162b576040517f08c379a00000000000000000000000000000000000000000000000000000000081526004016116229061397c565b60405180910390fd5b818551875161163a919061399c565b611644919061399c565b341015611686576040517f08c379a000000000000000000000000000000000000000000000000000000000815260040161167d90613a42565b60405180910390fd5b336000886040516116979190613224565b908152602001604051809103902060000160006101000a81548173ffffffffffffffffffffffffffffffffffffffff021916908373ffffffffffffffffffffffffffffffffffffffff160217905550856000886040516116f79190613224565b9081526020016040518091039020600101908051906020019061171b929190611d71565b508460008860405161172d9190613224565b90815260200160405180910390206002019080519060200190611751929190611bfb565b50836000886040516117639190613224565b90815260200160405180910390206003019080519060200190611787929190611bfb565b50826000886040516117999190613224565b908152602001604051809103902060040190805190602001906117bd929190611dfb565b50816000886040516117cf9190613224565b908152602001604051809103902060050181905550600080886040516117f59190613224565b908152602001604051809103902060070160006101000a81548160ff0219169083151502179055503460008860405161182e9190613224565b908152602001604051809103902060080181905550806000886040516118549190613224565b9081526020016040518091039020600901819055506001879080600181540180825580915050600190039060005260206000200160009091909190915090805190602001906118a4929190611dfb565b507f0448feabbf5bb385eb3ea2cb16d90b1cb3b4c8936e399cf7a10e7b8946eec667876040516118d49190612a1f565b60405180910390a150505050505050565b60606001805480602002602001604051908101604052809291908181526020016000905b828210156119b557838290600052602060002001805461192890613573565b80601f016020809104026020016040519081016040528092919081815260200182805461195490613573565b80156119a15780601f10611976576101008083540402835291602001916119a1565b820191906000526020600020905b81548152906001019060200180831161198457829003601f168201915b505050505081526020019060010190611909565b50505050905090565b6000806000905060005b6000846040516119d89190613224565b908152602001604051809103902060010180549050811015611a9c578473ffffffffffffffffffffffffffffffffffffffff16600085604051611a1b9190613224565b90815260200160405180910390206001018281548110611a3e57611a3d613313565b5b9060005260206000200160009054906101000a900473ffffffffffffffffffffffffffffffffffffffff1673ffffffffffffffffffffffffffffffffffffffff1603611a8957600191505b8080611a9490613a62565b9150506119c8565b508091505092915050565b6000806001905060005b600085604051611ac19190613224565b908152602001604051809103902060060180549050811015611bef578360ff16600086604051611af19190613224565b90815260200160405180910390206006018281548110611b1457611b13613313565b5b906000526020600020906002020160000160149054906101000a900460ff1660ff16148015611bd257508573ffffffffffffffffffffffffffffffffffffffff16600086604051611b659190613224565b90815260200160405180910390206006018281548110611b8857611b87613313565b5b906000526020600020906002020160000160009054906101000a900473ffffffffffffffffffffffffffffffffffffffff1673ffffffffffffffffffffffffffffffffffffffff16145b15611bdc57600091505b8080611be790613a62565b915050611ab1565b50809150509392505050565b828054828255906000526020600020908101928215611c4a579160200282015b82811115611c49578251829080519060200190611c39929190611dfb565b5091602001919060010190611c1b565b5b509050611c579190611e81565b5090565b82805482825590600052602060002090601f01602090048101928215611d005791602002820160005b83821115611cd157835183826101000a81548160ff02191690836002811115611cb057611caf612ac6565b5b02179055509260200192600101602081600001049283019260010302611c84565b8015611cfe5782816101000a81549060ff0219169055600101602081600001049283019260010302611cd1565b505b509050611d0d9190611ea5565b5090565b828054828255906000526020600020908101928215611d60579160200282015b82811115611d5f578251829080519060200190611d4f929190611bfb565b5091602001919060010190611d31565b5b509050611d6d9190611ec2565b5090565b828054828255906000526020600020908101928215611dea579160200282015b82811115611de95782518260006101000a81548173ffffffffffffffffffffffffffffffffffffffff021916908373ffffffffffffffffffffffffffffffffffffffff16021790555091602001919060010190611d91565b5b509050611df79190611ea5565b5090565b828054611e0790613573565b90600052602060002090601f016020900481019282611e295760008555611e70565b82601f10611e4257805160ff1916838001178555611e70565b82800160010185558215611e70579182015b82811115611e6f578251825591602001919060010190611e54565b5b509050611e7d9190611ea5565b5090565b5b80821115611ea15760008181611e989190611ee6565b50600101611e82565b5090565b5b80821115611ebe576000816000905550600101611ea6565b5090565b5b80821115611ee25760008181611ed99190611f26565b50600101611ec3565b5090565b508054611ef290613573565b6000825580601f10611f045750611f23565b601f016020900490600052602060002090810190611f229190611ea5565b5b50565b5080546000825590600052602060002090810190611f449190611e81565b50565b6000604051905090565b600080fd5b600080fd5b600080fd5b6000601f19601f8301169050919050565b7f4e487b7100000000000000000000000000000000000000000000000000000000600052604160045260246000fd5b611fa982611f60565b810181811067ffffffffffffffff82111715611fc857611fc7611f71565b5b80604052505050565b6000611fdb611f47565b9050611fe78282611fa0565b919050565b600067ffffffffffffffff82111561200757612006611f71565b5b602082029050602081019050919050565b600080fd5b600080fd5b600067ffffffffffffffff82111561203d5761203c611f71565b5b61204682611f60565b9050602081019050919050565b82818337600083830152505050565b600061207561207084612022565b611fd1565b9050828152602081018484840111156120915761209061201d565b5b61209c848285612053565b509392505050565b600082601f8301126120b9576120b8611f5b565b5b81356120c9848260208601612062565b91505092915050565b60006120e56120e084611fec565b611fd1565b9050808382526020820190506020840283018581111561210857612107612018565b5b835b8181101561214f57803567ffffffffffffffff81111561212d5761212c611f5b565b5b80860161213a89826120a4565b8552602085019450505060208101905061210a565b5050509392505050565b600082601f83011261216e5761216d611f5b565b5b813561217e8482602086016120d2565b91505092915050565b600067ffffffffffffffff8211156121a2576121a1611f71565b5b602082029050602081019050919050565b60006121c66121c184612187565b611fd1565b905080838252602082019050602084028301858111156121e9576121e8612018565b5b835b8181101561223057803567ffffffffffffffff81111561220e5761220d611f5b565b5b80860161221b8982612159565b855260208501945050506020810190506121eb565b5050509392505050565b600082601f83011261224f5761224e611f5b565b5b813561225f8482602086016121b3565b91505092915050565b600067ffffffffffffffff82111561228357612282611f71565b5b602082029050602081019050919050565b600381106122a157600080fd5b50565b6000813590506122b381612294565b92915050565b60006122cc6122c784612268565b611fd1565b905080838252602082019050602084028301858111156122ef576122ee612018565b5b835b81811015612318578061230488826122a4565b8452602084019350506020810190506122f1565b5050509392505050565b600082601f83011261233757612336611f5b565b5b81356123478482602086016122b9565b91505092915050565b60008060006060848603121561236957612368611f51565b5b600084013567ffffffffffffffff81111561238757612386611f56565b5b61239386828701612159565b935050602084013567ffffffffffffffff8111156123b4576123b3611f56565b5b6123c08682870161223a565b925050604084013567ffffffffffffffff8111156123e1576123e0611f56565b5b6123ed86828701612322565b9150509250925092565b6000819050919050565b61240a816123f7565b82525050565b60006020820190506124256000830184612401565b92915050565b600060ff82169050919050565b6124418161242b565b811461244c57600080fd5b50565b60008135905061245e81612438565b92915050565b60008060006060848603121561247d5761247c611f51565b5b600084013567ffffffffffffffff81111561249b5761249a611f56565b5b6124a7868287016120a4565b93505060206124b88682870161244f565b925050604084013567ffffffffffffffff8111156124d9576124d8611f56565b5b6124e586828701612159565b9150509250925092565b60006020828403121561250557612504611f51565b5b600082013567ffffffffffffffff81111561252357612522611f56565b5b61252f848285016120a4565b91505092915050565b600081519050919050565b600082825260208201905092915050565b6000819050602082019050919050565b600073ffffffffffffffffffffffffffffffffffffffff82169050919050565b600061258f82612564565b9050919050565b61259f81612584565b82525050565b60006125b18383612596565b60208301905092915050565b6000602082019050919050565b60006125d582612538565b6125df8185612543565b93506125ea83612554565b8060005b8381101561261b57815161260288826125a5565b975061260d836125bd565b9250506001810190506125ee565b5085935050505092915050565b600081519050919050565b600082825260208201905092915050565b6000819050602082019050919050565b600081519050919050565b600082825260208201905092915050565b60005b8381101561268e578082015181840152602081019050612673565b8381111561269d576000848401525b50505050565b60006126ae82612654565b6126b8818561265f565b93506126c8818560208601612670565b6126d181611f60565b840191505092915050565b60006126e883836126a3565b905092915050565b6000602082019050919050565b600061270882612628565b6127128185612633565b93508360208202850161272485612644565b8060005b85811015612760578484038952815161274185826126dc565b945061274c836126f0565b925060208a01995050600181019050612728565b50829750879550505050505092915050565b600082825260208201905092915050565b600061278e82612654565b6127988185612772565b93506127a8818560208601612670565b6127b181611f60565b840191505092915050565b600081519050919050565b600082825260208201905092915050565b6000819050602082019050919050565b6127f18161242b565b82525050565b600082825260208201905092915050565b600061281382612628565b61281d81856127f7565b93508360208202850161282f85612644565b8060005b8581101561286b578484038952815161284c85826126dc565b9450612857836126f0565b925060208a01995050600181019050612833565b50829750879550505050505092915050565b60006060830160008301516128956000860182612596565b5060208301516128a860208601826127e8565b50604083015184820360408601526128c08282612808565b9150508091505092915050565b60006128d9838361287d565b905092915050565b6000602082019050919050565b60006128f9826127bc565b61290381856127c7565b935083602082028501612915856127d8565b8060005b85811015612951578484038952815161293285826128cd565b945061293d836128e1565b925060208a01995050600181019050612919565b50829750879550505050505092915050565b60008115159050919050565b61297881612963565b82525050565b6000610100820190508181036000830152612999818b6125ca565b905081810360208301526129ad818a6126fd565b905081810360408301526129c181896126fd565b905081810360608301526129d58188612783565b90506129e46080830187612401565b81810360a08301526129f681866128ee565b9050612a0560c0830185612401565b612a1260e083018461296f565b9998505050505050505050565b60006020820190508181036000830152612a398184612783565b905092915050565b612a4a816123f7565b8114612a5557600080fd5b50565b600081359050612a6781612a41565b92915050565b600060208284031215612a8357612a82611f51565b5b6000612a9184828501612a58565b91505092915050565b600081519050919050565b600082825260208201905092915050565b6000819050602082019050919050565b7f4e487b7100000000000000000000000000000000000000000000000000000000600052602160045260246000fd5b60038110612b0657612b05612ac6565b5b50565b6000819050612b1782612af5565b919050565b6000612b2782612b09565b9050919050565b612b3781612b1c565b82525050565b6000612b498383612b2e565b60208301905092915050565b6000602082019050919050565b6000612b6d82612a9a565b612b778185612aa5565b9350612b8283612ab6565b8060005b83811015612bb3578151612b9a8882612b3d565b9750612ba583612b55565b925050600181019050612b86565b5085935050505092915050565b600081519050919050565b600082825260208201905092915050565b6000819050602082019050919050565b6000612bf88383612808565b905092915050565b6000602082019050919050565b6000612c1882612bc0565b612c228185612bcb565b935083602082028501612c3485612bdc565b8060005b85811015612c705784840389528151612c518582612bec565b9450612c5c83612c00565b925060208a01995050600181019050612c38565b50829750879550505050505092915050565b60006060820190508181036000830152612c9c81866126fd565b90508181036020830152612cb08185612b62565b90508181036040830152612cc48184612c0d565b9050949350505050565b600067ffffffffffffffff821115612ce957612ce8611f71565b5b602082029050602081019050919050565b612d0381612584565b8114612d0e57600080fd5b50565b600081359050612d2081612cfa565b92915050565b6000612d39612d3484612cce565b611fd1565b90508083825260208201905060208402830185811115612d5c57612d5b612018565b5b835b81811015612d855780612d718882612d11565b845260208401935050602081019050612d5e565b5050509392505050565b600082601f830112612da457612da3611f5b565b5b8135612db4848260208601612d26565b91505092915050565b600080600080600080600060e0888a031215612ddc57612ddb611f51565b5b600088013567ffffffffffffffff811115612dfa57612df9611f56565b5b612e068a828b016120a4565b975050602088013567ffffffffffffffff811115612e2757612e26611f56565b5b612e338a828b01612d8f565b965050604088013567ffffffffffffffff811115612e5457612e53611f56565b5b612e608a828b01612159565b955050606088013567ffffffffffffffff811115612e8157612e80611f56565b5b612e8d8a828b01612159565b945050608088013567ffffffffffffffff811115612eae57612ead611f56565b5b612eba8a828b016120a4565b93505060a0612ecb8a828b01612a58565b92505060c0612edc8a828b01612a58565b91505092959891949750929550565b60006020820190508181036000830152612f0581846126fd565b905092915050565b7f4465726573793a205175657374696f6e732063616e2774206265206e756c6c00600082015250565b6000612f43601f83612772565b9150612f4e82612f0d565b602082019050919050565b60006020820190508181036000830152612f7281612f36565b9050919050565b7f4465726573793a205175657374696f6e2054797065732063616e27742062652060008201527f6e756c6c00000000000000000000000000000000000000000000000000000000602082015250565b6000612fd5602483612772565b9150612fe082612f79565b604082019050919050565b6000602082019050818103600083015261300481612fc8565b9050919050565b7f4465726573793a205175657374696f6e7320616e64207479706573206d75737460008201527f2068617665207468652073616d65206c656e6774680000000000000000000000602082015250565b6000613067603583612772565b91506130728261300b565b604082019050919050565b600060208201905081810360008301526130968161305a565b9050919050565b7f4465726573793a205175657374696f6e7320616e642063686f69636573206d7560008201527f73742068617665207468652073616d65206c656e677468000000000000000000602082015250565b60006130f9603783612772565b91506131048261309d565b604082019050919050565b60006020820190508181036000830152613128816130ec565b9050919050565b7f4e487b7100000000000000000000000000000000000000000000000000000000600052601160045260246000fd5b6000613169826123f7565b9150613174836123f7565b9250827fffffffffffffffffffffffffffffffffffffffffffffffffffffffffffffffff038211156131a9576131a861312f565b5b828201905092915050565b60006131bf826123f7565b91506131ca836123f7565b9250828210156131dd576131dc61312f565b5b828203905092915050565b600081905092915050565b60006131fe82612654565b61320881856131e8565b9350613218818560208601612670565b80840191505092915050565b600061323082846131f3565b915081905092915050565b7f4465726573793a207265717565737420636c6f73656400000000000000000000600082015250565b6000613271601683612772565b915061327c8261323b565b602082019050919050565b600060208201905081810360008301526132a081613264565b9050919050565b7f4465726573793a20746172676574496e64657820696e76616c69640000000000600082015250565b60006132dd601b83612772565b91506132e8826132a7565b602082019050919050565b6000602082019050818103600083015261330c816132d0565b9050919050565b7f4e487b7100000000000000000000000000000000000000000000000000000000600052603260045260246000fd5b7f4465726573793a204e6f74207468652073616d65206e756d626572206f66207160008201527f75657374696f6e7320616e6420616e7377657273000000000000000000000000602082015250565b600061339e603483612772565b91506133a982613342565b604082019050919050565b600060208201905081810360008301526133cd81613391565b9050919050565b7f546869732061646472657373206973206e6f7420696e2074686520726576696560008201527f77657273206c69737420666f722074686520737065636966696564207265717560208201527f6573742e00000000000000000000000000000000000000000000000000000000604082015250565b6000613456604483612772565b9150613461826133d4565b606082019050919050565b6000602082019050818103600083015261348581613449565b9050919050565b7f5468697320616464726573732068617320616c7265616479207375626d69747460008201527f656420612072657669657720666f72207468652074617267746520696e64657860208201527f20696e2074686520737065636966696564207265717565737400000000000000604082015250565b600061350e605983612772565b91506135198261348c565b606082019050919050565b6000602082019050818103600083015261353d81613501565b9050919050565b7f4e487b7100000000000000000000000000000000000000000000000000000000600052602260045260246000fd5b6000600282049050600182168061358b57607f821691505b60208210810361359e5761359d613544565b5b50919050565b7f4465726573793a204974206973206e6f74207468652073706f6e736f72000000600082015250565b60006135da601d83612772565b91506135e5826135a4565b602082019050919050565b60006020820190508181036000830152613609816135cd565b9050919050565b7f4465726573793a205265766965776572732063616e6e6f74206265206e756c6c600082015250565b6000613646602083612772565b915061365182613610565b602082019050919050565b6000602082019050818103600083015261367581613639565b9050919050565b7f4465726573793a20546172676574732063616e6e6f74206265206e756c6c0000600082015250565b60006136b2601e83612772565b91506136bd8261367c565b602082019050919050565b600060208201905081810360008301526136e1816136a5565b9050919050565b7f4465726573793a20546172676574732049504653206861736865732063616e6e60008201527f6f74206265206e756c6c00000000000000000000000000000000000000000000602082015250565b6000613744602a83612772565b915061374f826136e8565b604082019050919050565b6000602082019050818103600083015261377381613737565b9050919050565b7f4465726573793a205461726765747320616e642074617267657473495046534860008201527f6173686573206172726179206d7573742068617665207468652073616d65206c60208201527f656e677468000000000000000000000000000000000000000000000000000000604082015250565b60006137fc604583612772565b91506138078261377a565b606082019050919050565b6000602082019050818103600083015261382b816137ef565b9050919050565b7f4465726573793a20526576696577466f726d496e64657820696e76616c696400600082015250565b6000613868601f83612772565b915061387382613832565b602082019050919050565b600060208201905081810360008301526138978161385b565b9050919050565b7f4465726573793a207265776172645065725265766965772063616e6e6f74206260008201527f6520656d70747900000000000000000000000000000000000000000000000000602082015250565b60006138fa602783612772565b91506139058261389e565b604082019050919050565b60006020820190508181036000830152613929816138ed565b9050919050565b7f4465726573793a204e616d65206475706c696361746564000000000000000000600082015250565b6000613966601783612772565b915061397182613930565b602082019050919050565b6000602082019050818103600083015261399581613959565b9050919050565b60006139a7826123f7565b91506139b2836123f7565b9250817fffffffffffffffffffffffffffffffffffffffffffffffffffffffffffffffff04831182151516156139eb576139ea61312f565b5b828202905092915050565b7f4465726573793a206d73672e76616c756520696e76616c696400000000000000600082015250565b6000613a2c601983612772565b9150613a37826139f6565b602082019050919050565b60006020820190508181036000830152613a5b81613a1f565b9050919050565b6000613a6d826123f7565b91507fffffffffffffffffffffffffffffffffffffffffffffffffffffffffffffffff8203613a9f57613a9e61312f565b5b60018201905091905056fea2646970667358221220d670d399303b4c0212ea3a3644068f5c862b67a1daf89ed88b93009971dd444e64736f6c634300080e0033",
					"opcodes": "PUSH1 0x80 PUSH1 0x40 MSTORE PUSH1 0x40 MLOAD DUP1 PUSH1 0x40 ADD PUSH1 0x40 MSTORE DUP1 PUSH1 0x3 DUP2 MSTORE PUSH1 0x20 ADD PUSH32 0x302E310000000000000000000000000000000000000000000000000000000000 DUP2 MSTORE POP PUSH1 0x3 SWAP1 DUP1 MLOAD SWAP1 PUSH1 0x20 ADD SWAP1 PUSH3 0x51 SWAP3 SWAP2 SWAP1 PUSH3 0x66 JUMP JUMPDEST POP CALLVALUE DUP1 ISZERO PUSH3 0x5F JUMPI PUSH1 0x0 DUP1 REVERT JUMPDEST POP PUSH3 0x17A JUMP JUMPDEST DUP3 DUP1 SLOAD PUSH3 0x74 SWAP1 PUSH3 0x145 JUMP JUMPDEST SWAP1 PUSH1 0x0 MSTORE PUSH1 0x20 PUSH1 0x0 KECCAK256 SWAP1 PUSH1 0x1F ADD PUSH1 0x20 SWAP1 DIV DUP2 ADD SWAP3 DUP3 PUSH3 0x98 JUMPI PUSH1 0x0 DUP6 SSTORE PUSH3 0xE4 JUMP JUMPDEST DUP3 PUSH1 0x1F LT PUSH3 0xB3 JUMPI DUP1 MLOAD PUSH1 0xFF NOT AND DUP4 DUP1 ADD OR DUP6 SSTORE PUSH3 0xE4 JUMP JUMPDEST DUP3 DUP1 ADD PUSH1 0x1 ADD DUP6 SSTORE DUP3 ISZERO PUSH3 0xE4 JUMPI SWAP2 DUP3 ADD JUMPDEST DUP3 DUP2 GT ISZERO PUSH3 0xE3 JUMPI DUP3 MLOAD DUP3 SSTORE SWAP2 PUSH1 0x20 ADD SWAP2 SWAP1 PUSH1 0x1 ADD SWAP1 PUSH3 0xC6 JUMP JUMPDEST JUMPDEST POP SWAP1 POP PUSH3 0xF3 SWAP2 SWAP1 PUSH3 0xF7 JUMP JUMPDEST POP SWAP1 JUMP JUMPDEST JUMPDEST DUP1 DUP3 GT ISZERO PUSH3 0x112 JUMPI PUSH1 0x0 DUP2 PUSH1 0x0 SWAP1 SSTORE POP PUSH1 0x1 ADD PUSH3 0xF8 JUMP JUMPDEST POP SWAP1 JUMP JUMPDEST PUSH32 0x4E487B7100000000000000000000000000000000000000000000000000000000 PUSH1 0x0 MSTORE PUSH1 0x22 PUSH1 0x4 MSTORE PUSH1 0x24 PUSH1 0x0 REVERT JUMPDEST PUSH1 0x0 PUSH1 0x2 DUP3 DIV SWAP1 POP PUSH1 0x1 DUP3 AND DUP1 PUSH3 0x15E JUMPI PUSH1 0x7F DUP3 AND SWAP2 POP JUMPDEST PUSH1 0x20 DUP3 LT DUP2 SUB PUSH3 0x174 JUMPI PUSH3 0x173 PUSH3 0x116 JUMP JUMPDEST JUMPDEST POP SWAP2 SWAP1 POP JUMP JUMPDEST PUSH2 0x3AE0 DUP1 PUSH3 0x18A PUSH1 0x0 CODECOPY PUSH1 0x0 RETURN INVALID PUSH1 0x80 PUSH1 0x40 MSTORE PUSH1 0x4 CALLDATASIZE LT PUSH2 0x86 JUMPI PUSH1 0x0 CALLDATALOAD PUSH1 0xE0 SHR DUP1 PUSH4 0xA0A8E460 GT PUSH2 0x59 JUMPI DUP1 PUSH4 0xA0A8E460 EQ PUSH2 0x160 JUMPI DUP1 PUSH4 0xB6FC76AF EQ PUSH2 0x18B JUMPI DUP1 PUSH4 0xBE2761D0 EQ PUSH2 0x1CA JUMPI DUP1 PUSH4 0xD9370019 EQ PUSH2 0x1F3 JUMPI DUP1 PUSH4 0xDD526054 EQ PUSH2 0x20F JUMPI PUSH2 0x86 JUMP JUMPDEST DUP1 PUSH4 0x677B535 EQ PUSH2 0x8B JUMPI DUP1 PUSH4 0x629147E8 EQ PUSH2 0xC8 JUMPI DUP1 PUSH4 0x85B92413 EQ PUSH2 0xF1 JUMPI DUP1 PUSH4 0x86BE6D51 EQ PUSH2 0x135 JUMPI JUMPDEST PUSH1 0x0 DUP1 REVERT JUMPDEST CALLVALUE DUP1 ISZERO PUSH2 0x97 JUMPI PUSH1 0x0 DUP1 REVERT JUMPDEST POP PUSH2 0xB2 PUSH1 0x4 DUP1 CALLDATASIZE SUB DUP2 ADD SWAP1 PUSH2 0xAD SWAP2 SWAP1 PUSH2 0x2350 JUMP JUMPDEST PUSH2 0x23A JUMP JUMPDEST PUSH1 0x40 MLOAD PUSH2 0xBF SWAP2 SWAP1 PUSH2 0x2410 JUMP JUMPDEST PUSH1 0x40 MLOAD DUP1 SWAP2 SUB SWAP1 RETURN JUMPDEST CALLVALUE DUP1 ISZERO PUSH2 0xD4 JUMPI PUSH1 0x0 DUP1 REVERT JUMPDEST POP PUSH2 0xEF PUSH1 0x4 DUP1 CALLDATASIZE SUB DUP2 ADD SWAP1 PUSH2 0xEA SWAP2 SWAP1 PUSH2 0x2464 JUMP JUMPDEST PUSH2 0x453 JUMP JUMPDEST STOP JUMPDEST CALLVALUE DUP1 ISZERO PUSH2 0xFD JUMPI PUSH1 0x0 DUP1 REVERT JUMPDEST POP PUSH2 0x118 PUSH1 0x4 DUP1 CALLDATASIZE SUB DUP2 ADD SWAP1 PUSH2 0x113 SWAP2 SWAP1 PUSH2 0x24EF JUMP JUMPDEST PUSH2 0x859 JUMP JUMPDEST PUSH1 0x40 MLOAD PUSH2 0x12C SWAP9 SWAP8 SWAP7 SWAP6 SWAP5 SWAP4 SWAP3 SWAP2 SWAP1 PUSH2 0x297E JUMP JUMPDEST PUSH1 0x40 MLOAD DUP1 SWAP2 SUB SWAP1 RETURN JUMPDEST CALLVALUE DUP1 ISZERO PUSH2 0x141 JUMPI PUSH1 0x0 DUP1 REVERT JUMPDEST POP PUSH2 0x14A PUSH2 0xDE4 JUMP JUMPDEST PUSH1 0x40 MLOAD PUSH2 0x157 SWAP2 SWAP1 PUSH2 0x2410 JUMP JUMPDEST PUSH1 0x40 MLOAD DUP1 SWAP2 SUB SWAP1 RETURN JUMPDEST CALLVALUE DUP1 ISZERO PUSH2 0x16C JUMPI PUSH1 0x0 DUP1 REVERT JUMPDEST POP PUSH2 0x175 PUSH2 0xDEA JUMP JUMPDEST PUSH1 0x40 MLOAD PUSH2 0x182 SWAP2 SWAP1 PUSH2 0x2A1F JUMP JUMPDEST PUSH1 0x40 MLOAD DUP1 SWAP2 SUB SWAP1 RETURN JUMPDEST CALLVALUE DUP1 ISZERO PUSH2 0x197 JUMPI PUSH1 0x0 DUP1 REVERT JUMPDEST POP PUSH2 0x1B2 PUSH1 0x4 DUP1 CALLDATASIZE SUB DUP2 ADD SWAP1 PUSH2 0x1AD SWAP2 SWAP1 PUSH2 0x2A6D JUMP JUMPDEST PUSH2 0xE78 JUMP JUMPDEST PUSH1 0x40 MLOAD PUSH2 0x1C1 SWAP4 SWAP3 SWAP2 SWAP1 PUSH2 0x2C82 JUMP JUMPDEST PUSH1 0x40 MLOAD DUP1 SWAP2 SUB SWAP1 RETURN JUMPDEST CALLVALUE DUP1 ISZERO PUSH2 0x1D6 JUMPI PUSH1 0x0 DUP1 REVERT JUMPDEST POP PUSH2 0x1F1 PUSH1 0x4 DUP1 CALLDATASIZE SUB DUP2 ADD SWAP1 PUSH2 0x1EC SWAP2 SWAP1 PUSH2 0x24EF JUMP JUMPDEST PUSH2 0x116D JUMP JUMPDEST STOP JUMPDEST PUSH2 0x20D PUSH1 0x4 DUP1 CALLDATASIZE SUB DUP2 ADD SWAP1 PUSH2 0x208 SWAP2 SWAP1 PUSH2 0x2DBD JUMP JUMPDEST PUSH2 0x13D4 JUMP JUMPDEST STOP JUMPDEST CALLVALUE DUP1 ISZERO PUSH2 0x21B JUMPI PUSH1 0x0 DUP1 REVERT JUMPDEST POP PUSH2 0x224 PUSH2 0x18E5 JUMP JUMPDEST PUSH1 0x40 MLOAD PUSH2 0x231 SWAP2 SWAP1 PUSH2 0x2EEB JUMP JUMPDEST PUSH1 0x40 MLOAD DUP1 SWAP2 SUB SWAP1 RETURN JUMPDEST PUSH1 0x0 DUP1 DUP5 MLOAD GT PUSH2 0x27F JUMPI PUSH1 0x40 MLOAD PUSH32 0x8C379A000000000000000000000000000000000000000000000000000000000 DUP2 MSTORE PUSH1 0x4 ADD PUSH2 0x276 SWAP1 PUSH2 0x2F59 JUMP JUMPDEST PUSH1 0x40 MLOAD DUP1 SWAP2 SUB SWAP1 REVERT JUMPDEST PUSH1 0x0 DUP3 MLOAD GT PUSH2 0x2C3 JUMPI PUSH1 0x40 MLOAD PUSH32 0x8C379A000000000000000000000000000000000000000000000000000000000 DUP2 MSTORE PUSH1 0x4 ADD PUSH2 0x2BA SWAP1 PUSH2 0x2FEB JUMP JUMPDEST PUSH1 0x40 MLOAD DUP1 SWAP2 SUB SWAP1 REVERT JUMPDEST DUP4 MLOAD DUP3 MLOAD EQ PUSH2 0x307 JUMPI PUSH1 0x40 MLOAD PUSH32 0x8C379A000000000000000000000000000000000000000000000000000000000 DUP2 MSTORE PUSH1 0x4 ADD PUSH2 0x2FE SWAP1 PUSH2 0x307D JUMP JUMPDEST PUSH1 0x40 MLOAD DUP1 SWAP2 SUB SWAP1 REVERT JUMPDEST DUP3 MLOAD DUP5 MLOAD EQ PUSH2 0x34B JUMPI PUSH1 0x40 MLOAD PUSH32 0x8C379A000000000000000000000000000000000000000000000000000000000 DUP2 MSTORE PUSH1 0x4 ADD PUSH2 0x342 SWAP1 PUSH2 0x310F JUMP JUMPDEST PUSH1 0x40 MLOAD DUP1 SWAP2 SUB SWAP1 REVERT JUMPDEST PUSH1 0x4 PUSH1 0x40 MLOAD DUP1 PUSH1 0x60 ADD PUSH1 0x40 MSTORE DUP1 DUP7 DUP2 MSTORE PUSH1 0x20 ADD DUP5 DUP2 MSTORE PUSH1 0x20 ADD DUP6 DUP2 MSTORE POP SWAP1 DUP1 PUSH1 0x1 DUP2 SLOAD ADD DUP1 DUP3 SSTORE DUP1 SWAP2 POP POP PUSH1 0x1 SWAP1 SUB SWAP1 PUSH1 0x0 MSTORE PUSH1 0x20 PUSH1 0x0 KECCAK256 SWAP1 PUSH1 0x3 MUL ADD PUSH1 0x0 SWAP1 SWAP2 SWAP1 SWAP2 SWAP1 SWAP2 POP PUSH1 0x0 DUP3 ADD MLOAD DUP2 PUSH1 0x0 ADD SWAP1 DUP1 MLOAD SWAP1 PUSH1 0x20 ADD SWAP1 PUSH2 0x3AD SWAP3 SWAP2 SWAP1 PUSH2 0x1BFB JUMP JUMPDEST POP PUSH1 0x20 DUP3 ADD MLOAD DUP2 PUSH1 0x1 ADD SWAP1 DUP1 MLOAD SWAP1 PUSH1 0x20 ADD SWAP1 PUSH2 0x3CA SWAP3 SWAP2 SWAP1 PUSH2 0x1C5B JUMP JUMPDEST POP PUSH1 0x40 DUP3 ADD MLOAD DUP2 PUSH1 0x2 ADD SWAP1 DUP1 MLOAD SWAP1 PUSH1 0x20 ADD SWAP1 PUSH2 0x3E7 SWAP3 SWAP2 SWAP1 PUSH2 0x1D11 JUMP JUMPDEST POP POP POP PUSH1 0x1 PUSH1 0x2 PUSH1 0x0 DUP3 DUP3 SLOAD PUSH2 0x3FD SWAP2 SWAP1 PUSH2 0x315E JUMP JUMPDEST SWAP3 POP POP DUP2 SWAP1 SSTORE POP PUSH32 0x2CA1C706B776FC626B1E93B556D8968577908C5FEE79CA88376ADE10B781019C PUSH1 0x1 PUSH1 0x4 DUP1 SLOAD SWAP1 POP PUSH2 0x437 SWAP2 SWAP1 PUSH2 0x31B4 JUMP JUMPDEST PUSH1 0x40 MLOAD PUSH2 0x444 SWAP2 SWAP1 PUSH2 0x2410 JUMP JUMPDEST PUSH1 0x40 MLOAD DUP1 SWAP2 SUB SWAP1 LOG1 SWAP4 SWAP3 POP POP POP JUMP JUMPDEST PUSH1 0x0 ISZERO ISZERO PUSH1 0x0 DUP5 PUSH1 0x40 MLOAD PUSH2 0x467 SWAP2 SWAP1 PUSH2 0x3224 JUMP JUMPDEST SWAP1 DUP2 MSTORE PUSH1 0x20 ADD PUSH1 0x40 MLOAD DUP1 SWAP2 SUB SWAP1 KECCAK256 PUSH1 0x7 ADD PUSH1 0x0 SWAP1 SLOAD SWAP1 PUSH2 0x100 EXP SWAP1 DIV PUSH1 0xFF AND ISZERO ISZERO EQ PUSH2 0x4C8 JUMPI PUSH1 0x40 MLOAD PUSH32 0x8C379A000000000000000000000000000000000000000000000000000000000 DUP2 MSTORE PUSH1 0x4 ADD PUSH2 0x4BF SWAP1 PUSH2 0x3287 JUMP JUMPDEST PUSH1 0x40 MLOAD DUP1 SWAP2 SUB SWAP1 REVERT JUMPDEST PUSH1 0x0 DUP4 PUSH1 0x40 MLOAD PUSH2 0x4D8 SWAP2 SWAP1 PUSH2 0x3224 JUMP JUMPDEST SWAP1 DUP2 MSTORE PUSH1 0x20 ADD PUSH1 0x40 MLOAD DUP1 SWAP2 SUB SWAP1 KECCAK256 PUSH1 0x2 ADD DUP1 SLOAD SWAP1 POP DUP3 PUSH1 0xFF AND LT PUSH2 0x531 JUMPI PUSH1 0x40 MLOAD PUSH32 0x8C379A000000000000000000000000000000000000000000000000000000000 DUP2 MSTORE PUSH1 0x4 ADD PUSH2 0x528 SWAP1 PUSH2 0x32F3 JUMP JUMPDEST PUSH1 0x40 MLOAD DUP1 SWAP2 SUB SWAP1 REVERT JUMPDEST DUP1 MLOAD PUSH1 0x4 PUSH1 0x0 DUP6 PUSH1 0x40 MLOAD PUSH2 0x545 SWAP2 SWAP1 PUSH2 0x3224 JUMP JUMPDEST SWAP1 DUP2 MSTORE PUSH1 0x20 ADD PUSH1 0x40 MLOAD DUP1 SWAP2 SUB SWAP1 KECCAK256 PUSH1 0x9 ADD SLOAD DUP2 SLOAD DUP2 LT PUSH2 0x568 JUMPI PUSH2 0x567 PUSH2 0x3313 JUMP JUMPDEST JUMPDEST SWAP1 PUSH1 0x0 MSTORE PUSH1 0x20 PUSH1 0x0 KECCAK256 SWAP1 PUSH1 0x3 MUL ADD PUSH1 0x0 ADD DUP1 SLOAD SWAP1 POP EQ PUSH2 0x5BD JUMPI PUSH1 0x40 MLOAD PUSH32 0x8C379A000000000000000000000000000000000000000000000000000000000 DUP2 MSTORE PUSH1 0x4 ADD PUSH2 0x5B4 SWAP1 PUSH2 0x33B4 JUMP JUMPDEST PUSH1 0x40 MLOAD DUP1 SWAP2 SUB SWAP1 REVERT JUMPDEST PUSH1 0x1 ISZERO ISZERO PUSH2 0x5CB CALLER DUP6 PUSH2 0x19BE JUMP JUMPDEST ISZERO ISZERO EQ PUSH2 0x60D JUMPI PUSH1 0x40 MLOAD PUSH32 0x8C379A000000000000000000000000000000000000000000000000000000000 DUP2 MSTORE PUSH1 0x4 ADD PUSH2 0x604 SWAP1 PUSH2 0x346C JUMP JUMPDEST PUSH1 0x40 MLOAD DUP1 SWAP2 SUB SWAP1 REVERT JUMPDEST PUSH2 0x618 CALLER DUP5 DUP5 PUSH2 0x1AA7 JUMP JUMPDEST PUSH2 0x657 JUMPI PUSH1 0x40 MLOAD PUSH32 0x8C379A000000000000000000000000000000000000000000000000000000000 DUP2 MSTORE PUSH1 0x4 ADD PUSH2 0x64E SWAP1 PUSH2 0x3524 JUMP JUMPDEST PUSH1 0x40 MLOAD DUP1 SWAP2 SUB SWAP1 REVERT JUMPDEST PUSH1 0x0 DUP4 PUSH1 0x40 MLOAD PUSH2 0x667 SWAP2 SWAP1 PUSH2 0x3224 JUMP JUMPDEST SWAP1 DUP2 MSTORE PUSH1 0x20 ADD PUSH1 0x40 MLOAD DUP1 SWAP2 SUB SWAP1 KECCAK256 PUSH1 0x6 ADD PUSH1 0x40 MLOAD DUP1 PUSH1 0x60 ADD PUSH1 0x40 MSTORE DUP1 CALLER PUSH20 0xFFFFFFFFFFFFFFFFFFFFFFFFFFFFFFFFFFFFFFFF AND DUP2 MSTORE PUSH1 0x20 ADD DUP5 PUSH1 0xFF AND DUP2 MSTORE PUSH1 0x20 ADD DUP4 DUP2 MSTORE POP SWAP1 DUP1 PUSH1 0x1 DUP2 SLOAD ADD DUP1 DUP3 SSTORE DUP1 SWAP2 POP POP PUSH1 0x1 SWAP1 SUB SWAP1 PUSH1 0x0 MSTORE PUSH1 0x20 PUSH1 0x0 KECCAK256 SWAP1 PUSH1 0x2 MUL ADD PUSH1 0x0 SWAP1 SWAP2 SWAP1 SWAP2 SWAP1 SWAP2 POP PUSH1 0x0 DUP3 ADD MLOAD DUP2 PUSH1 0x0 ADD PUSH1 0x0 PUSH2 0x100 EXP DUP2 SLOAD DUP2 PUSH20 0xFFFFFFFFFFFFFFFFFFFFFFFFFFFFFFFFFFFFFFFF MUL NOT AND SWAP1 DUP4 PUSH20 0xFFFFFFFFFFFFFFFFFFFFFFFFFFFFFFFFFFFFFFFF AND MUL OR SWAP1 SSTORE POP PUSH1 0x20 DUP3 ADD MLOAD DUP2 PUSH1 0x0 ADD PUSH1 0x14 PUSH2 0x100 EXP DUP2 SLOAD DUP2 PUSH1 0xFF MUL NOT AND SWAP1 DUP4 PUSH1 0xFF AND MUL OR SWAP1 SSTORE POP PUSH1 0x40 DUP3 ADD MLOAD DUP2 PUSH1 0x1 ADD SWAP1 DUP1 MLOAD SWAP1 PUSH1 0x20 ADD SWAP1 PUSH2 0x759 SWAP3 SWAP2 SWAP1 PUSH2 0x1BFB JUMP JUMPDEST POP POP POP PUSH1 0x0 DUP4 PUSH1 0x40 MLOAD PUSH2 0x76C SWAP2 SWAP1 PUSH2 0x3224 JUMP JUMPDEST SWAP1 DUP2 MSTORE PUSH1 0x20 ADD PUSH1 0x40 MLOAD DUP1 SWAP2 SUB SWAP1 KECCAK256 PUSH1 0x5 ADD SLOAD PUSH1 0x0 DUP5 PUSH1 0x40 MLOAD PUSH2 0x78E SWAP2 SWAP1 PUSH2 0x3224 JUMP JUMPDEST SWAP1 DUP2 MSTORE PUSH1 0x20 ADD PUSH1 0x40 MLOAD DUP1 SWAP2 SUB SWAP1 KECCAK256 PUSH1 0x8 ADD PUSH1 0x0 DUP3 DUP3 SLOAD PUSH2 0x7AE SWAP2 SWAP1 PUSH2 0x31B4 JUMP JUMPDEST SWAP3 POP POP DUP2 SWAP1 SSTORE POP CALLER PUSH20 0xFFFFFFFFFFFFFFFFFFFFFFFFFFFFFFFFFFFFFFFF AND PUSH2 0x8FC PUSH1 0x0 DUP6 PUSH1 0x40 MLOAD PUSH2 0x7DF SWAP2 SWAP1 PUSH2 0x3224 JUMP JUMPDEST SWAP1 DUP2 MSTORE PUSH1 0x20 ADD PUSH1 0x40 MLOAD DUP1 SWAP2 SUB SWAP1 KECCAK256 PUSH1 0x5 ADD SLOAD SWAP1 DUP2 ISZERO MUL SWAP1 PUSH1 0x40 MLOAD PUSH1 0x0 PUSH1 0x40 MLOAD DUP1 DUP4 SUB DUP2 DUP6 DUP9 DUP9 CALL SWAP4 POP POP POP POP ISZERO DUP1 ISZERO PUSH2 0x81C JUMPI RETURNDATASIZE PUSH1 0x0 DUP1 RETURNDATACOPY RETURNDATASIZE PUSH1 0x0 REVERT JUMPDEST POP PUSH32 0x4D6DD501DF538F815F442947C933FC2F545525E75F909B918A6D0701ACC7904C DUP4 PUSH1 0x40 MLOAD PUSH2 0x84C SWAP2 SWAP1 PUSH2 0x2A1F JUMP JUMPDEST PUSH1 0x40 MLOAD DUP1 SWAP2 SUB SWAP1 LOG1 POP POP POP JUMP JUMPDEST PUSH1 0x60 DUP1 PUSH1 0x60 DUP1 PUSH1 0x0 PUSH1 0x60 PUSH1 0x0 DUP1 PUSH1 0x0 DUP1 DUP11 PUSH1 0x40 MLOAD PUSH2 0x877 SWAP2 SWAP1 PUSH2 0x3224 JUMP JUMPDEST SWAP1 DUP2 MSTORE PUSH1 0x20 ADD PUSH1 0x40 MLOAD DUP1 SWAP2 SUB SWAP1 KECCAK256 PUSH1 0x40 MLOAD DUP1 PUSH2 0x140 ADD PUSH1 0x40 MSTORE SWAP1 DUP2 PUSH1 0x0 DUP3 ADD PUSH1 0x0 SWAP1 SLOAD SWAP1 PUSH2 0x100 EXP SWAP1 DIV PUSH20 0xFFFFFFFFFFFFFFFFFFFFFFFFFFFFFFFFFFFFFFFF AND PUSH20 0xFFFFFFFFFFFFFFFFFFFFFFFFFFFFFFFFFFFFFFFF AND PUSH20 0xFFFFFFFFFFFFFFFFFFFFFFFFFFFFFFFFFFFFFFFF AND DUP2 MSTORE PUSH1 0x20 ADD PUSH1 0x1 DUP3 ADD DUP1 SLOAD DUP1 PUSH1 0x20 MUL PUSH1 0x20 ADD PUSH1 0x40 MLOAD SWAP1 DUP2 ADD PUSH1 0x40 MSTORE DUP1 SWAP3 SWAP2 SWAP1 DUP2 DUP2 MSTORE PUSH1 0x20 ADD DUP3 DUP1 SLOAD DUP1 ISZERO PUSH2 0x96C JUMPI PUSH1 0x20 MUL DUP3 ADD SWAP2 SWAP1 PUSH1 0x0 MSTORE PUSH1 0x20 PUSH1 0x0 KECCAK256 SWAP1 JUMPDEST DUP2 PUSH1 0x0 SWAP1 SLOAD SWAP1 PUSH2 0x100 EXP SWAP1 DIV PUSH20 0xFFFFFFFFFFFFFFFFFFFFFFFFFFFFFFFFFFFFFFFF AND PUSH20 0xFFFFFFFFFFFFFFFFFFFFFFFFFFFFFFFFFFFFFFFF AND DUP2 MSTORE PUSH1 0x20 ADD SWAP1 PUSH1 0x1 ADD SWAP1 DUP1 DUP4 GT PUSH2 0x922 JUMPI JUMPDEST POP POP POP POP POP DUP2 MSTORE PUSH1 0x20 ADD PUSH1 0x2 DUP3 ADD DUP1 SLOAD DUP1 PUSH1 0x20 MUL PUSH1 0x20 ADD PUSH1 0x40 MLOAD SWAP1 DUP2 ADD PUSH1 0x40 MSTORE DUP1 SWAP3 SWAP2 SWAP1 DUP2 DUP2 MSTORE PUSH1 0x20 ADD PUSH1 0x0 SWAP1 JUMPDEST DUP3 DUP3 LT ISZERO PUSH2 0xA46 JUMPI DUP4 DUP3 SWAP1 PUSH1 0x0 MSTORE PUSH1 0x20 PUSH1 0x0 KECCAK256 ADD DUP1 SLOAD PUSH2 0x9B9 SWAP1 PUSH2 0x3573 JUMP JUMPDEST DUP1 PUSH1 0x1F ADD PUSH1 0x20 DUP1 SWAP2 DIV MUL PUSH1 0x20 ADD PUSH1 0x40 MLOAD SWAP1 DUP2 ADD PUSH1 0x40 MSTORE DUP1 SWAP3 SWAP2 SWAP1 DUP2 DUP2 MSTORE PUSH1 0x20 ADD DUP3 DUP1 SLOAD PUSH2 0x9E5 SWAP1 PUSH2 0x3573 JUMP JUMPDEST DUP1 ISZERO PUSH2 0xA32 JUMPI DUP1 PUSH1 0x1F LT PUSH2 0xA07 JUMPI PUSH2 0x100 DUP1 DUP4 SLOAD DIV MUL DUP4 MSTORE SWAP2 PUSH1 0x20 ADD SWAP2 PUSH2 0xA32 JUMP JUMPDEST DUP3 ADD SWAP2 SWAP1 PUSH1 0x0 MSTORE PUSH1 0x20 PUSH1 0x0 KECCAK256 SWAP1 JUMPDEST DUP2 SLOAD DUP2 MSTORE SWAP1 PUSH1 0x1 ADD SWAP1 PUSH1 0x20 ADD DUP1 DUP4 GT PUSH2 0xA15 JUMPI DUP3 SWAP1 SUB PUSH1 0x1F AND DUP3 ADD SWAP2 JUMPDEST POP POP POP POP POP DUP2 MSTORE PUSH1 0x20 ADD SWAP1 PUSH1 0x1 ADD SWAP1 PUSH2 0x99A JUMP JUMPDEST POP POP POP POP DUP2 MSTORE PUSH1 0x20 ADD PUSH1 0x3 DUP3 ADD DUP1 SLOAD DUP1 PUSH1 0x20 MUL PUSH1 0x20 ADD PUSH1 0x40 MLOAD SWAP1 DUP2 ADD PUSH1 0x40 MSTORE DUP1 SWAP3 SWAP2 SWAP1 DUP2 DUP2 MSTORE PUSH1 0x20 ADD PUSH1 0x0 SWAP1 JUMPDEST DUP3 DUP3 LT ISZERO PUSH2 0xB1F JUMPI DUP4 DUP3 SWAP1 PUSH1 0x0 MSTORE PUSH1 0x20 PUSH1 0x0 KECCAK256 ADD DUP1 SLOAD PUSH2 0xA92 SWAP1 PUSH2 0x3573 JUMP JUMPDEST DUP1 PUSH1 0x1F ADD PUSH1 0x20 DUP1 SWAP2 DIV MUL PUSH1 0x20 ADD PUSH1 0x40 MLOAD SWAP1 DUP2 ADD PUSH1 0x40 MSTORE DUP1 SWAP3 SWAP2 SWAP1 DUP2 DUP2 MSTORE PUSH1 0x20 ADD DUP3 DUP1 SLOAD PUSH2 0xABE SWAP1 PUSH2 0x3573 JUMP JUMPDEST DUP1 ISZERO PUSH2 0xB0B JUMPI DUP1 PUSH1 0x1F LT PUSH2 0xAE0 JUMPI PUSH2 0x100 DUP1 DUP4 SLOAD DIV MUL DUP4 MSTORE SWAP2 PUSH1 0x20 ADD SWAP2 PUSH2 0xB0B JUMP JUMPDEST DUP3 ADD SWAP2 SWAP1 PUSH1 0x0 MSTORE PUSH1 0x20 PUSH1 0x0 KECCAK256 SWAP1 JUMPDEST DUP2 SLOAD DUP2 MSTORE SWAP1 PUSH1 0x1 ADD SWAP1 PUSH1 0x20 ADD DUP1 DUP4 GT PUSH2 0xAEE JUMPI DUP3 SWAP1 SUB PUSH1 0x1F AND DUP3 ADD SWAP2 JUMPDEST POP POP POP POP POP DUP2 MSTORE PUSH1 0x20 ADD SWAP1 PUSH1 0x1 ADD SWAP1 PUSH2 0xA73 JUMP JUMPDEST POP POP POP POP DUP2 MSTORE PUSH1 0x20 ADD PUSH1 0x4 DUP3 ADD DUP1 SLOAD PUSH2 0xB37 SWAP1 PUSH2 0x3573 JUMP JUMPDEST DUP1 PUSH1 0x1F ADD PUSH1 0x20 DUP1 SWAP2 DIV MUL PUSH1 0x20 ADD PUSH1 0x40 MLOAD SWAP1 DUP2 ADD PUSH1 0x40 MSTORE DUP1 SWAP3 SWAP2 SWAP1 DUP2 DUP2 MSTORE PUSH1 0x20 ADD DUP3 DUP1 SLOAD PUSH2 0xB63 SWAP1 PUSH2 0x3573 JUMP JUMPDEST DUP1 ISZERO PUSH2 0xBB0 JUMPI DUP1 PUSH1 0x1F LT PUSH2 0xB85 JUMPI PUSH2 0x100 DUP1 DUP4 SLOAD DIV MUL DUP4 MSTORE SWAP2 PUSH1 0x20 ADD SWAP2 PUSH2 0xBB0 JUMP JUMPDEST DUP3 ADD SWAP2 SWAP1 PUSH1 0x0 MSTORE PUSH1 0x20 PUSH1 0x0 KECCAK256 SWAP1 JUMPDEST DUP2 SLOAD DUP2 MSTORE SWAP1 PUSH1 0x1 ADD SWAP1 PUSH1 0x20 ADD DUP1 DUP4 GT PUSH2 0xB93 JUMPI DUP3 SWAP1 SUB PUSH1 0x1F AND DUP3 ADD SWAP2 JUMPDEST POP POP POP POP POP DUP2 MSTORE PUSH1 0x20 ADD PUSH1 0x5 DUP3 ADD SLOAD DUP2 MSTORE PUSH1 0x20 ADD PUSH1 0x6 DUP3 ADD DUP1 SLOAD DUP1 PUSH1 0x20 MUL PUSH1 0x20 ADD PUSH1 0x40 MLOAD SWAP1 DUP2 ADD PUSH1 0x40 MSTORE DUP1 SWAP3 SWAP2 SWAP1 DUP2 DUP2 MSTORE PUSH1 0x20 ADD PUSH1 0x0 SWAP1 JUMPDEST DUP3 DUP3 LT ISZERO PUSH2 0xD66 JUMPI DUP4 DUP3 SWAP1 PUSH1 0x0 MSTORE PUSH1 0x20 PUSH1 0x0 KECCAK256 SWAP1 PUSH1 0x2 MUL ADD PUSH1 0x40 MLOAD DUP1 PUSH1 0x60 ADD PUSH1 0x40 MSTORE SWAP1 DUP2 PUSH1 0x0 DUP3 ADD PUSH1 0x0 SWAP1 SLOAD SWAP1 PUSH2 0x100 EXP SWAP1 DIV PUSH20 0xFFFFFFFFFFFFFFFFFFFFFFFFFFFFFFFFFFFFFFFF AND PUSH20 0xFFFFFFFFFFFFFFFFFFFFFFFFFFFFFFFFFFFFFFFF AND PUSH20 0xFFFFFFFFFFFFFFFFFFFFFFFFFFFFFFFFFFFFFFFF AND DUP2 MSTORE PUSH1 0x20 ADD PUSH1 0x0 DUP3 ADD PUSH1 0x14 SWAP1 SLOAD SWAP1 PUSH2 0x100 EXP SWAP1 DIV PUSH1 0xFF AND PUSH1 0xFF AND PUSH1 0xFF AND DUP2 MSTORE PUSH1 0x20 ADD PUSH1 0x1 DUP3 ADD DUP1 SLOAD DUP1 PUSH1 0x20 MUL PUSH1 0x20 ADD PUSH1 0x40 MLOAD SWAP1 DUP2 ADD PUSH1 0x40 MSTORE DUP1 SWAP3 SWAP2 SWAP1 DUP2 DUP2 MSTORE PUSH1 0x20 ADD PUSH1 0x0 SWAP1 JUMPDEST DUP3 DUP3 LT ISZERO PUSH2 0xD4F JUMPI DUP4 DUP3 SWAP1 PUSH1 0x0 MSTORE PUSH1 0x20 PUSH1 0x0 KECCAK256 ADD DUP1 SLOAD PUSH2 0xCC2 SWAP1 PUSH2 0x3573 JUMP JUMPDEST DUP1 PUSH1 0x1F ADD PUSH1 0x20 DUP1 SWAP2 DIV MUL PUSH1 0x20 ADD PUSH1 0x40 MLOAD SWAP1 DUP2 ADD PUSH1 0x40 MSTORE DUP1 SWAP3 SWAP2 SWAP1 DUP2 DUP2 MSTORE PUSH1 0x20 ADD DUP3 DUP1 SLOAD PUSH2 0xCEE SWAP1 PUSH2 0x3573 JUMP JUMPDEST DUP1 ISZERO PUSH2 0xD3B JUMPI DUP1 PUSH1 0x1F LT PUSH2 0xD10 JUMPI PUSH2 0x100 DUP1 DUP4 SLOAD DIV MUL DUP4 MSTORE SWAP2 PUSH1 0x20 ADD SWAP2 PUSH2 0xD3B JUMP JUMPDEST DUP3 ADD SWAP2 SWAP1 PUSH1 0x0 MSTORE PUSH1 0x20 PUSH1 0x0 KECCAK256 SWAP1 JUMPDEST DUP2 SLOAD DUP2 MSTORE SWAP1 PUSH1 0x1 ADD SWAP1 PUSH1 0x20 ADD DUP1 DUP4 GT PUSH2 0xD1E JUMPI DUP3 SWAP1 SUB PUSH1 0x1F AND DUP3 ADD SWAP2 JUMPDEST POP POP POP POP POP DUP2 MSTORE PUSH1 0x20 ADD SWAP1 PUSH1 0x1 ADD SWAP1 PUSH2 0xCA3 JUMP JUMPDEST POP POP POP POP DUP2 MSTORE POP POP DUP2 MSTORE PUSH1 0x20 ADD SWAP1 PUSH1 0x1 ADD SWAP1 PUSH2 0xBE8 JUMP JUMPDEST POP POP POP POP DUP2 MSTORE PUSH1 0x20 ADD PUSH1 0x7 DUP3 ADD PUSH1 0x0 SWAP1 SLOAD SWAP1 PUSH2 0x100 EXP SWAP1 DIV PUSH1 0xFF AND ISZERO ISZERO ISZERO ISZERO DUP2 MSTORE PUSH1 0x20 ADD PUSH1 0x8 DUP3 ADD SLOAD DUP2 MSTORE PUSH1 0x20 ADD PUSH1 0x9 DUP3 ADD SLOAD DUP2 MSTORE POP POP SWAP1 POP DUP1 PUSH1 0x20 ADD MLOAD DUP2 PUSH1 0x40 ADD MLOAD DUP3 PUSH1 0x60 ADD MLOAD DUP4 PUSH1 0x80 ADD MLOAD DUP5 PUSH1 0xA0 ADD MLOAD DUP6 PUSH1 0xC0 ADD MLOAD DUP7 PUSH2 0x120 ADD MLOAD DUP8 PUSH1 0xE0 ADD MLOAD SWAP9 POP SWAP9 POP SWAP9 POP SWAP9 POP SWAP9 POP SWAP9 POP SWAP9 POP SWAP9 POP POP SWAP2 SWAP4 SWAP6 SWAP8 POP SWAP2 SWAP4 SWAP6 SWAP8 JUMP JUMPDEST PUSH1 0x2 SLOAD DUP2 JUMP JUMPDEST PUSH1 0x3 DUP1 SLOAD PUSH2 0xDF7 SWAP1 PUSH2 0x3573 JUMP JUMPDEST DUP1 PUSH1 0x1F ADD PUSH1 0x20 DUP1 SWAP2 DIV MUL PUSH1 0x20 ADD PUSH1 0x40 MLOAD SWAP1 DUP2 ADD PUSH1 0x40 MSTORE DUP1 SWAP3 SWAP2 SWAP1 DUP2 DUP2 MSTORE PUSH1 0x20 ADD DUP3 DUP1 SLOAD PUSH2 0xE23 SWAP1 PUSH2 0x3573 JUMP JUMPDEST DUP1 ISZERO PUSH2 0xE70 JUMPI DUP1 PUSH1 0x1F LT PUSH2 0xE45 JUMPI PUSH2 0x100 DUP1 DUP4 SLOAD DIV MUL DUP4 MSTORE SWAP2 PUSH1 0x20 ADD SWAP2 PUSH2 0xE70 JUMP JUMPDEST DUP3 ADD SWAP2 SWAP1 PUSH1 0x0 MSTORE PUSH1 0x20 PUSH1 0x0 KECCAK256 SWAP1 JUMPDEST DUP2 SLOAD DUP2 MSTORE SWAP1 PUSH1 0x1 ADD SWAP1 PUSH1 0x20 ADD DUP1 DUP4 GT PUSH2 0xE53 JUMPI DUP3 SWAP1 SUB PUSH1 0x1F AND DUP3 ADD SWAP2 JUMPDEST POP POP POP POP POP DUP2 JUMP JUMPDEST PUSH1 0x60 DUP1 PUSH1 0x60 PUSH1 0x4 DUP5 DUP2 SLOAD DUP2 LT PUSH2 0xE91 JUMPI PUSH2 0xE90 PUSH2 0x3313 JUMP JUMPDEST JUMPDEST SWAP1 PUSH1 0x0 MSTORE PUSH1 0x20 PUSH1 0x0 KECCAK256 SWAP1 PUSH1 0x3 MUL ADD PUSH1 0x0 ADD PUSH1 0x4 DUP6 DUP2 SLOAD DUP2 LT PUSH2 0xEB6 JUMPI PUSH2 0xEB5 PUSH2 0x3313 JUMP JUMPDEST JUMPDEST SWAP1 PUSH1 0x0 MSTORE PUSH1 0x20 PUSH1 0x0 KECCAK256 SWAP1 PUSH1 0x3 MUL ADD PUSH1 0x1 ADD PUSH1 0x4 DUP7 DUP2 SLOAD DUP2 LT PUSH2 0xEDB JUMPI PUSH2 0xEDA PUSH2 0x3313 JUMP JUMPDEST JUMPDEST SWAP1 PUSH1 0x0 MSTORE PUSH1 0x20 PUSH1 0x0 KECCAK256 SWAP1 PUSH1 0x3 MUL ADD PUSH1 0x2 ADD DUP3 DUP1 SLOAD DUP1 PUSH1 0x20 MUL PUSH1 0x20 ADD PUSH1 0x40 MLOAD SWAP1 DUP2 ADD PUSH1 0x40 MSTORE DUP1 SWAP3 SWAP2 SWAP1 DUP2 DUP2 MSTORE PUSH1 0x20 ADD PUSH1 0x0 SWAP1 JUMPDEST DUP3 DUP3 LT ISZERO PUSH2 0xFB9 JUMPI DUP4 DUP3 SWAP1 PUSH1 0x0 MSTORE PUSH1 0x20 PUSH1 0x0 KECCAK256 ADD DUP1 SLOAD PUSH2 0xF2C SWAP1 PUSH2 0x3573 JUMP JUMPDEST DUP1 PUSH1 0x1F ADD PUSH1 0x20 DUP1 SWAP2 DIV MUL PUSH1 0x20 ADD PUSH1 0x40 MLOAD SWAP1 DUP2 ADD PUSH1 0x40 MSTORE DUP1 SWAP3 SWAP2 SWAP1 DUP2 DUP2 MSTORE PUSH1 0x20 ADD DUP3 DUP1 SLOAD PUSH2 0xF58 SWAP1 PUSH2 0x3573 JUMP JUMPDEST DUP1 ISZERO PUSH2 0xFA5 JUMPI DUP1 PUSH1 0x1F LT PUSH2 0xF7A JUMPI PUSH2 0x100 DUP1 DUP4 SLOAD DIV MUL DUP4 MSTORE SWAP2 PUSH1 0x20 ADD SWAP2 PUSH2 0xFA5 JUMP JUMPDEST DUP3 ADD SWAP2 SWAP1 PUSH1 0x0 MSTORE PUSH1 0x20 PUSH1 0x0 KECCAK256 SWAP1 JUMPDEST DUP2 SLOAD DUP2 MSTORE SWAP1 PUSH1 0x1 ADD SWAP1 PUSH1 0x20 ADD DUP1 DUP4 GT PUSH2 0xF88 JUMPI DUP3 SWAP1 SUB PUSH1 0x1F AND DUP3 ADD SWAP2 JUMPDEST POP POP POP POP POP DUP2 MSTORE PUSH1 0x20 ADD SWAP1 PUSH1 0x1 ADD SWAP1 PUSH2 0xF0D JUMP JUMPDEST POP POP POP POP SWAP3 POP DUP2 DUP1 SLOAD DUP1 PUSH1 0x20 MUL PUSH1 0x20 ADD PUSH1 0x40 MLOAD SWAP1 DUP2 ADD PUSH1 0x40 MSTORE DUP1 SWAP3 SWAP2 SWAP1 DUP2 DUP2 MSTORE PUSH1 0x20 ADD DUP3 DUP1 SLOAD DUP1 ISZERO PUSH2 0x103F JUMPI PUSH1 0x20 MUL DUP3 ADD SWAP2 SWAP1 PUSH1 0x0 MSTORE PUSH1 0x20 PUSH1 0x0 KECCAK256 SWAP1 PUSH1 0x0 SWAP1 JUMPDEST DUP3 DUP3 SWAP1 SLOAD SWAP1 PUSH2 0x100 EXP SWAP1 DIV PUSH1 0xFF AND PUSH1 0x2 DUP2 GT ISZERO PUSH2 0x1019 JUMPI PUSH2 0x1018 PUSH2 0x2AC6 JUMP JUMPDEST JUMPDEST DUP2 MSTORE PUSH1 0x20 ADD SWAP1 PUSH1 0x1 ADD SWAP1 PUSH1 0x20 DUP3 PUSH1 0x0 ADD DIV SWAP3 DUP4 ADD SWAP3 PUSH1 0x1 SUB DUP3 MUL SWAP2 POP DUP1 DUP5 GT PUSH2 0xFF9 JUMPI SWAP1 POP JUMPDEST POP POP POP POP POP SWAP2 POP DUP1 DUP1 SLOAD DUP1 PUSH1 0x20 MUL PUSH1 0x20 ADD PUSH1 0x40 MLOAD SWAP1 DUP2 ADD PUSH1 0x40 MSTORE DUP1 SWAP3 SWAP2 SWAP1 DUP2 DUP2 MSTORE PUSH1 0x20 ADD PUSH1 0x0 SWAP1 JUMPDEST DUP3 DUP3 LT ISZERO PUSH2 0x115A JUMPI DUP4 DUP3 SWAP1 PUSH1 0x0 MSTORE PUSH1 0x20 PUSH1 0x0 KECCAK256 ADD DUP1 SLOAD DUP1 PUSH1 0x20 MUL PUSH1 0x20 ADD PUSH1 0x40 MLOAD SWAP1 DUP2 ADD PUSH1 0x40 MSTORE DUP1 SWAP3 SWAP2 SWAP1 DUP2 DUP2 MSTORE PUSH1 0x20 ADD PUSH1 0x0 SWAP1 JUMPDEST DUP3 DUP3 LT ISZERO PUSH2 0x1147 JUMPI DUP4 DUP3 SWAP1 PUSH1 0x0 MSTORE PUSH1 0x20 PUSH1 0x0 KECCAK256 ADD DUP1 SLOAD PUSH2 0x10BA SWAP1 PUSH2 0x3573 JUMP JUMPDEST DUP1 PUSH1 0x1F ADD PUSH1 0x20 DUP1 SWAP2 DIV MUL PUSH1 0x20 ADD PUSH1 0x40 MLOAD SWAP1 DUP2 ADD PUSH1 0x40 MSTORE DUP1 SWAP3 SWAP2 SWAP1 DUP2 DUP2 MSTORE PUSH1 0x20 ADD DUP3 DUP1 SLOAD PUSH2 0x10E6 SWAP1 PUSH2 0x3573 JUMP JUMPDEST DUP1 ISZERO PUSH2 0x1133 JUMPI DUP1 PUSH1 0x1F LT PUSH2 0x1108 JUMPI PUSH2 0x100 DUP1 DUP4 SLOAD DIV MUL DUP4 MSTORE SWAP2 PUSH1 0x20 ADD SWAP2 PUSH2 0x1133 JUMP JUMPDEST DUP3 ADD SWAP2 SWAP1 PUSH1 0x0 MSTORE PUSH1 0x20 PUSH1 0x0 KECCAK256 SWAP1 JUMPDEST DUP2 SLOAD DUP2 MSTORE SWAP1 PUSH1 0x1 ADD SWAP1 PUSH1 0x20 ADD DUP1 DUP4 GT PUSH2 0x1116 JUMPI DUP3 SWAP1 SUB PUSH1 0x1F AND DUP3 ADD SWAP2 JUMPDEST POP POP POP POP POP DUP2 MSTORE PUSH1 0x20 ADD SWAP1 PUSH1 0x1 ADD SWAP1 PUSH2 0x109B JUMP JUMPDEST POP POP POP POP DUP2 MSTORE PUSH1 0x20 ADD SWAP1 PUSH1 0x1 ADD SWAP1 PUSH2 0x1067 JUMP JUMPDEST POP POP POP POP SWAP1 POP SWAP3 POP SWAP3 POP SWAP3 POP SWAP2 SWAP4 SWAP1 SWAP3 POP JUMP JUMPDEST PUSH1 0x0 DUP2 PUSH1 0x40 MLOAD PUSH2 0x117D SWAP2 SWAP1 PUSH2 0x3224 JUMP JUMPDEST SWAP1 DUP2 MSTORE PUSH1 0x20 ADD PUSH1 0x40 MLOAD DUP1 SWAP2 SUB SWAP1 KECCAK256 PUSH1 0x0 ADD PUSH1 0x0 SWAP1 SLOAD SWAP1 PUSH2 0x100 EXP SWAP1 DIV PUSH20 0xFFFFFFFFFFFFFFFFFFFFFFFFFFFFFFFFFFFFFFFF AND PUSH20 0xFFFFFFFFFFFFFFFFFFFFFFFFFFFFFFFFFFFFFFFF AND CALLER PUSH20 0xFFFFFFFFFFFFFFFFFFFFFFFFFFFFFFFFFFFFFFFF AND EQ PUSH2 0x121C JUMPI PUSH1 0x40 MLOAD PUSH32 0x8C379A000000000000000000000000000000000000000000000000000000000 DUP2 MSTORE PUSH1 0x4 ADD PUSH2 0x1213 SWAP1 PUSH2 0x35F0 JUMP JUMPDEST PUSH1 0x40 MLOAD DUP1 SWAP2 SUB SWAP1 REVERT JUMPDEST PUSH1 0x0 ISZERO ISZERO PUSH1 0x0 DUP3 PUSH1 0x40 MLOAD PUSH2 0x1230 SWAP2 SWAP1 PUSH2 0x3224 JUMP JUMPDEST SWAP1 DUP2 MSTORE PUSH1 0x20 ADD PUSH1 0x40 MLOAD DUP1 SWAP2 SUB SWAP1 KECCAK256 PUSH1 0x7 ADD PUSH1 0x0 SWAP1 SLOAD SWAP1 PUSH2 0x100 EXP SWAP1 DIV PUSH1 0xFF AND ISZERO ISZERO EQ PUSH2 0x1291 JUMPI PUSH1 0x40 MLOAD PUSH32 0x8C379A000000000000000000000000000000000000000000000000000000000 DUP2 MSTORE PUSH1 0x4 ADD PUSH2 0x1288 SWAP1 PUSH2 0x3287 JUMP JUMPDEST PUSH1 0x40 MLOAD DUP1 SWAP2 SUB SWAP1 REVERT JUMPDEST PUSH1 0x0 DUP2 PUSH1 0x40 MLOAD PUSH2 0x12A1 SWAP2 SWAP1 PUSH2 0x3224 JUMP JUMPDEST SWAP1 DUP2 MSTORE PUSH1 0x20 ADD PUSH1 0x40 MLOAD DUP1 SWAP2 SUB SWAP1 KECCAK256 PUSH1 0x0 ADD PUSH1 0x0 SWAP1 SLOAD SWAP1 PUSH2 0x100 EXP SWAP1 DIV PUSH20 0xFFFFFFFFFFFFFFFFFFFFFFFFFFFFFFFFFFFFFFFF AND PUSH20 0xFFFFFFFFFFFFFFFFFFFFFFFFFFFFFFFFFFFFFFFF AND PUSH2 0x8FC PUSH1 0x0 DUP4 PUSH1 0x40 MLOAD PUSH2 0x12FC SWAP2 SWAP1 PUSH2 0x3224 JUMP JUMPDEST SWAP1 DUP2 MSTORE PUSH1 0x20 ADD PUSH1 0x40 MLOAD DUP1 SWAP2 SUB SWAP1 KECCAK256 PUSH1 0x8 ADD SLOAD SWAP1 DUP2 ISZERO MUL SWAP1 PUSH1 0x40 MLOAD PUSH1 0x0 PUSH1 0x40 MLOAD DUP1 DUP4 SUB DUP2 DUP6 DUP9 DUP9 CALL SWAP4 POP POP POP POP ISZERO DUP1 ISZERO PUSH2 0x1339 JUMPI RETURNDATASIZE PUSH1 0x0 DUP1 RETURNDATACOPY RETURNDATASIZE PUSH1 0x0 REVERT JUMPDEST POP PUSH1 0x1 PUSH1 0x0 DUP3 PUSH1 0x40 MLOAD PUSH2 0x134C SWAP2 SWAP1 PUSH2 0x3224 JUMP JUMPDEST SWAP1 DUP2 MSTORE PUSH1 0x20 ADD PUSH1 0x40 MLOAD DUP1 SWAP2 SUB SWAP1 KECCAK256 PUSH1 0x7 ADD PUSH1 0x0 PUSH2 0x100 EXP DUP2 SLOAD DUP2 PUSH1 0xFF MUL NOT AND SWAP1 DUP4 ISZERO ISZERO MUL OR SWAP1 SSTORE POP PUSH1 0x0 DUP1 DUP3 PUSH1 0x40 MLOAD PUSH2 0x1385 SWAP2 SWAP1 PUSH2 0x3224 JUMP JUMPDEST SWAP1 DUP2 MSTORE PUSH1 0x20 ADD PUSH1 0x40 MLOAD DUP1 SWAP2 SUB SWAP1 KECCAK256 PUSH1 0x8 ADD DUP2 SWAP1 SSTORE POP PUSH32 0xBC5C8CB2024ED254E024E37B09895ECAA07948DD0FD7A08E30B80F559888F2CF DUP2 PUSH1 0x40 MLOAD PUSH2 0x13C9 SWAP2 SWAP1 PUSH2 0x2A1F JUMP JUMPDEST PUSH1 0x40 MLOAD DUP1 SWAP2 SUB SWAP1 LOG1 POP JUMP JUMPDEST PUSH1 0x0 DUP7 MLOAD GT PUSH2 0x1418 JUMPI PUSH1 0x40 MLOAD PUSH32 0x8C379A000000000000000000000000000000000000000000000000000000000 DUP2 MSTORE PUSH1 0x4 ADD PUSH2 0x140F SWAP1 PUSH2 0x365C JUMP JUMPDEST PUSH1 0x40 MLOAD DUP1 SWAP2 SUB SWAP1 REVERT JUMPDEST PUSH1 0x0 DUP6 MLOAD GT PUSH2 0x145C JUMPI PUSH1 0x40 MLOAD PUSH32 0x8C379A000000000000000000000000000000000000000000000000000000000 DUP2 MSTORE PUSH1 0x4 ADD PUSH2 0x1453 SWAP1 PUSH2 0x36C8 JUMP JUMPDEST PUSH1 0x40 MLOAD DUP1 SWAP2 SUB SWAP1 REVERT JUMPDEST PUSH1 0x0 DUP5 MLOAD GT PUSH2 0x14A0 JUMPI PUSH1 0x40 MLOAD PUSH32 0x8C379A000000000000000000000000000000000000000000000000000000000 DUP2 MSTORE PUSH1 0x4 ADD PUSH2 0x1497 SWAP1 PUSH2 0x375A JUMP JUMPDEST PUSH1 0x40 MLOAD DUP1 SWAP2 SUB SWAP1 REVERT JUMPDEST DUP4 MLOAD DUP6 MLOAD EQ PUSH2 0x14E4 JUMPI PUSH1 0x40 MLOAD PUSH32 0x8C379A000000000000000000000000000000000000000000000000000000000 DUP2 MSTORE PUSH1 0x4 ADD PUSH2 0x14DB SWAP1 PUSH2 0x3812 JUMP JUMPDEST PUSH1 0x40 MLOAD DUP1 SWAP2 SUB SWAP1 REVERT JUMPDEST PUSH1 0x1 PUSH1 0x4 DUP1 SLOAD SWAP1 POP PUSH2 0x14F6 SWAP2 SWAP1 PUSH2 0x31B4 JUMP JUMPDEST DUP2 GT ISZERO PUSH2 0x1538 JUMPI PUSH1 0x40 MLOAD PUSH32 0x8C379A000000000000000000000000000000000000000000000000000000000 DUP2 MSTORE PUSH1 0x4 ADD PUSH2 0x152F SWAP1 PUSH2 0x387E JUMP JUMPDEST PUSH1 0x40 MLOAD DUP1 SWAP2 SUB SWAP1 REVERT JUMPDEST PUSH1 0x0 DUP3 GT PUSH2 0x157B JUMPI PUSH1 0x40 MLOAD PUSH32 0x8C379A000000000000000000000000000000000000000000000000000000000 DUP2 MSTORE PUSH1 0x4 ADD PUSH2 0x1572 SWAP1 PUSH2 0x3910 JUMP JUMPDEST PUSH1 0x40 MLOAD DUP1 SWAP2 SUB SWAP1 REVERT JUMPDEST PUSH1 0x0 PUSH20 0xFFFFFFFFFFFFFFFFFFFFFFFFFFFFFFFFFFFFFFFF AND PUSH1 0x0 DUP9 PUSH1 0x40 MLOAD PUSH2 0x15A3 SWAP2 SWAP1 PUSH2 0x3224 JUMP JUMPDEST SWAP1 DUP2 MSTORE PUSH1 0x20 ADD PUSH1 0x40 MLOAD DUP1 SWAP2 SUB SWAP1 KECCAK256 PUSH1 0x0 ADD PUSH1 0x0 SWAP1 SLOAD SWAP1 PUSH2 0x100 EXP SWAP1 DIV PUSH20 0xFFFFFFFFFFFFFFFFFFFFFFFFFFFFFFFFFFFFFFFF AND PUSH20 0xFFFFFFFFFFFFFFFFFFFFFFFFFFFFFFFFFFFFFFFF AND EQ PUSH2 0x162B JUMPI PUSH1 0x40 MLOAD PUSH32 0x8C379A000000000000000000000000000000000000000000000000000000000 DUP2 MSTORE PUSH1 0x4 ADD PUSH2 0x1622 SWAP1 PUSH2 0x397C JUMP JUMPDEST PUSH1 0x40 MLOAD DUP1 SWAP2 SUB SWAP1 REVERT JUMPDEST DUP2 DUP6 MLOAD DUP8 MLOAD PUSH2 0x163A SWAP2 SWAP1 PUSH2 0x399C JUMP JUMPDEST PUSH2 0x1644 SWAP2 SWAP1 PUSH2 0x399C JUMP JUMPDEST CALLVALUE LT ISZERO PUSH2 0x1686 JUMPI PUSH1 0x40 MLOAD PUSH32 0x8C379A000000000000000000000000000000000000000000000000000000000 DUP2 MSTORE PUSH1 0x4 ADD PUSH2 0x167D SWAP1 PUSH2 0x3A42 JUMP JUMPDEST PUSH1 0x40 MLOAD DUP1 SWAP2 SUB SWAP1 REVERT JUMPDEST CALLER PUSH1 0x0 DUP9 PUSH1 0x40 MLOAD PUSH2 0x1697 SWAP2 SWAP1 PUSH2 0x3224 JUMP JUMPDEST SWAP1 DUP2 MSTORE PUSH1 0x20 ADD PUSH1 0x40 MLOAD DUP1 SWAP2 SUB SWAP1 KECCAK256 PUSH1 0x0 ADD PUSH1 0x0 PUSH2 0x100 EXP DUP2 SLOAD DUP2 PUSH20 0xFFFFFFFFFFFFFFFFFFFFFFFFFFFFFFFFFFFFFFFF MUL NOT AND SWAP1 DUP4 PUSH20 0xFFFFFFFFFFFFFFFFFFFFFFFFFFFFFFFFFFFFFFFF AND MUL OR SWAP1 SSTORE POP DUP6 PUSH1 0x0 DUP9 PUSH1 0x40 MLOAD PUSH2 0x16F7 SWAP2 SWAP1 PUSH2 0x3224 JUMP JUMPDEST SWAP1 DUP2 MSTORE PUSH1 0x20 ADD PUSH1 0x40 MLOAD DUP1 SWAP2 SUB SWAP1 KECCAK256 PUSH1 0x1 ADD SWAP1 DUP1 MLOAD SWAP1 PUSH1 0x20 ADD SWAP1 PUSH2 0x171B SWAP3 SWAP2 SWAP1 PUSH2 0x1D71 JUMP JUMPDEST POP DUP5 PUSH1 0x0 DUP9 PUSH1 0x40 MLOAD PUSH2 0x172D SWAP2 SWAP1 PUSH2 0x3224 JUMP JUMPDEST SWAP1 DUP2 MSTORE PUSH1 0x20 ADD PUSH1 0x40 MLOAD DUP1 SWAP2 SUB SWAP1 KECCAK256 PUSH1 0x2 ADD SWAP1 DUP1 MLOAD SWAP1 PUSH1 0x20 ADD SWAP1 PUSH2 0x1751 SWAP3 SWAP2 SWAP1 PUSH2 0x1BFB JUMP JUMPDEST POP DUP4 PUSH1 0x0 DUP9 PUSH1 0x40 MLOAD PUSH2 0x1763 SWAP2 SWAP1 PUSH2 0x3224 JUMP JUMPDEST SWAP1 DUP2 MSTORE PUSH1 0x20 ADD PUSH1 0x40 MLOAD DUP1 SWAP2 SUB SWAP1 KECCAK256 PUSH1 0x3 ADD SWAP1 DUP1 MLOAD SWAP1 PUSH1 0x20 ADD SWAP1 PUSH2 0x1787 SWAP3 SWAP2 SWAP1 PUSH2 0x1BFB JUMP JUMPDEST POP DUP3 PUSH1 0x0 DUP9 PUSH1 0x40 MLOAD PUSH2 0x1799 SWAP2 SWAP1 PUSH2 0x3224 JUMP JUMPDEST SWAP1 DUP2 MSTORE PUSH1 0x20 ADD PUSH1 0x40 MLOAD DUP1 SWAP2 SUB SWAP1 KECCAK256 PUSH1 0x4 ADD SWAP1 DUP1 MLOAD SWAP1 PUSH1 0x20 ADD SWAP1 PUSH2 0x17BD SWAP3 SWAP2 SWAP1 PUSH2 0x1DFB JUMP JUMPDEST POP DUP2 PUSH1 0x0 DUP9 PUSH1 0x40 MLOAD PUSH2 0x17CF SWAP2 SWAP1 PUSH2 0x3224 JUMP JUMPDEST SWAP1 DUP2 MSTORE PUSH1 0x20 ADD PUSH1 0x40 MLOAD DUP1 SWAP2 SUB SWAP1 KECCAK256 PUSH1 0x5 ADD DUP2 SWAP1 SSTORE POP PUSH1 0x0 DUP1 DUP9 PUSH1 0x40 MLOAD PUSH2 0x17F5 SWAP2 SWAP1 PUSH2 0x3224 JUMP JUMPDEST SWAP1 DUP2 MSTORE PUSH1 0x20 ADD PUSH1 0x40 MLOAD DUP1 SWAP2 SUB SWAP1 KECCAK256 PUSH1 0x7 ADD PUSH1 0x0 PUSH2 0x100 EXP DUP2 SLOAD DUP2 PUSH1 0xFF MUL NOT AND SWAP1 DUP4 ISZERO ISZERO MUL OR SWAP1 SSTORE POP CALLVALUE PUSH1 0x0 DUP9 PUSH1 0x40 MLOAD PUSH2 0x182E SWAP2 SWAP1 PUSH2 0x3224 JUMP JUMPDEST SWAP1 DUP2 MSTORE PUSH1 0x20 ADD PUSH1 0x40 MLOAD DUP1 SWAP2 SUB SWAP1 KECCAK256 PUSH1 0x8 ADD DUP2 SWAP1 SSTORE POP DUP1 PUSH1 0x0 DUP9 PUSH1 0x40 MLOAD PUSH2 0x1854 SWAP2 SWAP1 PUSH2 0x3224 JUMP JUMPDEST SWAP1 DUP2 MSTORE PUSH1 0x20 ADD PUSH1 0x40 MLOAD DUP1 SWAP2 SUB SWAP1 KECCAK256 PUSH1 0x9 ADD DUP2 SWAP1 SSTORE POP PUSH1 0x1 DUP8 SWAP1 DUP1 PUSH1 0x1 DUP2 SLOAD ADD DUP1 DUP3 SSTORE DUP1 SWAP2 POP POP PUSH1 0x1 SWAP1 SUB SWAP1 PUSH1 0x0 MSTORE PUSH1 0x20 PUSH1 0x0 KECCAK256 ADD PUSH1 0x0 SWAP1 SWAP2 SWAP1 SWAP2 SWAP1 SWAP2 POP SWAP1 DUP1 MLOAD SWAP1 PUSH1 0x20 ADD SWAP1 PUSH2 0x18A4 SWAP3 SWAP2 SWAP1 PUSH2 0x1DFB JUMP JUMPDEST POP PUSH32 0x448FEABBF5BB385EB3EA2CB16D90B1CB3B4C8936E399CF7A10E7B8946EEC667 DUP8 PUSH1 0x40 MLOAD PUSH2 0x18D4 SWAP2 SWAP1 PUSH2 0x2A1F JUMP JUMPDEST PUSH1 0x40 MLOAD DUP1 SWAP2 SUB SWAP1 LOG1 POP POP POP POP POP POP POP JUMP JUMPDEST PUSH1 0x60 PUSH1 0x1 DUP1 SLOAD DUP1 PUSH1 0x20 MUL PUSH1 0x20 ADD PUSH1 0x40 MLOAD SWAP1 DUP2 ADD PUSH1 0x40 MSTORE DUP1 SWAP3 SWAP2 SWAP1 DUP2 DUP2 MSTORE PUSH1 0x20 ADD PUSH1 0x0 SWAP1 JUMPDEST DUP3 DUP3 LT ISZERO PUSH2 0x19B5 JUMPI DUP4 DUP3 SWAP1 PUSH1 0x0 MSTORE PUSH1 0x20 PUSH1 0x0 KECCAK256 ADD DUP1 SLOAD PUSH2 0x1928 SWAP1 PUSH2 0x3573 JUMP JUMPDEST DUP1 PUSH1 0x1F ADD PUSH1 0x20 DUP1 SWAP2 DIV MUL PUSH1 0x20 ADD PUSH1 0x40 MLOAD SWAP1 DUP2 ADD PUSH1 0x40 MSTORE DUP1 SWAP3 SWAP2 SWAP1 DUP2 DUP2 MSTORE PUSH1 0x20 ADD DUP3 DUP1 SLOAD PUSH2 0x1954 SWAP1 PUSH2 0x3573 JUMP JUMPDEST DUP1 ISZERO PUSH2 0x19A1 JUMPI DUP1 PUSH1 0x1F LT PUSH2 0x1976 JUMPI PUSH2 0x100 DUP1 DUP4 SLOAD DIV MUL DUP4 MSTORE SWAP2 PUSH1 0x20 ADD SWAP2 PUSH2 0x19A1 JUMP JUMPDEST DUP3 ADD SWAP2 SWAP1 PUSH1 0x0 MSTORE PUSH1 0x20 PUSH1 0x0 KECCAK256 SWAP1 JUMPDEST DUP2 SLOAD DUP2 MSTORE SWAP1 PUSH1 0x1 ADD SWAP1 PUSH1 0x20 ADD DUP1 DUP4 GT PUSH2 0x1984 JUMPI DUP3 SWAP1 SUB PUSH1 0x1F AND DUP3 ADD SWAP2 JUMPDEST POP POP POP POP POP DUP2 MSTORE PUSH1 0x20 ADD SWAP1 PUSH1 0x1 ADD SWAP1 PUSH2 0x1909 JUMP JUMPDEST POP POP POP POP SWAP1 POP SWAP1 JUMP JUMPDEST PUSH1 0x0 DUP1 PUSH1 0x0 SWAP1 POP PUSH1 0x0 JUMPDEST PUSH1 0x0 DUP5 PUSH1 0x40 MLOAD PUSH2 0x19D8 SWAP2 SWAP1 PUSH2 0x3224 JUMP JUMPDEST SWAP1 DUP2 MSTORE PUSH1 0x20 ADD PUSH1 0x40 MLOAD DUP1 SWAP2 SUB SWAP1 KECCAK256 PUSH1 0x1 ADD DUP1 SLOAD SWAP1 POP DUP2 LT ISZERO PUSH2 0x1A9C JUMPI DUP5 PUSH20 0xFFFFFFFFFFFFFFFFFFFFFFFFFFFFFFFFFFFFFFFF AND PUSH1 0x0 DUP6 PUSH1 0x40 MLOAD PUSH2 0x1A1B SWAP2 SWAP1 PUSH2 0x3224 JUMP JUMPDEST SWAP1 DUP2 MSTORE PUSH1 0x20 ADD PUSH1 0x40 MLOAD DUP1 SWAP2 SUB SWAP1 KECCAK256 PUSH1 0x1 ADD DUP3 DUP2 SLOAD DUP2 LT PUSH2 0x1A3E JUMPI PUSH2 0x1A3D PUSH2 0x3313 JUMP JUMPDEST JUMPDEST SWAP1 PUSH1 0x0 MSTORE PUSH1 0x20 PUSH1 0x0 KECCAK256 ADD PUSH1 0x0 SWAP1 SLOAD SWAP1 PUSH2 0x100 EXP SWAP1 DIV PUSH20 0xFFFFFFFFFFFFFFFFFFFFFFFFFFFFFFFFFFFFFFFF AND PUSH20 0xFFFFFFFFFFFFFFFFFFFFFFFFFFFFFFFFFFFFFFFF AND SUB PUSH2 0x1A89 JUMPI PUSH1 0x1 SWAP2 POP JUMPDEST DUP1 DUP1 PUSH2 0x1A94 SWAP1 PUSH2 0x3A62 JUMP JUMPDEST SWAP2 POP POP PUSH2 0x19C8 JUMP JUMPDEST POP DUP1 SWAP2 POP POP SWAP3 SWAP2 POP POP JUMP JUMPDEST PUSH1 0x0 DUP1 PUSH1 0x1 SWAP1 POP PUSH1 0x0 JUMPDEST PUSH1 0x0 DUP6 PUSH1 0x40 MLOAD PUSH2 0x1AC1 SWAP2 SWAP1 PUSH2 0x3224 JUMP JUMPDEST SWAP1 DUP2 MSTORE PUSH1 0x20 ADD PUSH1 0x40 MLOAD DUP1 SWAP2 SUB SWAP1 KECCAK256 PUSH1 0x6 ADD DUP1 SLOAD SWAP1 POP DUP2 LT ISZERO PUSH2 0x1BEF JUMPI DUP4 PUSH1 0xFF AND PUSH1 0x0 DUP7 PUSH1 0x40 MLOAD PUSH2 0x1AF1 SWAP2 SWAP1 PUSH2 0x3224 JUMP JUMPDEST SWAP1 DUP2 MSTORE PUSH1 0x20 ADD PUSH1 0x40 MLOAD DUP1 SWAP2 SUB SWAP1 KECCAK256 PUSH1 0x6 ADD DUP3 DUP2 SLOAD DUP2 LT PUSH2 0x1B14 JUMPI PUSH2 0x1B13 PUSH2 0x3313 JUMP JUMPDEST JUMPDEST SWAP1 PUSH1 0x0 MSTORE PUSH1 0x20 PUSH1 0x0 KECCAK256 SWAP1 PUSH1 0x2 MUL ADD PUSH1 0x0 ADD PUSH1 0x14 SWAP1 SLOAD SWAP1 PUSH2 0x100 EXP SWAP1 DIV PUSH1 0xFF AND PUSH1 0xFF AND EQ DUP1 ISZERO PUSH2 0x1BD2 JUMPI POP DUP6 PUSH20 0xFFFFFFFFFFFFFFFFFFFFFFFFFFFFFFFFFFFFFFFF AND PUSH1 0x0 DUP7 PUSH1 0x40 MLOAD PUSH2 0x1B65 SWAP2 SWAP1 PUSH2 0x3224 JUMP JUMPDEST SWAP1 DUP2 MSTORE PUSH1 0x20 ADD PUSH1 0x40 MLOAD DUP1 SWAP2 SUB SWAP1 KECCAK256 PUSH1 0x6 ADD DUP3 DUP2 SLOAD DUP2 LT PUSH2 0x1B88 JUMPI PUSH2 0x1B87 PUSH2 0x3313 JUMP JUMPDEST JUMPDEST SWAP1 PUSH1 0x0 MSTORE PUSH1 0x20 PUSH1 0x0 KECCAK256 SWAP1 PUSH1 0x2 MUL ADD PUSH1 0x0 ADD PUSH1 0x0 SWAP1 SLOAD SWAP1 PUSH2 0x100 EXP SWAP1 DIV PUSH20 0xFFFFFFFFFFFFFFFFFFFFFFFFFFFFFFFFFFFFFFFF AND PUSH20 0xFFFFFFFFFFFFFFFFFFFFFFFFFFFFFFFFFFFFFFFF AND EQ JUMPDEST ISZERO PUSH2 0x1BDC JUMPI PUSH1 0x0 SWAP2 POP JUMPDEST DUP1 DUP1 PUSH2 0x1BE7 SWAP1 PUSH2 0x3A62 JUMP JUMPDEST SWAP2 POP POP PUSH2 0x1AB1 JUMP JUMPDEST POP DUP1 SWAP2 POP POP SWAP4 SWAP3 POP POP POP JUMP JUMPDEST DUP3 DUP1 SLOAD DUP3 DUP3 SSTORE SWAP1 PUSH1 0x0 MSTORE PUSH1 0x20 PUSH1 0x0 KECCAK256 SWAP1 DUP2 ADD SWAP3 DUP3 ISZERO PUSH2 0x1C4A JUMPI SWAP2 PUSH1 0x20 MUL DUP3 ADD JUMPDEST DUP3 DUP2 GT ISZERO PUSH2 0x1C49 JUMPI DUP3 MLOAD DUP3 SWAP1 DUP1 MLOAD SWAP1 PUSH1 0x20 ADD SWAP1 PUSH2 0x1C39 SWAP3 SWAP2 SWAP1 PUSH2 0x1DFB JUMP JUMPDEST POP SWAP2 PUSH1 0x20 ADD SWAP2 SWAP1 PUSH1 0x1 ADD SWAP1 PUSH2 0x1C1B JUMP JUMPDEST JUMPDEST POP SWAP1 POP PUSH2 0x1C57 SWAP2 SWAP1 PUSH2 0x1E81 JUMP JUMPDEST POP SWAP1 JUMP JUMPDEST DUP3 DUP1 SLOAD DUP3 DUP3 SSTORE SWAP1 PUSH1 0x0 MSTORE PUSH1 0x20 PUSH1 0x0 KECCAK256 SWAP1 PUSH1 0x1F ADD PUSH1 0x20 SWAP1 DIV DUP2 ADD SWAP3 DUP3 ISZERO PUSH2 0x1D00 JUMPI SWAP2 PUSH1 0x20 MUL DUP3 ADD PUSH1 0x0 JUMPDEST DUP4 DUP3 GT ISZERO PUSH2 0x1CD1 JUMPI DUP4 MLOAD DUP4 DUP3 PUSH2 0x100 EXP DUP2 SLOAD DUP2 PUSH1 0xFF MUL NOT AND SWAP1 DUP4 PUSH1 0x2 DUP2 GT ISZERO PUSH2 0x1CB0 JUMPI PUSH2 0x1CAF PUSH2 0x2AC6 JUMP JUMPDEST JUMPDEST MUL OR SWAP1 SSTORE POP SWAP3 PUSH1 0x20 ADD SWAP3 PUSH1 0x1 ADD PUSH1 0x20 DUP2 PUSH1 0x0 ADD DIV SWAP3 DUP4 ADD SWAP3 PUSH1 0x1 SUB MUL PUSH2 0x1C84 JUMP JUMPDEST DUP1 ISZERO PUSH2 0x1CFE JUMPI DUP3 DUP2 PUSH2 0x100 EXP DUP2 SLOAD SWAP1 PUSH1 0xFF MUL NOT AND SWAP1 SSTORE PUSH1 0x1 ADD PUSH1 0x20 DUP2 PUSH1 0x0 ADD DIV SWAP3 DUP4 ADD SWAP3 PUSH1 0x1 SUB MUL PUSH2 0x1CD1 JUMP JUMPDEST POP JUMPDEST POP SWAP1 POP PUSH2 0x1D0D SWAP2 SWAP1 PUSH2 0x1EA5 JUMP JUMPDEST POP SWAP1 JUMP JUMPDEST DUP3 DUP1 SLOAD DUP3 DUP3 SSTORE SWAP1 PUSH1 0x0 MSTORE PUSH1 0x20 PUSH1 0x0 KECCAK256 SWAP1 DUP2 ADD SWAP3 DUP3 ISZERO PUSH2 0x1D60 JUMPI SWAP2 PUSH1 0x20 MUL DUP3 ADD JUMPDEST DUP3 DUP2 GT ISZERO PUSH2 0x1D5F JUMPI DUP3 MLOAD DUP3 SWAP1 DUP1 MLOAD SWAP1 PUSH1 0x20 ADD SWAP1 PUSH2 0x1D4F SWAP3 SWAP2 SWAP1 PUSH2 0x1BFB JUMP JUMPDEST POP SWAP2 PUSH1 0x20 ADD SWAP2 SWAP1 PUSH1 0x1 ADD SWAP1 PUSH2 0x1D31 JUMP JUMPDEST JUMPDEST POP SWAP1 POP PUSH2 0x1D6D SWAP2 SWAP1 PUSH2 0x1EC2 JUMP JUMPDEST POP SWAP1 JUMP JUMPDEST DUP3 DUP1 SLOAD DUP3 DUP3 SSTORE SWAP1 PUSH1 0x0 MSTORE PUSH1 0x20 PUSH1 0x0 KECCAK256 SWAP1 DUP2 ADD SWAP3 DUP3 ISZERO PUSH2 0x1DEA JUMPI SWAP2 PUSH1 0x20 MUL DUP3 ADD JUMPDEST DUP3 DUP2 GT ISZERO PUSH2 0x1DE9 JUMPI DUP3 MLOAD DUP3 PUSH1 0x0 PUSH2 0x100 EXP DUP2 SLOAD DUP2 PUSH20 0xFFFFFFFFFFFFFFFFFFFFFFFFFFFFFFFFFFFFFFFF MUL NOT AND SWAP1 DUP4 PUSH20 0xFFFFFFFFFFFFFFFFFFFFFFFFFFFFFFFFFFFFFFFF AND MUL OR SWAP1 SSTORE POP SWAP2 PUSH1 0x20 ADD SWAP2 SWAP1 PUSH1 0x1 ADD SWAP1 PUSH2 0x1D91 JUMP JUMPDEST JUMPDEST POP SWAP1 POP PUSH2 0x1DF7 SWAP2 SWAP1 PUSH2 0x1EA5 JUMP JUMPDEST POP SWAP1 JUMP JUMPDEST DUP3 DUP1 SLOAD PUSH2 0x1E07 SWAP1 PUSH2 0x3573 JUMP JUMPDEST SWAP1 PUSH1 0x0 MSTORE PUSH1 0x20 PUSH1 0x0 KECCAK256 SWAP1 PUSH1 0x1F ADD PUSH1 0x20 SWAP1 DIV DUP2 ADD SWAP3 DUP3 PUSH2 0x1E29 JUMPI PUSH1 0x0 DUP6 SSTORE PUSH2 0x1E70 JUMP JUMPDEST DUP3 PUSH1 0x1F LT PUSH2 0x1E42 JUMPI DUP1 MLOAD PUSH1 0xFF NOT AND DUP4 DUP1 ADD OR DUP6 SSTORE PUSH2 0x1E70 JUMP JUMPDEST DUP3 DUP1 ADD PUSH1 0x1 ADD DUP6 SSTORE DUP3 ISZERO PUSH2 0x1E70 JUMPI SWAP2 DUP3 ADD JUMPDEST DUP3 DUP2 GT ISZERO PUSH2 0x1E6F JUMPI DUP3 MLOAD DUP3 SSTORE SWAP2 PUSH1 0x20 ADD SWAP2 SWAP1 PUSH1 0x1 ADD SWAP1 PUSH2 0x1E54 JUMP JUMPDEST JUMPDEST POP SWAP1 POP PUSH2 0x1E7D SWAP2 SWAP1 PUSH2 0x1EA5 JUMP JUMPDEST POP SWAP1 JUMP JUMPDEST JUMPDEST DUP1 DUP3 GT ISZERO PUSH2 0x1EA1 JUMPI PUSH1 0x0 DUP2 DUP2 PUSH2 0x1E98 SWAP2 SWAP1 PUSH2 0x1EE6 JUMP JUMPDEST POP PUSH1 0x1 ADD PUSH2 0x1E82 JUMP JUMPDEST POP SWAP1 JUMP JUMPDEST JUMPDEST DUP1 DUP3 GT ISZERO PUSH2 0x1EBE JUMPI PUSH1 0x0 DUP2 PUSH1 0x0 SWAP1 SSTORE POP PUSH1 0x1 ADD PUSH2 0x1EA6 JUMP JUMPDEST POP SWAP1 JUMP JUMPDEST JUMPDEST DUP1 DUP3 GT ISZERO PUSH2 0x1EE2 JUMPI PUSH1 0x0 DUP2 DUP2 PUSH2 0x1ED9 SWAP2 SWAP1 PUSH2 0x1F26 JUMP JUMPDEST POP PUSH1 0x1 ADD PUSH2 0x1EC3 JUMP JUMPDEST POP SWAP1 JUMP JUMPDEST POP DUP1 SLOAD PUSH2 0x1EF2 SWAP1 PUSH2 0x3573 JUMP JUMPDEST PUSH1 0x0 DUP3 SSTORE DUP1 PUSH1 0x1F LT PUSH2 0x1F04 JUMPI POP PUSH2 0x1F23 JUMP JUMPDEST PUSH1 0x1F ADD PUSH1 0x20 SWAP1 DIV SWAP1 PUSH1 0x0 MSTORE PUSH1 0x20 PUSH1 0x0 KECCAK256 SWAP1 DUP2 ADD SWAP1 PUSH2 0x1F22 SWAP2 SWAP1 PUSH2 0x1EA5 JUMP JUMPDEST JUMPDEST POP JUMP JUMPDEST POP DUP1 SLOAD PUSH1 0x0 DUP3 SSTORE SWAP1 PUSH1 0x0 MSTORE PUSH1 0x20 PUSH1 0x0 KECCAK256 SWAP1 DUP2 ADD SWAP1 PUSH2 0x1F44 SWAP2 SWAP1 PUSH2 0x1E81 JUMP JUMPDEST POP JUMP JUMPDEST PUSH1 0x0 PUSH1 0x40 MLOAD SWAP1 POP SWAP1 JUMP JUMPDEST PUSH1 0x0 DUP1 REVERT JUMPDEST PUSH1 0x0 DUP1 REVERT JUMPDEST PUSH1 0x0 DUP1 REVERT JUMPDEST PUSH1 0x0 PUSH1 0x1F NOT PUSH1 0x1F DUP4 ADD AND SWAP1 POP SWAP2 SWAP1 POP JUMP JUMPDEST PUSH32 0x4E487B7100000000000000000000000000000000000000000000000000000000 PUSH1 0x0 MSTORE PUSH1 0x41 PUSH1 0x4 MSTORE PUSH1 0x24 PUSH1 0x0 REVERT JUMPDEST PUSH2 0x1FA9 DUP3 PUSH2 0x1F60 JUMP JUMPDEST DUP2 ADD DUP2 DUP2 LT PUSH8 0xFFFFFFFFFFFFFFFF DUP3 GT OR ISZERO PUSH2 0x1FC8 JUMPI PUSH2 0x1FC7 PUSH2 0x1F71 JUMP JUMPDEST JUMPDEST DUP1 PUSH1 0x40 MSTORE POP POP POP JUMP JUMPDEST PUSH1 0x0 PUSH2 0x1FDB PUSH2 0x1F47 JUMP JUMPDEST SWAP1 POP PUSH2 0x1FE7 DUP3 DUP3 PUSH2 0x1FA0 JUMP JUMPDEST SWAP2 SWAP1 POP JUMP JUMPDEST PUSH1 0x0 PUSH8 0xFFFFFFFFFFFFFFFF DUP3 GT ISZERO PUSH2 0x2007 JUMPI PUSH2 0x2006 PUSH2 0x1F71 JUMP JUMPDEST JUMPDEST PUSH1 0x20 DUP3 MUL SWAP1 POP PUSH1 0x20 DUP2 ADD SWAP1 POP SWAP2 SWAP1 POP JUMP JUMPDEST PUSH1 0x0 DUP1 REVERT JUMPDEST PUSH1 0x0 DUP1 REVERT JUMPDEST PUSH1 0x0 PUSH8 0xFFFFFFFFFFFFFFFF DUP3 GT ISZERO PUSH2 0x203D JUMPI PUSH2 0x203C PUSH2 0x1F71 JUMP JUMPDEST JUMPDEST PUSH2 0x2046 DUP3 PUSH2 0x1F60 JUMP JUMPDEST SWAP1 POP PUSH1 0x20 DUP2 ADD SWAP1 POP SWAP2 SWAP1 POP JUMP JUMPDEST DUP3 DUP2 DUP4 CALLDATACOPY PUSH1 0x0 DUP4 DUP4 ADD MSTORE POP POP POP JUMP JUMPDEST PUSH1 0x0 PUSH2 0x2075 PUSH2 0x2070 DUP5 PUSH2 0x2022 JUMP JUMPDEST PUSH2 0x1FD1 JUMP JUMPDEST SWAP1 POP DUP3 DUP2 MSTORE PUSH1 0x20 DUP2 ADD DUP5 DUP5 DUP5 ADD GT ISZERO PUSH2 0x2091 JUMPI PUSH2 0x2090 PUSH2 0x201D JUMP JUMPDEST JUMPDEST PUSH2 0x209C DUP5 DUP3 DUP6 PUSH2 0x2053 JUMP JUMPDEST POP SWAP4 SWAP3 POP POP POP JUMP JUMPDEST PUSH1 0x0 DUP3 PUSH1 0x1F DUP4 ADD SLT PUSH2 0x20B9 JUMPI PUSH2 0x20B8 PUSH2 0x1F5B JUMP JUMPDEST JUMPDEST DUP2 CALLDATALOAD PUSH2 0x20C9 DUP5 DUP3 PUSH1 0x20 DUP7 ADD PUSH2 0x2062 JUMP JUMPDEST SWAP2 POP POP SWAP3 SWAP2 POP POP JUMP JUMPDEST PUSH1 0x0 PUSH2 0x20E5 PUSH2 0x20E0 DUP5 PUSH2 0x1FEC JUMP JUMPDEST PUSH2 0x1FD1 JUMP JUMPDEST SWAP1 POP DUP1 DUP4 DUP3 MSTORE PUSH1 0x20 DUP3 ADD SWAP1 POP PUSH1 0x20 DUP5 MUL DUP4 ADD DUP6 DUP2 GT ISZERO PUSH2 0x2108 JUMPI PUSH2 0x2107 PUSH2 0x2018 JUMP JUMPDEST JUMPDEST DUP4 JUMPDEST DUP2 DUP2 LT ISZERO PUSH2 0x214F JUMPI DUP1 CALLDATALOAD PUSH8 0xFFFFFFFFFFFFFFFF DUP2 GT ISZERO PUSH2 0x212D JUMPI PUSH2 0x212C PUSH2 0x1F5B JUMP JUMPDEST JUMPDEST DUP1 DUP7 ADD PUSH2 0x213A DUP10 DUP3 PUSH2 0x20A4 JUMP JUMPDEST DUP6 MSTORE PUSH1 0x20 DUP6 ADD SWAP5 POP POP POP PUSH1 0x20 DUP2 ADD SWAP1 POP PUSH2 0x210A JUMP JUMPDEST POP POP POP SWAP4 SWAP3 POP POP POP JUMP JUMPDEST PUSH1 0x0 DUP3 PUSH1 0x1F DUP4 ADD SLT PUSH2 0x216E JUMPI PUSH2 0x216D PUSH2 0x1F5B JUMP JUMPDEST JUMPDEST DUP2 CALLDATALOAD PUSH2 0x217E DUP5 DUP3 PUSH1 0x20 DUP7 ADD PUSH2 0x20D2 JUMP JUMPDEST SWAP2 POP POP SWAP3 SWAP2 POP POP JUMP JUMPDEST PUSH1 0x0 PUSH8 0xFFFFFFFFFFFFFFFF DUP3 GT ISZERO PUSH2 0x21A2 JUMPI PUSH2 0x21A1 PUSH2 0x1F71 JUMP JUMPDEST JUMPDEST PUSH1 0x20 DUP3 MUL SWAP1 POP PUSH1 0x20 DUP2 ADD SWAP1 POP SWAP2 SWAP1 POP JUMP JUMPDEST PUSH1 0x0 PUSH2 0x21C6 PUSH2 0x21C1 DUP5 PUSH2 0x2187 JUMP JUMPDEST PUSH2 0x1FD1 JUMP JUMPDEST SWAP1 POP DUP1 DUP4 DUP3 MSTORE PUSH1 0x20 DUP3 ADD SWAP1 POP PUSH1 0x20 DUP5 MUL DUP4 ADD DUP6 DUP2 GT ISZERO PUSH2 0x21E9 JUMPI PUSH2 0x21E8 PUSH2 0x2018 JUMP JUMPDEST JUMPDEST DUP4 JUMPDEST DUP2 DUP2 LT ISZERO PUSH2 0x2230 JUMPI DUP1 CALLDATALOAD PUSH8 0xFFFFFFFFFFFFFFFF DUP2 GT ISZERO PUSH2 0x220E JUMPI PUSH2 0x220D PUSH2 0x1F5B JUMP JUMPDEST JUMPDEST DUP1 DUP7 ADD PUSH2 0x221B DUP10 DUP3 PUSH2 0x2159 JUMP JUMPDEST DUP6 MSTORE PUSH1 0x20 DUP6 ADD SWAP5 POP POP POP PUSH1 0x20 DUP2 ADD SWAP1 POP PUSH2 0x21EB JUMP JUMPDEST POP POP POP SWAP4 SWAP3 POP POP POP JUMP JUMPDEST PUSH1 0x0 DUP3 PUSH1 0x1F DUP4 ADD SLT PUSH2 0x224F JUMPI PUSH2 0x224E PUSH2 0x1F5B JUMP JUMPDEST JUMPDEST DUP2 CALLDATALOAD PUSH2 0x225F DUP5 DUP3 PUSH1 0x20 DUP7 ADD PUSH2 0x21B3 JUMP JUMPDEST SWAP2 POP POP SWAP3 SWAP2 POP POP JUMP JUMPDEST PUSH1 0x0 PUSH8 0xFFFFFFFFFFFFFFFF DUP3 GT ISZERO PUSH2 0x2283 JUMPI PUSH2 0x2282 PUSH2 0x1F71 JUMP JUMPDEST JUMPDEST PUSH1 0x20 DUP3 MUL SWAP1 POP PUSH1 0x20 DUP2 ADD SWAP1 POP SWAP2 SWAP1 POP JUMP JUMPDEST PUSH1 0x3 DUP2 LT PUSH2 0x22A1 JUMPI PUSH1 0x0 DUP1 REVERT JUMPDEST POP JUMP JUMPDEST PUSH1 0x0 DUP2 CALLDATALOAD SWAP1 POP PUSH2 0x22B3 DUP2 PUSH2 0x2294 JUMP JUMPDEST SWAP3 SWAP2 POP POP JUMP JUMPDEST PUSH1 0x0 PUSH2 0x22CC PUSH2 0x22C7 DUP5 PUSH2 0x2268 JUMP JUMPDEST PUSH2 0x1FD1 JUMP JUMPDEST SWAP1 POP DUP1 DUP4 DUP3 MSTORE PUSH1 0x20 DUP3 ADD SWAP1 POP PUSH1 0x20 DUP5 MUL DUP4 ADD DUP6 DUP2 GT ISZERO PUSH2 0x22EF JUMPI PUSH2 0x22EE PUSH2 0x2018 JUMP JUMPDEST JUMPDEST DUP4 JUMPDEST DUP2 DUP2 LT ISZERO PUSH2 0x2318 JUMPI DUP1 PUSH2 0x2304 DUP9 DUP3 PUSH2 0x22A4 JUMP JUMPDEST DUP5 MSTORE PUSH1 0x20 DUP5 ADD SWAP4 POP POP PUSH1 0x20 DUP2 ADD SWAP1 POP PUSH2 0x22F1 JUMP JUMPDEST POP POP POP SWAP4 SWAP3 POP POP POP JUMP JUMPDEST PUSH1 0x0 DUP3 PUSH1 0x1F DUP4 ADD SLT PUSH2 0x2337 JUMPI PUSH2 0x2336 PUSH2 0x1F5B JUMP JUMPDEST JUMPDEST DUP2 CALLDATALOAD PUSH2 0x2347 DUP5 DUP3 PUSH1 0x20 DUP7 ADD PUSH2 0x22B9 JUMP JUMPDEST SWAP2 POP POP SWAP3 SWAP2 POP POP JUMP JUMPDEST PUSH1 0x0 DUP1 PUSH1 0x0 PUSH1 0x60 DUP5 DUP7 SUB SLT ISZERO PUSH2 0x2369 JUMPI PUSH2 0x2368 PUSH2 0x1F51 JUMP JUMPDEST JUMPDEST PUSH1 0x0 DUP5 ADD CALLDATALOAD PUSH8 0xFFFFFFFFFFFFFFFF DUP2 GT ISZERO PUSH2 0x2387 JUMPI PUSH2 0x2386 PUSH2 0x1F56 JUMP JUMPDEST JUMPDEST PUSH2 0x2393 DUP7 DUP3 DUP8 ADD PUSH2 0x2159 JUMP JUMPDEST SWAP4 POP POP PUSH1 0x20 DUP5 ADD CALLDATALOAD PUSH8 0xFFFFFFFFFFFFFFFF DUP2 GT ISZERO PUSH2 0x23B4 JUMPI PUSH2 0x23B3 PUSH2 0x1F56 JUMP JUMPDEST JUMPDEST PUSH2 0x23C0 DUP7 DUP3 DUP8 ADD PUSH2 0x223A JUMP JUMPDEST SWAP3 POP POP PUSH1 0x40 DUP5 ADD CALLDATALOAD PUSH8 0xFFFFFFFFFFFFFFFF DUP2 GT ISZERO PUSH2 0x23E1 JUMPI PUSH2 0x23E0 PUSH2 0x1F56 JUMP JUMPDEST JUMPDEST PUSH2 0x23ED DUP7 DUP3 DUP8 ADD PUSH2 0x2322 JUMP JUMPDEST SWAP2 POP POP SWAP3 POP SWAP3 POP SWAP3 JUMP JUMPDEST PUSH1 0x0 DUP2 SWAP1 POP SWAP2 SWAP1 POP JUMP JUMPDEST PUSH2 0x240A DUP2 PUSH2 0x23F7 JUMP JUMPDEST DUP3 MSTORE POP POP JUMP JUMPDEST PUSH1 0x0 PUSH1 0x20 DUP3 ADD SWAP1 POP PUSH2 0x2425 PUSH1 0x0 DUP4 ADD DUP5 PUSH2 0x2401 JUMP JUMPDEST SWAP3 SWAP2 POP POP JUMP JUMPDEST PUSH1 0x0 PUSH1 0xFF DUP3 AND SWAP1 POP SWAP2 SWAP1 POP JUMP JUMPDEST PUSH2 0x2441 DUP2 PUSH2 0x242B JUMP JUMPDEST DUP2 EQ PUSH2 0x244C JUMPI PUSH1 0x0 DUP1 REVERT JUMPDEST POP JUMP JUMPDEST PUSH1 0x0 DUP2 CALLDATALOAD SWAP1 POP PUSH2 0x245E DUP2 PUSH2 0x2438 JUMP JUMPDEST SWAP3 SWAP2 POP POP JUMP JUMPDEST PUSH1 0x0 DUP1 PUSH1 0x0 PUSH1 0x60 DUP5 DUP7 SUB SLT ISZERO PUSH2 0x247D JUMPI PUSH2 0x247C PUSH2 0x1F51 JUMP JUMPDEST JUMPDEST PUSH1 0x0 DUP5 ADD CALLDATALOAD PUSH8 0xFFFFFFFFFFFFFFFF DUP2 GT ISZERO PUSH2 0x249B JUMPI PUSH2 0x249A PUSH2 0x1F56 JUMP JUMPDEST JUMPDEST PUSH2 0x24A7 DUP7 DUP3 DUP8 ADD PUSH2 0x20A4 JUMP JUMPDEST SWAP4 POP POP PUSH1 0x20 PUSH2 0x24B8 DUP7 DUP3 DUP8 ADD PUSH2 0x244F JUMP JUMPDEST SWAP3 POP POP PUSH1 0x40 DUP5 ADD CALLDATALOAD PUSH8 0xFFFFFFFFFFFFFFFF DUP2 GT ISZERO PUSH2 0x24D9 JUMPI PUSH2 0x24D8 PUSH2 0x1F56 JUMP JUMPDEST JUMPDEST PUSH2 0x24E5 DUP7 DUP3 DUP8 ADD PUSH2 0x2159 JUMP JUMPDEST SWAP2 POP POP SWAP3 POP SWAP3 POP SWAP3 JUMP JUMPDEST PUSH1 0x0 PUSH1 0x20 DUP3 DUP5 SUB SLT ISZERO PUSH2 0x2505 JUMPI PUSH2 0x2504 PUSH2 0x1F51 JUMP JUMPDEST JUMPDEST PUSH1 0x0 DUP3 ADD CALLDATALOAD PUSH8 0xFFFFFFFFFFFFFFFF DUP2 GT ISZERO PUSH2 0x2523 JUMPI PUSH2 0x2522 PUSH2 0x1F56 JUMP JUMPDEST JUMPDEST PUSH2 0x252F DUP5 DUP3 DUP6 ADD PUSH2 0x20A4 JUMP JUMPDEST SWAP2 POP POP SWAP3 SWAP2 POP POP JUMP JUMPDEST PUSH1 0x0 DUP2 MLOAD SWAP1 POP SWAP2 SWAP1 POP JUMP JUMPDEST PUSH1 0x0 DUP3 DUP3 MSTORE PUSH1 0x20 DUP3 ADD SWAP1 POP SWAP3 SWAP2 POP POP JUMP JUMPDEST PUSH1 0x0 DUP2 SWAP1 POP PUSH1 0x20 DUP3 ADD SWAP1 POP SWAP2 SWAP1 POP JUMP JUMPDEST PUSH1 0x0 PUSH20 0xFFFFFFFFFFFFFFFFFFFFFFFFFFFFFFFFFFFFFFFF DUP3 AND SWAP1 POP SWAP2 SWAP1 POP JUMP JUMPDEST PUSH1 0x0 PUSH2 0x258F DUP3 PUSH2 0x2564 JUMP JUMPDEST SWAP1 POP SWAP2 SWAP1 POP JUMP JUMPDEST PUSH2 0x259F DUP2 PUSH2 0x2584 JUMP JUMPDEST DUP3 MSTORE POP POP JUMP JUMPDEST PUSH1 0x0 PUSH2 0x25B1 DUP4 DUP4 PUSH2 0x2596 JUMP JUMPDEST PUSH1 0x20 DUP4 ADD SWAP1 POP SWAP3 SWAP2 POP POP JUMP JUMPDEST PUSH1 0x0 PUSH1 0x20 DUP3 ADD SWAP1 POP SWAP2 SWAP1 POP JUMP JUMPDEST PUSH1 0x0 PUSH2 0x25D5 DUP3 PUSH2 0x2538 JUMP JUMPDEST PUSH2 0x25DF DUP2 DUP6 PUSH2 0x2543 JUMP JUMPDEST SWAP4 POP PUSH2 0x25EA DUP4 PUSH2 0x2554 JUMP JUMPDEST DUP1 PUSH1 0x0 JUMPDEST DUP4 DUP2 LT ISZERO PUSH2 0x261B JUMPI DUP2 MLOAD PUSH2 0x2602 DUP9 DUP3 PUSH2 0x25A5 JUMP JUMPDEST SWAP8 POP PUSH2 0x260D DUP4 PUSH2 0x25BD JUMP JUMPDEST SWAP3 POP POP PUSH1 0x1 DUP2 ADD SWAP1 POP PUSH2 0x25EE JUMP JUMPDEST POP DUP6 SWAP4 POP POP POP POP SWAP3 SWAP2 POP POP JUMP JUMPDEST PUSH1 0x0 DUP2 MLOAD SWAP1 POP SWAP2 SWAP1 POP JUMP JUMPDEST PUSH1 0x0 DUP3 DUP3 MSTORE PUSH1 0x20 DUP3 ADD SWAP1 POP SWAP3 SWAP2 POP POP JUMP JUMPDEST PUSH1 0x0 DUP2 SWAP1 POP PUSH1 0x20 DUP3 ADD SWAP1 POP SWAP2 SWAP1 POP JUMP JUMPDEST PUSH1 0x0 DUP2 MLOAD SWAP1 POP SWAP2 SWAP1 POP JUMP JUMPDEST PUSH1 0x0 DUP3 DUP3 MSTORE PUSH1 0x20 DUP3 ADD SWAP1 POP SWAP3 SWAP2 POP POP JUMP JUMPDEST PUSH1 0x0 JUMPDEST DUP4 DUP2 LT ISZERO PUSH2 0x268E JUMPI DUP1 DUP3 ADD MLOAD DUP2 DUP5 ADD MSTORE PUSH1 0x20 DUP2 ADD SWAP1 POP PUSH2 0x2673 JUMP JUMPDEST DUP4 DUP2 GT ISZERO PUSH2 0x269D JUMPI PUSH1 0x0 DUP5 DUP5 ADD MSTORE JUMPDEST POP POP POP POP JUMP JUMPDEST PUSH1 0x0 PUSH2 0x26AE DUP3 PUSH2 0x2654 JUMP JUMPDEST PUSH2 0x26B8 DUP2 DUP6 PUSH2 0x265F JUMP JUMPDEST SWAP4 POP PUSH2 0x26C8 DUP2 DUP6 PUSH1 0x20 DUP7 ADD PUSH2 0x2670 JUMP JUMPDEST PUSH2 0x26D1 DUP2 PUSH2 0x1F60 JUMP JUMPDEST DUP5 ADD SWAP2 POP POP SWAP3 SWAP2 POP POP JUMP JUMPDEST PUSH1 0x0 PUSH2 0x26E8 DUP4 DUP4 PUSH2 0x26A3 JUMP JUMPDEST SWAP1 POP SWAP3 SWAP2 POP POP JUMP JUMPDEST PUSH1 0x0 PUSH1 0x20 DUP3 ADD SWAP1 POP SWAP2 SWAP1 POP JUMP JUMPDEST PUSH1 0x0 PUSH2 0x2708 DUP3 PUSH2 0x2628 JUMP JUMPDEST PUSH2 0x2712 DUP2 DUP6 PUSH2 0x2633 JUMP JUMPDEST SWAP4 POP DUP4 PUSH1 0x20 DUP3 MUL DUP6 ADD PUSH2 0x2724 DUP6 PUSH2 0x2644 JUMP JUMPDEST DUP1 PUSH1 0x0 JUMPDEST DUP6 DUP2 LT ISZERO PUSH2 0x2760 JUMPI DUP5 DUP5 SUB DUP10 MSTORE DUP2 MLOAD PUSH2 0x2741 DUP6 DUP3 PUSH2 0x26DC JUMP JUMPDEST SWAP5 POP PUSH2 0x274C DUP4 PUSH2 0x26F0 JUMP JUMPDEST SWAP3 POP PUSH1 0x20 DUP11 ADD SWAP10 POP POP PUSH1 0x1 DUP2 ADD SWAP1 POP PUSH2 0x2728 JUMP JUMPDEST POP DUP3 SWAP8 POP DUP8 SWAP6 POP POP POP POP POP POP SWAP3 SWAP2 POP POP JUMP JUMPDEST PUSH1 0x0 DUP3 DUP3 MSTORE PUSH1 0x20 DUP3 ADD SWAP1 POP SWAP3 SWAP2 POP POP JUMP JUMPDEST PUSH1 0x0 PUSH2 0x278E DUP3 PUSH2 0x2654 JUMP JUMPDEST PUSH2 0x2798 DUP2 DUP6 PUSH2 0x2772 JUMP JUMPDEST SWAP4 POP PUSH2 0x27A8 DUP2 DUP6 PUSH1 0x20 DUP7 ADD PUSH2 0x2670 JUMP JUMPDEST PUSH2 0x27B1 DUP2 PUSH2 0x1F60 JUMP JUMPDEST DUP5 ADD SWAP2 POP POP SWAP3 SWAP2 POP POP JUMP JUMPDEST PUSH1 0x0 DUP2 MLOAD SWAP1 POP SWAP2 SWAP1 POP JUMP JUMPDEST PUSH1 0x0 DUP3 DUP3 MSTORE PUSH1 0x20 DUP3 ADD SWAP1 POP SWAP3 SWAP2 POP POP JUMP JUMPDEST PUSH1 0x0 DUP2 SWAP1 POP PUSH1 0x20 DUP3 ADD SWAP1 POP SWAP2 SWAP1 POP JUMP JUMPDEST PUSH2 0x27F1 DUP2 PUSH2 0x242B JUMP JUMPDEST DUP3 MSTORE POP POP JUMP JUMPDEST PUSH1 0x0 DUP3 DUP3 MSTORE PUSH1 0x20 DUP3 ADD SWAP1 POP SWAP3 SWAP2 POP POP JUMP JUMPDEST PUSH1 0x0 PUSH2 0x2813 DUP3 PUSH2 0x2628 JUMP JUMPDEST PUSH2 0x281D DUP2 DUP6 PUSH2 0x27F7 JUMP JUMPDEST SWAP4 POP DUP4 PUSH1 0x20 DUP3 MUL DUP6 ADD PUSH2 0x282F DUP6 PUSH2 0x2644 JUMP JUMPDEST DUP1 PUSH1 0x0 JUMPDEST DUP6 DUP2 LT ISZERO PUSH2 0x286B JUMPI DUP5 DUP5 SUB DUP10 MSTORE DUP2 MLOAD PUSH2 0x284C DUP6 DUP3 PUSH2 0x26DC JUMP JUMPDEST SWAP5 POP PUSH2 0x2857 DUP4 PUSH2 0x26F0 JUMP JUMPDEST SWAP3 POP PUSH1 0x20 DUP11 ADD SWAP10 POP POP PUSH1 0x1 DUP2 ADD SWAP1 POP PUSH2 0x2833 JUMP JUMPDEST POP DUP3 SWAP8 POP DUP8 SWAP6 POP POP POP POP POP POP SWAP3 SWAP2 POP POP JUMP JUMPDEST PUSH1 0x0 PUSH1 0x60 DUP4 ADD PUSH1 0x0 DUP4 ADD MLOAD PUSH2 0x2895 PUSH1 0x0 DUP7 ADD DUP3 PUSH2 0x2596 JUMP JUMPDEST POP PUSH1 0x20 DUP4 ADD MLOAD PUSH2 0x28A8 PUSH1 0x20 DUP7 ADD DUP3 PUSH2 0x27E8 JUMP JUMPDEST POP PUSH1 0x40 DUP4 ADD MLOAD DUP5 DUP3 SUB PUSH1 0x40 DUP7 ADD MSTORE PUSH2 0x28C0 DUP3 DUP3 PUSH2 0x2808 JUMP JUMPDEST SWAP2 POP POP DUP1 SWAP2 POP POP SWAP3 SWAP2 POP POP JUMP JUMPDEST PUSH1 0x0 PUSH2 0x28D9 DUP4 DUP4 PUSH2 0x287D JUMP JUMPDEST SWAP1 POP SWAP3 SWAP2 POP POP JUMP JUMPDEST PUSH1 0x0 PUSH1 0x20 DUP3 ADD SWAP1 POP SWAP2 SWAP1 POP JUMP JUMPDEST PUSH1 0x0 PUSH2 0x28F9 DUP3 PUSH2 0x27BC JUMP JUMPDEST PUSH2 0x2903 DUP2 DUP6 PUSH2 0x27C7 JUMP JUMPDEST SWAP4 POP DUP4 PUSH1 0x20 DUP3 MUL DUP6 ADD PUSH2 0x2915 DUP6 PUSH2 0x27D8 JUMP JUMPDEST DUP1 PUSH1 0x0 JUMPDEST DUP6 DUP2 LT ISZERO PUSH2 0x2951 JUMPI DUP5 DUP5 SUB DUP10 MSTORE DUP2 MLOAD PUSH2 0x2932 DUP6 DUP3 PUSH2 0x28CD JUMP JUMPDEST SWAP5 POP PUSH2 0x293D DUP4 PUSH2 0x28E1 JUMP JUMPDEST SWAP3 POP PUSH1 0x20 DUP11 ADD SWAP10 POP POP PUSH1 0x1 DUP2 ADD SWAP1 POP PUSH2 0x2919 JUMP JUMPDEST POP DUP3 SWAP8 POP DUP8 SWAP6 POP POP POP POP POP POP SWAP3 SWAP2 POP POP JUMP JUMPDEST PUSH1 0x0 DUP2 ISZERO ISZERO SWAP1 POP SWAP2 SWAP1 POP JUMP JUMPDEST PUSH2 0x2978 DUP2 PUSH2 0x2963 JUMP JUMPDEST DUP3 MSTORE POP POP JUMP JUMPDEST PUSH1 0x0 PUSH2 0x100 DUP3 ADD SWAP1 POP DUP2 DUP2 SUB PUSH1 0x0 DUP4 ADD MSTORE PUSH2 0x2999 DUP2 DUP12 PUSH2 0x25CA JUMP JUMPDEST SWAP1 POP DUP2 DUP2 SUB PUSH1 0x20 DUP4 ADD MSTORE PUSH2 0x29AD DUP2 DUP11 PUSH2 0x26FD JUMP JUMPDEST SWAP1 POP DUP2 DUP2 SUB PUSH1 0x40 DUP4 ADD MSTORE PUSH2 0x29C1 DUP2 DUP10 PUSH2 0x26FD JUMP JUMPDEST SWAP1 POP DUP2 DUP2 SUB PUSH1 0x60 DUP4 ADD MSTORE PUSH2 0x29D5 DUP2 DUP9 PUSH2 0x2783 JUMP JUMPDEST SWAP1 POP PUSH2 0x29E4 PUSH1 0x80 DUP4 ADD DUP8 PUSH2 0x2401 JUMP JUMPDEST DUP2 DUP2 SUB PUSH1 0xA0 DUP4 ADD MSTORE PUSH2 0x29F6 DUP2 DUP7 PUSH2 0x28EE JUMP JUMPDEST SWAP1 POP PUSH2 0x2A05 PUSH1 0xC0 DUP4 ADD DUP6 PUSH2 0x2401 JUMP JUMPDEST PUSH2 0x2A12 PUSH1 0xE0 DUP4 ADD DUP5 PUSH2 0x296F JUMP JUMPDEST SWAP10 SWAP9 POP POP POP POP POP POP POP POP POP JUMP JUMPDEST PUSH1 0x0 PUSH1 0x20 DUP3 ADD SWAP1 POP DUP2 DUP2 SUB PUSH1 0x0 DUP4 ADD MSTORE PUSH2 0x2A39 DUP2 DUP5 PUSH2 0x2783 JUMP JUMPDEST SWAP1 POP SWAP3 SWAP2 POP POP JUMP JUMPDEST PUSH2 0x2A4A DUP2 PUSH2 0x23F7 JUMP JUMPDEST DUP2 EQ PUSH2 0x2A55 JUMPI PUSH1 0x0 DUP1 REVERT JUMPDEST POP JUMP JUMPDEST PUSH1 0x0 DUP2 CALLDATALOAD SWAP1 POP PUSH2 0x2A67 DUP2 PUSH2 0x2A41 JUMP JUMPDEST SWAP3 SWAP2 POP POP JUMP JUMPDEST PUSH1 0x0 PUSH1 0x20 DUP3 DUP5 SUB SLT ISZERO PUSH2 0x2A83 JUMPI PUSH2 0x2A82 PUSH2 0x1F51 JUMP JUMPDEST JUMPDEST PUSH1 0x0 PUSH2 0x2A91 DUP5 DUP3 DUP6 ADD PUSH2 0x2A58 JUMP JUMPDEST SWAP2 POP POP SWAP3 SWAP2 POP POP JUMP JUMPDEST PUSH1 0x0 DUP2 MLOAD SWAP1 POP SWAP2 SWAP1 POP JUMP JUMPDEST PUSH1 0x0 DUP3 DUP3 MSTORE PUSH1 0x20 DUP3 ADD SWAP1 POP SWAP3 SWAP2 POP POP JUMP JUMPDEST PUSH1 0x0 DUP2 SWAP1 POP PUSH1 0x20 DUP3 ADD SWAP1 POP SWAP2 SWAP1 POP JUMP JUMPDEST PUSH32 0x4E487B7100000000000000000000000000000000000000000000000000000000 PUSH1 0x0 MSTORE PUSH1 0x21 PUSH1 0x4 MSTORE PUSH1 0x24 PUSH1 0x0 REVERT JUMPDEST PUSH1 0x3 DUP2 LT PUSH2 0x2B06 JUMPI PUSH2 0x2B05 PUSH2 0x2AC6 JUMP JUMPDEST JUMPDEST POP JUMP JUMPDEST PUSH1 0x0 DUP2 SWAP1 POP PUSH2 0x2B17 DUP3 PUSH2 0x2AF5 JUMP JUMPDEST SWAP2 SWAP1 POP JUMP JUMPDEST PUSH1 0x0 PUSH2 0x2B27 DUP3 PUSH2 0x2B09 JUMP JUMPDEST SWAP1 POP SWAP2 SWAP1 POP JUMP JUMPDEST PUSH2 0x2B37 DUP2 PUSH2 0x2B1C JUMP JUMPDEST DUP3 MSTORE POP POP JUMP JUMPDEST PUSH1 0x0 PUSH2 0x2B49 DUP4 DUP4 PUSH2 0x2B2E JUMP JUMPDEST PUSH1 0x20 DUP4 ADD SWAP1 POP SWAP3 SWAP2 POP POP JUMP JUMPDEST PUSH1 0x0 PUSH1 0x20 DUP3 ADD SWAP1 POP SWAP2 SWAP1 POP JUMP JUMPDEST PUSH1 0x0 PUSH2 0x2B6D DUP3 PUSH2 0x2A9A JUMP JUMPDEST PUSH2 0x2B77 DUP2 DUP6 PUSH2 0x2AA5 JUMP JUMPDEST SWAP4 POP PUSH2 0x2B82 DUP4 PUSH2 0x2AB6 JUMP JUMPDEST DUP1 PUSH1 0x0 JUMPDEST DUP4 DUP2 LT ISZERO PUSH2 0x2BB3 JUMPI DUP2 MLOAD PUSH2 0x2B9A DUP9 DUP3 PUSH2 0x2B3D JUMP JUMPDEST SWAP8 POP PUSH2 0x2BA5 DUP4 PUSH2 0x2B55 JUMP JUMPDEST SWAP3 POP POP PUSH1 0x1 DUP2 ADD SWAP1 POP PUSH2 0x2B86 JUMP JUMPDEST POP DUP6 SWAP4 POP POP POP POP SWAP3 SWAP2 POP POP JUMP JUMPDEST PUSH1 0x0 DUP2 MLOAD SWAP1 POP SWAP2 SWAP1 POP JUMP JUMPDEST PUSH1 0x0 DUP3 DUP3 MSTORE PUSH1 0x20 DUP3 ADD SWAP1 POP SWAP3 SWAP2 POP POP JUMP JUMPDEST PUSH1 0x0 DUP2 SWAP1 POP PUSH1 0x20 DUP3 ADD SWAP1 POP SWAP2 SWAP1 POP JUMP JUMPDEST PUSH1 0x0 PUSH2 0x2BF8 DUP4 DUP4 PUSH2 0x2808 JUMP JUMPDEST SWAP1 POP SWAP3 SWAP2 POP POP JUMP JUMPDEST PUSH1 0x0 PUSH1 0x20 DUP3 ADD SWAP1 POP SWAP2 SWAP1 POP JUMP JUMPDEST PUSH1 0x0 PUSH2 0x2C18 DUP3 PUSH2 0x2BC0 JUMP JUMPDEST PUSH2 0x2C22 DUP2 DUP6 PUSH2 0x2BCB JUMP JUMPDEST SWAP4 POP DUP4 PUSH1 0x20 DUP3 MUL DUP6 ADD PUSH2 0x2C34 DUP6 PUSH2 0x2BDC JUMP JUMPDEST DUP1 PUSH1 0x0 JUMPDEST DUP6 DUP2 LT ISZERO PUSH2 0x2C70 JUMPI DUP5 DUP5 SUB DUP10 MSTORE DUP2 MLOAD PUSH2 0x2C51 DUP6 DUP3 PUSH2 0x2BEC JUMP JUMPDEST SWAP5 POP PUSH2 0x2C5C DUP4 PUSH2 0x2C00 JUMP JUMPDEST SWAP3 POP PUSH1 0x20 DUP11 ADD SWAP10 POP POP PUSH1 0x1 DUP2 ADD SWAP1 POP PUSH2 0x2C38 JUMP JUMPDEST POP DUP3 SWAP8 POP DUP8 SWAP6 POP POP POP POP POP POP SWAP3 SWAP2 POP POP JUMP JUMPDEST PUSH1 0x0 PUSH1 0x60 DUP3 ADD SWAP1 POP DUP2 DUP2 SUB PUSH1 0x0 DUP4 ADD MSTORE PUSH2 0x2C9C DUP2 DUP7 PUSH2 0x26FD JUMP JUMPDEST SWAP1 POP DUP2 DUP2 SUB PUSH1 0x20 DUP4 ADD MSTORE PUSH2 0x2CB0 DUP2 DUP6 PUSH2 0x2B62 JUMP JUMPDEST SWAP1 POP DUP2 DUP2 SUB PUSH1 0x40 DUP4 ADD MSTORE PUSH2 0x2CC4 DUP2 DUP5 PUSH2 0x2C0D JUMP JUMPDEST SWAP1 POP SWAP5 SWAP4 POP POP POP POP JUMP JUMPDEST PUSH1 0x0 PUSH8 0xFFFFFFFFFFFFFFFF DUP3 GT ISZERO PUSH2 0x2CE9 JUMPI PUSH2 0x2CE8 PUSH2 0x1F71 JUMP JUMPDEST JUMPDEST PUSH1 0x20 DUP3 MUL SWAP1 POP PUSH1 0x20 DUP2 ADD SWAP1 POP SWAP2 SWAP1 POP JUMP JUMPDEST PUSH2 0x2D03 DUP2 PUSH2 0x2584 JUMP JUMPDEST DUP2 EQ PUSH2 0x2D0E JUMPI PUSH1 0x0 DUP1 REVERT JUMPDEST POP JUMP JUMPDEST PUSH1 0x0 DUP2 CALLDATALOAD SWAP1 POP PUSH2 0x2D20 DUP2 PUSH2 0x2CFA JUMP JUMPDEST SWAP3 SWAP2 POP POP JUMP JUMPDEST PUSH1 0x0 PUSH2 0x2D39 PUSH2 0x2D34 DUP5 PUSH2 0x2CCE JUMP JUMPDEST PUSH2 0x1FD1 JUMP JUMPDEST SWAP1 POP DUP1 DUP4 DUP3 MSTORE PUSH1 0x20 DUP3 ADD SWAP1 POP PUSH1 0x20 DUP5 MUL DUP4 ADD DUP6 DUP2 GT ISZERO PUSH2 0x2D5C JUMPI PUSH2 0x2D5B PUSH2 0x2018 JUMP JUMPDEST JUMPDEST DUP4 JUMPDEST DUP2 DUP2 LT ISZERO PUSH2 0x2D85 JUMPI DUP1 PUSH2 0x2D71 DUP9 DUP3 PUSH2 0x2D11 JUMP JUMPDEST DUP5 MSTORE PUSH1 0x20 DUP5 ADD SWAP4 POP POP PUSH1 0x20 DUP2 ADD SWAP1 POP PUSH2 0x2D5E JUMP JUMPDEST POP POP POP SWAP4 SWAP3 POP POP POP JUMP JUMPDEST PUSH1 0x0 DUP3 PUSH1 0x1F DUP4 ADD SLT PUSH2 0x2DA4 JUMPI PUSH2 0x2DA3 PUSH2 0x1F5B JUMP JUMPDEST JUMPDEST DUP2 CALLDATALOAD PUSH2 0x2DB4 DUP5 DUP3 PUSH1 0x20 DUP7 ADD PUSH2 0x2D26 JUMP JUMPDEST SWAP2 POP POP SWAP3 SWAP2 POP POP JUMP JUMPDEST PUSH1 0x0 DUP1 PUSH1 0x0 DUP1 PUSH1 0x0 DUP1 PUSH1 0x0 PUSH1 0xE0 DUP9 DUP11 SUB SLT ISZERO PUSH2 0x2DDC JUMPI PUSH2 0x2DDB PUSH2 0x1F51 JUMP JUMPDEST JUMPDEST PUSH1 0x0 DUP9 ADD CALLDATALOAD PUSH8 0xFFFFFFFFFFFFFFFF DUP2 GT ISZERO PUSH2 0x2DFA JUMPI PUSH2 0x2DF9 PUSH2 0x1F56 JUMP JUMPDEST JUMPDEST PUSH2 0x2E06 DUP11 DUP3 DUP12 ADD PUSH2 0x20A4 JUMP JUMPDEST SWAP8 POP POP PUSH1 0x20 DUP9 ADD CALLDATALOAD PUSH8 0xFFFFFFFFFFFFFFFF DUP2 GT ISZERO PUSH2 0x2E27 JUMPI PUSH2 0x2E26 PUSH2 0x1F56 JUMP JUMPDEST JUMPDEST PUSH2 0x2E33 DUP11 DUP3 DUP12 ADD PUSH2 0x2D8F JUMP JUMPDEST SWAP7 POP POP PUSH1 0x40 DUP9 ADD CALLDATALOAD PUSH8 0xFFFFFFFFFFFFFFFF DUP2 GT ISZERO PUSH2 0x2E54 JUMPI PUSH2 0x2E53 PUSH2 0x1F56 JUMP JUMPDEST JUMPDEST PUSH2 0x2E60 DUP11 DUP3 DUP12 ADD PUSH2 0x2159 JUMP JUMPDEST SWAP6 POP POP PUSH1 0x60 DUP9 ADD CALLDATALOAD PUSH8 0xFFFFFFFFFFFFFFFF DUP2 GT ISZERO PUSH2 0x2E81 JUMPI PUSH2 0x2E80 PUSH2 0x1F56 JUMP JUMPDEST JUMPDEST PUSH2 0x2E8D DUP11 DUP3 DUP12 ADD PUSH2 0x2159 JUMP JUMPDEST SWAP5 POP POP PUSH1 0x80 DUP9 ADD CALLDATALOAD PUSH8 0xFFFFFFFFFFFFFFFF DUP2 GT ISZERO PUSH2 0x2EAE JUMPI PUSH2 0x2EAD PUSH2 0x1F56 JUMP JUMPDEST JUMPDEST PUSH2 0x2EBA DUP11 DUP3 DUP12 ADD PUSH2 0x20A4 JUMP JUMPDEST SWAP4 POP POP PUSH1 0xA0 PUSH2 0x2ECB DUP11 DUP3 DUP12 ADD PUSH2 0x2A58 JUMP JUMPDEST SWAP3 POP POP PUSH1 0xC0 PUSH2 0x2EDC DUP11 DUP3 DUP12 ADD PUSH2 0x2A58 JUMP JUMPDEST SWAP2 POP POP SWAP3 SWAP6 SWAP9 SWAP2 SWAP5 SWAP8 POP SWAP3 SWAP6 POP JUMP JUMPDEST PUSH1 0x0 PUSH1 0x20 DUP3 ADD SWAP1 POP DUP2 DUP2 SUB PUSH1 0x0 DUP4 ADD MSTORE PUSH2 0x2F05 DUP2 DUP5 PUSH2 0x26FD JUMP JUMPDEST SWAP1 POP SWAP3 SWAP2 POP POP JUMP JUMPDEST PUSH32 0x4465726573793A205175657374696F6E732063616E2774206265206E756C6C00 PUSH1 0x0 DUP3 ADD MSTORE POP JUMP JUMPDEST PUSH1 0x0 PUSH2 0x2F43 PUSH1 0x1F DUP4 PUSH2 0x2772 JUMP JUMPDEST SWAP2 POP PUSH2 0x2F4E DUP3 PUSH2 0x2F0D JUMP JUMPDEST PUSH1 0x20 DUP3 ADD SWAP1 POP SWAP2 SWAP1 POP JUMP JUMPDEST PUSH1 0x0 PUSH1 0x20 DUP3 ADD SWAP1 POP DUP2 DUP2 SUB PUSH1 0x0 DUP4 ADD MSTORE PUSH2 0x2F72 DUP2 PUSH2 0x2F36 JUMP JUMPDEST SWAP1 POP SWAP2 SWAP1 POP JUMP JUMPDEST PUSH32 0x4465726573793A205175657374696F6E2054797065732063616E277420626520 PUSH1 0x0 DUP3 ADD MSTORE PUSH32 0x6E756C6C00000000000000000000000000000000000000000000000000000000 PUSH1 0x20 DUP3 ADD MSTORE POP JUMP JUMPDEST PUSH1 0x0 PUSH2 0x2FD5 PUSH1 0x24 DUP4 PUSH2 0x2772 JUMP JUMPDEST SWAP2 POP PUSH2 0x2FE0 DUP3 PUSH2 0x2F79 JUMP JUMPDEST PUSH1 0x40 DUP3 ADD SWAP1 POP SWAP2 SWAP1 POP JUMP JUMPDEST PUSH1 0x0 PUSH1 0x20 DUP3 ADD SWAP1 POP DUP2 DUP2 SUB PUSH1 0x0 DUP4 ADD MSTORE PUSH2 0x3004 DUP2 PUSH2 0x2FC8 JUMP JUMPDEST SWAP1 POP SWAP2 SWAP1 POP JUMP JUMPDEST PUSH32 0x4465726573793A205175657374696F6E7320616E64207479706573206D757374 PUSH1 0x0 DUP3 ADD MSTORE PUSH32 0x2068617665207468652073616D65206C656E6774680000000000000000000000 PUSH1 0x20 DUP3 ADD MSTORE POP JUMP JUMPDEST PUSH1 0x0 PUSH2 0x3067 PUSH1 0x35 DUP4 PUSH2 0x2772 JUMP JUMPDEST SWAP2 POP PUSH2 0x3072 DUP3 PUSH2 0x300B JUMP JUMPDEST PUSH1 0x40 DUP3 ADD SWAP1 POP SWAP2 SWAP1 POP JUMP JUMPDEST PUSH1 0x0 PUSH1 0x20 DUP3 ADD SWAP1 POP DUP2 DUP2 SUB PUSH1 0x0 DUP4 ADD MSTORE PUSH2 0x3096 DUP2 PUSH2 0x305A JUMP JUMPDEST SWAP1 POP SWAP2 SWAP1 POP JUMP JUMPDEST PUSH32 0x4465726573793A205175657374696F6E7320616E642063686F69636573206D75 PUSH1 0x0 DUP3 ADD MSTORE PUSH32 0x73742068617665207468652073616D65206C656E677468000000000000000000 PUSH1 0x20 DUP3 ADD MSTORE POP JUMP JUMPDEST PUSH1 0x0 PUSH2 0x30F9 PUSH1 0x37 DUP4 PUSH2 0x2772 JUMP JUMPDEST SWAP2 POP PUSH2 0x3104 DUP3 PUSH2 0x309D JUMP JUMPDEST PUSH1 0x40 DUP3 ADD SWAP1 POP SWAP2 SWAP1 POP JUMP JUMPDEST PUSH1 0x0 PUSH1 0x20 DUP3 ADD SWAP1 POP DUP2 DUP2 SUB PUSH1 0x0 DUP4 ADD MSTORE PUSH2 0x3128 DUP2 PUSH2 0x30EC JUMP JUMPDEST SWAP1 POP SWAP2 SWAP1 POP JUMP JUMPDEST PUSH32 0x4E487B7100000000000000000000000000000000000000000000000000000000 PUSH1 0x0 MSTORE PUSH1 0x11 PUSH1 0x4 MSTORE PUSH1 0x24 PUSH1 0x0 REVERT JUMPDEST PUSH1 0x0 PUSH2 0x3169 DUP3 PUSH2 0x23F7 JUMP JUMPDEST SWAP2 POP PUSH2 0x3174 DUP4 PUSH2 0x23F7 JUMP JUMPDEST SWAP3 POP DUP3 PUSH32 0xFFFFFFFFFFFFFFFFFFFFFFFFFFFFFFFFFFFFFFFFFFFFFFFFFFFFFFFFFFFFFFFF SUB DUP3 GT ISZERO PUSH2 0x31A9 JUMPI PUSH2 0x31A8 PUSH2 0x312F JUMP JUMPDEST JUMPDEST DUP3 DUP3 ADD SWAP1 POP SWAP3 SWAP2 POP POP JUMP JUMPDEST PUSH1 0x0 PUSH2 0x31BF DUP3 PUSH2 0x23F7 JUMP JUMPDEST SWAP2 POP PUSH2 0x31CA DUP4 PUSH2 0x23F7 JUMP JUMPDEST SWAP3 POP DUP3 DUP3 LT ISZERO PUSH2 0x31DD JUMPI PUSH2 0x31DC PUSH2 0x312F JUMP JUMPDEST JUMPDEST DUP3 DUP3 SUB SWAP1 POP SWAP3 SWAP2 POP POP JUMP JUMPDEST PUSH1 0x0 DUP2 SWAP1 POP SWAP3 SWAP2 POP POP JUMP JUMPDEST PUSH1 0x0 PUSH2 0x31FE DUP3 PUSH2 0x2654 JUMP JUMPDEST PUSH2 0x3208 DUP2 DUP6 PUSH2 0x31E8 JUMP JUMPDEST SWAP4 POP PUSH2 0x3218 DUP2 DUP6 PUSH1 0x20 DUP7 ADD PUSH2 0x2670 JUMP JUMPDEST DUP1 DUP5 ADD SWAP2 POP POP SWAP3 SWAP2 POP POP JUMP JUMPDEST PUSH1 0x0 PUSH2 0x3230 DUP3 DUP5 PUSH2 0x31F3 JUMP JUMPDEST SWAP2 POP DUP2 SWAP1 POP SWAP3 SWAP2 POP POP JUMP JUMPDEST PUSH32 0x4465726573793A207265717565737420636C6F73656400000000000000000000 PUSH1 0x0 DUP3 ADD MSTORE POP JUMP JUMPDEST PUSH1 0x0 PUSH2 0x3271 PUSH1 0x16 DUP4 PUSH2 0x2772 JUMP JUMPDEST SWAP2 POP PUSH2 0x327C DUP3 PUSH2 0x323B JUMP JUMPDEST PUSH1 0x20 DUP3 ADD SWAP1 POP SWAP2 SWAP1 POP JUMP JUMPDEST PUSH1 0x0 PUSH1 0x20 DUP3 ADD SWAP1 POP DUP2 DUP2 SUB PUSH1 0x0 DUP4 ADD MSTORE PUSH2 0x32A0 DUP2 PUSH2 0x3264 JUMP JUMPDEST SWAP1 POP SWAP2 SWAP1 POP JUMP JUMPDEST PUSH32 0x4465726573793A20746172676574496E64657820696E76616C69640000000000 PUSH1 0x0 DUP3 ADD MSTORE POP JUMP JUMPDEST PUSH1 0x0 PUSH2 0x32DD PUSH1 0x1B DUP4 PUSH2 0x2772 JUMP JUMPDEST SWAP2 POP PUSH2 0x32E8 DUP3 PUSH2 0x32A7 JUMP JUMPDEST PUSH1 0x20 DUP3 ADD SWAP1 POP SWAP2 SWAP1 POP JUMP JUMPDEST PUSH1 0x0 PUSH1 0x20 DUP3 ADD SWAP1 POP DUP2 DUP2 SUB PUSH1 0x0 DUP4 ADD MSTORE PUSH2 0x330C DUP2 PUSH2 0x32D0 JUMP JUMPDEST SWAP1 POP SWAP2 SWAP1 POP JUMP JUMPDEST PUSH32 0x4E487B7100000000000000000000000000000000000000000000000000000000 PUSH1 0x0 MSTORE PUSH1 0x32 PUSH1 0x4 MSTORE PUSH1 0x24 PUSH1 0x0 REVERT JUMPDEST PUSH32 0x4465726573793A204E6F74207468652073616D65206E756D626572206F662071 PUSH1 0x0 DUP3 ADD MSTORE PUSH32 0x75657374696F6E7320616E6420616E7377657273000000000000000000000000 PUSH1 0x20 DUP3 ADD MSTORE POP JUMP JUMPDEST PUSH1 0x0 PUSH2 0x339E PUSH1 0x34 DUP4 PUSH2 0x2772 JUMP JUMPDEST SWAP2 POP PUSH2 0x33A9 DUP3 PUSH2 0x3342 JUMP JUMPDEST PUSH1 0x40 DUP3 ADD SWAP1 POP SWAP2 SWAP1 POP JUMP JUMPDEST PUSH1 0x0 PUSH1 0x20 DUP3 ADD SWAP1 POP DUP2 DUP2 SUB PUSH1 0x0 DUP4 ADD MSTORE PUSH2 0x33CD DUP2 PUSH2 0x3391 JUMP JUMPDEST SWAP1 POP SWAP2 SWAP1 POP JUMP JUMPDEST PUSH32 0x546869732061646472657373206973206E6F7420696E20746865207265766965 PUSH1 0x0 DUP3 ADD MSTORE PUSH32 0x77657273206C69737420666F7220746865207370656369666965642072657175 PUSH1 0x20 DUP3 ADD MSTORE PUSH32 0x6573742E00000000000000000000000000000000000000000000000000000000 PUSH1 0x40 DUP3 ADD MSTORE POP JUMP JUMPDEST PUSH1 0x0 PUSH2 0x3456 PUSH1 0x44 DUP4 PUSH2 0x2772 JUMP JUMPDEST SWAP2 POP PUSH2 0x3461 DUP3 PUSH2 0x33D4 JUMP JUMPDEST PUSH1 0x60 DUP3 ADD SWAP1 POP SWAP2 SWAP1 POP JUMP JUMPDEST PUSH1 0x0 PUSH1 0x20 DUP3 ADD SWAP1 POP DUP2 DUP2 SUB PUSH1 0x0 DUP4 ADD MSTORE PUSH2 0x3485 DUP2 PUSH2 0x3449 JUMP JUMPDEST SWAP1 POP SWAP2 SWAP1 POP JUMP JUMPDEST PUSH32 0x5468697320616464726573732068617320616C7265616479207375626D697474 PUSH1 0x0 DUP3 ADD MSTORE PUSH32 0x656420612072657669657720666F72207468652074617267746520696E646578 PUSH1 0x20 DUP3 ADD MSTORE PUSH32 0x20696E2074686520737065636966696564207265717565737400000000000000 PUSH1 0x40 DUP3 ADD MSTORE POP JUMP JUMPDEST PUSH1 0x0 PUSH2 0x350E PUSH1 0x59 DUP4 PUSH2 0x2772 JUMP JUMPDEST SWAP2 POP PUSH2 0x3519 DUP3 PUSH2 0x348C JUMP JUMPDEST PUSH1 0x60 DUP3 ADD SWAP1 POP SWAP2 SWAP1 POP JUMP JUMPDEST PUSH1 0x0 PUSH1 0x20 DUP3 ADD SWAP1 POP DUP2 DUP2 SUB PUSH1 0x0 DUP4 ADD MSTORE PUSH2 0x353D DUP2 PUSH2 0x3501 JUMP JUMPDEST SWAP1 POP SWAP2 SWAP1 POP JUMP JUMPDEST PUSH32 0x4E487B7100000000000000000000000000000000000000000000000000000000 PUSH1 0x0 MSTORE PUSH1 0x22 PUSH1 0x4 MSTORE PUSH1 0x24 PUSH1 0x0 REVERT JUMPDEST PUSH1 0x0 PUSH1 0x2 DUP3 DIV SWAP1 POP PUSH1 0x1 DUP3 AND DUP1 PUSH2 0x358B JUMPI PUSH1 0x7F DUP3 AND SWAP2 POP JUMPDEST PUSH1 0x20 DUP3 LT DUP2 SUB PUSH2 0x359E JUMPI PUSH2 0x359D PUSH2 0x3544 JUMP JUMPDEST JUMPDEST POP SWAP2 SWAP1 POP JUMP JUMPDEST PUSH32 0x4465726573793A204974206973206E6F74207468652073706F6E736F72000000 PUSH1 0x0 DUP3 ADD MSTORE POP JUMP JUMPDEST PUSH1 0x0 PUSH2 0x35DA PUSH1 0x1D DUP4 PUSH2 0x2772 JUMP JUMPDEST SWAP2 POP PUSH2 0x35E5 DUP3 PUSH2 0x35A4 JUMP JUMPDEST PUSH1 0x20 DUP3 ADD SWAP1 POP SWAP2 SWAP1 POP JUMP JUMPDEST PUSH1 0x0 PUSH1 0x20 DUP3 ADD SWAP1 POP DUP2 DUP2 SUB PUSH1 0x0 DUP4 ADD MSTORE PUSH2 0x3609 DUP2 PUSH2 0x35CD JUMP JUMPDEST SWAP1 POP SWAP2 SWAP1 POP JUMP JUMPDEST PUSH32 0x4465726573793A205265766965776572732063616E6E6F74206265206E756C6C PUSH1 0x0 DUP3 ADD MSTORE POP JUMP JUMPDEST PUSH1 0x0 PUSH2 0x3646 PUSH1 0x20 DUP4 PUSH2 0x2772 JUMP JUMPDEST SWAP2 POP PUSH2 0x3651 DUP3 PUSH2 0x3610 JUMP JUMPDEST PUSH1 0x20 DUP3 ADD SWAP1 POP SWAP2 SWAP1 POP JUMP JUMPDEST PUSH1 0x0 PUSH1 0x20 DUP3 ADD SWAP1 POP DUP2 DUP2 SUB PUSH1 0x0 DUP4 ADD MSTORE PUSH2 0x3675 DUP2 PUSH2 0x3639 JUMP JUMPDEST SWAP1 POP SWAP2 SWAP1 POP JUMP JUMPDEST PUSH32 0x4465726573793A20546172676574732063616E6E6F74206265206E756C6C0000 PUSH1 0x0 DUP3 ADD MSTORE POP JUMP JUMPDEST PUSH1 0x0 PUSH2 0x36B2 PUSH1 0x1E DUP4 PUSH2 0x2772 JUMP JUMPDEST SWAP2 POP PUSH2 0x36BD DUP3 PUSH2 0x367C JUMP JUMPDEST PUSH1 0x20 DUP3 ADD SWAP1 POP SWAP2 SWAP1 POP JUMP JUMPDEST PUSH1 0x0 PUSH1 0x20 DUP3 ADD SWAP1 POP DUP2 DUP2 SUB PUSH1 0x0 DUP4 ADD MSTORE PUSH2 0x36E1 DUP2 PUSH2 0x36A5 JUMP JUMPDEST SWAP1 POP SWAP2 SWAP1 POP JUMP JUMPDEST PUSH32 0x4465726573793A20546172676574732049504653206861736865732063616E6E PUSH1 0x0 DUP3 ADD MSTORE PUSH32 0x6F74206265206E756C6C00000000000000000000000000000000000000000000 PUSH1 0x20 DUP3 ADD MSTORE POP JUMP JUMPDEST PUSH1 0x0 PUSH2 0x3744 PUSH1 0x2A DUP4 PUSH2 0x2772 JUMP JUMPDEST SWAP2 POP PUSH2 0x374F DUP3 PUSH2 0x36E8 JUMP JUMPDEST PUSH1 0x40 DUP3 ADD SWAP1 POP SWAP2 SWAP1 POP JUMP JUMPDEST PUSH1 0x0 PUSH1 0x20 DUP3 ADD SWAP1 POP DUP2 DUP2 SUB PUSH1 0x0 DUP4 ADD MSTORE PUSH2 0x3773 DUP2 PUSH2 0x3737 JUMP JUMPDEST SWAP1 POP SWAP2 SWAP1 POP JUMP JUMPDEST PUSH32 0x4465726573793A205461726765747320616E6420746172676574734950465348 PUSH1 0x0 DUP3 ADD MSTORE PUSH32 0x6173686573206172726179206D7573742068617665207468652073616D65206C PUSH1 0x20 DUP3 ADD MSTORE PUSH32 0x656E677468000000000000000000000000000000000000000000000000000000 PUSH1 0x40 DUP3 ADD MSTORE POP JUMP JUMPDEST PUSH1 0x0 PUSH2 0x37FC PUSH1 0x45 DUP4 PUSH2 0x2772 JUMP JUMPDEST SWAP2 POP PUSH2 0x3807 DUP3 PUSH2 0x377A JUMP JUMPDEST PUSH1 0x60 DUP3 ADD SWAP1 POP SWAP2 SWAP1 POP JUMP JUMPDEST PUSH1 0x0 PUSH1 0x20 DUP3 ADD SWAP1 POP DUP2 DUP2 SUB PUSH1 0x0 DUP4 ADD MSTORE PUSH2 0x382B DUP2 PUSH2 0x37EF JUMP JUMPDEST SWAP1 POP SWAP2 SWAP1 POP JUMP JUMPDEST PUSH32 0x4465726573793A20526576696577466F726D496E64657820696E76616C696400 PUSH1 0x0 DUP3 ADD MSTORE POP JUMP JUMPDEST PUSH1 0x0 PUSH2 0x3868 PUSH1 0x1F DUP4 PUSH2 0x2772 JUMP JUMPDEST SWAP2 POP PUSH2 0x3873 DUP3 PUSH2 0x3832 JUMP JUMPDEST PUSH1 0x20 DUP3 ADD SWAP1 POP SWAP2 SWAP1 POP JUMP JUMPDEST PUSH1 0x0 PUSH1 0x20 DUP3 ADD SWAP1 POP DUP2 DUP2 SUB PUSH1 0x0 DUP4 ADD MSTORE PUSH2 0x3897 DUP2 PUSH2 0x385B JUMP JUMPDEST SWAP1 POP SWAP2 SWAP1 POP JUMP JUMPDEST PUSH32 0x4465726573793A207265776172645065725265766965772063616E6E6F742062 PUSH1 0x0 DUP3 ADD MSTORE PUSH32 0x6520656D70747900000000000000000000000000000000000000000000000000 PUSH1 0x20 DUP3 ADD MSTORE POP JUMP JUMPDEST PUSH1 0x0 PUSH2 0x38FA PUSH1 0x27 DUP4 PUSH2 0x2772 JUMP JUMPDEST SWAP2 POP PUSH2 0x3905 DUP3 PUSH2 0x389E JUMP JUMPDEST PUSH1 0x40 DUP3 ADD SWAP1 POP SWAP2 SWAP1 POP JUMP JUMPDEST PUSH1 0x0 PUSH1 0x20 DUP3 ADD SWAP1 POP DUP2 DUP2 SUB PUSH1 0x0 DUP4 ADD MSTORE PUSH2 0x3929 DUP2 PUSH2 0x38ED JUMP JUMPDEST SWAP1 POP SWAP2 SWAP1 POP JUMP JUMPDEST PUSH32 0x4465726573793A204E616D65206475706C696361746564000000000000000000 PUSH1 0x0 DUP3 ADD MSTORE POP JUMP JUMPDEST PUSH1 0x0 PUSH2 0x3966 PUSH1 0x17 DUP4 PUSH2 0x2772 JUMP JUMPDEST SWAP2 POP PUSH2 0x3971 DUP3 PUSH2 0x3930 JUMP JUMPDEST PUSH1 0x20 DUP3 ADD SWAP1 POP SWAP2 SWAP1 POP JUMP JUMPDEST PUSH1 0x0 PUSH1 0x20 DUP3 ADD SWAP1 POP DUP2 DUP2 SUB PUSH1 0x0 DUP4 ADD MSTORE PUSH2 0x3995 DUP2 PUSH2 0x3959 JUMP JUMPDEST SWAP1 POP SWAP2 SWAP1 POP JUMP JUMPDEST PUSH1 0x0 PUSH2 0x39A7 DUP3 PUSH2 0x23F7 JUMP JUMPDEST SWAP2 POP PUSH2 0x39B2 DUP4 PUSH2 0x23F7 JUMP JUMPDEST SWAP3 POP DUP2 PUSH32 0xFFFFFFFFFFFFFFFFFFFFFFFFFFFFFFFFFFFFFFFFFFFFFFFFFFFFFFFFFFFFFFFF DIV DUP4 GT DUP3 ISZERO ISZERO AND ISZERO PUSH2 0x39EB JUMPI PUSH2 0x39EA PUSH2 0x312F JUMP JUMPDEST JUMPDEST DUP3 DUP3 MUL SWAP1 POP SWAP3 SWAP2 POP POP JUMP JUMPDEST PUSH32 0x4465726573793A206D73672E76616C756520696E76616C696400000000000000 PUSH1 0x0 DUP3 ADD MSTORE POP JUMP JUMPDEST PUSH1 0x0 PUSH2 0x3A2C PUSH1 0x19 DUP4 PUSH2 0x2772 JUMP JUMPDEST SWAP2 POP PUSH2 0x3A37 DUP3 PUSH2 0x39F6 JUMP JUMPDEST PUSH1 0x20 DUP3 ADD SWAP1 POP SWAP2 SWAP1 POP JUMP JUMPDEST PUSH1 0x0 PUSH1 0x20 DUP3 ADD SWAP1 POP DUP2 DUP2 SUB PUSH1 0x0 DUP4 ADD MSTORE PUSH2 0x3A5B DUP2 PUSH2 0x3A1F JUMP JUMPDEST SWAP1 POP SWAP2 SWAP1 POP JUMP JUMPDEST PUSH1 0x0 PUSH2 0x3A6D DUP3 PUSH2 0x23F7 JUMP JUMPDEST SWAP2 POP PUSH32 0xFFFFFFFFFFFFFFFFFFFFFFFFFFFFFFFFFFFFFFFFFFFFFFFFFFFFFFFFFFFFFFFF DUP3 SUB PUSH2 0x3A9F JUMPI PUSH2 0x3A9E PUSH2 0x312F JUMP JUMPDEST JUMPDEST PUSH1 0x1 DUP3 ADD SWAP1 POP SWAP2 SWAP1 POP JUMP INVALID LOG2 PUSH5 0x6970667358 0x22 SLT KECCAK256 0xD6 PUSH17 0xD399303B4C0212EA3A3644068F5C862B67 LOG1 0xDA 0xF8 SWAP15 0xD8 DUP12 SWAP4 STOP SWAP10 PUSH18 0xDD444E64736F6C634300080E003300000000 "
				},
				"gasEstimates": {
					"creation": {
						"codeDepositCost": "3014400",
						"executionCost": "infinite",
						"totalCost": "infinite"
					},
					"external": {
						"closeReviewRequest(string)": "infinite",
						"contractVersion()": "infinite",
						"createRequest(string,address[],string[],string[],string,uint256,uint256)": "infinite",
						"createReviewForm(string[],string[][],uint8[])": "infinite",
						"getRequest(string)": "infinite",
						"getReviewForm(uint256)": "infinite",
						"getReviewRequestsNames()": "infinite",
						"reviewFormsTotal()": "2496",
						"submitReview(string,uint8,string[])": "infinite"
					},
					"internal": {
						"hasSubmittedReview(address,string memory,uint8)": "infinite",
						"isReviewer(address,string memory)": "infinite"
					}
				},
				"methodIdentifiers": {
					"closeReviewRequest(string)": "be2761d0",
					"contractVersion()": "a0a8e460",
					"createRequest(string,address[],string[],string[],string,uint256,uint256)": "d9370019",
					"createReviewForm(string[],string[][],uint8[])": "0677b535",
					"getRequest(string)": "85b92413",
					"getReviewForm(uint256)": "b6fc76af",
					"getReviewRequestsNames()": "dd526054",
					"reviewFormsTotal()": "86be6d51",
					"submitReview(string,uint8,string[])": "629147e8"
				}
			},
			"storageLayout": {
				"storage": [
					{
						"astId": 56,
						"contract": "contracts/DeresyRequests.sol:DeresyRequests",
						"label": "reviewRequests",
						"offset": 0,
						"slot": "0",
						"type": "t_mapping(t_string_memory_ptr,t_struct(ReviewRequest)51_storage)"
					},
					{
						"astId": 59,
						"contract": "contracts/DeresyRequests.sol:DeresyRequests",
						"label": "reviewRequestNames",
						"offset": 0,
						"slot": "1",
						"type": "t_array(t_string_storage)dyn_storage"
					},
					{
						"astId": 61,
						"contract": "contracts/DeresyRequests.sol:DeresyRequests",
						"label": "reviewFormsTotal",
						"offset": 0,
						"slot": "2",
						"type": "t_uint256"
					},
					{
						"astId": 64,
						"contract": "contracts/DeresyRequests.sol:DeresyRequests",
						"label": "contractVersion",
						"offset": 0,
						"slot": "3",
						"type": "t_string_storage"
					},
					{
						"astId": 68,
						"contract": "contracts/DeresyRequests.sol:DeresyRequests",
						"label": "reviewForms",
						"offset": 0,
						"slot": "4",
						"type": "t_array(t_struct(reviewForm)17_storage)dyn_storage"
					}
				],
				"types": {
					"t_address": {
						"encoding": "inplace",
						"label": "address",
						"numberOfBytes": "20"
					},
					"t_array(t_address)dyn_storage": {
						"base": "t_address",
						"encoding": "dynamic_array",
						"label": "address[]",
						"numberOfBytes": "32"
					},
					"t_array(t_array(t_string_storage)dyn_storage)dyn_storage": {
						"base": "t_array(t_string_storage)dyn_storage",
						"encoding": "dynamic_array",
						"label": "string[][]",
						"numberOfBytes": "32"
					},
					"t_array(t_enum(QuestionType)5)dyn_storage": {
						"base": "t_enum(QuestionType)5",
						"encoding": "dynamic_array",
						"label": "enum DeresyRequests.QuestionType[]",
						"numberOfBytes": "32"
					},
					"t_array(t_string_storage)dyn_storage": {
						"base": "t_string_storage",
						"encoding": "dynamic_array",
						"label": "string[]",
						"numberOfBytes": "32"
					},
					"t_array(t_struct(Review)25_storage)dyn_storage": {
						"base": "t_struct(Review)25_storage",
						"encoding": "dynamic_array",
						"label": "struct DeresyRequests.Review[]",
						"numberOfBytes": "32"
					},
					"t_array(t_struct(reviewForm)17_storage)dyn_storage": {
						"base": "t_struct(reviewForm)17_storage",
						"encoding": "dynamic_array",
						"label": "struct DeresyRequests.reviewForm[]",
						"numberOfBytes": "32"
					},
					"t_bool": {
						"encoding": "inplace",
						"label": "bool",
						"numberOfBytes": "1"
					},
					"t_enum(QuestionType)5": {
						"encoding": "inplace",
						"label": "enum DeresyRequests.QuestionType",
						"numberOfBytes": "1"
					},
					"t_mapping(t_string_memory_ptr,t_struct(ReviewRequest)51_storage)": {
						"encoding": "mapping",
						"key": "t_string_memory_ptr",
						"label": "mapping(string => struct DeresyRequests.ReviewRequest)",
						"numberOfBytes": "32",
						"value": "t_struct(ReviewRequest)51_storage"
					},
					"t_string_memory_ptr": {
						"encoding": "bytes",
						"label": "string",
						"numberOfBytes": "32"
					},
					"t_string_storage": {
						"encoding": "bytes",
						"label": "string",
						"numberOfBytes": "32"
					},
					"t_struct(Review)25_storage": {
						"encoding": "inplace",
						"label": "struct DeresyRequests.Review",
						"members": [
							{
								"astId": 19,
								"contract": "contracts/DeresyRequests.sol:DeresyRequests",
								"label": "reviewer",
								"offset": 0,
								"slot": "0",
								"type": "t_address"
							},
							{
								"astId": 21,
								"contract": "contracts/DeresyRequests.sol:DeresyRequests",
								"label": "targetIndex",
								"offset": 20,
								"slot": "0",
								"type": "t_uint8"
							},
							{
								"astId": 24,
								"contract": "contracts/DeresyRequests.sol:DeresyRequests",
								"label": "answers",
								"offset": 0,
								"slot": "1",
								"type": "t_array(t_string_storage)dyn_storage"
							}
						],
						"numberOfBytes": "64"
					},
					"t_struct(ReviewRequest)51_storage": {
						"encoding": "inplace",
						"label": "struct DeresyRequests.ReviewRequest",
						"members": [
							{
								"astId": 27,
								"contract": "contracts/DeresyRequests.sol:DeresyRequests",
								"label": "sponsor",
								"offset": 0,
								"slot": "0",
								"type": "t_address"
							},
							{
								"astId": 30,
								"contract": "contracts/DeresyRequests.sol:DeresyRequests",
								"label": "reviewers",
								"offset": 0,
								"slot": "1",
								"type": "t_array(t_address)dyn_storage"
							},
							{
								"astId": 33,
								"contract": "contracts/DeresyRequests.sol:DeresyRequests",
								"label": "targets",
								"offset": 0,
								"slot": "2",
								"type": "t_array(t_string_storage)dyn_storage"
							},
							{
								"astId": 36,
								"contract": "contracts/DeresyRequests.sol:DeresyRequests",
								"label": "targetsIPFSHashes",
								"offset": 0,
								"slot": "3",
								"type": "t_array(t_string_storage)dyn_storage"
							},
							{
								"astId": 38,
								"contract": "contracts/DeresyRequests.sol:DeresyRequests",
								"label": "formIpfsHash",
								"offset": 0,
								"slot": "4",
								"type": "t_string_storage"
							},
							{
								"astId": 40,
								"contract": "contracts/DeresyRequests.sol:DeresyRequests",
								"label": "rewardPerReview",
								"offset": 0,
								"slot": "5",
								"type": "t_uint256"
							},
							{
								"astId": 44,
								"contract": "contracts/DeresyRequests.sol:DeresyRequests",
								"label": "reviews",
								"offset": 0,
								"slot": "6",
								"type": "t_array(t_struct(Review)25_storage)dyn_storage"
							},
							{
								"astId": 46,
								"contract": "contracts/DeresyRequests.sol:DeresyRequests",
								"label": "isClosed",
								"offset": 0,
								"slot": "7",
								"type": "t_bool"
							},
							{
								"astId": 48,
								"contract": "contracts/DeresyRequests.sol:DeresyRequests",
								"label": "fundsLeft",
								"offset": 0,
								"slot": "8",
								"type": "t_uint256"
							},
							{
								"astId": 50,
								"contract": "contracts/DeresyRequests.sol:DeresyRequests",
								"label": "reviewFormIndex",
								"offset": 0,
								"slot": "9",
								"type": "t_uint256"
							}
						],
						"numberOfBytes": "320"
					},
					"t_struct(reviewForm)17_storage": {
						"encoding": "inplace",
						"label": "struct DeresyRequests.reviewForm",
						"members": [
							{
								"astId": 8,
								"contract": "contracts/DeresyRequests.sol:DeresyRequests",
								"label": "questions",
								"offset": 0,
								"slot": "0",
								"type": "t_array(t_string_storage)dyn_storage"
							},
							{
								"astId": 12,
								"contract": "contracts/DeresyRequests.sol:DeresyRequests",
								"label": "questionTypes",
								"offset": 0,
								"slot": "1",
								"type": "t_array(t_enum(QuestionType)5)dyn_storage"
							},
							{
								"astId": 16,
								"contract": "contracts/DeresyRequests.sol:DeresyRequests",
								"label": "choices",
								"offset": 0,
								"slot": "2",
								"type": "t_array(t_array(t_string_storage)dyn_storage)dyn_storage"
							}
						],
						"numberOfBytes": "96"
					},
					"t_uint256": {
						"encoding": "inplace",
						"label": "uint256",
						"numberOfBytes": "32"
					},
					"t_uint8": {
						"encoding": "inplace",
						"label": "uint8",
						"numberOfBytes": "1"
					}
				}
			},
			"userdoc": {
				"kind": "user",
				"methods": {},
				"version": 1
			}
		}
	}
}